:020000042001D9
:100000009721FF5F9381819F97D200009382C291D5
:10001000739052301701FFDF1301C1FE9700FFDF1D
:10002000938040FE638300008290732540F18145F8
:1000300001460D209700FFDF9380C0FC6383000022
:100040008290970200009382C20073905230032383
:100050000000F5BF06849721FF5F9381219A173135
:10006000FF5F130161A2137101FF01E1971201000B
:10007000938202871703FF5F1303C3F89713FF5F91
:100080009383031D638C6200635A730003A502000F
:1000900091022320A3001103E34A73FE971201008B
:1000A000938202841703FF5F1303C3F59703FF5F77
:1000B000938343F5638C6200635A730003A50200C7
:1000C00091022320A3001103E34A73FE1713FF5F7D
:1000D00013030318938301896357730023200300DC
:1000E0001103E34D73FE11C2029617D500001305EC
:1000F00025A0EFC0701CEFC01023F3271030370786
:10010000010013078702F98F99C7F32700300967A9
:10011000D98F739007300545970501009385C5CCAD
:1001200017060100130686CCEF00D046EFC0301A48
:06013000A28082808280A3
:10018000130101FF23261100232481001304010120
:1001900037F50120130585FC97100000E780A05C6F
:1001A000232AA4FE032481008320C100130101013E
:1001B00067800000130101FE232E1100232C810013
:1001C0001304010293050500232AA4FE032544FF1E
:1001D00037F601201306F6FC2328A4FE13050600BB
:1001E000032604FF2326B4FE9305060097100000A3
:1001F000E78060572324A4FE032481018320C101EA
:100200001301010267800000130101FD2326110282
:1002100023248102130401031386050093060500BD
:10022000232AA4FE2328B4FE130500002326A4FEDF
:100230002324C4FE2322D4FE6F0040000325C4FE05
:10024000832504FF6352B5046F004000032544FF7B
:100250008325C4FE939525003305B500832505004D
:1002600037F50120130555FD97100000E780A04FDA
:100270002320A4FE6F0040000325C4FE13051500D3
:100280002326A4FE6FF09FFB37F501201305D5FC54
:1002900097100000E780204D232EA4FC0324810248
:1002A0008320C1021301010367800000130101FADA
:1002B000232E1104232C8104130401061386050048
:1002C00093060500232AA4FE2328B4FE130500008C
:1002D000232EA4FA232CA4FA2324A4FC2326C4FA54
:1002E0002324D4FA6F004000032584FC930580008A
:1002F00063E4A51A6F004000130500002322A4FC4C
:100300006F004000032544FC832584FC63E4A506BC
:100310006F004000032544FF832544FC139625000D
:100320003305C50003250500032604FF832684FC4E
:10033000B385B64093952500B305B60083A50500A7
:100340003305B5028325C4FB032684FB3305A600D1
:100350003336C500B385C500232CA4FA232EB4FA86
:100360006F004000032544FC130515002322A4FC64
:100370006FF05FF9032584FC130515002322A4FC0C
:100380006F004000032544FC9305800063E2A50C48
:100390006F004000032544FF832544FC139625008D
:1003A0003305C50003250500032604FF832684FCCE
:1003B00093869600B385B64093952500B305B600A5
:1003C00083A505003305B50293050000232AB4FA7E
:1003D0002328A4FA032544FB832504FB13D6250117
:1003E0009316E50033E6C6009396E50013D70501A2
:1003F000131505013365E500939505013305A60046
:10040000B385B60033B6D5003305C5002328B4FA4A
:10041000232AA4FA032504FB832544FB032684FB3B
:100420008326C4FBB385B6003305A6003336C5006A
:10043000B385C500232CA4FA232EB4FA6F00400024
:10044000032544FC130515002322A4FC6FF09FF341
:10045000035584FB832584FC939525001306C4FC77
:10046000B305B60023A0A5000355A4FB8325C4FB58
:10047000139605013365C50093D50541232EB4FAC3
:10048000232CA4FA6F004000032584FC13051500FB
:100490002324A4FC6FF05FE5032584FB13150501FD
:1004A0008325C4FE3385A5002326A4FE1305000082
:1004B0002324A4FC6F004000032584FC93058000E6
:1004C00063EEA5026F004000032584FC1315250090
:1004D0009305C4FCB385A50083A50500032644FF4E
:1004E0003305A6002320B5006F004000032584FCDF
:1004F000130515002324A4FC6FF01FFC032544FF03
:1005000097100000E7800010032481058320C105B7
:100510001301010667800000130101F12326110E6B
:100520002324810E1304010F93870600130806008D
:10053000930807009382050013030500232AA4FEF5
:100540002328B4FE2326D4FE2324C4FE2322E4FE63
:10055000032544FE8345050003451500131585005A
:1005600033E5A500232EA4FA032544FE8345250088
:10057000034535001375F5001315850033E5A50017
:100580002320A4FC032544FE8345450093F5C50FB5
:10059000034555001315850033E5A5002322A4FC6F
:1005A000032544FE83456500034575001375F5007A
:1005B0001315850033E5A5002324A4FC032544FE80
:1005C0008345850093F5C50F0345950013158500F8
:1005D00033E5A5002326A4FC032544FE8345A5009E
:1005E0000345B5001375F5001315850033E5A50027
:1005F0002328A4FC032544FE8345C50093F5C50FBD
:100600000345D5001315850033E5A500232AA4FC76
:10061000032544FE8345E5000345F5001375F50009
:100620001315850033E5A500232CA4FC1305000059
:10063000232EA4FC2320A4FE2328F4F2232614F363
:10064000232404F3232254F2232064F26F00400099
:10065000032504FE9305000163EAA5026F00400034
:10066000032504FE13152500930584F73385A500A3
:10067000930500002320B5006F004000032504FE11
:10068000130515002320A4FE6FF09FFC032504FF33
:10069000832584FE130684F79306C4FB130744F3F3
:1006A000232EC4F097100000E78080E60325C4F1F4
:1006B00097100000E78040A40325C4F197000000D4
:1006C000E780000E130500002320A4FE6F00400009
:1006D000032504FE9305F00063EEA5026F004000C1
:1006E000032544FE832504FE3305B50003450501BB
:1006F00093952500130644F3B305B60023A0A50087
:100700006F004000032504FE130515002320A4FEFE
:100710006FF01FFC13050000232AA4F6930584F74D
:10072000130644F3232CA4F013850500930506005B
:1007300097100000E780C0D6032584F12320A4FE93
:100740006F004000032504FE9305F00063EEA50250
:100750006F004000032504FE93152500130684F75F
:10076000B305B60083A50500032644FF3305A600A4
:100770002300B5006F004000032504FE130515009B
:100780002320A4FE6FF01FFC130500000324810E3C
:100790008320C10E1301010F67800000130101FACD
:1007A000232E1104232C8104130401069305050054
:1007B000232AA4FE130500002326A4FA2322B4FA58
:1007C0006F0040000325C4FA9305000163EEA50203
:1007D0006F004000032544FF8325C4FA939525004C
:1007E0003305B50003250500130604FBB305B60069
:1007F00023A0A5006F0040000325C4FA13051500CF
:100800002326A4FA6FF01FFC032544FFB7F501204F
:100810009385C5FD97100000E78080C8032544FF3D
:100820000325050413557500930500003385A54085
:100830002324A4FA2326B4FA6F0040000325C4FA47
:100840009305000163E8A5046F004000032584FAC6
:100850008325C4FA93952500130604FB3306B600DE
:1008600003260600832644FFB385B60083A6050051
:100870003346D6003375C50033C5A60023A0A500B6
:100880006F0040000325C4FA130515002326A4FABF
:100890006FF0DFFA032481058320C10513010106EF
:1008A00067800000130101F32326110C2324910C0F
:1008B0002322210D2320310D232E410B130A050085
:1008C00037D5F880130585FC232CA10A37651FA4B2
:1008D0001305D552232AA10A37254E651305E5389D
:1008E0002328A10A3745121D130555922326A10A74
:1008F00037553C25130515D22324A10A3715C2CB41
:100900001305D5162322A10A372572911305C5E1D7
:100910002320A10A37A5A7251305E56E232EA108DC
:1009200037F5012093050502130991019309300859
:10093000130509001386090097100000E78040D5D1
:1009400097100000E78000CB930405001305910089
:100950001307C109930509001386090093060000D7
:1009600097000000E78080BB97100000E78080C8F8
:1009700023220A00330595402320AA00032AC10B35
:100980008329010C0329410C8324810C8320C10C91
:100990001301010D67800000130101F4232E110AD9
:1009A000232C910A232A210B37D5F880130585FCC7
:1009B0002328A10A37651FA41305D5522326A10AAF
:1009C00037254E651305E5382324A10A3745121D46
:1009D000130555922322A10A37553C25130515D23C
:1009E0002320A10A3715C2CB1305D516232EA10843
:1009F000372572911305C5E1232CA10837A5A7253A
:100A00001305E56E232AA10837F501209305050299
:100A1000930411011309300813850400130609001B
:100A200097100000E780C0C61305110013074109A5
:100A30009385040013060900930600009700000048
:100A4000E780C0AD1305300F834511006394A50CFA
:100A5000034521009305F00F631EB50A03453100DD
:100A60009305700C6318B50A034541009305000710
:100A70006312B50A034551009305F003631CB508E2
:100A800003456100930540096316B50803457100ED
:100A900063120508034581009305500E631CB506DB
:100AA000034591009305A0026316B5060345A10016
:100AB0009305D0076310B5060345B1009305B00F49
:100AC000631AB5040345C1009305B0046314B5046B
:100AD0000345D1009305D003631EB5020345E10031
:100AE000930530036318B5020345F10093055000E8
:100AF0006312B502034501019305900D631CB50017
:100B000037F501201305250C97100000E780A0D7CA
:100B10006F00002737F501201305550D97100000D1
:100B2000E78060D637F501201305C50E9710000049
:100B3000E78060D537F501209304350A9305300F1F
:100B40001385040097100000E780E0C19305F00FC3
:100B50001385040097100000E780E0C09305700C37
:100B60001385040097100000E780E0BF930500079D
:100B70001385040097100000E780E0BE9305F003A2
:100B80001385040097100000E780E0BD930540093D
:100B90001385040097100000E780E0BC1385040073
:100BA0009305000097100000E780E0BB9305500E0E
:100BB0001385040097100000E780E0BA1309A00035
:100BC0001305090097100000E78000BD9305A002FF
:100BD0001385040097100000E780E0B89305D00764
:100BE0001385040097100000E780E0B79305B00F6D
:100BF0001385040097100000E780E0B69305B00469
:100C00001385040097100000E780E0B59305D0033A
:100C10001385040097100000E780E0B493053003CB
:100C20001385040097100000E780E0B3930550009F
:100C30001385040097100000E780E0B29305900D43
:100C40001385040097100000E780E0B11305090048
:100C500097100000E78040B437F501201305D50F49
:100C600097100000E78020C283451100138504001F
:100C700097100000E78020AF834521001385040012
:100C800097100000E78020AE8345310013850400F3
:100C900097100000E78020AD8345410013850400D4
:100CA00097100000E78020AC8345510013850400B5
:100CB00097100000E78020AB834561001385040096
:100CC00097100000E78020AA834571001385040077
:100CD00097100000E78020A9834581001385040058
:100CE00097100000E78020A8130509009710000066
:100CF000E78080AA834591001385040097100000C7
:100D0000E78060A68345A1001385040097100000CA
:100D1000E78060A58345B1001385040097100000AB
:100D2000E78060A48345C10013850400971000008C
:100D3000E78060A38345D10013850400971000006D
:100D4000E78060A28345E10013850400971000004E
:100D5000E78060A18345F10013850400971000002F
:100D6000E78060A08345010113850400971000000F
:100D7000E780609F1305090097100000E780C0A17D
:100D80000329410B8324810B8320C10B1301010C28
:100D900067800000130101EF232611102324911016
:100DA0002322211123203111232E410F232C510FF7
:100DB000232A610F2328710F2326810F2324910FEB
:100DC0002322A10F2320B10F97000000E78000BD70
:100DD0003715C2CB130CD51637553C25930C15D2BD
:100DE0003745121D130D559237254E65930DE53885
:100DF00037651FA4930AD55237D5F880130B85FCAD
:100E0000232E610D232C510D232AB10D2328A10D72
:100E10002326910D2324810D372572919309C5E175
:100E20002322310D37A5A725930BE56E2320710DE5
:100E300037F5012093040502130AD1031309300882
:100E400013050A009385040013060900971000009B
:100E5000E780008497000000E780C0792324A10286
:100E60001305D1021307010C93050A0013060900AC
:100E70009306000097F0FFFFE780406A97000000AC
:100E8000E78040772322A102232E610D232C510DF0
:100E9000232AB10D2328A10D2326910D2324810D92
:100EA0002322310D2320710D13050A0093850400C0
:100EB0001306090097000000E780807D970000007E
:100EC000E78040732320A1021305D10293050A0095
:100ED00013060900930600001307010C97F0FFFFAB
:100EE000E780C06397000000E780C070232EA10058
:100EF000232E610D232C510D232AB10D2328A10D82
:100F00002326910D2324810D2322310D2320710DE1
:100F100013050A00938504001306090097000000DA
:100F2000E780007797000000E780C06C232CA100C9
:100F30001305D10293050A00130609009306000069
:100F40001307010C97F0FFFFE780405D970000005A
:100F5000E780406A232AA100232E610D232C510D26
:100F6000232AB10D2328A10D2326910D2324810DC1
:100F70002322310D2320710D13050A0093850400EF
:100F80001306090097000000E780807097000000BA
:100F9000E78040662328A1001305D10293050A00CB
:100FA00013060900930600001307010C97F0FFFFDA
:100FB000E780C05697000000E780C0632326A100A9
:100FC000232E610D232C510D232AB10D2328A10DB1
:100FD0002326910D2324810D2322310D2320710D11
:100FE00013050A009385040013060900970000000A
:100FF000E780006A97000000E780C05F130C0500DF
:101000001305D10293050A00130609009306000098
:101010001307010C97F0FFFFE78040500325810282
:1010200083254102338AA54097000000E780805C59
:101030001309050037F501209304B50A1385040050
:1010400013060A009306000097000000E780A071D5
:10105000032501028325C1013386A54013850400C1
:101060009306000097000000E780E06F03258101F0
:10107000832541013386A5401385040093060000B3
:1010800097000000E780206E032501018325C10041
:101090003386A540138504009306000097000000E6
:1010A000E780606C330689411385040093060000D5
:1010B00097000000E780206B13050000832D010ED0
:1010C000032D410E832C810E032CC10E832B010FA7
:1010D000032B410F832A810F032AC10F832901109B
:1010E00003294110832481108320C11013010111B1
:1010F00067800000930EF00F032305022320650490
:101100000323C50193538300232E7502337ED3013D
:10111000232CC5030323850193538300232A7502DF
:10112000337ED3012328C503032345019353830052
:1011300023267502337ED3012324C503032305012F
:101140009353830023227502337ED3012320C503EA
:101150000323C50093538300232E7500337ED301F0
:10116000232CC5010323850093538300232A750094
:10117000337ED3012328C501032345009353830005
:1011800023267500337ED3012324C50103230500E4
:101190009353830023227500337ED3012320C5019E
:1011A000678000009302050013830500130500000B
:1011B00093F31200B3037040337E73003305C5010F
:1011C00093D212001313130093F31200B303704071
:1011D000337E73003305C50193D21200131313003D
:1011E00093F31200B3037040337E73003305C501DF
:1011F00093D212001313130093F31200B303704041
:10120000337E73003305C50193D21200131313000C
:1012100093F31200B3037040337E73003305C501AE
:1012200093D212001313130093F31200B303704010
:10123000337E73003305C50193D2120013131300DC
:1012400093F31200B3037040337E73003305C5017E
:1012500093D212001313130093F31200B3037040E0
:10126000337E73003305C50193D2120013131300AC
:1012700093F31200B3037040337E73003305C5014E
:1012800093D212001313130093F31200B3037040B0
:10129000337E73003305C50193D21200131313007C
:1012A00093F31200B3037040337E73003305C5011E
:1012B00093D212001313130093F31200B303704080
:1012C000337E73003305C50193D21200131313004C
:1012D00093F31200B3037040337E73003305C501EE
:1012E00093D212001313130093F31200B303704050
:1012F000337E73003305C50193D21200131313001C
:1013000093F31200B3037040337E73003305C501BD
:1013100093D212001313130093F31200B30370401F
:10132000337E73003305C501678000009305050017
:1013300013156500939585003305B500678000009F
:10134000130101FA23202107232E3105232C410507
:10135000232A5105232861052326710523248105AD
:1013600023221104130A0500938A050013090000C3
:10137000130B0000930B0000B7490100370C01006C
:10138000130CFCFF13132900B30F4301338F6A00C2
:10139000930E0A0003A50E0083250F00EFF09FE0D7
:1013A000330BAB00B333AB00B38B7B00938E4E009B
:1013B000130FCFFFE3D0DFFF930F0A0263CCDF05EB
:1013C000130F4F0203A50E0083250F00EFF09FDDE2
:1013D00013532501131E23003303C3019313E500A8
:1013E00013DEE3013303C301139E2300B383C30160
:1013F00033BEC3013303C301B38B6B00330B7B00DC
:1014000033337B00B38B6B00938E4E00130FCFFFF3
:10141000E3DADFFB931E2900B30ED141337F8B014A
:1014200023A0EE05135B0B01139F0B01336BEB0144
:1014300093DB0B011309190013038000E35423F518
:1014400003AF0E04131B0B01330F6F0123A0EE0536
:1014500013030104930F0A028323030023207A005D
:101460001303C3FF130A4A00E3D84FFF13850FFE8F
:10147000EF000019032901068329C105032A81050C
:10148000832A4105032B0105832BC104032C81040E
:10149000832041041301010667800000130E000041
:1014A000130F05040323050083A305003303730012
:1014B000330E6E009373FE0F23207500135E8E00B3
:1014C0001305450093854500E35EAFFC678000008F
:1014D000130E0000B70E0100938EFEFF130F0502DE
:1014E0000323050083A3050033037300330E6E004E
:1014F000B373DE0123207500135E0E011305450052
:1015000093854500E35EAFFC67800000130101FE98
:10151000232E2101232C3101232A410123285101AB
:101520002326610123241100130905009389050076
:10153000130A0600938A0600130B070023200B00F2
:1015400023220B0023240B0023260B0023280B004F
:10155000232A0B00232C0B00232E0B0023200B022D
:1015600013030B02130E0B00930E100063D63E0301
:1015700083430900034F1900131F8F00B3E3E301F6
:1015800023207E00130E4E00130929009389E9FFE2
:10159000E34E6EFC6F00C001638C090083430900B9
:1015A0009383031023207E009389F9FF6F0080004E
:1015B0002320DE0113050A0093050B00EFF05FF115
:1015C00013050A0093850A00EFF09FD7E34830F730
:1015D0000329C10183298101032A4101832A0101D1
:1015E000032BC100832081001301010267800000EA
:1015F000732500B0678000001305010067800000BC
:10160000130E0500B70E0100938EFEFF8325050023
:10161000B3F2D5012320550093D505011303C5016D
:1016200083224500B3855500B3F2D501232255002E
:1016300093D5050113054500E31465FE832245009B
:10164000B385550093F235002322550093D525002C
:101650009383050093932300B3857500130503FE60
:1016600083224500B3855500B3F2D50123225500EE
:1016700093D5050113054500E31465FE832245005B
:10168000B38555002322B50067800000B3C7A500CD
:101690008D8B3307C50081E78D4763EEC700AA87AE
:1016A0006370E50A83C6050085078505A38FD7FE0D
:1016B000E3EAE7FE828093763500AA8791CA83C663
:1016C000050085078505A38FD7FE93F63700FDB784
:1016D0009376C7FF138606FE63F0C70683A3050053
:1016E00083A2450083AF850003AFC50083AE05012B
:1016F00003AE450103A3850183A8C5019385450277
:1017000023A0770003A8C5FF23A2570023A4F70155
:1017100023A6E70123A8D70123AAC70123AC6700AA
:1017200023AE17019387470223AE07FF75B7904199
:101730009107910523AEC7FEE3EBD7FEE3E4E7F69E
:101740008280397132D436D63AD83EDA42DC46DE6F
:101750002E860C45341006CE36C6A122F2402161F9
:101760008280397132D436D63EDA2ED23AD842DC73
:1017700046DE9707FF5F938767A89C4354102A862D
:101780008C473E8506CE36C6292AF24021618280EA
:10179000104511A89707FF5F938747A69C43AA852A
:1017A00090473E8509A0011122CC06CE2A8409C9A2
:1017B0001C5D99E732C62EC4EF10103B3246A2459D
:1017C0001C46FD171CC663D00702184E63C7E7000E
:1017D00093F7F50F29476398E70022856244F240AA
:1017E00005616F1000771C4213F5F50F1387170082
:1017F00018C22380B700F2406244056182809707D7
:10180000FF5F9387A79F2E86AA85884369BF39719A
:1018100022DC2A842E852EC606DE9D2897E700004E
:101820009387C78E3ED485473ED61C10B2453ECA2C
:1018300089473ECC1C5C2AD205052ED02ACE0C440A
:1018400091E722852EC6EF103032B2458397C5004E
:1018500013972701634B07008966F851D58F2396AC
:10186000F500F977FD17F98FFCD150082285EF10AC
:10187000506BFD5711E1A947F25062543E8521613A
:1018800082809707FF5F93876797AA85884341B750
:10189000AA87850703C7F7FF6DFF3385A7407D152E
:1018A000828045712326111C2322911C2320211D97
:1018B000232E311B2328611B2E89B284368B2324CF
:1018C000811C232C411B232A511B2326711B2324FB
:1018D000811B2322911B2320A11B232EB119AA892E
:1018E000EF3070001C413E853ED45D372ACA82C964
:1018F00082CB82CD82CF6388090083A7890381E7E9
:101900004E85EF1070268317C90013972701634D8A
:101910000700896603274906D58F2316F900F97752
:10192000FD17F98F2322F9068357C900A18B95C7AC
:10193000832709019DC38357C9002947E98B639217
:10194000E7068317E90063CE0704DA862686CA8590
:101950004E85EF1060572ACC01A8CA854E85EF103E
:10196000606B71D9FD573ECC8320C11C0324811CC0
:1019700062458324411C0329011C8329C11B032ABE
:10198000811B832A411B032B011B832BC11A032CB0
:10199000811A832C411A032D011A832DC1197961F3
:1019A0008280FC11BEC382C782C5014A3E8C02DA26
:1019B00002D802C202D202D602CC268413075002F9
:1019C0008347040099C36394E708B30A9440638C87
:1019D0000A02BE4723209C0023225C01D697BEC783
:1019E000AE471D47210C8507BEC5635BF700D001DC
:1019F000CA854E85EF608054631E0550130CC10EDE
:101A0000E247D6973ECC8347040099E36F10204706
:101A100093071400A303010AFD5D02CE0144A94B04
:101A2000254D930CA00283CA0700138717003AC8FC
:101A30009306A00593870AFEE3E6F64C17D700004D
:101A40001307076D8A07BA979C43BA9782870504E4
:101A500085BF4E85EF3020695C413E853ED60D3D09
:101A60002AD24E85EF3020681C453EC2925781CB6A
:101A7000924791C783C7070099C313640440C247C4
:101A80005DB78347710AE5FF93070002A303F10ADC
:101A9000FDB713641400E5B783270B00110B3ECE8E
:101AA000E3DF07FCB307F0403ECE13644400C1BF40
:101AB0009307B002E1BF4247C247834A0700850748
:101AC00063999A03832D0B0013074B0063D30D001A
:101AD000FD5D3A8B3EC865B733837D03850783CAB6
:101AE000F7FFB30DE30013870AFDE377EDFE3EC871
:101AF00091B7814DCDBF1364040851B7C24702CEE0
:101B00007247938A0AFD850733077703569783CA7E
:101B1000F7FF3ACE13870AFDE374EDFEC9BF1364E5
:101B20008400B1BFC24703C707009307800663184C
:101B3000F700C2471364042085073EC889B71364C1
:101B4000040435BFC24703C707009307C0066318E4
:101B5000F700C24785073EC8136404020DB713643B
:101B6000040131BF93074B003EC683270B00A3033C
:101B7000010A2306F112014B854D014D02C4814B30
:101B8000814C64126AD06353BD016ED00347710A61
:101B900001C7825785073ED0937724003EDC81C77A
:101BA000825789073ED0937744083EDEA9EBF2477F
:101BB00002573387E7406354E004C14E17DE00004C
:101BC000130ECE6B1D4FAE462320CC013E4685063C
:101BD00093058C00E3C1EE342322EC003297BAC7A0
:101BE000B6C51D472E8C635CD700D001CA854E85D3
:101BF000EF60C03419C16F10A024130CC10E03474D
:101C0000710A05CF1307710A2320EC000547232230
:101C1000EC003E479D46210C0507BAC72E47050735
:101C2000BAC563DCE600D001CA854E85EF6000319D
:101C300019C16F10E020130CC10EE2579DCB381173
:101C40002320EC0009472322EC003E479D46210C4F
:101C50000907BAC72E470507BAC563DCE600D001FD
:101C6000CA854E85EF60802D19C16F10601D130C61
:101C7000C10EF257130700086399E704F2470257B1
:101C8000998F6354F00441481D4E2E4797D50000AC
:101C90009385C55F2320BC00BE46050713068C0054
:101CA000E346F82A2322FC00B697BEC7BAC59D4674
:101CB000328C63DCE600D001CA854E85EF600028D7
:101CC00019C16F10E017130CC10E330DBD416354E1
:101CD000A005C1471D482E47BE4613068C000507C8
:101CE000E3CDA7292322AC0197D700009387075A99
:101CF000369D2320FC00EAC7BAC59D46328C63DCC2
:101D0000E600D001CA854E85EF60402319C16F10EF
:101D10002013130CC10E137704103E4DE31A07284D
:101D2000AE473383AD0123209C0085072322BC01ED
:101D30009AC7BEC51D47210CE35FF744D001CA8591
:101D40004E85EF60A01F19C16F10800F130CC10EDC
:101D50006F0070441364040193770402A9CF1D0B34
:101D6000137B8BFF032D0B00832C4B0093078B0001
:101D70003EC663C40C006F10E011330DA041B337B1
:101D8000A001B30C9041B38CFC409307D002A30395
:101D9000F10A85477D57E386ED042287B3669D01EE
:101DA0001374F4F7E39F0602E3840D140547E39DE3
:101DB000E7026F10200F93074B003EC69377040194
:101DC00091C7032D0B00935CFD4165B79377040425
:101DD000032D0B0089C7420D135D0D41EDB79377BD
:101DE0000420F5D3620D135D8D41F1BF937784001C
:101DF000B5CF93074B003EC683270B009043D443D7
:101E00009847DC47B2C9B6CBBACD8809BECFEF3010
:101E100040292AD789476310F508CE470C010809E5
:101E20003EC9DE4702C102C33ECBEE4702C502C730
:101E30003ECDFE473ECFEF80902B635605009307C3
:101E4000D002A303F10A9307700497D4000093848F
:101E5000E44463D6570197D4000093846444137418
:101E6000F4F7014B8D4D014D6F00E07C1D0B137B92
:101E70008BFF83250B0003264B0093078B0008097B
:101E80003EC6EFA0206ECA47BEC9DA47BECBEA47BE
:101E9000BECDFA479DBF85476316F502FE4763D660
:101EA00007009307D002A303F10A9307700497D4A5
:101EB00000009384243FE3D457FB97D4000093841D
:101EC000A43E71BF93FBFAFD93071004639BFB04D0
:101ED000930700032304F10A1307100693078007F2
:101EE0006384EA0093078005A304F10A9307300690
:101EF0001364240063D0B73393851D004E85EF3003
:101F0000A03CAA84631B05308357C90093E70704EC
:101F10002316F9008357C90093F70704E38607A443
:101F200091B4FD57638DFD2E93077004014B6396AA
:101F3000FB0063940D006E8B854D7E4A9367041001
:101F40003ED002DC4E4EDE486E4D63590A00B707A4
:101F5000008033CA47019307D0023EDC9307100488
:101F60006397FB2E080972C946CB6ACD52CFEFA00A
:101F700080747011EF40E06C2E86AA850809EFA0EE
:101F8000605ECA4790108C18BED8DA47080182D02C
:101F9000BEDAEA4782D282D4BEDCFA47BEDEB70799
:101FA000FC3FBED6EF8050240A481A46AA463A4D56
:101FB0000C01080942C9C2C032CB32DE36CD36C46C
:101FC0006ACF02C102C302C502C7EF804078A246B1
:101FD0007256064819E105473AD797D7000093870C
:101FE000E72C130710063EC46387EA0097D700006A
:101FF0009387072D3EC4138EFDFFA68CB7070340C1
:102000000C0132C308099018F2C442C136C56AC730
:10201000BEDE82D882DA82DCEF80101D4A46DA46C4
:10202000EA470809B2C2B6C03EDEEFA06035AA8515
:102030002A8A08097A4DEFA06043F2571646864671
:10204000BEDCCA47B2D88C18BED0DA47901008015F
:10205000BED2EA47EADEB6DABED4FA47850CBED66F
:10206000EF90404CA247264EBA4EB385470183C538
:1020700005008A429A4F2A4F72DEA38FBCFEFD579D
:10208000768D6300FE047D1E0C010809F6CEFACCA5
:10209000FECA96C8F2C616C996C47ECBFEC27ACDD9
:1020A000FAC076CF02C102C302C502C7EF80206A20
:1020B000864616462648364EC642D64F664FF64EE0
:1020C00015FD370DFE3F0C01080916C996C67ECBDB
:1020D000FEC47ACDFAC276CFF6C002C102C302C5F1
:1020E0006AC7EF8020716348A002B642A64F164F20
:1020F000864E0C01080916C97ECB7ACD76CF02C177
:1021000002C302C56AC7EF808064631C0512137A9C
:102110001A0063080A12A24766DF9305000303C68C
:10212000F700FA569387F6FF3EDF83C7F6FF638B0F
:10213000C70E13069003639AC70EA24783C7A70072
:10214000A38FF6FE668A13077004330A9A40BA5CBE
:10215000639AEB1C755763C4EC0063D69D23F91A90
:102160009386FCFF36D713F6FAFD1305100413F718
:10217000FA0F81456316A6003D071377F70F8545D3
:10218000230AE10A9307B00263D706008546B386A7
:1021900096419307D002A30AF10AA54763D0D71C42
:1021A0001307310C3A85A94513083006B3E7B60288
:1021B0001306F7FF93870703A30FF7FEB3C7B60213
:1021C0006344D81893870703A30FF6FE7917130605
:1021D000610B636EA7165C19B307F6403ED8B38D4A
:1021E0004701854763C547019377140099C3D247D8
:1021F000BE9D1374F4BF936704103ED002C4814B9C
:10220000814CE25789C71307D002A303E10A0254A5
:10221000014D8DBA014B64120DB32A8B39BB014BB2
:10222000994D21BBA38FB6FEEDBD850793F7F70F40
:1022300001BF050AA30FEAFEB3874C41E3DB07FEAB
:1022400019B7F257668A13070003BE9CF5B79307C8
:102250006004638BFB009307500413831D006383AA
:10226000FB006E83094619A06E830D461C199A86E1
:102270001308C10B78110C094E8572C9F2C046CB08
:1022800046DE1AC46ACD52CFEF2060529307700425
:10229000AA842243F258064E6397FB0093771400FA
:1022A00099E37A5A4DB593076004B38C6400639147
:1022B000FB0403C70400930700036319F7020C0132
:1022C000080972C972DE46CB46C49AC06ACD52CFA5
:1022D00002C102C302C502C7EF806047A248725E16
:1022E00011C506438547B38767403ED7BA57BE9CA2
:1022F0000C01080972C946CB6ACD52CF02C102C394
:1023000002C502C7EF80A04411E166DF1307000396
:1023100031A09386170036DF2380E700FA57E3EAFF
:1023200097FF41B713076004E39CEBE213771400B7
:102330003367B7016354900549CBD2473387FC001C
:10234000BA9D930A6006BDA03287BE8685B5050793
:102350008347F7FF0506A30FF6FEA5BD1307610B24
:1023600099E593070003230BF10A1307710B938779
:102370000603130617002300F700B1BD29CBD2478F
:102380001387170075BF63CC4C0113771400E68DDB
:1023900001C7D247B38DFC00930A700621A8D2472B
:1023A000930A7006B30DFA006346900133839D4192
:1023B000930D1300937B044002C4E3840BE4814B30
:1023C000E35190E59306F00F15A0E68D9DBF930AAB
:1023D0006006854DC5B7635097039247B38CEC40B8
:1023E00003C717000DC38507850B3EC2924703C77D
:1023F0000700E312D7FEA2473387FB00925733074B
:10240000F702BA9DFDBBA24785073EC4C5B71307B7
:102410004B003AC61377040283270B0009CB6247AF
:1024200098C37D87D8C3324BC2446FF00FD913775E
:10243000040101C7624798C3FDB71377040409C7B5
:1024400062472390E700C5B71374042065D4624740
:102450002380E700C9BF13640401937704028DC38E
:102460001D0B137B8BFF032D0B00832C4B0093075D
:102470008B003EC61374F4BF8147A303010A19BA47
:1024800093074B003EC69377040181C7032D0B00D1
:1024900031A09377040489C7035D0B00814CD9BF39
:1024A00093770420E5D7034D0B00CDBF93074B0076
:1024B0003EC6E17793C707832314F10A97D700003C
:1024C0009387C7DE3EDA032D0B00814C1364240092
:1024D0008947930A800755B793074B003EC6A3036D
:1024E000010AFD5783240B00638EFD006E86814533
:1024F0002685EF30A0332A8BE3070596B30D954070
:10250000014B95B22685EFF0AFB8AA8DD5BF136405
:1025100004019377040289CF1D0B137B8BFF032DDE
:102520000B00832C4B0093078B003EC68547B1B749
:1025300093074B003EC69377040181C7032D0B0020
:1025400031A09377040489C7035D0B00814CF9BF68
:1025500093770420E5D7034D0B00CDBF97D700003C
:10256000938707D63EDA93770402B1C31D0B137B22
:102570008BFF032D0B00832C4B0093078B003EC673
:102580009377140081CFB3679D0189CB9307000334
:102590002304F10AA304510B136424001374F4BF41
:1025A0008947E1BD97D70000938747D065BF930760
:1025B0004B003EC69377040181C7032D0B0031A069
:1025C0009377040489C7035D0B00814C55BF937753
:1025D0000420E5D7034D0B00CDBF228785476FF060
:1025E000EFFB0547E38BE70A0947638DE70C1C0BFC
:1025F0009396DC0113777D00135D3D0013070703FD
:1026000033EDA60193DC3C00A38FE7FEB3669D018A
:102610009384F7FF95E69376140089CA9306000326
:102620006306D700A38FD4FE9384E7FF1C0B6E8D47
:10263000014BB38D974002C4814B814C6FF08FD416
:10264000A6877DB7014A1C0B937B0440254B294686
:1026500081466A85E6859384F7FF3EC4EF7060404B
:10266000A24713050503050AA38FA7FE638E0B027D
:10267000924783C707006319FA029307F00F6305B7
:10268000FA0263940C006371AB039257B255014A8E
:102690009D8C3E862685EF40402A924783C71700CF
:1026A00081C7924785073EC2294681466A85E685ED
:1026B000EF70400563940C00E37AABF72A8DAE8C83
:1026C000A68771B7040B52579377FD00FD14BA9794
:1026D00083C70700135D4D002380F4009397CC015E
:1026E00033EDA70193DC4C00B3679D01E9FF3DBFCB
:1026F000040B8DFF058B1DDB93070003A307F11867
:102700006F00C07A638D0A7623065113A303010A72
:102710005AC66FF04FC641062322DC01B2C7B6C5C8
:102720006352DF02D001CA854E85BAC0EF50100156
:10273000631805700647EC111D4F17DE0000130EDD
:10274000EEB3C14E41172E8C6FF0EFC7C1062322A6
:102750000C01B6C7BAC5635EEE00D001CA854E85CE
:102760003EDCEF50A07D631D056CE257F0111D4E5D
:102770004148C117328C6FF04FD197D50000938537
:10278000E5B0C1062320BC002322FC00B6C7BAC5B1
:10279000635CE800D001CA854E85EF50207A631152
:1027A000056AF0111D48C147411D328C6FF0AFD250
:1027B00013075006635A574F4E470C0108093AC990
:1027C0005E4702C102C33ACB6E4702C502C73ACD8B
:1027D0007E473ACFEF70B07769ED97D700009387C7
:1027E00067AF2320FC0085472322FC00AE47050D80
:1027F000EAC78507BEC51D47210C635BF700D00102
:10280000CA854E85EF508073631C0562130CC10EA0
:10281000BA5763C6470193771400638E0716A25711
:102820005247210C232CFCFED247232EFCFEBE4730
:10283000BA97BEC7AE471D478507BEC5635BF700A5
:10284000D001CA854E85EF50606F631B055E130C87
:10285000C10E9304FAFF63509014C14A9D4BAE47DA
:1028600017D60000130686A22320CC003E4785071A
:1028700093068C0063CD9A0023229C00BA94A6C7CD
:10288000BEC51D47368C6358F7106FF02FCB41073C
:1028900023225C01BAC7BEC563DAFB00D001CA853A
:1028A0004E85EF50A069631D0558F411C114368C94
:1028B0007DB73A57634EE01297D70000938787A100
:1028C0002320FC0085472322FC00AE47050DEAC704
:1028D0008507BEC51D47210C635BF700D001CA8583
:1028E0004E85EF50A065631D0554130CC10EBA57F9
:1028F000937614003E47B367FA00D58FC9CFA2572D
:1029000093088C002320FC00D2472322FC00BA97B6
:10291000BEC7AE471D478507BEC5635BF700D00144
:10292000CA854E85EF508061631C05509308C10E27
:10293000BA5A63D30A04B30A50414687C14B1D4CAF
:10294000AE4717D600001306669410C3BE4685072F
:10295000A10863CC5B0723225701B69AD6C7BEC530
:102960001D47635BF700D001CA854E85EF50005DBF
:102970006318054C9308C10EBE4723A0980023A2FC
:102980004801D297BEC7AE471D47138C8800850704
:10299000BEC56345F7BA118863120446F24A8257EE
:1029A00063D3FA00BE8AE247D6973ECCBE4781CBBE
:1029B000D001CA854E85EF5060586313054882C523
:1029C000631A0B4A130CC10EB9BCC106232277014E
:1029D000B6C7BEC5635BFC00D001CA854E85EF500B
:1029E000E055631F05449308C10EC11A468789BF8D
:1029F000E68A63539A01D28A635850032E47569D44
:102A000023209C00050723225C01EAC7BAC59D4626
:102A1000210C63DBE600D001CA854E85EF500052E1
:102A200063100542130CC10E63D30A00814AB38AB6
:102A30005C4163535005414D9D4D2E4797D7000093
:102A40009387C7842320FC00BE46050713068C002D
:102A500063435D1323225C01B69AD6C7BAC59D466F
:102A6000328C63DBE600D001CA854E85EF50004D05
:102A70006318053C130CC10E93770440B38A94018C
:102A800091CF1D4DB38D4401A24763980B106397FE
:102A90000710B387440163F35701BE8ABA5763C571
:102AA0004701937714009DCBA2575247210C232C4A
:102AB000FCFED247232EFCFEBE47BA97BEC7AE47E8
:102AC0001D478507BEC5635BF700D001CA854E85EB
:102AD000EF50C04663160536130CC10ED294B3876F
:102AE0005441BA54B3049A4063D39700BE846359E7
:102AF0009002BE4723205C0123229C00A697BEC7FC
:102B0000AE471D47210C8507BEC5635BF700D001AA
:102B1000CA854E85EF50804263140532130CC10EF6
:102B2000A68763D304008147BA54B3049A409D8CAE
:102B3000E35390E6C14A9D4BAE4717C6000013060B
:102B4000E6742320CC003E47850793068C00E3D52E
:102B50009AD2410723225C01BAC7BEC563DAFB00E3
:102B6000D001CA854E85EF50603D631B052CF411E2
:102B7000C114368CD1B7C1062322AC01B6C7BAC581
:102B800063DAED00D001CA854E85EF50203B631912
:102B9000052AF011C11A328C4DB5D9CFA247FD17C5
:102BA0003EC4B2571257210C232CFCFE9257232E01
:102BB000FCFEBE47BA97BEC7AE478507BEC5635B7E
:102BC000FD00D001CA854E85EF504037631A0526B7
:102BD000130CC10E924733875D4183C707006353CF
:102BE000F700BA87635AF0023E4723205C01232294
:102BF000FC003E97BAC72E47210C0507BAC5635D96
:102C0000ED00D001CA854E853EDCEF5020336319BC
:102C10000522E257130CC10E3E8763D3070001471C
:102C20009247414883C70700998F6340F004924759
:102C300083C70700BE9A89BD9247FD1BFD173EC2A0
:102C40008DB7C10623220C01B6C7BAC5635DED007E
:102C5000D001CA854E853EDCEF50402E6312051E22
:102C6000E257F0114148C117328C2E4797C500003A
:102C70009385C5612320BC00BE46050713068C0062
:102C8000E341F8FC2322FC00B697BEC7BAC5328CDC
:102C9000E35FEDF8D001CA854E85EF50202A63111D
:102CA000051A130CC10E61B7AE47054723209C00DF
:102CB000050D8507930B8C0063464701937614003E
:102CC0006386061205472322EC00EAC7BEC51D47EE
:102CD000635BF700D001CA854E85EF502026631153
:102CE0000516930BC10EA2575247A10B23ACFBFE56
:102CF000D24723AEFBFEBE47BA97BEC7AE471D47BD
:102D00008507BEC5635BF700D001CA854E85EF50CD
:102D1000E02263170512930BC10ECE470C01080980
:102D20003EC9DE47930AFAFF02C13ECBEE4702C31B
:102D300002C53ECDFE4702C73ECFEF70502129CDE0
:102D4000BE472E478504FD17D297050723A09B0099
:102D500023A25B01BEC7BAC59D47A10B63DAE7009A
:102D6000D001CA854E85EF50601D79E9930BC10EE5
:102D70005C1923A0FB00C2574257138C8B0023A27F
:102D8000FB00BE47BA97BEC7AE471D478507BEC505
:102D9000E353F7C06FE09FFAE35C50FDC1441D4C64
:102DA0002E4717C600001306664E23A0CB00BE4771
:102DB000050793868B0063CA5401D69723A25B0153
:102DC000BEC7BAC59D47B68B51BFC10723A29B00A2
:102DD000BEC7BAC56359EC00D001CA854E85EF5015
:102DE000E01539EDF411C11AB68B5DBF2322EC005A
:102DF000EAC7BEC51D47E35DF7F69DB7F247025728
:102E00003384E740E35C80B8C14A97C400009384F0
:102E1000E4469D4BAE4723209C003E47850763C98F
:102E20008A0223228C003A94A2C7BEC51D47E357ED
:102E3000F7B6D001CA854E85EF504010E30005B6C5
:102E4000630A0B8CDA854E85EF00A0706FF08F8CD3
:102E5000410723225C01BAC7BEC5210C63DAFB001F
:102E6000D001CA854E85EF50600D79F9130CC10E63
:102E700041144DB7DA854E85EF00A06DA1B6BE476F
:102E800099E36FF02F89D001CA854E85EF50000B72
:102E90006FF04F88FD576392FDF463950CFAA547D8
:102EA00063E2A7FB130D0D03A307A1199304F11807
:102EB0006FF0CFF797E7FE5F93874734B2862E8691
:102EC000AA8588436FE0FF9D83D7C500130101B831
:102ED000232C8146F59B231AF100FC512E84232AD2
:102EE0009146BED683D7E50023282147232E1146DD
:102EF000231BF100DC4D2A8902D03ED2DC512C008C
:102F00003ED69C183EC43ECC930700403EC83ECE01
:102F1000EFE03F99AA84634705002C004A853526D7
:102F200011C1FD548357410193F7070499C7835793
:102F3000C40093E707042316F4008320C147032449
:102F4000814726850329014783244147130101480E
:102F50008280011122CC26CA4AC806CE4EC62A89D2
:102F6000AE84328401C51C5D91E3FD2E1C4C1CC453
:102F70008357C400A18BBDC71C48ADC78317C400CD
:102F800093F9F40F93F4F40F139727016352070694
:102F90001C4808401D8D5C486346F500A2854A85A3
:102FA0006D2429E51C440505FD171CC41C4013872E
:102FB000170018C0238037015C486389A700835736
:102FC000C400858B81CBA9476396F400A2854A850E
:102FD000AD2C09EDF240624426854249D244B24903
:102FE00005618280A2854A85352049D9FD54DDB727
:102FF0000967D98F2316F4007C5079777D17F98FF4
:103000007CD079B797E7FE5F9387471F2E86AA8506
:10301000884381B7411197E7FE5F9387271E26C239
:10302000AA84884322C406C62E8401C51C5D91E390
:10303000252E0317C40093170701C18393F6870059
:10304000A1EE93F6070189EEA5479CC0136707041C
:103050002316E4007D55B24022449244410182800F
:10306000918B8DC70C5889C9930704046384F500BC
:103070002685C521232804028357C4002322040087
:1030800093F7B7FD2316F4001C481CC08357C400F7
:1030900093E787002316F4001C4889EF8357C40088
:1030A0001307002093F707286386E700A28526858B
:1030B000EF20A0178357C40013F7170005C75C481B
:1030C00023240400B307F0401CCC1C480145C1F781
:1030D0008317C40013F707083DDF93E7070423169F
:1030E000F4008DBF898B014791E3584818C4F1BFA4
:1030F0008397C500011122CC13970701418326CA8B
:1031000006CE4AC84EC693768700AA842E84E5EE82
:10311000056713070780D98FD8412396F500634DC3
:10312000E000D85D634AE0000145F2406244D244C9
:103130004249B2490561828018547DD703A9040031
:103140009396370123A0040063D5060830488357BF
:10315000C400918B99C75C401D8E1C5899C35C5C60
:103160001D8E1C544C4C814626858297FD578356F4
:10317000C400631DF5009C4075476360F70837077E
:10318000402005073357F700058B25CBFD77938744
:10319000F77F1848F58FC207C18718C02316F400BF
:1031A000232204001397370163580700FD57631467
:1031B000F5009C4091E328C80C5823A02401ADD50C
:1031C000930704046384F5002685612623280402FE
:1031D000A1BF4C4C0146854626850297FD572A869D
:1031E000E317F5F69C40A5D775476385E700594777
:1031F0006394E70423A0240105BF93E70604231684
:10320000F4007D551DB783A90501E38F09F003A9DB
:1032100005000D8B23A0350133093941814711E3A6
:10322000DC491CC4E35220F15C504C4CCA864E86EB
:10323000268582976347A0008357C40093E707045D
:103240007DBFAA993309A940F1BF011122CC06CE56
:103250002A8411C51C5D81E72EC63922B2458397A9
:10326000C50091C722856244F240056151B5F24024
:103270006244014505618280AA8511E99387018531
:10328000884397050000938585FC6F00A07D97E734
:10329000FE5F9387A7F688434DBF014582804111A9
:1032A00022C406C62A842316B5002317C50023208E
:1032B00005002322050023240500232205062328D8
:1032C0000500232A0500232C05002146814513050E
:1032D000C505EF20E05B973700009387C7461CD0F9
:1032E00097370000938787495CD097370000938712
:1032F000074E1CD4973700009387E75040CC5CD42E
:10330000B240224441018280975500009385A57602
:103310006F00407501458280411126C21306800668
:103320009384F5FFB384C4024AC02E8922C406C622
:1033300093854407EF1050792A8401CD232005009E
:1033400023222501310508C4138684068145EF2018
:1033500020542285B2402244924402494101828095
:103360009387018588434DB71C5DA9E7411106C6C7
:1033700022C497070000938767F95CDD8D472322FD
:10338000F52E9307C52E2A842324F52E2320052EFF
:10339000484101469145213708440546A545013776
:1033A00048440946C945E53D85471CDCB2402244F6
:1033B00041018280828041119387018526C2844326
:1033C0004AC006C69C5C22C42A8999E32685693FC7
:1033D0009384042E8044DC40FD1763D607009C4094
:1033E000B9CF8440C5BF0317C40039E7C17785074B
:1033F00023220406232004002322040023240400A3
:103400005CC423280400232A0400232C0400214642
:1034100081451305C405EF20A04723280402232A71
:10342000040223220404232404042285B2402244FB
:1034300092440249410182801304840671BF914580
:103440004A85D93D88C051FDB1472320F900014488
:10345000E9BF828082808280828097E7FE5F9387C7
:10346000E7D9884397050000938565E359AB97E753
:10347000FE5F9387A7D88843970500009385C5E929
:1034800049A3011122CC26CA4AC84EC62E8406CEB4
:103490002A8997D9FE5F93892910EF20E04983A7F5
:1034A00089000567C4439307F7FE33848740F1988A
:1034B000269431807D143204635DE4004A85EF2058
:1034C000C0470145F2406244D2444249B2490561D5
:1034D000828081454A85EF30201483A78900A69712
:1034E000E31EF5FCB30580404A85EF30E012FD573E
:1034F000631BF50281454A85EF30001203A789005E
:10350000BD46B307E540E3DBF6FA97E6FE5F938638
:1035100026CF944293E717005CC3158D97E6FE5FB4
:1035200023AEA6D261BF83A78900818C93E41400E7
:10353000C4C397E7FE5F938767D29C434A85338471
:10354000874097E7FE5F23AB87D0EF20003F05451C
:1035500095BF6387051C411122C426C22A84AE840C
:1035600006C6EF20603D83A5C4FF938684FF17D570
:10357000FE5F1305650293F7E5FF3386F6005842B8
:10358000032885008589719B6318C804BA9789E967
:1035900003A784FF998E9046BA97D84658C610C79D
:1035A00013E71700D8C217D7FE5F232BD7FE17E704
:1035B000FE5F130727C5184363E9E70097E7FE5F3F
:1035C000938787C98C4322856D3D22852244B24072
:1035D000924441016F20603658C2014895E183A5AD
:1035E00084FF97D8FE5F9388A8FB8D8EAE978C469C
:1035F0006385150983A8C60023A6150123A4B80076
:10360000B305E600CC41858995E5BA97184663185D
:10361000080697D5FE5F9385A5F86312B70617D6FF
:10362000FE5F2325D6F817D6FE5F232FD6F6D8C621
:1036300098C6054813E71700D8C23387F6001CC3A5
:10364000E31508F81307F01F636FF7028D8313D695
:10365000274005473317C700504185078E07518F14
:10366000AA9717D6FE5F232BE6F29843138687FFAF
:10367000D0C698C694C354C789BF054851B75046B1
:1036800050C718C645BF13D697001147636EC702CF
:1036900013D7670013078703130617000E062A9631
:1036A000930586FF10426397C506854709873397C0
:1036B000E7005C415D8F97D7FE5F23A1E7EECCC6A4
:1036C00090C694C554C611B751476365C700130728
:1036D000B605D9B7130740056367C70013D7C700FE
:1036E0001307E70655BF130740156367C70013D7D5
:1036F000F700130777074DB7930540551307E00709
:10370000E3ECC5F813D727011307C70771B71046B5
:103710006386C5005842719BE3EBE7FE4C4645B714
:1037200082801C4681E781473E85828083D7C50021
:103730005D71A2C4CAC056DA86C6A6C24EDE52DC8D
:103740005AD85ED662D466D26AD06ECEA18BB28AC7
:103750002E842A89C9CF9C49D9CB8357C40003AA98
:103760000A0013F727006316070E858B638F071473
:10377000814B0145014B81496386092401ED4E8649
:10378000A9455A85EF20800A938B190001C50505CC
:10379000B30B65415E8C63F379014E8C08401C4885
:1037A000544863F8A7220444B69463D48423DA858A
:1037B0002686EF2040091C40A2854A85A6971CC09A
:1037C0006934631C050EB38B9B40054563960B0063
:1037D000A2854A859D3C75E183A78A00269BB38913
:1037E0009940B384974023A49A00D9F491A0A2856C
:1037F0004A85EFF03F82FD572DD125A883290A0085
:1038000083244A00210AFDD8A68663739B00DA86CA
:103810005C504C4C4E864A8582976350A00A83A721
:103820008A00AA99898C3385A74023A4AA0061FD48
:103830008147B640264496440649F259625AD25A04
:10384000425BB25B225C925C025DF24D3E8561613F
:103850008280370B008081498144134B0BC065B7D0
:10386000032B0A0083244A00210AFDD80357C40011
:103870001C440840937607206389060E63EAF40827
:1038800093760748D1C6832D44010C48B38DBC0301
:10389000B309B54093871900A697B3CDAD0363F381
:1038A000FD00BE8D137707404DC3EE854A85EF10AE
:1038B000B0211DE5B1472320F9008357C40093E7E9
:1038C00007042316F400FD57ADB7B70B008013CCE7
:1038D000EBFF014B814493CBFBFF8D4C094D71B73E
:1038E0000C484E862AC6EFD07FDA0357C400B24791
:1038F0001377F7B7136707082316E4001CC8232AB9
:10390000B401CE97B38D3D411CC02324B401A687DA
:10391000A68963F3F400A68708403E86DA853EC692
:10392000EF1070721844B2471D8F18C41840BA9730
:103930001CC083A78A004E9BB3843441B3893741AE
:1039400023A43A01E39309F2E5B56E864A85EF2098
:10395000B012AA8745F50C484A85E53E8357C40056
:1039600093F7F7F72316F400B1B718486365A7007B
:10397000544863F8D402BE8963F3F400A6894E86E6
:10398000DA85EF10506C1C441840B38737414E97CE
:103990001CC418C0D9FFA2854A85EFF01F8B51D9EE
:1039A00029BFA68763739C00DE87B3C7D702585030
:1039B0004C4C5A864A85B386D7020297AA89E34AB5
:1039C000A0F6E5BD032B0A0083294A000145210A20
:1039D00065B3634BDC005C504C4C5A864A85829739
:1039E000AA84E342A0DED1BD6286DA85EF10B0651D
:1039F0001C44E284B38787411CC41C40E2971CC06E
:103A0000D9B3797122D44AD052CC56CA06D626D21E
:103A10004ECE1304052E0149054AFD5A19E8B2504D
:103A200022544A8592540259F249624AD24A456167
:103A30008280044483294400FD1963D409000040B6
:103A4000F1BF83D7C400637CFA008397E4006388E6
:103A5000570126852EC68295B2453369A900938405
:103A60008406D9BF797122D44AD052CC56CA5AC8DA
:103A70005EC606D626D24ECE2A8AAE8A1304052EFC
:103A80000149054BFD5B09ECB25022544A85925422
:103A90000259F249624AD24A424BB24B4561828096
:103AA000044483294400FD1963D409000040E1BFA8
:103AB00083D7C400637BFB008397E40063877701AF
:103AC000A6855285829A3369A90093848406E1BF52
:103AD000930745010905231F05FEE31DF5FE8280BE
:103AE00081475147B306F50003D60600B386F500BB
:103AF00089072390C600E397E7FE82809307A5011C
:103B00000905231F05FEE31DF5FE828081476147FD
:103B1000B306F50003D60600B386F50089072390A7
:103B2000C600E397E7FE239C050082809147694623
:103B30003307F500835607003387F5000357070066
:103B40006387E60005456368D7007D558280890755
:103B5000E390C7FE014582809306450081476905D1
:103B6000617603D706009375170099C193E7170094
:103B700093F52700058391E986072390E600C207A5
:103B80008906C183E31FD5FC8280518FF5B7930668
:103B90006501014783D726001396070141866354C8
:103BA0000600136717008607C20713762700C18334
:103BB00011EA06072391F6004207F9164183E31B39
:103BC000D5FC828093E71700EDB7930745000147C6
:103BD000690583D60700890713D68600518F239F76
:103BE000E7FE1397860042074183E314F5FE8280C7
:103BF00093076501014783D62700F91713968600BE
:103C0000518F2392E70013D78600E316F5FE8280DA
:103C10009307450013078501890783D60700239F73
:103C2000D7FEE31BF7FE231C050082809307850166
:103C300013074500F91783D607002391D700E31B2C
:103C4000F7FE231205008280E10513076501814616
:103C50008357270003D605007917F915B297B69751
:103C60002391F500C18393F61700E313E5FE8280EC
:103C7000E10513076501814683D705007917F9151A
:103C8000958F83564700958F2391F500C18393F656
:103C90001700E313E5FE82800111416393888501DB
:103CA000231D0100231E0100910574087D1303D715
:103CB0000800F916F91805E7239F06FEE39915FF9A
:103CC000914769474C00BE9583D50500B306F600C1
:103CD00089072390B600E397E7FE056182803307EA
:103CE000A70203D82600B3776700C29713D807014D
:103CF0002391F6009357070103D70600BA97C2979E
:103D00002390F600C183239FF6FE4DBF8357250104
:103D100093C7F7FF1397170109EB930725010905CF
:103D20000357E5FF09E7E39CA7FE014582800545AF
:103D30008280411122C406C62A84C93F01E90315C5
:103D400024017D81B2402244410182800145DDBFD2
:103D500083172501411106C622C426C24AC063D872
:103D60000704FD572390F50003572501A167FD17B0
:103D70007D8F2391E500130905016317F7042E8455
:103D8000AA84693705C993076400231204001385C8
:103D9000C4FF7919035729008907239FE7FEE31A17
:103DA000A9FEB240224492440249410182802390FC
:103DB00005005DBF930744009305A4018907239F75
:103DC00007FEE39DB7FEF1BF9387650023920500D0
:103DD00079157919035729008907239FE7FEE31A0C
:103DE000A9FE239C050075BF5D71A6C2CAC086C628
:103DF000A2C42A89AE84193F41E52685013F2A8461
:103E000041E12C004A85A9374C102685913703578C
:103E1000810083574102638CE7028947E146300005
:103E20003E960356060005E250103E9603560600E5
:103E300019EA8907E395D7FE2285B64026449644C1
:103E4000064961618280054465DB7D54F5B705470D
:103E500091C37D578147E1453400BE9603D60600E5
:103E60005410BE9683D606006308D6003A84E3E574
:103E7000C6FC3304E040C9B78907E39FB7FC6DBFB8
:103E800079545DBF8357250193C7F7FF1397170137
:103E900009EB411106C69D3DB240133515004101A5
:103EA00082800145828013072501AA878907239F05
:103EB00007FEE39DE7FE8357250121677D17D98F14
:103EC0002319F5008280011122CC4EC606CE26CAE7
:103ED0004AC852C456C2AA892E8463D4050A33093B
:103EE000B0404A8A8144BD4A63C74A031359490016
:103EF000C155B305B9021D4A338485402289634305
:103F00002A0393553400E157B385F5022E9415E04A
:103F100033359000B1A883D789014E85411ADD8CD5
:103F20003133D9B783C789014E856119DD8C713969
:103F3000F9B783D789014E857D14858BDD8C2939AE
:103F4000F9B74E85F131C114E34D99FE9355440004
:103F5000C157B385F5021D492E94A2846346990288
:103F600093553400E157B385F5022E9415E00145D1
:103F7000F2406244D2444249B249224A924A05611F
:103F80008280AE843D49C9B74E859D31E114F9B7B1
:103F90004E85F53E7D14D9BF83574500411126C299
:103FA00006C622C44AC0AA8491CB93F707F0014405
:103FB00099C3213961541309F0F68DA08317650068
:103FC00001441309000A63DE07002285B24022443F
:103FD0009244024941018280268541041539E30655
:103FE00024FF83D76400EDDB83D7640093F707F0E9
:103FF00089CF1309000A83976400E3C807FC26856C
:1040000005047136E35989FEC9B72685D5362104E2
:10401000E1BF26857D148936E30924FB83D744005C
:10402000EDFB65B713070501AA878907239F07FEE4
:10403000E39DE7FEB7C7FF7F1CC982802A878356AE
:1040400007002E858357270099C2E176D58F231963
:10405000F50003562700A166FD1693076700631A53
:10406000D600690783D6070085E28907E39CE7FE4F
:104070001DBD41056107890783D6E7FF7915231127
:10408000D500E39AE7FE828071BF797126D2AA84B7
:10409000480022D406D62E84953403D7E400931723
:1040A0000701C18763C6070223120100A166FD163E
:1040B000758F9387E4006316D7042687835607001D
:1040C00081CE22858537B250225492544561828038
:1040D000FD572312F100D9BF0907E391E7FE2285BE
:1040E000C53A2285C9338397E400E3DE07FC2285C5
:1040F000313971F9835724016177B98F2319F4009D
:10410000D9B72313E1005400F91703D60700890635
:104110002392C600E39AF4FE19E723140100A28556
:104120004800293F4DB78547FD5548002314F1004D
:10413000593BF5B7011122CC26CA4AC84EC652C413
:1041400056C236893E8406CEAA84AE89328ABA8A9D
:10415000A135930700093309A94063D7A702A167D6
:10416000F91763CE270393872400E9048907239F67
:1041700007FEE39D97FEF2406244D2444249B249B1
:10418000224A924A05618280635B0900930700F727
:104190006341F912CA8526853D336315051263868E
:1041A0000A0E58401C406307F7041305A401B932F6
:1041B0005C40130780036387E7146347F710614788
:1041C0006387E716130750036388E714314718C461
:1041D000370701807D1758C80547231CE4002D4789
:1041E00058C4584483568401210706072297231593
:1041F000D7001CC0634E2001584093070009630993
:10420000F70083D784012685858BB3E9F900A932AD
:104210001444035644014C401397160026978357C5
:104220000700F18F1306F0086347B60085063A864B
:10423000B14563D0D510835644010356070093C699
:10424000F6FFF18E2310D70003576401B376F70011
:1042500091CE631CF70E6398090E5C4403578401EA
:104260008607A69783D70700F98FE5E36349200106
:104270005840930700096304F7002685093A83D75D
:10428000440081C72685C9380509A167239C04001D
:10429000F91763D1270DE17793C7F7FF2391F40056
:1042A00093874400E104239007008907E39DF4FE0F
:1042B000D9B593872400E9048907239F07FEE39D6E
:1042C00097FE55BD8549E1BD130700046381E702F0
:1042D00013071007E39CE7EE378700407D17A946D8
:1042E00058C814C46177231CE40054C4DDBD1D47C5
:1042F00018C4370701807D1758C80547231CE40000
:104300001947F9BD9946370780001307F70F58C8BA
:1043100014C413070010C1BF370700041307F77F49
:10432000994658C8056714C4130707806DBF9146A6
:10433000D9BF0355260019C193E7170023110600C2
:1043400085060906FDB5E3130AF2A6851305A40147
:10435000E53829BF635509002391040029BD239145
:10436000240111BD011152C4035A250022CC2E8410
:1043700006CE26CA4AC856C25AC03289130B460313
:104380004EC6AA8A113983542400330AAA402285D2
:104390002131898C5A85EFF06FF663D24403228570
:1043A0006244F240B249224A924A024BCA87A68628
:1043B0004249D2440147014681450561A5BBA2851A
:1043C0005685EFF0AFF681496346A000A285568579
:1043D000453085495A85EFF08FFB8357C904228504
:1043E000FD14B3E9F90023163905EFF04FFA75B75C
:1043F000757122C526C34AC1D2DC06C7CEDED6DA25
:10440000DAD8DED6E2D42A892E84B284368AFD3800
:104410000DC1A6854A85EFF0AFECBA402A449A4414
:104420000A49F659665AD65A465BB65B265C49611C
:1044300082802285E13801C5A6852285E9BF4A85AB
:10444000913415ED22853D3C01C997B50000938557
:10445000A5E84A85513A1DC94A852D3401E52285D2
:1044600015341DC94A85F1302A892285D930630265
:10447000A902E1772399F4002685353479BF97B5F1
:104480000000938565E5228585324DFD2685593EE0
:1044900069B723990400CDB76C004A855538228549
:1044A0002C107D308359E1000354A1026387090A6F
:1044B0008357A102228BD5CBA25713094A03930B32
:1044C000EA04232AFA0293078A0323900700890744
:1044D000E39D77FF6000130C81FF814A035584013F
:1044E00009C92C10D000EFF02FFBCA85C800EFF0EF
:1044F000AFF58357CA044A857914B3EAFA00EFF09E
:10450000EFF2E31D8CFCCA853C1003D7050089053A
:104510008907239FE7FEE39A75FFF176DA9989060A
:10452000D28713070004CE960146D685281019318C
:104530000357C100835781026316F7042314010255
:10454000A6852810E53CD1BD890783D6270081CAFE
:1045500068009934B309A040A1BF7C001810E3950E
:10456000E7FE2685EFF0CFD64DBD3C107818E38AE4
:10457000E7FE890783D62700FDDA2810313C330B8C
:10458000A4401DBFFD572314F1025DBF757122C504
:1045900026C34AC1D6DA06C7CEDED2DCDAD8DED6EA
:1045A000E2D4E6D22A892E84B284B68AEFF00FF6DE
:1045B00015C1A6854A85EFF0AFD2BA402A449A4485
:1045C0000A49F659665AD65A465BB65B265C965C33
:1045D000496182802285EFF06FF301C5A6852285AF
:1045E000D9BF97B50000938525CF4A85EFF0CFFF5F
:1045F00005C94A854138AA8922856930639D090227
:1046000021C14A85EFF0EFF22A892285EFF06FF29F
:104610006300A918E1772399F4002685693071BFFA
:1046200097B50000938545CB2285EFF0EFFB71F144
:104630002685CD3A59B76DFD2685EFF06FC9B5BF18
:104640004A856C00EFF0CFF022852C10EFF04FF090
:104650000359A1020354E100630C090E8357E100E2
:10466000A28B638D0710225793878A03138BEA046A
:1046700023AAEA02BE898907239F07FEE39D67FFFD
:104680002810EFF06FCD035C2101416A7D1AB30C55
:104690004C038357C1020354E102C207A29752841C
:1046A00063E6FC0033D48703420441806C0022851A
:1046B000D000EFF06FDE2C10C800EFF02FC7635F63
:1046C000A000CC006800EFF0AFDA2C10C800EFF0CB
:1046D000EFC56342A00C7D14420441802C10C80039
:1046E000EFF00FD92810239089008909EFF04FD2FD
:1046F000E3113BFB38109306E103BA87814503D6EB
:1047000047008907D18DE39CF6FEB335B00093874F
:104710004A0383D6070089070907231FD7FEE31A38
:10472000FBFE916633097941FD16D6871307000415
:10473000CA9601462810FD3A0357C10083578102EB
:104740006313F70623140102A6852810C538B5B5F2
:104750003C107818E382E7EE890783D62700FDDA5C
:1047600028101D383309A040D5BD890783D62700FE
:1047700081CA68001530B30BA440F5B57C00181051
:10478000E395E7FE0357C10083578102E314F7E87E
:104790002399040059B579144204CC006800418083
:1047A000EFF00FCD25BFFD572314F10271BF03AE0B
:1047B000050003A3450083A88500CC450571232C83
:1047C000811C2ED63E842C41FD572328F1149307DB
:1047D00000092328211D2322511D232C811B232A5C
:1047E000911B232E111C232A911C2326311D2324C7
:1047F000411D2320611D232E711B2328A11B23266D
:10480000B11B42C872D01AD246D4232AF1142A8985
:10481000B28A368CBA8C99C97C4105473317F700A8
:10482000DCC198C5EF10E0172320090408108C089C
:10483000A9388808EFF0EFCF6302051485471CC044
:104840008D476380FA14D144638A0A009304FCFF05
:104850009307A00263D497009304A0028327411515
:1048600088083ECAEFF08FCA2A8B97B5000093855F
:10487000E5CB631D057A93070009EC108808232A0D
:10488000F114EFF0EFA58357E10702C41397070176
:10489000418763590700C607C583231FF106C16717
:1048A000FD173EC42C0117B50000130565B4EFF0E9
:1048B0002FA30357E107631D0774FC101307E107DB
:1048C00083D60700E9EA8907E31CF7FE01448C015F
:1048D0002801EFF0EFC72C018801EFF02FA38C0126
:1048E000E810EFF0EFC6EC108801EFF02FA2900A6D
:1048F000EC102801853C8359C11917BA0000130A2E
:10490000AA9D63980900D285E810EFF0EFCD6315FA
:10491000054CA247638C074E9307D002230AF1107F
:104920008D47268A639AFA00338A84009307A0028F
:1049300063D44701130AA002A947639CF94C93076B
:104940001003A30AF1109307E002230BF11093095F
:1049500071116359400193070003A30BF1107D1AF5
:1049600093098111050463500A4C228697B5000013
:10497000938505BE4E85EF1050587DAD2320040071
:10498000C1B5E284F1B58317C10797B500009385DF
:10499000E5BB63DD0768EC1017B50000130545A5FE
:1049A000EFF08FC405D5635105304C11E810EFF0DE
:1049B0002F9391679387E708231BF10AC1473EC6EF
:1049C000A167FD173ECCF1778907014497BB000032
:1049D000938BCB9B3ECE97B90000938969A1940A33
:1049E00030014C115E855D366C182801EFF04F8F59
:1049F000E247035AE104337DFA00F2473E9D634EDD
:104A0000A0038801EFF0CF8C420A135A0A41635089
:104A10000A0C814778183E978356070098013E9705
:104A200003570700638DE6264E85EFF02FAE35C1A4
:104A30008C014E85EFF0CF8A59A893070009338D7A
:104A4000A7418C016818EFF0AF896352A009980163
:104A5000EA87BD4663CAF60293574D0013971700C5
:104A600094013697C156B387D70297B60000938654
:104A7000A686EA978607B69783D7C712835607009C
:104A8000F58F2310F70049B723100700C117090756
:104A9000D1B78801EFF08FA701C58C012E8559BFD2
:104AA0004E85EFF02FBE2A8A8801EFF0AFBD2A8D28
:104AB00063020A0E69C14E85EFF0AFA72A8A88010A
:104AC000EFF02FA76319AA0A8801EFF0AFD581474D
:104AD00038013E978356070098013E970357070019
:104AE000639CE60089074947E394E7FE4C112801DF
:104AF000EFE01FFFB2473E94B247D10B85833EC61D
:104B0000E39F3BED8357610B0357E107EC1048111E
:104B1000BA977177130727F7BA97231BF10AEFE0CB
:104B20003FFC5E852C01EFE0BFFB056A97A9000002
:104B30009389C97B97BB0000938B4B8A4C115E8590
:104B4000EFF08FAAE345A0D84C114E85EFF0CFA926
:104B5000634DA0005011B285940A4E85053C30018A
:104B6000940AB2854E8569305294135A1A00E38034
:104B700079D7D109E1B74E858C01EFE07FF6880146
:104B8000EFF0CF9829F58357210D6177B98F23195D
:104B9000F10C35BFE31305F0EC094E85EFF04F9BA8
:104BA000AC198801EFF0CF9A8357C10D835DE10DF9
:104BB000035AA10F93C7F7FF231EF10CB3854D4194
:104BC0006352B0024C0AA819EFE05FF4AC19E8098F
:104BD000EFE0DFF3EC09480AEFE05FF3B305BA4119
:104BE000035AA10F8DCD9307F0F663C3F506E809CC
:104BF000EFF06FADAA8D0357C10D8357810FAC192C
:104C0000E809631AF708EFF02F849C0A13070004E1
:104C1000D2866A86EE85A819EFF0CFD115A8AC1917
:104C2000E809EFE0BFF021E90357C10D8357810F79
:104C30006306F7008801EFE0BFE951BD8357A10F7C
:104C400089EF8317E10F63CA0700A819EFE03FF46B
:104C50008C01A819EFF08FBE9DBDBC191307E110A0
:104C600083D6270089C6050A231D410FD5B78907BA
:104C7000E318F7FED5BF814DE35FA0F64C0AA819F3
:104C8000EFE0DFE8AC19E809EFE05FE8EC09480A7B
:104C9000EFE0DFE78DB7EFE0BFFD054DBDB789075A
:104CA0004947E399E7D625B58357E107014497A91A
:104CB00000009389A972ADCF8C01E8109169EFF0E3
:104CC0002F89F919130A50FD8357810D9D8BA9E790
:104CD0004C118801EFE09FE34811EFE0FFE7481136
:104CE000EFE09FE74C118801EFE01FF68357610A60
:104CF0008D072313F10A8357810AE1EB8357C10B18
:104D000081EF8357610A63E9F9008C0148117D1432
:104D1000EFE0DFDFE31A44FBEC108801EFF00FB2A5
:104D200021A8F010940AB2854E85EFF06FEC7D1447
:104D30008317C107E3D707FE8C01E810EFE05FDAC5
:104D40002C0117A500001305A56AEFE07FD9814B60
:104D5000FD7997AD0000938D2D6D094D33877D0151
:104D600097A70000938787588C0117A500001305AB
:104D700025683AC6338A7701EFF00F873247635CC4
:104D8000A0028C013A85EFF02F86634F0500900159
:104D9000B285940A5285EFF0AFE53001940AB285EE
:104DA0005285EFF0EFE44E94D10B93074010B3C956
:104DB000A903E395FBFA3001940A97A500009385B7
:104DC00025633285EFF08FFC19B64811EFE0DFD88C
:104DD0008357610A850731BFE810EFE05FDB4C11B4
:104DE000E810EFE0BFD24811EFE07FDA4811EFE0C2
:104DF0001FDAEC104811EFE03FE5900AEC102801B3
:104E0000EFF04FD67D148359C119E5BC930700021A
:104E100031B6938909039307E002A30A3111230BEA
:104E2000F11093097111B38B690163506A058357BF
:104E3000C11911479389FBFFE359F7B21547638402
:104E4000E706CE871306E00293058003930600036E
:104E5000FD1703C707001377F70763520A08130704
:104E600010032380E700050409B6E810EFE03FD205
:104E70004C11E810EFE09FC94811EFE05FD14811F5
:104E8000EFE0FFD0EC104811EFE01FDC900AEC10CF
:104E90002801EFF02FCD8347C119050B9387070336
:104EA0002380FB0049B72C01E810EFF02F9997A55C
:104EB0000000938565422801EFE01FF359F1E346B6
:104EC0000AAA83C7EBFF938727FD93B7170093C701
:104ED000F7FFCE9783C70700858BA5F779B46310DA
:104EE000C70203C7F7FF9306800363E6E6000507E2
:104EF000A38FE7FE9DBC050413071003D5BF63E62F
:104F0000E50005072380E7008DB42380D70089B72B
:104F10009307140023A0FC009306E002D28703C786
:104F2000070001E71307500439A81386170063042C
:104F3000D700B287EDB703C717008507A38FE7FE39
:104F40007DFBCDB7FD1783C607006384E600E36BE6
:104F5000FAFE2380070031A2850709AAB68931AA83
:104F6000FD192380090003C7F9FF6316D7003387B3
:104F70004941E3C7E7FE0D4793079C00639FEA00A2
:104F8000269463570400230A011023A00C00D28941
:104F900083A70C003E9C93073C0023220904114781
:104FA000930647018325490463FFD7044A85EF0030
:104FB000F0182320A904D2852A84EF10F016C247E6
:104FC00091C7B3894941A29923A037012285832043
:104FD000C11D0324811D8324411D0329011D832933
:104FE000C11C032A811C832A411C032B011C832B17
:104FF000C11B032C811B832C411B032D011B832D03
:10500000C11A3D61828085052322B904060749BF84
:10501000A167FD17E319F796A24797A500009385AE
:10502000255289C797A500009385C550480A096491
:10503000EF10A06C1304F470D24788082320811667
:10504000232AF114EFE01FE4130A411111E5880847
:10505000EFE0DFCBE30E05EA89679387F77023A0C3
:10506000FC00D287130600029306D00203C7070094
:10507000E304C7EEE302D7EED289850703C7F7FF43
:1050800093861900A38FE6FEE31A07EC09478547CC
:105090006386EA00A68763D38400A2879306000391
:1050A000D9B51C4139714C083EC05C4106DE3EC298
:1050B0001C453EC45C450A853EC6EFE01FFD835794
:1050C0006102014593C7F7FF1397170119E74808D5
:1050D000EFE0DFC3133515000505F2502161828032
:1050E0001305050F828097C7FE5F938727119C43A6
:1050F000C85B09E517B5FE5F130545331305050FBA
:10510000828097C7FE5F9387670F9C43C85B09E562
:1051100017B5FE5F130585311305050F828011EE6B
:1051200017A5000013050543828017A5000013058D
:105130006542B240224441018280411197A500009E
:1051400093858541328522C406C63284EF10E06B18
:1051500069DD97A500009385E53F2285EF10E06AA1
:1051600069D597A500009385A5162285EF10E06903
:105170004DDD01457DBF97C7FE5F938727089C43A0
:10518000DC5B89E797B7FE5F9387472A03C58712E1
:1051900082800325C50E828097C7FE5F938707062E
:1051A0009C43DC5B89E797B7FE5F9387272803A5BD
:1051B000C70E828097C7FE5F938747042E86AA8515
:1051C0008843B1BF1971A6DAAE848395E500A2DCED
:1051D00086DE328463DC050083D7C40023A006008A
:1051E00093F7070895EB930700400DA8300836C6E3
:1051F000EF305022B246E34105FE7247BD670565B8
:10520000F98F7977BA9793B717009CC2930700403C
:105210001CC01305058029A0930700041CC001458C
:10522000F6506654D6540961828083D7C5000111B7
:1052300022CC06CE26CA4AC8898B2E8489CF9307F2
:1052400034041CC01CC885475CC8F2406244D24488
:1052500042490561828074003000AA84A537A245C6
:105260002A892685952001ED8317C40013F70720AE
:1052700069FFF19B93E727002316F400C9B797E76E
:10528000FFFF9387A708DCDC8357C40008C008C869
:1052900093E707082316F400A2475CC8B24791CFF2
:1052A0008315E4002685EF30B01901C98357C40087
:1052B000F19B93E717002316F4008357C40033696A
:1052C000F9002316240151B7797106D622D426D2CB
:1052D0004AD04ECE52CC56CA5AC85EC662C466C2C6
:1052E0009387B50059476376F70293F487FF63D33A
:1052F0000402B1471CC10145B250225492540259D4
:10530000F249624AD24A424BB24B224C924C45611E
:105310008280C144E3EFB4FC2A89392D9307701FC2
:1053200097B9FE5F9389492763EC9702138784003E
:105330004E974043930687FF93D734006316D400FB
:1053400040478907630C87045C4058441444F19B30
:10535000A297D8C614C7D84313671700D8C351A063
:1053600013D794009307F00301CB914763E0E7085C
:1053700093D7640093878703138717000E074E9710
:105380004043930587FF3D456309B4005840719B36
:1053900033069740635FC508FD17850703A409011D
:1053A00097B5FE5F9385C51F630CB40E5840BD468C
:1053B000719B3306974063D9C60893E714005CC01D
:1053C000B306940097B7FE5F23A2D71E97B7FE5F80
:1053D00023ACD71C93671600CCC68CC6DCC22297C0
:1053E00010C34A85992B1305840039B7D14763E56B
:1053F000E7009307B70549B79307400563E7E70060
:1054000093D7C4009387E70685BF9307401563E7EA
:10541000E70093D7F40093877707B9BF9306405509
:105420009307E007E3EAE6F493D724019387C707DD
:10543000A1B75444634806001C44D4C79CC6B307B4
:10544000E40011BF368489B797B6FE5F23A0B61675
:1054500097B6FE5F23AAB6146348060022975C4302
:1054600093E717005CC3B5BF9306F01F03A849007C
:1054700063E8E6140D831356274085460507B39667
:10548000C6000E074E97B3E6060117B6FE5F232748
:10549000D6101443130687FF50C414C400C3C0C6FB
:1054A00013D7274005433313E30003A74900636E76
:1054B0006704B376670099E6F19B0603B37667004D
:1054C0009107E5DE3D4E93963700CE9636883E85B1
:1054D0000324C80063130419050513773500210858
:1054E00065FB13F737006317071C03A749009347B1
:1054F000F3FFF98F17B7FE5F2322F70A03A74900CE
:105500000603636467006313031C83AB890003A471
:105510004B00937AC4FF63E79A0033879A40BD47F4
:1055200063CFE72897C7FE5F938707D317C7FE5F50
:10553000130707CD80431443FD57338C5B0126943A
:105540003A8A6397F6184104A2854A85EF10C00C89
:10555000FD572A8B6309F5206374850163953B2110
:1055600097CCFE5F938C8CCF03A70C00229797C734
:10557000FE5F23A5E7CE63136C1793174C01639F5F
:10558000071483A78900569413641400C0C317C777
:10559000FE5F130727CC83A70C0018436376F70040
:1055A00017C7FE5F2328F7CA17C7FE5F130747CA4E
:1055B0001843637AF71A17C7FE5F232BF7C865A253
:1055C00013569700914663EEC60293566700938682
:1055D0008603138616000E064E96130586FF1042AC
:1055E0006317C50605478986B316D700B3E60601DB
:1055F00017B7FE5F2324D7FA48C410C400C540C6BD
:1056000045B5D14663E5C6009306B605D9B79306FE
:10561000400563E7C6009356C7009386E60655BF6C
:105620009306401563E7C6009356F7009386760706
:105630004DB7130540559306E007E36CC5F8935644
:1056400027019386C60771B710466306C50054420A
:10565000F19AE36BD7FE484645B758405044719BDA
:10566000B3089740635B1E0393E714005CC01C44BF
:10567000B30694002297D0C71CC697B7FE5F23A736
:10568000D7F297B7FE5F23A1D7F293E71800CCC6F5
:105690008CC6DCC223201701A9B363CB0800229774
:1056A0005C4393E717005CC31C44D0C71CC615BB02
:1056B00032840DB5E1169846FD17E304D7E23DBDEF
:1056C00091070603B3766700E5DEF5BBAA87DDBF69
:1056D00005673D073A94FD777D8CBDB583260A00AA
:1056E000FD576390F60A97C7FE5F23AB67B1137C43
:1056F0007B00814763060C00A147B38787413E9B2F
:105700000565338AA7005A947D15B377A400330A40
:10571000FA40337AAA00D2854A85EF00F06FFD5730
:105720006319F500228563050C0013058CFF229593
:10573000014A83A70C0033056541D2972A9A17C7FF
:10574000FE5F232DF7B0136A1A0097B7FE5F23A9F7
:1057500067E523224B01E38C3BE33D47636B570333
:1057600085472322FB0083A78900DC43F19B338715
:10577000974063E59700BD4763C3E7044A85752AF0
:105780009DBEB3078B41BA9717C7FE5F2328F7ACBE
:10579000B9BF83A74B0013844AFF6198858BC18FE3
:1057A00023A2FB009546B3878B00D4C394C7E37054
:1057B00087DE93858B004A85EFD0BFD9C9BB03A490
:1057C000890093E714005CC0B307940097B6FE5FAE
:1057D00023A8F6DC51B697C7FE5F938727A29C43A8
:1057E000DC5B89E797B7FE5F938747C403A3470E47
:1057F000028385E141116C00014511CA795581CAC6
:10580000834706009CC1034506003335A0004101D3
:105810008280014519CA795589CA834706009CC10F
:10582000034506003335A0008280828093F5F50F92
:105830002A966314C5000145828083470500E38DE5
:10584000B7FE0505FDB763F3A504B386C500637F06
:10585000D5029345F6FF8147FD176393F5008280DB
:105860003387F600034807003387C7002A972300D1
:105870000701DDB73387F500834607003307F500DE
:1058800085072300D700E317F6FE82808147E5BF36
:105890003D432A876373C3029377F700BDEFADE5FD
:1058A000937606FF3D8ABA960CC34CC30CC74CC70F
:1058B0004107E36BD7FE11E28280B306C3408A063C
:1058C0009702000096966780A6002307B700A306FC
:1058D000B7002306B700A305B7002305B700A3044C
:1058E000B7002304B700A303B7002303B700A30244
:1058F000B7002302B700A301B7002301B700A3003C
:10590000B7002300B700828093F5F50F93968500CA
:10591000D58D93960501D58D61B793962700970293
:10592000000096968682E78086FA9680C1171D8FC2
:105930003E96E374C3F8A5B7828082807C4541110E
:1059400026C24AC006C622C4AA842E8995C7F84436
:1059500093172900BA97884315ED054433142401A1
:10596000130654000A0685452685EF30600601CDF2
:105970002322250100C50DA0130610029145EF302A
:105980002005E8C469F50145B24022449244024929
:1059900041018280184198C3232805002326050071
:1059A000E5B789C9DC41139727007C45BA9798432E
:1059B00098C18CC3828079714ECEAA89416522D468
:1059C00026D22E84844906D64AD0D10501487D15B9
:1059D0009C419105050833F7A7003307C702C1832F
:1059E000B387C702369793560701698FB69793D648
:1059F0000701C207BA9723AEF5FEE34B98FC95CE9C
:105A00001C4463C5F4024C404E8536C685053D37BF
:105A100010489305C4002A8909060A063105EFB02B
:105A2000FFC6A2854E85B53FB2464A84938744009F
:105A30008A07A297D4C3850404C82285B250225491
:105A400092540259F24945618280797193878600A8
:105A500052CC368AA54622D426D24ECE2E84B3C747
:105A6000D70206D64AD056CAAA89B284854681454D
:105A700063CAF6044E853AC6D135324785471CC9FC
:105A800058C9A54763D39704930A9400568926946E
:105A900005098346F9FFAA852946938606FD4E85AA
:105AA000193FE31789FE138484FF569426896341C6
:105AB0004903B250225492540259F249624AD24ADE
:105AC000456182808606850565B72904A544F9BF2E
:105AD000B3079940A29783C60700AA8529469386F3
:105AE00006FD4E85C93D0509D9B74177698FAA875B
:105AF000014519E3C2074145370700FF7D8F19E3D0
:105B00002105A207370700F07D8F19E311059207E1
:105B1000370700C07D8F19E309058A0763C90700AD
