:020000042001D9
:100000009721FF5F938181A397E20000938242557D
:10001000739052301701FFDF1301C1FE9700FFDF1D
:10002000938040FE638300008290732540F18145F8
:1000300001460D209700FFDF9380C0FC6383000022
:100040008290970200009382C20073905230032383
:100050000000F5BF06849721FF5F9381219E1381E5
:10006000C108137101FF01E1972201009382424A06
:100070001703FF5F130303F99713FF5F9383432174
:10008000638C6200635A730003A50200910223206F
:10009000A3001103E34A73FE9722010093824247B3
:1000A0001703FF5F130303F69703FF5F938383F543
:1000B000638C6200635A730003A50200910223203F
:1000C000A3001103E34A73FE1713FF5F1303431CDE
:1000D0009383018963577300232003001103E34DC9
:1000E00073FE11C2029617E500001305A563EFE049
:1000F000E05FEFE08066F327103037070100130759
:100100008702F98F99C7F32700300967D98F739059
:1001100007300545972501009385059017260100B6
:100120001306C68FEF10C070EFE0A05DA280828042
:020130008280CB
:1001800014429841BA96370700047D17B3F7E6008A
:100190001CC1E982DC41BE965C42BE96B3F7E60024
:1001A0005CC1E9829C45BE961C46BE96B3F7E6004C
:1001B0001CC5E982DC45BE965C46BE96B3F7E600F8
:1001C0005CC5E9829C49BE961C4ABE96B3F7E60020
:1001D0001CC9E982DC49BE965C4ABE96B3F7E600CC
:1001E0005CC9E9829C4DBE961C4EBE96B3F7E600F4
:1001F0001CCDE982DC4DBE965C4EBE96B3F7E600A0
:100200005CCDE9829C51BE961C52BE96758F18D16A
:10021000E982CC51B6955052B2954CD117330000BB
:10022000670043BE14429841BA96370700047D1711
:10023000B3F7E6001CC1E982DC41BE965C42BE9683
:10024000B3F7E6005CC1E9829C45BE961C46BE96AB
:10025000B3F7E6001CC5E982DC45BE965C46BE9657
:10026000B3F7E6005CC5E9829C49BE961C4ABE967F
:10027000B3F7E6001CC9E982DC49BE965C4ABE962B
:10028000B3F7E6005CC9E9829C4DBE961C4EBE9653
:10029000B3F7E6001CCDE982DC4DBE965C4EBE96FF
:1002A000B3F7E6005CCDE9829C51BE961C52BE9627
:1002B000758F18D1E982CC51B6955052B2954CD178
:1002C0008280B70600041388F6FF832206009C4153
:1002D000938607DAB388564033F7080118C133B75D
:1002E0005600B3B7F600B70610009382F6FF969754
:1002F0003387E74093D7A80193166700DD8EDC4172
:10030000B697B3B6D70069833303D700B70800FCAC
:10031000B3861701032E4600B383C64133F70301AA
:1003200058C133B7F6001A97B3B6C6011697B3068D
:10033000D74013D7A301939766005D8F9C45BA976A
:1003400033B7E700E9823383E60033871701032ED2
:100350008600B303C741B3F6030114C5B336F700F3
:100360009A963337C7019696998E13D7A301939720
:1003700066005D8FDC45BA9733B7E700E9823383C7
:10038000E60033871701032EC600B303C741B3F657
:10039000030154C5B336F7009A963337C7019696D2
:1003A000998E13D7A301939766005D8F9C49BA97E6
:1003B00033B7E700E9823383E60033871701032E62
:1003C0000601B303C741B3F6030114C9B336F700FE
:1003D0009A963337C7019696998E13D7A3019397B0
:1003E00066005D8FDC49BA9733B7E700E982338353
:1003F000E60033871701032E4601B303C741B3F666
:10040000030154C9B336F7009A963337C70196965D
:10041000998E13D7A301939766005D8F9C4DBA9771
:1004200033B7E700E9823383E60033871701032EF1
:100430008601B303C741B3F6030114CDB336F70009
:100440009A963337C7019696998E13D7A30193973F
:1004500066005D8FDC4DBA9733B7E700E9823383DE
:10046000E60033871701032EC601B303C741B3F675
:10047000030154CDB336F7009A963337C7019696E9
:10048000998E13D7A301939766005D8F9C51BA97FD
:1004900033B7E700E9823383E6003387170183230C
:1004A0000602B3087740B3F6080114D1B336F7005B
:1004B0009A96969633377700998E9A0613D7A801A5
:1004C000D98ECC51B6955052918D4CD11733000036
:1004D000670043931308C00701478147B386E500CF
:1004E0009442BE96B307E6009C43BE96B308E5006F
:1004F00093F7F60F23A0F80093D786001107E31FA8
:1005000007FDEC5DBE95705EB2956CDD8280757105
:1005100006C726C5AA84280013060008A6859730BA
:100520000000E78080DA37150220130585C49305A3
:10053000C007014681463387C4001C43BE96B307FB
:10054000A6009C43BE9693F7F60F1CC3A18211062A
:10055000E313B6FEE85C369513050508E8DC1D815B
:1005600005893305A0408C4022462D8E698EB18DC1
:100570008CC0CC4032462D8E698EB18DCCC08C445F
:1005800042462D8E698EB18D8CC4CC4452462D8E40
:10059000698EB18DCCC48C4862462D8E698EB18D2A
:1005A0008CC8CC4872462D8E698EB18DCCC88C4CCF
:1005B00002562D8E698EB18D8CCCCC4C12562D8E60
:1005C000698EB18DCCCC8C5022562D8E698EB18D1A
:1005D0008CD0CC5032562D8E698EB18DCCD08C54AF
:1005E00042562D8E698EB18D8CD4CC5452562D8EA0
:1005F000698EB18DCCD48C5862562D8E698EB18D9A
:100600008CD8CC5872562D8E698EB18DCCD88C5C1E
:1006100006462D8E698EB18D8CDCCC5C16462D8EF7
:10062000698EB18DCCDCAC4026462D8E698EB18DA5
:10063000ACC0EC4036462D8E698EB18DECC0AC441A
:1006400046462D8E698EB18DACC4EC4456462D8E37
:10065000698EB18DECC4AC4866462D8E698EB18D25
:10066000ACC8EC4876462D8E698EB18DECC8AC4C8A
:1006700006562D8E698EB18DACCCEC4C16562D8E57
:10068000698EB18DECCCAC5026562D8E698EB18D15
:10069000ACD0EC5036562D8E698EB18DECD0AC546A
:1006A00046562D8E698EB18DACD4EC5456562D8E97
:1006B000698EB18DECD4AC5866562D8E698EB18D95
:1006C000ACD8EC5876562D8E698EB18DECD8AC5CDA
:1006D0000A462D8E698EB18DACDCEC5C1A462D8EEF
:1006E000718D2D8DE8DCAA44BA4049618280317158
:1006F00006DF26DD4ADB4ED952D756D5AE892A8988
:10070000130A010852852E8697100000E780C01357
:10071000930A81055685D285528697100000E7809E
:10072000A0125685D685568697100000E780C01126
:100730005685D6854E8697100000E780E0105285DA
:10074000D285568697100000E780001093090103B8
:100750004E85D285528697100000E780E00E5685C0
:10076000CE85568697100000E780000E4E85D68510
:10077000568697100000E780200D4E85CE854E8668
:1007800097100000E780400C4E85CE854E8697106E
:100790000000E780600B4E85CE854E8697100000E6
:1007A000E780800A4E85CE854E8697100000E78050
:1007B000A0094E85D6854E8697100000E780C008B8
:1007C0005685CE854E8697100000E780E007568557
:1007D000D685568697100000E78000075685D68597
:1007E000568697100000E78020065685D6855686E7
:1007F00097100000E78040055685D68556869710ED
:100800000000E78060045685D68556869710000064
:10081000E78080035685D685568697100000E780CE
:10082000A0025685D685568697100000E780C00145
:100830005685D685568697100000E780E0005685DD
:10084000D685568697100000E78000005685CE8535
:10085000568697100000E78020FF130A810052851A
:10086000D685568697100000E78000FE5285D28517
:10087000528697100000E78020FD5285D28552866F
:1008800097100000E78040FC5285D2855286971071
:100890000000E78060FB5285D285528697100000E9
:1008A000E78080FA5285D285528697100000E78053
:1008B000A0F95285D285528697100000E780C0F8D3
:1008C0005285D285528697100000E780E0F7528566
:1008D000D285528697100000E78000F75285D285B6
:1008E000528697100000E78020F65285D285528606
:1008F00097100000E78040F55285D2855286971008
:100900000000E78060F45285D2855286971000007F
:10091000E78080F35285D285528697100000E780E9
:10092000A0F25285D285528697100000E780C0F170
:100930005285D285528697100000E780E0F05285FC
:10094000D285528697100000E78000F05285D2854C
:10095000528697100000E78020EF5285D28552869C
:1009600097100000E78040EE5285D285528697109E
:100970000000E78060ED5685D6855286971000000E
:10098000E78080EC5685D685568697100000E78074
:10099000A0EB5685D685568697100000E780C0EA02
:1009A0005685D685568697100000E780E0E9568583
:1009B000D685568697100000E78000E95685D685D3
:1009C000568697100000E78020E85685D685568623
:1009D00097100000E78040E75685D6855686971029
:1009E0000000E78060E65685D685568697100000A1
:1009F000E78080E55685D685568697100000E7800B
:100A0000A0E45685D685568697100000E780C0E39F
:100A10005285D6854E8697100000E780E0E2568525
:100A2000D285528697100000E78000E25685D68571
:100A3000568697100000E78020E15685D6855686B9
:100A400097100000E78040E05685D68556869710BF
:100A50000000E78060DF5685D68556869710000037
:100A6000E78080DE5685D685568697100000E780A1
:100A7000A0DD5685D685568697100000E780C0DC3D
:100A80005685D685568697100000E780E0DB5685B0
:100A9000D685568697100000E78000DB5685D68500
:100AA000568697100000E78020DA5685D685568650
:100AB00097100000E78040D95685D6855686971056
:100AC0000000E78060D85685D685568697100000CE
:100AD000E78080D75685D685568697100000E78038
:100AE000A0D65685D685568697100000E780C0D5DB
:100AF0005685D685568697100000E780E0D4568547
:100B0000D685568697100000E78000D45685D68596
:100B1000568697100000E78020D35685D6855686E6
:100B200097100000E78040D25685D68556869710EC
:100B30000000E78060D15685D68556869710000064
:100B4000E78080D05685D685568697100000E780CE
:100B5000A0CF5685D685568697100000E780C0CE78
:100B60005685D685568697100000E780E0CD5685DD
:100B7000D685568697100000E78000CD5685D6852D
:100B8000568697100000E78020CC5685D68556867D
:100B900097100000E78040CB5685D6855686971083
:100BA0000000E78060CA5685D685568697100000FB
:100BB000E78080C95685D685568697100000E78065
:100BC000A0C85685D685568697100000E780C0C716
:100BD0005685D685568697100000E780E0C6568574
:100BE000D685568697100000E78000C65685D685C4
:100BF000568697100000E78020C55685D685568614
:100C000097100000E78040C45685D6855686971019
:100C10000000E78060C35685D68556869710000091
:100C2000E78080C25685D685568697100000E780FB
:100C3000A0C15685D685568697100000E780C0C0B3
:100C40005685D685568697100000E780E0BF56850A
:100C5000D685568697100000E78000BF5685D6855A
:100C6000568697100000E78020BE5685D6855686AA
:100C700097100000E78040BD5685D68556869710B0
:100C80000000E78060BC5685D68556869710000028
:100C9000E78080BB5685D685568697100000E78092
:100CA000A0BA5685D685568697100000E780C0B951
:100CB0005685D685568697100000E780E0B85685A1
:100CC000D685568697100000E78000B85685D685F1
:100CD000568697100000E78020B74E85D68552864D
:100CE00097100000E78040B65685CE854E86971057
:100CF0000000E78060B55685D685568697100000BF
:100D0000E78080B48944930940065685D685568687
:100D100097100000E78040B35685D6855686971019
:100D20000000E78060B28904E3E134FFA4081018F2
:100D30002685A68597100000E78000B12685A68548
:100D4000268697100000E78020B02685A685268697
:100D500097100000E78040AF2685A685268697106D
:100D60000000E78060AE2685A685268697100000E5
:100D7000E78080AD2685A685268697100000E7804F
:100D8000A0AC2685A685268697100000E780C0AB1C
:100D90002685A685268697100000E780E0AA26858E
:100DA000A685268697100000E78000AA2685A685DE
:100DB000268697100000E78020A92685A68526862E
:100DC00097100000E78040A82685A6852686971004
:100DD0000000E78060A72685A6852686971000007C
:100DE000E78080A62685A685268697100000E780E6
:100DF000A0A52685A685268697100000E780C0A4BA
:100E00002685A685268697100000E780E0A3268524
:100E1000A685268697100000E78000A32685A68574
:100E2000268697100000E78020A22685A6852686C4
:100E300097100000E78040A12685A685268697109A
:100E40000000E78060A02685A68526869710000012
:100E5000E780809F2685A685268697100000E7807C
:100E6000A09E2685A685268697100000E780C09D57
:100E70002685A685268697100000E780E09C2685BB
:100E8000A685268697100000E780009C2685A6850B
:100E9000268697100000E780209B2685A68526865B
:100EA00097100000E780409A2685A6852686971031
:100EB0000000E78060992685A685268697100000A9
:100EC000E78080982685A685268697100000E78013
:100ED000A0972685A685268697100000E780C096F5
:100EE0002685A685268697100000E780E095268552
:100EF000A685268697100000E78000952685A685A2
:100F0000268697100000E78020942685A6852686F1
:100F100097100000E78040932685A68526869710C7
:100F20000000E78060922685A6852686971000003F
:100F3000E78080912685A685268697100000E780A9
:100F4000A0902685A685268697100000E780C08F92
:100F50002685A685268697100000E780E08E2685E8
:100F6000A685268697100000E780008E2685A68538
:100F7000268697100000E780208D2685A685268688
:100F800097100000E780408C2685A685268697105E
:100F90000000E780608B2685A685268697100000D6
:100FA000E780808A2685A685268697100000E78040
:100FB000A0892685A685268697100000E780C08830
:100FC0002685A685268697100000E780E08726857F
:100FD000A685268697100000E78000872685A685CF
:100FE000268697100000E78020862685A68526861F
:100FF00097100000E780408530002685A685971071
:101000000000E78060842685A6852686971000006C
:10101000E78080832685A685268697100000E780D6
:10102000A0822685A685268697100000E780C081CD
:101030002685A685268697100000E780E080268515
:10104000A685268697100000E780008010014A855B
:10105000A68597000000E780207FAA5A3A5ACA590D
:101060005A59EA54FA502961828003C615002206B3
:1010700083C60500558E83C62500C206558E83C6DD
:1010800035008D8AE206558E10C103C635000982EF
:1010900083C645009A06558E83C65500BA06558EFE
:1010A00083C66500BD8ADA06558E50C103C6650049
:1010B000118283C675009206558E83C68500B206DE
:1010C000558E83C6950093F6F603D206558E10C54D
:1010D00003C69500198283C6A5008A06558E83C66D
:1010E000B500AA06558E83C6C500CA06558E50C5E2
:1010F00003C6E500220683C6D500558E83C6F500DB
:10110000C206558E83C605018D8AE206558E10C92A
:1011100003C60501098283C615019A06558E83C64A
:101120002501BA06558E83C63501BD8ADA06558E6D
:1011300050C903C63501118283C645019206558EFA
:1011400083C65501B206558E83C6650193F6F60334
:10115000D206558E10CD03C66501198283C675016E
:101160008A06558E83C68501AA06558E83C69501CB
:10117000CA06558E50CD03C6B501220683C6A50109
:10118000558E83C6C501C206558E83C6D5018D8A8C
:10119000E206558E10D103C6D501098283C6E5014A
:1011A0009A06558E83C5F501BA05D18D4CD1828042
:1011B000D0513982A30FC500D0511982230FC50029
:1011C000D0510A0683C635023696A30EC50003D653
:1011D0002502230EC50090512182A30DC500905118
:1011E000230DC500D04D4982A30CC500D04D2982E6
:1011F000230CC500D04D0982A30BC500904D518230
:10120000D44D9A063696230BC500904D3182A30A21
:10121000C500904D1182230AC500D0495982944DD2
:1012200092063696A309C500D04939822309C50024
:10123000D0491982A308C500D0490A0683C63501E2
:1012400036962308C50003D62501A307C50090499B
:1012500021822307C5009049A306C500D0454982D5
:101260002306C500D0452982A305C500D0450982C3
:101270002305C50090455182D4459A063696A304AD
:10128000C500904531822304C50090451182A30317
:10129000C500D04159829445920636962303C50075
:1012A000D0413982A302C500D04119822302C50072
:1012B000D0410A0683C635003696A301C50003D681
:1012C00025002301C50090412182A300C5008C4167
:1012D0002300B5008280757106C726C54AC34EC17A
:1012E000D2DE328A2A89930941004E859700000098
:1012F000E780E0D737050004611592456D8D2AC25D
:10130000370510009305F5FF2256F18D4D8D2AD437
:1013100064102685D28597000000E78040D5268599
:10132000CE8597200000E78060BD930941054E857A
:10133000CE8597F0FFFFE780C03B2685A6854E86C9
:1013400097000000E7804050268597F0FFFFE78078
:10135000401C4A85A68597000000E780A0E501456E
:10136000765A8A491A49AA44BA40496182800000E3
:10137000411106C626C44AC24EC0AA84054563C2AE
:10138000A5022E8937150220930985CC83C5040058
:101390004E8597200000E780A00085047D19E317A3
:1013A00009FE294582491249A244B240410117234E
:1013B000000067000302011106CE26CC4ACA4EC8BF
:1013C00052C69389350013065009634736038A05D0
:1013D000B304B500371502201309D5CC130A6009F0
:1013E0008840CC44898D4A8597200000E78040FBE7
:1013F000B1048D09E3C649FF2945324AC249524921
:10140000E244F240056117230000670083FC1301EA
:1014100001D6232E1128232C9128232A2129232881
:101420003129232641292324512923226129972068
:101430000000E780C0E7930AC10237050080130966
:10144000050237050080130A05009309C100130B3C
:101450008025814433859A0097200000E78080E34F
:101460004E85CA85528697100000E780E042B1049D
:10147000E39264FF37150220130535CD9720000055
:10148000E78000F28D44371502209309D5CC13096B
:10149000600903A50A0083A5CA00898D4E8597209F
:1014A0000000E780E0EFB10A8D04E3E424FF294562
:1014B00097200000E780E0F1371502201305B5CE34
:1014C00097200000E780C0ED114A641803A544FF8F
:1014D0008C40898D4E8597200000E78060ECB10438
:1014E0000D0AE3652AFF294597200000E78060EE9A
:1014F000371502201305A5D097200000E78040EAA9
:10150000154A840003A544FF8C40898D4E859720A1
:101510000000E780E0E8B1040D0AE3652AFF2949ED
:101520004A8597200000E780C0EA3715022013059E
:10153000D5D197200000E780A0E68345C10037158C
:101540000220930485CC268597200000E78040E5A3
:101550008345D100268597200000E78060E483451D
:10156000E100268597200000E78080E38345F100B5
:10157000268597200000E780A0E2834501012685AB
:1015800097200000E780C0E1834511012685972060
:101590000000E780E0E083452101268597200000D8
:1015A000E78000E083453101268597200000E78031
:1015B00020DF83454101268597200000E78040DE3B
:1015C00083455101268597200000E78060DD834533
:1015D0006101268597200000E78080DC834571014A
:1015E000268597200000E780A0DB834581012685C2
:1015F00097200000E780C0DA834591012685972077
:101600000000E780E0D98345A101268597200000EE
:10161000E78000D98345B101268597200000E78047
:1016200020D88345C101268597200000E78040D758
:101630008345D101268597200000E78060D6834549
:10164000E101268597200000E78080D58345F101E0
:10165000268597200000E780A0D4834501022685D7
:1016600097200000E780C0D383451102268597208C
:101670000000E780E0D28345210226859720000004
:10168000E78000D283453102268597200000E7805D
:1016900020D183454102268597200000E78040D075
:1016A00083455102268597200000E78060CF83455F
:1016B0006102268597200000E78080CE8345710275
:1016C000268597200000E780A0CD834581022685EE
:1016D00097200000E780C0CC8345910226859720A3
:1016E0000000E780E0CB8345A1022685972000001B
:1016F000E78000CB8345B102268597200000E78074
:1017000020CA4A8597200000E780A0CC3715022028
:10171000130565D297200000E78080DA032B41286B
:10172000832A8128032AC1288329012903294129E1
:10173000832481298320C1291301012A828000008A
:10174000411106C626C44AC24EC0AE84854563C454
:10175000B4029309F5FF37150220130985CC3385B0
:101760009900834505004A8597200000E78040C323
:10177000FD14E34690FE294582491249A244B24035
:101780004101172300006700C3C4411106C626C4E7
:101790004AC24EC0AA84054563C2A5022E893715E8
:1017A0000220930985CC83C504004E859720000054
:1017B000E78000BF85047D19E31709FE29458249AA
:1017C0001249A244B240410117230000670063C0E0
:1017D000411106C6AA8537150220130585D2972028
:1017E0000000E780E0BBB24041018280411106C6A3
:1017F00026C44AC24EC0AA84054563C1A5022E89EB
:10180000371502209309B5D28C404E8597200000F1
:10181000E78000B991047D19E31809FE2945824942
:101820001249A244B240410117230000670063BA85
:10183000411106C697000000E780A0BD0145B240F7
:1018400041018280757122C726C54AC34EC1D2DECE
:1018500086DC370A00047D1A2A84AE843289281077
:1018600097100000E780800B83A2040003AF4401BF
:1018700003A3440037080004B382E24113D5F241C8
:10188000B375A80083AF8401AE9205893303A340EA
:101890003303F34183A384001355F341B375A800C8
:1018A00003AFC4012E930589B383A340B383E341FF
:1018B00003AEC40013D5F341B375A80083AF04028F
:1018C000AE930589330EAE40330EFE4183AE040164
:1018D0001355FE41B375A80003AF44022E9E05893F
:1018E000B38EAE40B38EEE4193D9FE4133F549013C
:1018F000B3C2A2003343A300B3C3A300334EAE0070
:10190000B3CE3E0133053041AA9213D5F2012A939A
:10191000B3F242011355F301AA933373430113D574
:10192000F3012A9EB3F343011355FE01AA9E337EB1
:101930004E0196C89ACA9ECCF2CEF6D083220900F8
:10194000032F49010323490037080004B382E24111
:1019500013D5F241B375A800832F8901AE92058992
:101960003303A3403303F341832389001355F34129
:10197000B375A800032FC9012E930589B383A34033
:10198000B383E341032EC90013D5F341B375A80017
:10199000832F0902AE930589330EAE40330EFE410C
:1019A000832E09011355FE41B375A800032F490288
:1019B0002E9E0589B38EAE40B38EEE4193D5FE4187
:1019C00033F54501B3C2A2003343A300B3C3A30060
:1019D000334EAE00B3CEBE003305B040AA9213D54D
:1019E000F2012A93B3F242011355F301AA93337320
:1019F000430113D5F3012A9EB3F343011355FE01AE
:101A0000AA9E337E4E01B3C9B90096D29AD49ED60F
:101A1000F2D8F6DA0A858C08D01097100000E7801B
:101A2000E0EF8808938544011306490197100000F0
:101A3000E780C0EEF25E064F964F2645B645464615
:101A4000D6466647F647065876969652FA967E9799
:101A5000AA972E98265EB30E560013931200939306
:101A600042001E939A9293D452019602B3F242011D
:101A70001696B652338FC60113131E0093134E00F1
:101A80001E931A9E13595E01160E337E4E01269E3A
:101A9000F296465EB30F57001393120093934200E1
:101AA0001E931693935453011603337343014A93C1
:101AB0001A97D6523385C70113131E0093134E0095
:101AC0001E937293135953011603337343012693E4
:101AD0009A97524EB3055800139312009393420005
:101AE0001E931693935453011603337343014A9381
:101AF0001A9813931400939344001E9316039A9E0E
:101B0000E2424E9E334E3E01B38ECE4133A30E00D1
:101B1000330F6F40B70800043303604033F36800AD
:101B20009A9E13D3AE011A9FB3FE4E01724ECE920F
:101B3000B3C23201330F5F4033230F00B38F6F40C6
:101B40003303604033F368001A9F1353AF019A9F29
:101B5000337F4F0182524E9E334E3E01B38FCF41B1
:101B600033A30F00330565403303604033F368004F
:101B70009A9F13D3AF011A95B3FF4F01125ECE9215
:101B8000B3C232013305554033230500B3856540A8
:101B900033036040337313011A951353A5019A95CB
:101BA000337545014E9E334E3E01B385C541332307
:101BB00005009303002633036040B3F3630033064C
:101BC0007640337313019A9513D3A5019313130031
:101BD000131E4300F2931E9316031A96B3F54501A4
:101BE00013931E0093934E001E939A9E93D45E010E
:101BF000960EB3FE4E0113131F0093134F001E9356
:101C00001A9F13595F01160F337F4F01269F1393BD
:101C10001F0093934F001E939A9F93D45F01960FDA
:101C2000B3FF4F01CA9F13131500931345001E9372
:101C30001A951359550116053375450126951393C9
:101C40001500939345001E939A9593D455019605DC
:101C5000B3F54501CA952696A2523253C253525942
:101C6000625E1696969E82429A961A9F1E979E9F35
:101C7000CA974A957298F295124ECE92B3C232012B
:101C80003306564033230600B38666403303604074
:101C9000337313011A96A2424E9E334E3E01B38611
:101CA000C64133A3060033076740330360403373F4
:101CB00013019A96324ECE92B3C232013307574087
:101CC00033230700B3876740330360403373130146
:101CD0001A97C2424E9E334E3E01B387C74133A38B
:101CE00007003308684033036040337313019A9749
:101CF000CE92B3C232013308584033230800330375
:101D0000604093030026B3737300B38E7E40337339
:101D100013011A9893D2AE01169FB3FE4E0193524F
:101D2000AF01969F337F4F0193D2AF011695B3FF5A
:101D30004F019352A50196953375450193D2A501A4
:101D40001696B3F545019352A60196963376460151
:101D500093D2A6011697B3F646019352A701969720
:101D60003377470193D2A7011698B3F747019352EF
:101D7000580113931200939342001E931693B702D7
:101D80002000FD12337858009A9E93D2AE01169F20
:101D9000B3FE4E019352AF01969F337F4F0193D212
:101DA000AF011695B3FF4F019352A5019695337578
:101DB000450193D2A5011696B3F545019352A601AC
:101DC00096963376460193D2A6011697B3F646014E
:101DD0009352A70196973377470193D2A70116989C
:101DE0002320D4012322E4012324F40148C40CC895
:101DF00050C814CC58CC1CD0232204033A44AA4423
:101E00001A498A49765AE65049618280011122CEE8
:101E100026CC4ACA4EC852C656C45AC206C02A84E4
:101E2000AE84328988408325090097000000E7804E
:101E3000602608C0B309B500C8402E8A8325490032
:101E400097000000E7800025AA9983A2040003A35D
:101E5000440083230900032E49002A9A2E9AAE8F4C
:101E6000B382624093DAF241B383C34113DBF3419F
:101E7000D69233C55201DA93B3C56301B3CA6A017E
:101E80007E8B97000000E780E02056953345550192
:101E9000B389A940D695B3C55501330ABA40370373
:101EA00000047D13B3A20900330A5A4093031300C0
:101EB000B3025040B3F253009699B3220A00330B99
:101EC0005B40B3025040B3F25300169A93D2A9017B
:101ED000169AB3F969009352AA01169B337A6A00E5
:101EE0002322340123244401232664017244E24462
:101EF0005249C249324AA24A124B8240056182804D
:101F00005D71A2C6A6C4CAC2CEC052DE06DC370AC4
:101F100000047D1A2A84AE8432890A859700000065
:101F2000E78000EF83A2040003A3440083A384009E
:101F3000B382724013DEF24193731E003303734089
:101F400013051A003375AE00AA929359F341B3F307
:101F5000490133433301B3C27200330E7040F29231
:101F600013DEA2017293B3F2420116D01AD2832279
:101F700009000323490083238900B382724013DEE2
:101F8000F24193731E003303734013051A00337537
:101F9000AE00AA92135EF34133754E013343C30181
:101FA000B3C2A200B30EA040F69293DEA2017693D4
:101FB000B3F2420116D41AD6B3C9C90108080C10ED
:101FC000301097000000E780A0E488448325890052
:101FD00097000000E780000C2247B2470246924675
:101FE0003A95BE953307C500B387D500C242524328
:101FF000E243724ECE92B3C232014E933343330169
:10200000CE93B3C333014E9E334E3E013307574048
:10201000B387674033057540B385C541B3220700D8
:10202000B387574093031A00B3025040B3F25300F2
:102030001697B3A2070033055540B3025040B3F2E0
:1020400053009697B3220500B3855540B302504024
:10205000B3F2530016959352A70196973377470131
:1020600093D2A7011695B3F747019352A501969510
:102070003375450110C054C018C45CC408C84CC8AE
:102080003644A64416498649725AE25061618280FC
:10209000370700047D1713F31500330360403376D0
:1020A0006500858113F31500330360409353950158
:1020B000B3F6630093131500B3F3E300B3F36300C7
:1020C0001E96858113F315003303604093538501F9
:1020D000B3F363009E9693132500B3F3E300B3F3C9
:1020E00063001E96858113F31500330360409353FC
:1020F0007501B3F363009E9693133500B3F3E300C9
:10210000B3F363001E96858113F31500330360401B
:1021100093536501B3F363009E9693134500B3F3A5
:10212000E300B3F363001E96858113F315003303B8
:10213000604093535501B3F363009E96931355008B
:10214000B3F3E300B3F363001E96858113F3150028
:102150003303604093534501B3F363009E9693139A
:102160006500B3F3E300B3F363001E96858113F3B8
:1021700015003303604093533501B3F363009E961B
:1021800093137500B3F3E300B3F363001E968581E8
:1021900013F315003303604093532501B3F3630039
:1021A0009E9693138500B3F3E300B3F363001E968A
:1021B000858113F315003303604093531501B3F386
:1021C00063009E9693139500B3F3E300B3F36300AB
:1021D0001E96858113F31500330360409353050168
:1021E000B3F363009E969313A500B3F3E300B3F338
:1021F00063001E96858113F31500330360409353EB
:10220000F500B3F363009E969313B500B3F3E300B8
:10221000B3F363001E96858113F31500330360400A
:102220009353E500B3F363009E969313C500B3F395
:10223000E300B3F363001E96858113F315003303A7
:1022400060409353D500B3F363009E969313D5007B
:10225000B3F3E300B3F363001E96858113F3150017
:10226000330360409353C500B3F363009E9693130A
:10227000E500B3F3E300B3F363001E96858113F327
:102280001500330360409353B500B3F363009E968B
:102290009313F500B3F3E300B3F363001E96858157
:1022A00013F31500330360409353A500B3F36300A9
:1022B0009E9693130501B3F3E300B3F363001E96F8
:1022C000858113F315003303604093539500B3F3F6
:1022D00063009E9693131501B3F3E300B3F3630019
:1022E0001E96858113F315003303604093538500D8
:1022F000B3F363009E9693132501B3F3E300B3F3A6
:1023000063001E96858113F31500330360409353D9
:102310007500B3F363009E9693133501B3F3E300A6
:10232000B3F363001E96858113F3150033036040F9
:1023300093536500B3F363009E9693134501B3F383
:10234000E300B3F363001E96858113F31500330396
:10235000604093535500B3F363009E969313550169
:10236000B3F3E300B3F363001E96858113F3150006
:102370003303604093534500B3F363009E96931379
:102380006501B3F3E300B3F363001E96858113F395
:1023900015003303604093533500B3F363009E96FA
:1023A00093137501B3F3E300B3F363001E968581C5
:1023B00013F315003303604093532500B3F3630018
:1023C0009E9693138501B3F3E300B3F363001E9667
:1023D000858113F315003303604093531500B3F365
:1023E00063009E9693139501B3F3E300B3F3630088
:1023F0001E969352A601B38556003375E60082807F
:10240000011122CE26CC4ACA4EC852C683A205006C
:102410002A84AE84B7080004FD1813936200337356
:102420001301169393931200B3897200139E020155
:10243000337E1E011A9E93938900B3F313011E9EEF
:102440008E03B3F313011E9E8E03B3F31301B30E79
:102450007E0013D9420193D2A200169983A24400B0
:1024600093D9C9004E9993D939004E9993D939001F
:10247000330F390113D9AE014A9FB3FE1E011393E6
:10248000620033731301169393931200B3897200A1
:10249000139E0201337E1E011A9E93938900B3F3AB
:1024A00013011E9E8E03B3F313011E9E8E03B3F31E
:1024B0001301F2931E9F13D9420193D2A2001699E1
:1024C00083A2840093D9C9004E9993D939004E99BB
:1024D00093D93900B30F39011359AF01CA9F337F24
:1024E0001F01139362003373130116939393120029
:1024F000B3897200139E0201337E1E011A9E9393CC
:102500008900B3F313011E9E8E03B3F313011E9EC5
:102510008E03B3F31301F2939E9F13D9420193D21A
:10252000A200169983A2C40093D9C9004E9993D9E9
:1025300039004E9993D939003305390113D9AF01C8
:102540004A95B3FF1F01139362003373130116936F
:1025500093931200B3897200139E0201337E1E0111
:102560001A9E93938900B3F313011E9E8E03B3F357
:1025700013011E9E8E03B3F31301F2931E9513D91C
:10258000420193D2A200169983A2040193D9C900F3
:102590004E9993D939004E9993D93900B305390131
:1025A0001359A501CA95337515011393620033734E
:1025B0001301169393931200B3897200139E0201C4
:1025C000337E1E011A9E93938900B3F313011E9E5E
:1025D0008E03B3F313011E9E8E03B3F31301F29324
:1025E0009E9513D9420193D2A200169983A2440169
:1025F00093D9C9004E9993D939004E9993D939008E
:102600003306390113D9A5014A96B3F51501139381
:10261000620033731301169393931200B38972000F
:10262000139E0201337E1E011A9E93938900B3F319
:1026300013011E9E8E03B3F313011E9E8E03B3F38C
:102640001301F2931E9613D9420193D2A200169958
:1026500083A2840193D9C9004E9993D939004E9928
:1026600093D93900B30639011359A601CA963376B6
:1026700016011393620033731301169393931200A0
:10268000B3897200139E0201337E1E011A9E93933A
:102690008900B3F313011E9E8E03B3F313011E9E34
:1026A0008E03B3F31301F2939E9613D9420193D292
:1026B000A200169983A2C40193D9C9004E9993D957
:1026C00039004E9993D939003307390113D9A6013E
:1026D0004A97B3F6160113936200337313011693EE
:1026E00093931200B3897200139E0201337E1E0180
:1026F0001A9E93938900B3F313011E9E8E03B3F3C6
:1027000013011E9E8E03B3F31301F2931E9713D988
:10271000420193D2A200169983A2040293D9C90060
:102720004E9993D939004E9993D93900B30739019D
:102730001359A701CA9733771701139362003373B4
:102740001301169393931200B3897200139E020132
:10275000337E1E011A9E93938900B3F313011E9ECC
:102760008E03B3F313011E9E8E03B3F31301F29392
:102770009E9713D9420193D2A200169983A24402D4
:1027800093D9C9004E9993D939004E9993D93900FC
:102790003308390113D9A7014A98B3F7170137094C
:1027A00020007D19139362003373230116939393D2
:1027B0001200B3897200139E0201337E2E011A9E0D
:1027C00093938900B3F323011E9E8E03B3F3230179
:1027D0001E9E8E03B3F32301F2931E9813535801E8
:1027E0003378280113D9F20093D25200169993D965
:1027F00079004E9993D939004E9993D939004E9961
:102800001A999312490013131900CA929A92969E2C
:1028100013D3AE01B3FE1E011A9F1353AF01337FD2
:102820001F019A9F13D3AF01B3FF1F011A951353D2
:10283000A501337515019A9513D3A501B3F51501BB
:102840001A961353A601337616019A9613D3A6014E
:10285000B3F616011A971353A701337717019A9706
:1028600013D3A701B3F717011A982320D401232209
:10287000E4012324F40148C40CC850C814CC58CC3B
:102880001CD0232204037244E2445249C249324A12
:1028900005618280757106C722C54AC32A843289C0
:1028A0000A8597E0FFFFE780807C82421253B703DE
:1028B0000004E113B3F2720016C0B7032000FD1349
:1028C00033737300B7031000336373001AD22810F8
:1028D000CA8597E0FFFFE780807928108A859700F6
:1028E0000000E780A06188088C0897E0FFFFE78080
:1028F00040E028102C10900897F0FFFFE780C0F40C
:1029000022852C1097F0FFFFE780C08ABA402A4446
:102910001A494961828000005971A2D6A6D4CAD250
:10292000CED0D2CE86CC2A84AE843289370A000437
:102930007D1A0818B105310697F0FFFFE780404D7A
:102940002808A6854A8697F0FFFFE780A05B83A250
:10295000040003A3440083A3840003AEC40083AE39
:10296000040137050004B382C24193D5F2413376A6
:10297000B500B29285893303B3403303D3419355F5
:10298000F3413376B50032938589B383B34093D94D
:10299000F34133FE4901B3C2C2013343C301B3C3A0
:1029A0003301330E3041F29213DEA2017293B3F27F
:1029B0004201135EA301F2933373430196C09AC29E
:1029C0009EC4832209000323490083238900032E28
:1029D000C900832E0901B382C24193D5F2413376F7
:1029E000B500B29285893303B3403303D341935585
:1029F000F3413376B50032938589B383B34013D561
:102A0000F341337E4501B3C2C2013343C301B3C3B3
:102A1000A300330EA040F29213DEA2017293B3F230
:102A20004201135EA301F2933373430196C69AC821
:102A30009ECA33CCA9000A858C00F00097F0FFFFF6
:102A4000E780404CE24E724F825F1255A2553256DB
:102A5000C2565257E2577258AA962E97B2973385AC
:102A6000DE00B305EF003386FF00C2962320D401B9
:102A70002322E4012324F40182421243A243324E72
:102A8000C24E524FCE92B3C232014E933343330102
:102A9000CE93B3C333014E9E334E3E01CE9EB3CE92
:102AA0003E014E9F334F3F0133055540B38565408E
:102AB00033067640B386C6413307D741B387E74133
:102AC000B3220500B3855540130E1A00B3025040DF
:102AD000B3725E001695B3A2050033065640B302EA
:102AE0005040B3725E009695B3220600B3865640FE
:102AF000B3025040B3725E001696B3A206003307CD
:102B00005740B3025040B3725E009696B32207005E
:102B1000B3875740B3025040B3725E00169793528A
:102B2000A50196953375450193D2A5011696B3F587
:102B300045019352A60196963376460193D2A6019B
:102B40001697B3F646019352A7019697337747013C
:102B500093D2A7011698B3F7470148C40CC850C8D0
:102B600014CC58CC1CD0232204033654A654165936
:102B70008659764AE640656182800000832206001D
:102B800003A306007D17B3C36200B3737700032E5F
:102B9000460083AE4600334F7300B3CF720023204C
:102BA000E50123A0F501B343DE01B3F3E300832283
:102BB000860003A3860033CF7E00B34F7E0023221E
:102BC000E50123A2F501B3C36200B3F3E300032ED2
:102BD000C60083AEC600334F7300B3CF7200232408
:102BE000E50123A4F501B343DE01B3F3E30083223F
:102BF000060103A3060133CF7E00B34F7E002326D8
:102C0000E50123A6F501B3C36200B3F3E300032E8D
:102C1000460183AE4601334F7300B3CF72002328C1
:102C2000E50123A8F501B343DE01B3F3E3008322FA
:102C3000860103A3860133CF7E00B34F7E00232A93
:102C4000E50123AAF501B3C36200B3F3E300032E49
:102C5000C60183AEC601334F7300B3CF7200232C7D
:102C6000E50123ACF501B343DE01B3F3E3008322B6
:102C7000060203A3060233CF7E00B34F7E00232E4D
:102C8000E50123AEF501B3C36200B3F3E300032E05
:102C9000460283AE4602334F7300B3CF7200232047
:102CA000E50323A0F503B343DE01B3F3E30083227E
:102CB000860203A3860233CF7E00B34F7E00232219
:102CC000E50323A2F503B3C36200B3F3E300032ECD
:102CD000C60283AEC602334F7300B3CF7200232403
:102CE000E50323A4F503B343DE01B3F3E30083223A
:102CF000060303A3060333CF7E00B34F7E002326D3
:102D0000E50323A6F503B3C36200B3F3E300032E88
:102D1000460383AE4603334F7300B3CF72002328BC
:102D2000E50323A8F503B343DE01B3F3E3008322F5
:102D3000860303A3860333CF7E00B34F7E00232A8E
:102D4000E50323AAF503B3C36200B3F3E300032E44
:102D5000C60383AEC603334F7300B3CF7200232C78
:102D6000E50323ACF503B343DE01B3F3E3008322B1
:102D7000060403A3060433CF7E00B34F7E00232E48
:102D8000E50323AEF503B3C36200B3F3E300032E00
:102D9000460483AE4604334F7300B3CF7200232042
:102DA000E50523A0F505B343DE01B3F3E300832279
:102DB000860403A3860433CF7E00B34F7E00232214
:102DC000E50523A2F505B3C36200B3F3E300032EC8
:102DD000C60483AEC604334F7300B3CF72002324FE
:102DE000E50523A4F505B343DE01B3F3E30033CFD8
:102DF0007E00B34F7E002326E50523A6F5058280DD
:102E0000832205000323450083238500032EC5008C
:102E1000832E0501032F4501832F85014C4D105151
:102E2000545113D7A201370800047D18B3F20201F0
:102E30001A973373070169831E97B3730701698378
:102E40007297337E070169837697B37E07016983A2
:102E50007A97337F070169837E97B37F0701698380
:102E60002E97B3750701698332973376070169831B
:102E70003697B7072000FD17B376F70055839317F1
:102E8000470093181700C6973E971697B37207012D
:102E900069831A973373070169831E97B373070118
:102EA00069837297337E070169837697B37E070142
:102EB00069837A97337F070169837E97B37F070120
:102EC00069832E97B37507016983329733760701BB
:102ED0006983BA96232055002322650023247500B8
:102EE0002326C5012328D501232AE501232CF5013A
:102EF0004CCD10D154D1828061712326811A2324B4
:102F0000911A2322211B2320311B232E4119232C0C
:102F10005119232A11182A84AE8483220400032322
:102F2000440083238400032EC40016C01AC28322E7
:102F30000401032344011EC472C683238401032EAB
:102F4000C40116C81ACA83220402032344021ECCF9
:102F500072CE16D01AD2854216D496C802D602D89E
:102F600002DA02DC02DE82C082C282C482C682CA67
:102F700082CC82CE82D082D282D482D682D882DAA9
:102F800082DC82DE02C102C302C502C702C902CBD3
:102F900002CD02CF83AA4402D14933DA3A01137A2F
:102FA0001A0088088A8590088A8652879700000050
:102FB000E78000BD08118C08B01897D0FFFFE780AC
:102FC000601CA8018C08B01897D0FFFFE780A02FE5
:102FD00088198A85301097D0FFFFE780A01A280A49
:102FE0008A85301097D0FFFFE780E02D88020C1112
:102FF000101197F0FFFFE7802085A812AC01B00107
:1030000097F0FFFFE780408408112C0A101197F019
:10301000FFFFE7806083A8018C19B00197F0FFFFE4
:10302000E78080828819AC01101197D0FFFFE780FC
:103030006015280AAC01101197D0FFFFE780A02887
:1030400008112C0A300A97E0FFFFE780E07F281084
:103050000C11228697E0FFFFE780007F0A858C191C
:10306000901997E0FFFFE780207E88198C02B0124C
:1030700097D0FFFFE7802025280A8C1997F0FFFFE3
:10308000E7804038280A2C0A900297D0FFFFE7809B
:10309000600F88088C02B01297E0FFFFE780C07ACB
:1030A000A8188C19300A97E0FFFFE780E0798808BC
:1030B0008A8590088A86528797000000E78040AC96
:1030C000FD19E3DC09EC13890402832A0900E549B0
:1030D00033DA3A01137A1A0088088A8590088A86BA
:1030E000528797000000E780A0A908118C08B0184B
:1030F00097D0FFFFE7800009A8018C08B01897D08F
:10310000FFFFE780401C88198A85301097D0FFFFA9
:10311000E7804007280A8A85301097D0FFFFE780B4
:10312000801A88020C11101197E0FFFFE780C07130
:10313000A812AC01B00197E0FFFFE780E070081132
:103140002C0A101197E0FFFFE7800070A8018C198E
:10315000B00197E0FFFFE780206F88190C11B001E4
:1031600097D0FFFFE7800002280AAC01101197D02A
:10317000FFFFE780401508112C0A300A97E0FFFF97
:10318000E780806C28100C11228697E0FFFFE78013
:10319000A06B0A858C19901997E0FFFFE780C06A41
:1031A00088198C02B01297D0FFFFE780C011280A5F
:1031B0008C1997F0FFFFE780E024280A2C0A900280
:1031C00097D0FFFFE78000FC88088C02B01297E0E0
:1031D000FFFFE7806067A8188C19300A97E0FFFFAF
:1031E000E780806688088A8590088A8652879700DB
:1031F0000000E780E098FD19E3DC09EC7119E35663
:1032000099ECC6425643E643764E865E165FA65F4D
:103210003655C655565623205400232264002324D5
:1032200074002326C4012328D401232AE401232C7B
:10323000F40148CC0CD050D0E65276538A431A4E53
:10324000AA4E3A4FCA4F5A45EA457A4623245402B9
:103250002326640223287402232AC403232CD403C4
:10326000232EE4032320F40568C02CC470C4032477
:10327000C11A8324811A0329411A8329011A032AB6
:10328000C119832A8119832041195D618280000060
:10329000F32200B023205500F32230B02322550042
:1032A000F32240B0232455008280996285027390F6
:1032B0003232930220107390423282800A858280DB
:1032C0000325C14D8280B3C7A5008D8B3307C50090
:1032D00081E78D4763EEC700AA876370E50A83C65E
:1032E000050085078505A38FD7FEE3EAE7FE828008
:1032F00093763500AA8791CA83C6050085078505A0
:10330000A38FD7FE93F63700FDB79376C7FF1386DA
:1033100006FE63F0C70683A3050083A2450083AFC2
:10332000850003AFC50083AE050103AE450103A3CD
:10333000850183A8C5019385450223A0770003A8D2
:10334000C5FF23A2570023A4F70123A6E70123A862
:10335000D70123AAC70123AC670023AE17019387C7
:10336000470223AE07FF75B790419107910523AE41
:10337000C7FEE3EBD7FEE3E4E7F68280397132D48F
:1033800036D63AD83EDA42DC46DE2E860C4534107C
:1033900006CE36C6A122F24021618280397132D434
:1033A00036D63EDA2ED23AD842DC46DE97E7FE5FCA
:1033B0009387C7E89C4354102A868C473E8506CEE7
:1033C00036C6292AF24021618280104511A897E76C
:1033D000FE5F9387A7E69C43AA8590473E8509A098
:1033E000011122CC06CE2A8409C91C5D99E732C698
:1033F0002EC4EF10103B3246A2451C46FD171CC6DA
:1034000063D00702184E63C7E70093F7F50F29470B
:103410006398E70022856244F24005616F100077EF
:103420001C4213F5F50F1387170018C22380B7004D
:10343000F24062440561828097E7FE5F938707E070
:103440002E86AA85884369BF397122DC2A842E859D
:103450002EC606DE9D2897E700009387E78D3ED4B1
:1034600085473ED61C10B2453ECA89473ECC1C5CFF
:103470002AD205052ED02ACE0C4491E722852EC6ED
:10348000EF103032B2458397C50013972701634B85
:1034900007008966F851D58F2396F500F977FD1757
:1034A000F98FFCD150082285EF10506BFD5711E1C8
:1034B000A947F25062543E852161828097E7FE5F02
:1034C0009387C7D7AA85884341B7AA87850703C7CB
:1034D000F7FF6DFF3385A7407D1582804571232658
:1034E000111C2322911C2320211D232E311B232854
:1034F000611B2E89B284368B2324811C232C411B13
:10350000232A511B2326711B2324811B2322911B59
:103510002320A11B232EB119AA89EF3070001C4172
:103520003E853ED45D372ACA82C982CB82CD82CF06
:103530006388090083A7890381E74E85EF10702611
:103540008317C90013972701634D07008966032776
:103550004906D58F2316F900F977FD17F98F232235
:10356000F9068357C900A18B95C7832709019DC31D
:103570008357C9002947E98B6392E7068317E9005F
:1035800063CE0704DA862686CA854E85EF1060571B
:103590002ACC01A8CA854E85EF10606B71D9FD5702
:1035A0003ECC8320C11C0324811C62458324411C22
:1035B0000329011C8329C11B032A811B832A411B68
:1035C000032B011B832BC11A032C811A832C411A54
:1035D000032D011A832DC11979618280FC11BEC3AC
:1035E00082C782C5014A3E8C02DA02D802C202D2E8
:1035F00002D602CC2684130750028347040099C3E5
:103600006394E708B30A9440638C0A02BE47232000
:103610009C0023225C01D697BEC7AE471D47210CF4
:103620008507BEC5635BF700D001CA854E85EF6094
:103630008054631E0550130CC10EE247D6973ECC52
:103640008347040099E36F10204793071400A303F6
:10365000010AFD5D02CE0144A94B254D930CA00249
:1036600083CA0700138717003AC89306A0059387FB
:103670000AFEE3E6F64C17D700001307276C8A070B
:10368000BA979C43BA978287050485BF4E85EF3071
:1036900020695C413E853ED60D3D2AD24E85EF30F5
:1036A00020681C453EC2925781CB924791C783C781
:1036B000070099C313640440C2475DB78347710A8A
:1036C000E5FF93070002A303F10AFDB7136414009A
:1036D000E5B783270B00110B3ECEE3DF07FCB307F2
:1036E000F0403ECE13644400C1BF9307B002E1BF77
:1036F0004247C247834A0700850763999A03832D8F
:103700000B0013074B0063D30D00FD5D3A8B3EC8E1
:1037100065B733837D03850783CAF7FFB30DE300E5
:1037200013870AFDE377EDFE3EC891B7814DCDBF0B
:103730001364040851B7C24702CE7247938A0AFD48
:10374000850733077703569783CAF7FF3ACE138767
:103750000AFDE374EDFEC9BF13648400B1BFC24724
:1037600003C70700930780066318F700C247136476
:10377000042085073EC889B71364040435BFC247D7
:1037800003C707009307C0066318F700C247850701
:103790003EC8136404020DB71364040131BF9307DC
:1037A0004B003EC683270B00A303010A2306F11238
:1037B000014B854D014D02C4814B814C64126AD08E
:1037C0006353BD016ED00347710A01C78257850755
:1037D0003ED0937724003EDC81C7825789073ED0D4
:1037E000937744083EDEA9EBF24702573387E74060
:1037F0006354E004C14E17DE0000130EEE6A1D4F45
:10380000AE462320CC013E46850693058C00E3C1DD
:10381000EE342322EC003297BAC7B6C51D472E8C72
:10382000635CD700D001CA854E85EF60C03419C1F2
:103830006F10A024130CC10E0347710A05CF1307A4
:10384000710A2320EC0005472322EC003E479D46E9
:10385000210C0507BAC72E470507BAC563DCE60089
:10386000D001CA854E85EF60003119C16F10E0208C
:10387000130CC10EE2579DCB38112320EC000947F1
:103880002322EC003E479D46210C0907BAC72E476C
:103890000507BAC563DCE600D001CA854E85EF6036
:1038A000802D19C16F10601D130CC10EF257130744
:1038B00000086399E704F2470257998F6354F004B4
:1038C00041481D4E2E4797D500009385E55E232085
:1038D000BC00BE46050713068C00E346F82A2322E7
:1038E000FC00B697BEC7BAC59D46328C63DCE600C5
:1038F000D001CA854E85EF60002819C16F10E0170E
:10390000130CC10E330DBD416354A005C1471D48C2
:103910002E47BE4613068C000507E3CDA7292322B8
:10392000AC0197D7000093872759369D2320FC00D0
:10393000EAC7BAC59D46328C63DCE600D001CA8571
:103940004E85EF60402319C16F102013130CC10E78
:10395000137704103E4DE31A0728AE473383AD01B9
:1039600023209C0085072322BC019AC7BEC51D47A2
:10397000210CE35FF744D001CA854E85EF60A01F9C
:1039800019C16F10800F130CC10E6F0070441364C7
:10399000040193770402A9CF1D0B137B8BFF032D2A
:1039A0000B00832C4B0093078B003EC663C40C00B6
:1039B0006F10E011330DA041B337A001B30C90415B
:1039C000B38CFC409307D002A303F10A85477D57CF
:1039D000E386ED042287B3669D011374F4F7E39F39
:1039E0000602E3840D140547E39DE7026F10200FE4
:1039F00093074B003EC69377040191C7032D0B003C
:103A0000935CFD4165B793770404032D0B0089C7D0
:103A1000420D135D0D41EDB793770420F5D3620D90
:103A2000135D8D41F1BF93778400B5CF93074B00B1
:103A30003EC683270B009043D4439847DC47B2C966
:103A4000B6CBBACD8809BECFEF3040292AD78947F7
:103A50006310F508CE470C0108093EC9DE4702C1D4
:103A600002C33ECBEE4702C502C73ECDFE473ECF66
:103A7000EF80902B635605009307D002A303F10A51
:103A80009307700497D400009384044463D65701CD
:103A900097D40000938484431374F4F7014B8D4D45
:103AA000014D6F00E07C1D0B137B8BFF83250B000A
:103AB00003264B0093078B0008093EC6EFA0206E3B
:103AC000CA47BEC9DA47BECBEA47BECDFA479DBF5B
:103AD00085476316F502FE4763D607009307D002B9
:103AE000A303F10A9307700497D400009384443E23
:103AF000E3D457FB97D400009384C43D71BF93FB7C
:103B0000FAFD93071004639BFB049307000323044F
:103B1000F10A13071006930780076384EA009307EE
:103B20008005A304F10A930730061364240063D0D0
:103B3000B73393851D004E85EF30A03CAA84631BEC
:103B400005308357C90093E707042316F90083570C
:103B5000C90093F70704E38607A491B4FD57638D6A
:103B6000FD2E93077004014B6396FB0063940D00D8
:103B70006E8B854D7E4A936704103ED002DC4E4E1C
:103B8000DE486E4D63590A00B707008033CA47010B
:103B90009307D0023EDC930710046397FB2E0809BD
:103BA00072C946CB6ACD52CFEFA080747011EF403E
:103BB000E06C2E86AA850809EFA0605ECA479010C7
:103BC0008C18BED8DA47080182D0BEDAEA4782D222
:103BD00082D4BEDCFA47BEDEB707FC3FBED6EF801C
:103BE00050240A481A46AA463A4D0C01080942C90F
:103BF000C2C032CB32DE36CD36C46ACF02C102C378
:103C000002C502C7EF804078A2467256064819E105
:103C100005473AD797D700009387072C130710065C
:103C20003EC46387EA0097D700009387272C3EC4E1
:103C3000138EFDFFA68CB70703400C0132C30809A1
:103C40009018F2C442C136C56AC7BEDE82D882DA95
:103C500082DCEF80101D4A46DA46EA470809B2C204
:103C6000B6C03EDEEFA06035AA852A8A08097A4DE3
:103C7000EFA06043F25716468646BEDCCA47B2D86C
:103C80008C18BED0DA4790100801BED2EA47EADEAF
:103C9000B6DABED4FA47850CBED6EF90404CA247A8
:103CA000264EBA4EB385470183C505008A429A4F16
:103CB0002A4F72DEA38FBCFEFD57768D6300FE0493
:103CC0007D1E0C010809F6CEFACCFECA96C8F2C6D3
:103CD00016C996C47ECBFEC27ACDFAC076CF02C199
:103CE00002C302C502C7EF80206A864616462648F0
:103CF000364EC642D64F664FF64E15FD370DFE3F87
:103D00000C01080916C996C67ECBFEC47ACDFAC24C
:103D100076CFF6C002C102C302C56AC7EF80207128
:103D20006348A002B642A64F164F864E0C01080902
:103D300016C97ECB7ACD76CF02C102C302C56AC74F
:103D4000EF808064631C0512137A1A0063080A125C
:103D5000A24766DF9305000303C6F700FA56938770
:103D6000F6FF3EDF83C7F6FF638BC70E1306900393
:103D7000639AC70EA24783C7A700A38FF6FE668A81
:103D800013077004330A9A40BA5C639AEB1C7557A8
:103D900063C4EC0063D69D23F91A9386FCFF36D7E3
:103DA00013F6FAFD1305100413F7FA0F8145631695
:103DB000A6003D071377F70F8545230AE10A93070D
:103DC000B00263D706008546B38696419307D002BA
:103DD000A30AF10AA54763D0D71C1307310C3A8513
:103DE000A94513083006B3E7B6021306F7FF938719
:103DF0000703A30FF7FEB3C7B6026344D81893872F
:103E00000703A30FF6FE79171306610B636EA7165F
:103E10005C19B307F6403ED8B38D4701854763C5AB
:103E200047019377140099C3D247BE9D1374F4BF22
:103E3000936704103ED002C4814B814CE25789C77E
:103E40001307D002A303E10A0254014D8DBA014BBE
:103E500064120DB32A8B39BB014B994D21BBA38F43
:103E6000B6FEEDBD850793F7F70F01BF050AA30F57
:103E7000EAFEB3874C41E3DB07FE19B7F257668AC7
:103E800013070003BE9CF5B793076004638BFB0028
:103E90009307500413831D006383FB006E83094660
:103EA00019A06E830D461C199A861308C10B781150
:103EB0000C094E8572C9F2C046CB46DE1AC46ACDE3
:103EC00052CFEF20605293077004AA842243F25825
:103ED000064E6397FB009377140099E37A5A4DB529
:103EE00093076004B38C64006391FB0403C7040070
:103EF000930700036319F7020C01080972C972DE07
:103F000046CB46C49AC06ACD52CF02C102C302C595
:103F100002C7EF806047A248725E11C5064385471D
:103F2000B38767403ED7BA57BE9C0C01080972C9D7
:103F300046CB6ACD52CF02C102C302C502C7EF8091
:103F4000A04411E166DF1307000331A09386170038
:103F500036DF2380E700FA57E3EA97FF41B71307FC
:103F60006004E39CEBE2137714003367B7016354FA
:103F7000900549CBD2473387FC00BA9D930A60066F
:103F8000BDA03287BE8685B505078347F7FF0506C6
:103F9000A30FF6FEA5BD1307610B99E59307000378
:103FA000230BF10A1307710B9387060313061700FF
:103FB0002300F700B1BD29CBD2471387170075BF87
:103FC00063CC4C0113771400E68D01C7D247B38D43
:103FD000FC00930A700621A8D247930A7006B30D1D
:103FE000FA006346900133839D41930D1300937B48
:103FF000044002C4E3840BE4814BE35190E5930653
:10400000F00F15A0E68D9DBF930A6006854DC5B7DC
:10401000635097039247B38CEC4003C717000DC35E
:104020008507850B3EC2924703C70700E312D7FE00
:10403000A2473387FB0092573307F702BA9DFDBBB7
:10404000A24785073EC4C5B713074B003AC613778E
:10405000040283270B0009CB624798C37D87D8C32E
:10406000324BC2446FF00FD91377040101C7624786
:1040700098C3FDB71377040409C762472390E7008C
:10408000C5B71374042065D462472380E700C9BF15
:1040900013640401937704028DC31D0B137B8BFF04
:1040A000032D0B00832C4B0093078B003EC613742B
:1040B000F4BF8147A303010A19BA93074B003EC618
:1040C0009377040181C7032D0B0031A0937704047B
:1040D00089C7035D0B00814CD9BF93770420E5D7D6
:1040E000034D0B00CDBF93074B003EC6E17793C74E
:1040F00007832314F10A97D700009387E7DD3EDAA0
:10410000032D0B00814C136424008947930A800718
:1041100055B793074B003EC6A303010AFD578324FE
:104120000B00638EFD006E8681452685EF30A0333F
:104130002A8BE3070596B30D9540014B95B2268572
:10414000EFF0AFB8AA8DD5BF1364040193770402D2
:1041500089CF1D0B137B8BFF032D0B00832C4B0092
:1041600093078B003EC68547B1B793074B003EC609
:104170009377040181C7032D0B0031A093770404CA
:1041800089C7035D0B00814CF9BF93770420E5D705
:10419000034D0B00CDBF97D70000938727D53EDA9C
:1041A00093770402B1C31D0B137B8BFF032D0B0010
:1041B000832C4B0093078B003EC69377140081CF6E
:1041C000B3679D0189CB930700032304F10AA3047D
:1041D000510B136424001374F4BF8947E1BD97D7D2
:1041E0000000938767CF65BF93074B003EC6937768
:1041F000040181C7032D0B0031A09377040489C704
:10420000035D0B00814C55BF93770420E5D7034D28
:104210000B00CDBF228785476FF0EFFB0547E38B8F
:10422000E70A0947638DE70C1C0B9396DC011377B3
:104230007D00135D3D001307070333EDA60193DCFA
:104240003C00A38FE7FEB3669D019384F7FF95E6DC
:104250009376140089CA930600036306D700A38FE0
:10426000D4FE9384E7FF1C0B6E8D014BB38D9740FA
:1042700002C4814B814C6FF08FD4A6877DB7014A71
:104280001C0B937B0440254B294681466A85E685B5
:104290009384F7FF3EC4EF706040A2471305050307
:1042A000050AA38FA7FE638E0B02924783C7070000
:1042B0006319FA029307F00F6305FA0263940C0086
:1042C0006371AB039257B255014A9D8C3E86268599
:1042D000EF40402A924783C7170081C7924785075E
:1042E0003EC2294681466A85E685EF7040056394A3
:1042F0000C00E37AABF72A8DAE8CA68771B7040B5E
:1043000052579377FD00FD14BA9783C70700135DDA
:104310004D002380F4009397CC0133EDA70193DC8B
:104320004C00B3679D01E9FF3DBF040B8DFF058B7A
:104330001DDB93070003A307F1186F00C07A638D9C
:104340000A7623065113A303010A5AC66FF04FC61B
:1043500041062322DC01B2C7B6C56352DF02D00199
:10436000CA854E85BAC0EF50100163180570064724
:10437000EC111D4F17DE0000130E0EB3C14E411796
:104380002E8C6FF0EFC7C10623220C01B6C7BAC549
:10439000635EEE00D001CA854E853EDCEF50A07D05
:1043A000631D056CE257F0111D4E4148C117328C58
:1043B0006FF04FD197D50000938505B0C10623203B
:1043C000BC002322FC00B6C7BAC5635CE800D0017C
:1043D000CA854E85EF50207A6311056AF0111D4899
:1043E000C147411D328C6FF0AFD213075006635A9C
:1043F000574F4E470C0108093AC95E4702C102C334
:104400003ACB6E4702C502C73ACD7E473ACFEF702E
:10441000B07769ED97D70000938787AE2320FC0023
:1044200085472322FC00AE47050DEAC78507BEC5B8
:104430001D47210C635BF700D001CA854E85EF5004
:104440008073631C0562130CC10EBA5763C6470123
:1044500093771400638E0716A2575247210C232C22
:10446000FCFED247232EFCFEBE47BA97BEC7AE471E
:104470001D478507BEC5635BF700D001CA854E8521
:10448000EF50606F631B055E130CC10E9304FAFFBF
:1044900063509014C14A9D4BAE4717D600001306D7
:1044A000A6A12320CC003E47850793068C0063CD50
:1044B0009A0023229C00BA94A6C7BEC51D47368C1D
:1044C0006358F7106FF02FCB410723225C01BAC766
:1044D000BEC563DAFB00D001CA854E85EF50A069E6
:1044E000631D0558F411C114368C7DB73A57634EDD
:1044F000E01297D700009387A7A02320FC008547F0
:104500002322FC00AE47050DEAC78507BEC51D473F
:10451000210C635BF700D001CA854E85EF50A06582
:10452000631D0554130CC10EBA57937614003E4711
:10453000B367FA00D58FC9CFA25793088C00232008
:10454000FC00D2472322FC00BA97BEC7AE471D47E6
:104550008507BEC5635BF700D001CA854E85EF5065
:104560008061631C05509308C10EBA5A63D30A04D4
:10457000B30A50414687C14B1D4CAE4717D60000C9
:104580001306869310C3BE468507A10863CC5B075C
:1045900023225701B69AD6C7BEC51D47635BF700F5
:1045A000D001CA854E85EF50005D6318054C930815
:1045B000C10EBE4723A0980023A24801D297BEC7D0
:1045C000AE471D47138C88008507BEC56345F7BA03
:1045D000118863120446F24A825763D3FA00BE8AF6
:1045E000E247D6973ECCBE4781CBD001CA854E85E7
:1045F000EF5060586313054882C5631A0B4A130CC9
:10460000C10EB9BCC10623227701B6C7BEC5635B24
:10461000FC00D001CA854E85EF50E055631F05446C
:104620009308C10EC11A468789BFE68A63539A016F
:10463000D28A635850032E47569D23209C000507BD
:1046400023225C01EAC7BAC59D46210C63DBE60064
:10465000D001CA854E85EF50005263100542130CFD
:10466000C10E63D30A00814AB38A5C41635350058B
:10467000414D9D4D2E4797D700009387E783232018
:10468000FC00BE46050713068C0063435D1323221E
:104690005C01B69AD6C7BAC59D46328C63DBE6008C
:1046A000D001CA854E85EF50004D6318053C130CB0
:1046B000C10E93770440B38A940191CF1D4DB38D01
:1046C0004401A24763980B1063970710B387440116
:1046D00063F35701BE8ABA5763C547019377140045
:1046E0009DCBA2575247210C232CFCFED247232EF0
:1046F000FCFEBE47BA97BEC7AE471D478507BEC57D
:10470000635BF700D001CA854E85EF50C046631643
:104710000536130CC10ED294B3875441BA54B30476
:104720009A4063D39700BE8463599002BE4723200A
:104730005C0123229C00A697BEC7AE471D47210CF3
:104740008507BEC5635BF700D001CA854E85EF5073
:10475000804263140532130CC10EA68763D3040094
:104760008147BA54B3049A409D8CE35390E6C14A02
:104770009D4BAE4717C60000130606742320CC00DD
:104780003E47850793068C00E3D59AD24107232242
:104790005C01BAC7BEC563DAFB00D001CA854E858D
:1047A000EF50603D631B052CF411C114368CD1B75A
:1047B000C1062322AC01B6C7BAC563DAED00D00149
:1047C000CA854E85EF50203B6319052AF011C11AA6
:1047D000328C4DB5D9CFA247FD173EC4B257125700
:1047E000210C232CFCFE9257232EFCFEBE47BA97C9
:1047F000BEC7AE478507BEC5635BFD00D001CA8555
:104800004E85EF504037631A0526130CC10E9247B0
:1048100033875D4183C707006353F700BA87635A44
:10482000F0023E4723205C012322FC003E97BAC7DA
:104830002E47210C0507BAC5635DED00D001CA857E
:104840004E853EDCEF50203363190522E257130CEE
:10485000C10E3E8763D3070001479247414883C793
:104860000700998F6340F004924783C70700BE9A00
:1048700089BD9247FD1BFD173EC28DB7C10623229D
:104880000C01B6C7BAC5635DED00D001CA854E857F
:104890003EDCEF50402E6312051EE257F0114148F6
:1048A000C117328C2E4797C500009385E560232001
:1048B000BC00BE46050713068C00E341F8FC23222A
:1048C000FC00B697BEC7BAC5328CE35FEDF8D001E5
:1048D000CA854E85EF50202A6311051A130CC10EAC
:1048E00061B7AE47054723209C00050D8507930B54
:1048F0008C006346470193761400638606120547D1
:104900002322EC00EAC7BEC51D47635BF700D00158
:10491000CA854E85EF50202663110516930BC10EF4
:10492000A2575247A10B23ACFBFED24723AEFBFE9E
:10493000BE47BA97BEC7AE471D478507BEC5635B76
:10494000F700D001CA854E85EF50E02263170512AB
:10495000930BC10ECE470C0108093EC9DE47930AEE
:10496000FAFF02C13ECBEE4702C302C53ECDFE4771
:1049700002C73ECFEF70502129CDBE472E47850498
:10498000FD17D297050723A09B0023A25B01BEC79A
:10499000BAC59D47A10B63DAE700D001CA854E85F1
:1049A000EF50601D79E9930BC10E5C1923A0FB0049
:1049B000C2574257138C8B0023A2FB00BE47BA9705
:1049C000BEC7AE471D478507BEC5E353F7C06FE0BE
:1049D0009FFAE35C50FDC1441D4C2E4717C60000F2
:1049E0001306864D23A0CB00BE47050793868B0098
:1049F00063CA5401D69723A25B01BEC7BAC59D47BF
:104A0000B68B51BFC10723A29B00BEC7BAC563596D
:104A1000EC00D001CA854E85EF50E01539EDF41158
:104A2000C11AB68B5DBF2322EC00EAC7BEC51D4785
:104A3000E35DF7F69DB7F24702573384E740E35C46
:104A400080B8C14A97C40000938404469D4BAE478A
:104A500023209C003E47850763C98A0223228C00DD
:104A60003A94A2C7BEC51D47E357F7B6D001CA8521
:104A70004E85EF504010E30005B6630A0B8CDA85D3
:104A80004E85EF00A0706FF08F8C410723225C01F0
:104A9000BAC7BEC5210C63DAFB00D001CA854E85BA
:104AA000EF50600D79F9130CC10E41144DB7DA8542
:104AB0004E85EF00A06DA1B6BE4799E36FF02F8938
:104AC000D001CA854E85EF50000B6FF04F88FD571F
:104AD0006392FDF463950CFAA54763E2A7FB130DFF
:104AE0000D03A307A1199304F1186FF0CFF797C72F
:104AF000FE5F9387A774B2862E86AA8588436FE0EF
:104B0000FF9D83D7C500130101B8232C8146F59B77
:104B1000231AF100FC512E84232A9146BED683D756
:104B2000E50023282147232E1146231BF100DC4DED
:104B30002A8902D03ED2DC512C003ED69C183EC4BD
:104B40003ECC930700403EC83ECEEFE03F99AA849A
:104B5000634705002C004A85352611C1FD54835753
:104B6000410193F7070499C78357C40093E70704EB
:104B70002316F4008320C147032481472685032997
:104B8000014783244147130101488280011122CC4F
:104B900026CA4AC806CE4EC62A89AE84328401C5CA
:104BA0001C5D91E3FD2E1C4C1CC48357C400A18BDB
:104BB000BDC71C48ADC78317C40093F9F40F93F425
:104BC000F40F13972701635207061C4808401D8DF8
:104BD0005C486346F500A2854A856D2429E51C449E
:104BE0000505FD171CC41C401387170018C023803F
:104BF00037015C486389A7008357C400858B81CB4C
:104C0000A9476396F400A2854A85AD2C09EDF240D0
:104C1000624426854249D244B24905618280A28518
:104C20004A85352049D9FD54DDB70967D98F231648
:104C3000F4007C5079777D17F98F7CD079B797C7CE
:104C4000FE5F9387A75F2E86AA85884381B74111AF
:104C500097C7FE5F9387875E26C2AA84884322C4D3
:104C600006C62E8401C51C5D91E3252E0317C400E2
:104C700093170701C18393F68700A1EE93F607010E
:104C800089EEA5479CC0136707042316E4007D55F1
:104C9000B2402244924441018280918B8DC70C58CE
:104CA00089C9930704046384F5002685C521232858
:104CB00004028357C4002322040093F7B7FD231690
:104CC000F4001C481CC08357C40093E787002316D8
:104CD000F4001C4889EF8357C4001307002093F7A2
:104CE00007286386E700A2852685EF20A017835753
:104CF000C40013F7170005C75C4823240400B3075A
:104D0000F0401CCC1C480145C1F78317C40013F7C1
:104D100007083DDF93E707042316F4008DBF898B56
:104D2000014791E3584818C4F1BF8397C5000111AA
:104D300022CC13970701418326CA06CE4AC84EC625
:104D400093768700AA842E84E5EE05671307078013
:104D5000D98FD8412396F500634DE000D85D634AB2
:104D6000E0000145F2406244D2444249B249056143
:104D7000828018547DD703A904009396370123A09D
:104D8000040063D5060830488357C400918B99C747
:104D90005C401D8E1C5899C35C5C1D8E1C544C4C91
:104DA000814626858297FD578356C400631DF50012
:104DB0009C4075476360F708370740200507335765
:104DC000F700058B25CBFD779387F77F1848F58F84
:104DD000C207C18718C02316F400232204001397CA
:104DE000370163580700FD576314F5009C4091E3B9
:104DF00028C80C5823A02401ADD59307040463846C
:104E0000F5002685612623280402A1BF4C4C0146EB
:104E1000854626850297FD572A86E317F5F69C40BE
:104E2000A5D775476385E70059476394E70423A036
:104E3000240105BF93E706042316F4007D551DB732
:104E400083A90501E38F09F003A905000D8B23A0B9
:104E5000350133093941814711E3DC491CC4E35270
:104E600020F15C504C4CCA864E862685829763475B
:104E7000A0008357C40093E707047DBFAA993309B4
:104E8000A940F1BF011122CC06CE2A8411C51C5DB8
:104E900081E72EC63922B2458397C50091C7228586
:104EA0006244F240056151B5F2406244014505613A
:104EB0008280AA8511E993870185884397050000C0
:104EC000938585FC6F00A07D97C7FE5F93870737AA
:104ED00088434DBF01458280411122C406C62A8401
:104EE0002316B5002317C500232005002322050043
:104EF000232405002322050623280500232A050074
:104F0000232C0500214681451305C505EF20E05BF4
:104F1000973700009387C7461CD0973700009387C8
:104F200087495CD0973700009387074E1CD497378A
:104F300000009387E75040CC5CD4B240224441014A
:104F40008280975500009385A5766F0040750145D6
:104F50008280411126C2130680069384F5FFB38434
:104F6000C4024AC02E8922C406C693854407EF10A6
:104F700050792A8401CD2320050023222501310503
:104F800008C4138684068145EF2020542285B24050
:104F900022449244024941018280938701858843DB
:104FA0004DB71C5DA9E7411106C622C49707000052
:104FB000938767F95CDD8D472322F52E9307C52E75
:104FC0002A842324F52E2320052E484101469145AD
:104FD000213708440546A545013748440946C945D7
:104FE000E53D85471CDCB24022444101828082803D
:104FF00041119387018526C284434AC006C69C5C42
:1050000022C42A8999E32685693F9384042E80442B
:10501000DC40FD1763D607009C40B9CF8440C5BF74
:105020000317C40039E7C17785072322040623202C
:10503000040023220400232404005CC42328040069
:10504000232A0400232C0400214681451305C405AE
:10505000EF20A04723280402232A04022322040469
:10506000232404042285B24022449244024941018F
:1050700082801304840671BF91454A85D93D88C05A
:1050800051FDB1472320F9000144E9BF82808280AD
:105090008280828097C7FE5F9387471A884397056F
:1050A0000000938565E359AB97C7FE5F93870719A7
:1050B0008843970500009385C5E949A3011122CCD7
:1050C00026CA4AC84EC62E8406CE2A8997B9FE5FE4
:1050D00093898950EF20E04983A789000567C4437D
:1050E0009307F7FE33848740F198269431807D142E
:1050F0003204635DE4004A85EF20C0470145F24079
:105100006244D2444249B2490561828081454A8560
:10511000EF30201483A78900A697E31EF5FCB305A2
:1051200080404A85EF30E012FD57631BF502814550
:105130004A85EF30001203A78900BD46B307E5405A
:10514000E3DBF6FA97C6FE5F9386860F944293E7F9
:1051500017005CC3158D97C6FE5F23A1A61461BF1F
:1051600083A78900818C93E41400C4C397C7FE5FB2
:105170009387C7129C434A853384874097C7FE5F55
:1051800023AE8710EF20003F054595BF6387051CC0
:10519000411122C426C22A84AE8406C6EF20603D97
:1051A00083A5C4FF938684FF17B5FE5F1305C54230
:1051B00093F7E5FF3386F60058420328850085897A
:1051C000719B6318C804BA9789E903A784FF998E75
:1051D0009046BA97D84658C610C713E71700D8C2EA
:1051E00017B7FE5F232ED73E17C7FE5F130787054D
:1051F000184363E9E70097C7FE5F9387E7098C438D
:1052000022856D3D22852244B240924441016F20A7
:10521000603658C2014895E183A584FF97B8FE5FC8
:105220009388083C8D8EAE978C466385150983A8BC
:10523000C60023A6150123A4B800B305E600CC419F
:10524000858995E5BA9718466318080697B5FE5FF5
:10525000938505396312B70617B6FE5F2328D63843
:1052600017B6FE5F2322D638D8C698C6054813E77E
:105270001700D8C23387F6001CC3E31508F81307DC
:10528000F01F636FF7028D8313D62740054733174E
:10529000C700504185078E07518FAA9717B6FE5F4A
:1052A000232EE6329843138687FFD0C698C694C350
:1052B00054C789BF054851B7504650C718C645BFA7
:1052C00013D697001147636EC70213D76700130701
:1052D0008703130617000E062A96930586FF1042D1
:1052E0006397C506854709873397E7005C415D8F63
:1052F00097B7FE5F23A4E72ECCC690C694C554C6CC
:1053000011B751476365C7001307B605D9B713072F
:1053100040056367C70013D7C7001307E70655BFEB
:10532000130740156367C70013D7F7001307770704
:105330004DB7930540551307E007E3ECC5F813D7C5
:1053400027011307C70771B710466386C500584287
:10535000719BE3EBE7FE4C4645B782801C4681E734
:1053600081473E85828083D7C5005D71A2C4CAC0D3
:1053700056DA86C6A6C24EDE52DC5AD85ED662D453
:1053800066D26AD06ECEA18BB28A2E842A89C9CF0A
:105390009C49D9CB8357C40003AA0A0013F72700FE
:1053A0006316070E858B638F0714814B0145014BF4
:1053B00081496386092401ED4E86A9455A85EF206F
:1053C000800A938B190001C50505B30B65415E8CFE
:1053D00063F379014E8C08401C48544863F8A722B7
:1053E0000444B69463D48423DA852686EF204009EA
:1053F0001C40A2854A85A6971CC06934631C050E13
:10540000B38B9B40054563960B00A2854A859D3C66
:1054100075E183A78A00269BB3899940B38497409E
:1054200023A49A00D9F491A0A2854A85EFF03F8287
:10543000FD572DD125A883290A0083244A00210A7B
:10544000FDD8A68663739B00DA865C504C4C4E8672
:105450004A8582976350A00A83A78A00AA99898CFB
:105460003385A74023A4AA0061FD8147B6402644A6
:1054700096440649F259625AD25A425BB25B225CA8
:10548000925C025DF24D3E8561618280370B008047
:1054900081498144134B0BC065B7032B0A00832459
:1054A0004A00210AFDD80357C4001C4408409376E3
:1054B00007206389060E63EAF40893760748D1C68D
:1054C000832D44010C48B38DBC03B309B5409387C9
:1054D0001900A697B3CDAD0363F3FD00BE8D13771E
:1054E00007404DC3EE854A85EF10B0211DE5B14759
:1054F0002320F9008357C40093E707042316F40020
:10550000FD57ADB7B70B008013CCEBFF014B8144C7
:1055100093CBFBFF8D4C094D71B70C484E862AC6C4
:10552000EFD07FDA0357C400B2471377F7B713679A
:1055300007082316E4001CC8232AB401CE97B38DB4
:105540003D411CC02324B401A687A68963F3F4005F
:10555000A68708403E86DA853EC6EF107072184472
:10556000B2471D8F18C41840BA971CC083A78A0081
:105570004E9BB3843441B389374123A43A01E3936A
:1055800009F2E5B56E864A85EF20B012AA8745F587
:105590000C484A85E53E8357C40093F7F7F7231676
:1055A000F400B1B718486365A700544863F8D40203
:1055B000BE8963F3F400A6894E86DA85EF10506C3D
:1055C0001C441840B38737414E971CC418C0D9FFFC
:1055D000A2854A85EFF01F8B51D929BFA687637337
:1055E0009C00DE87B3C7D70258504C4C5A864A8578
:1055F000B386D7020297AA89E34AA0F6E5BD032B3A
:105600000A0083294A000145210A65B3634BDC0087
:105610005C504C4C5A864A858297AA84E342A0DEAD
:10562000D1BD6286DA85EF10B0651C44E284B38791
:1056300087411CC41C40E2971CC0D9B3797122D4A5
:105640004AD052CC56CA06D626D24ECE1304052EC8
:105650000149054AFD5A19E8B25022544A8592542C
:105660000259F249624AD24A456182800444832940
:105670004400FD1963D409000040F1BF83D7C40082
:10568000637CFA008397E4006388570126852EC661
:105690008295B2453369A90093848406D9BF797194
:1056A00022D44AD052CC56CA5AC85EC606D626D292
:1056B0004ECE2A8AAE8A1304052E0149054BFD5BA6
:1056C00009ECB25022544A8592540259F249624A76
:1056D000D24A424BB24B4561828004448329440044
:1056E000FD1963D409000040E1BF83D7C400637B88
:1056F000FB008397E40063877701A6855285829A31
:105700003369A90093848406E1BF93074501090525
:10571000231F05FEE31DF5FE828081475147B30636
:10572000F50003D60600B386F50089072390C6006E
:10573000E397E7FE82809307A5010905231F05FE75
:10574000E31DF5FE828081476147B306F50003D66D
:105750000600B386F50089072390C600E397E7FEAD
:10576000239C05008280914769463307F5008356E4
:1057700007003387F500035707006387E6000545F8
:105780006368D7007D5582808907E390C7FE014595
:1057900082809306450081476905617603D706003C
:1057A0009375170099C193E7170093F527000583B8
:1057B00091E986072390E600C2078906C183E31FAB
:1057C000D5FC8280518FF5B793066501014783D7D9
:1057D00026001396070141866354060013671700DD
:1057E0008607C20713762700C18311EA06072391B3
:1057F000F6004207F9164183E31BD5FC828093E74C
:105800001700EDB7930745000147690583D60700E8
:10581000890713D68600518F239FE7FE13978600D2
:1058200042074183E314F5FE828093076501014737
:1058300083D62700F91713968600518F2392E7002D
:1058400013D78600E316F5FE828093074500130701
:105850008501890783D60700239FD7FEE31BF7FE48
:10586000231C050082809307850113074500F91763
:1058700083D607002391D700E31BF7FE2312050010
:105880008280E1051307650181468357270003D60F
:1058900005007917F915B297B6972391F500C183E2
:1058A00093F61700E313E5FE8280E1051307650117
:1058B000814683D705007917F915958F83564700E0
:1058C000958F2391F500C18393F61700E313E5FE4E
:1058D00082800111416393888501231D0100231EED
:1058E0000100910574087D1303D70800F916F91813
:1058F00005E7239F06FEE39915FF914769474C0092
:10590000BE9583D50500B306F60089072390B6003F
:10591000E397E7FE056182803307A70203D82600DC
:10592000B3776700C29713D807012391F600935706
:10593000070103D70600BA97C2972390F600C183E8
:10594000239FF6FE4DBF8357250193C7F7FF13979B
:10595000170109EB9307250109050357E5FF09E73F
:10596000E39CA7FE0145828005458280411122C447
:1059700006C62A84C93F01E9031524017D81B2408E
:105980002244410182800145DDBF83172501411179
:1059900006C622C426C24AC063D80704FD57239016
:1059A000F50003572501A167FD177D8F2391E500C1
:1059B000130905016317F7042E84AA84693705C902
:1059C00093076400231204001385C4FF7919035759
:1059D00029008907239FE7FEE31AA9FEB24022446B
:1059E0009244024941018280239005005DBF9307E4
:1059F00044009305A4018907239F07FEE39DB7FE9A
:105A0000F1BF938765002392050079157919035733
:105A100029008907239FE7FEE31AA9FE239C0500BE
:105A200075BF5D71A6C2CAC086C6A2C42A89AE84EB
:105A3000193F41E52685013F2A8441E12C004A8532
:105A4000A9374C10268591370357810083574102AF
:105A5000638CE7028947E14630003E960356060014
:105A600005E250103E960356060019EA8907E395B1
:105A7000D7FE2285B640264496440649616182805D
:105A8000054465DB7D54F5B7054791C37D578147D4
:105A9000E1453400BE9603D606005410BE9683D668
:105AA00006006308D6003A84E3E5C6FC3304E04010
:105AB000C9B78907E39FB7FC6DBF79545DBF8357B2
:105AC000250193C7F7FF1397170109EB411106C68C
:105AD0009D3DB24013351500410182800145828011
:105AE00013072501AA878907239F07FEE39DE7FE89
:105AF0008357250121677D17D98F2319F5008280EF
:105B0000011122CC4EC606CE26CA4AC852C456C27D
:105B1000AA892E8463D4050A3309B0404A8A814495
