:020000042001D9
:100000009731FF5F938181A1970201009382C2899A
:10001000739052301701FFDF1301C1FE9700FFDF1D
:10002000938040FE638300008290732540F18145F8
:1000300001460D209700FFDF9380C0FC6383000022
:100040008290970200009382C20073905230032383
:100050000000F5BF06849731FF5F9381219C174113
:10006000FF5F130161A4137101FF01E197320100E9
:10007000938202731703FF5F1303C3F89723FF5F95
:100080009383031F638C6200635A730003A502000D
:1000900091022320A3001103E34A73FE973201006B
:1000A000938202701703FF5F1303C3F59703FF5F8B
:1000B000938343F5638C6200635A730003A50200C7
:1000C00091022320A3001103E34A73FE1723FF5F6D
:1000D0001303031A938301896357730023200300DA
:1000E0001103E34D73FE11C20296170501001305BB
:1000F0002598EFF07014EFF0101BF327103037073E
:10010000010013078702F98F99C7F32700300967A9
:10011000D98F739007300545973501009385C5B891
:1001200017360100130686B8552DEFF05012A28045
:0401300082808280C7
:10018000130101FE232E1100232C9100232A2101AB
:100190002328310123264101930405001305100093
:1001A00063C0A5041389050037250220930985F44F
:1001B000372A008083C5040013850900975000008A
:1001C000E780201D03258A21032585009740000034
:1001D000E780405C938414001309F9FFE31C09FCD9
:1001E0001305A000032AC10083290101032941014D
:1001F000832481018320C1011301010217530000F0
:100200006700431C130101FF2326110023249100E2
:10021000232221012320310193840500930510003E
:1002200063C6B4029309F5FF37250220130985F44C
:100230003385990083450500130509009750000098
:10024000E78020159384F4FFE34490FE1305A0009B
:100250008329010003294100832481008320C100F8
:1002600013010101175300006700C315130101FFBB
:100270002326110023249100232221012320310170
:10028000930405001305100063C6A5021389050039
:10029000372502209309D5F483A5040013850900AE
:1002A00097500000E780E00E938444001309F9FFA3
:1002B000E31409FE1305A00083290100032941006E
:1002C000832481008320C100130101011753000022
:1002D0006700430F130101FF23261100232491001F
:1002E000232221012320310193040500130510006E
:1002F00063C6A50213890500372502209309D5F4AA
:1003000083C504001385090097500000E78060084A
:10031000938414001309F9FFE31409FE1305A000E8
:100320008329010003294100832481008320C10027
:1003300013010101175300006700C308130101FEF8
:10034000232E1100232C9100232A2101232831017F
:10035000232641019389350013068009634E360335
:1003600093952500B304B50037250220130965F5E0
:10037000130A900903A5040083A5C400B385A54012
:100380001305090097500000E780A0009384C40083
:1003900093893900E3C049FF1305A000032AC10077
:1003A0008329010103294101832481018320C101A3
:1003B00013010102175300006700C300130101CEAF
:1003C000232E1130232C9130232A2131232831313F
:1003D00023264131232451312322613123207131DD
:1003E000232E812F232C912F232AA12F2328B12FB5
:1003F000130C010097000000E7800044930D4100BA
:10040000371500801309050037050080930C05009F
:100410009309012E130A812B930A0129130B8126BC
:10042000930BA000130D40269304000033859D001C
:1004300097000000E780C03D13850900930509007F
:1004400013860C0097300000E78080CE13050A0069
:1004500093850A0013060B0097000000E780804098
:10046000138509009305090013860B00930600000D
:1004700013870C0097100000E78000FD9384C400F0
:10048000E396A4FB372502201305C5F5975000001D
:10049000E78020F09304300037250220930965F5AA
:1004A0001309900903A50D0083A5CD00B385A540D0
:1004B0001385090097500000E780A0ED938DCD00D3
:1004C00093843400E3E024FF1305A000975000005C
:1004D000E78040EF37250220130545F797500000CD
:1004E000E78020EB130A40009304410103A544FF79
:1004F00083A50400B385A54013850900975000002B
:10050000E78020E99384C400130A3A00E3602AFFDD
:100510001305A00097500000E780C0EA37250220AD
:10052000130535F997500000E780A0E6130A500044
:100530009304810103A544FF83A50400B385A5406E
:100540001385090097500000E780A0E49384C4005D
:10055000130A3A00E3602AFF1309A00013050900FB
:1005600097500000E78000E637250220130545FA82
:1005700097500000E780E0E18345012E37250220F7
:10058000930485F41385040097500000E78060E031
:10059000B729008003A58921032585009740000025
:1005A000E780401F8345112E1385040097500000FB
:1005B000E78020DE03A58921032585009740000000
:1005C000E780401D8345212E1385040097500000CD
:1005D000E78020DC03A589210325850097400000E2
:1005E000E780401B8345312E13850400975000009F
:1005F000E78020DA03A589210325850097400000C4
:10060000E78040198345412E138504009750000070
:10061000E78020D803A589210325850097400000A5
:10062000E78040178345512E138504009750000042
:10063000E78020D603A58921032585009740000087
:10064000E78040158345612E138504009750000014
:10065000E78020D403A58921032585009740000069
:10066000E78040138345712E1385040097500000E6
:10067000E78020D203A5892103258500974000004B
:10068000E78040118345812E1385040097500000B8
:10069000E78020D003A5892103258500974000002D
:1006A000E780400F8345912E13850400975000008A
:1006B000E78020CE03A5892103258500974000000F
:1006C000E780400D8345A12E13850400975000005C
:1006D000E78020CC03A589210325850097400000F1
:1006E000E780400B8345B12E13850400975000002E
:1006F000E78020CA03A589210325850097400000D3
:10070000E78040098345C12E1385040097500000FF
:10071000E78020C803A589210325850097400000B4
:10072000E78040078345D12E1385040097500000D1
:10073000E78020C603A58921032585009740000096
:10074000E78040058345E12E1385040097500000A3
:10075000E78020C403A58921032585009740000078
:10076000E78040038345F12E138504009750000075
:10077000E78020C203A5892103258500974000005A
:10078000E78040011305090097500000E78080C30F
:10079000372502201305D5FA97500000E78060D175
:1007A00013010C00832D012F032D412F832C812F4A
:1007B000032CC12F832B0130032B4130832A81303E
:1007C000032AC13083290131032941318324813136
:1007D0008320C1311301013267800000130101FF42
:1007E0002326110097000000E78080BD130500005C
:1007F0008320C1001301010167800000372502201A
:100800001305F5FA175300006700A3CAF32200B0DE
:10081000732330B0F32340B01300000023205500B1
:10082000232265002324750067800000732500B033
:1008300067800000B762000093821200739032322A
:10084000B7120000938212807390423267800000DA
:1008500013050100678000000325C14D678000007B
:10086000130101F72326810823249108232221095B
:1008700023203109232E4107232C110613040500E0
:100880009384050013090600370A0004130AFAFFCF
:100890001305810297000000E780806683A20400B0
:1008A00003AF440103A3440037080004B382E241CC
:1008B00013D5F241B375A80083AF8401B382B200AF
:1008C000137515003303A3403303F34183A384005E
:1008D0001355F341B375A80003AFC4013303B3004C
:1008E00013751500B383A340B383E34103AEC40083
:1008F00013D5F341B375A80083AF0402B383750029
:1009000013751500330EAE40330EFE4183AE040165
:100910001355FE41B375A80003AF4402338EC501E1
:1009200013751500B38EAE40B38EEE4193D9FE41E0
:1009300033F54901B3C2A2003343A300B3C3A300FC
:10094000334EAE00B3CE3E0133053041B382A20038
:1009500023285104232A6104232C7104232EC1056A
:100960002320D10783220900032F490103234900D3
:10097000B382E24113D5F241B375A800832F8901F8
:10098000B382B200137515003303A3403303F34160
:10099000832389001355F341B375A800032FC901C0
:1009A0003303B30013751500B383A340B383E3414E
:1009B000032EC90013D5F341B375A800832F090294
:1009C000B383B30013751500330EAE40330EFE41F2
:1009D000832E09011355FE41B375A800032F490268
:1009E000338EC50113751500B38EAE40B38EEE4144
:1009F00093D5FE4133F54501B3C2A2003343A300B2
:100A0000B3C3A300334EAE00B3CEBE003305B04037
:100A1000B382A200B3C9B900232251062324610680
:100A2000232671062328C107232AD10713050100B5
:100A3000930501051306410697000000E780404C2E
:100A40001305010593854401130649019700000031
:100A5000E780004B832EC103032F0104832F410441
:100A6000032581048325C10403260105832641054E
:100A7000032781058327C105032801063306D60114
:100A800083224106B386E6013307F701B387A70047
:100A90003308B800032E8106B30E560013931200DC
:100AA0009393420033037300B382620093D45201E4
:100AB00093925200B3F24201330656008322C106DC
:100AC000338FC60113131E0093134E0033037300BC
:100AD000330E6E0013595E01131E5E00337E4E010D
:100AE000330E9E00B386C601032E0107B30F5700D5
:100AF00013931200939342003303730033035300A4
:100B000093545301131353003373430133032301ED
:100B100033076700832241073385C70113131E0083
:100B200093134E00330373003303C301135953016E
:100B3000131353003373430133039300B3876700E8
:100B4000032E4101B3055800139312009393420002
:100B500033037300330353009354530113135300AF
:100B600033734301330323013308680013931400E4
:100B7000939344003303730013135300B38E6E003A
:100B800083228101330E3E01334E3E01B38ECE41AE
:100B900033A30E00330F6F40B708000433036040E7
:100BA00033F36800B38E6E0013D3AE01330F6F00C2
:100BB000B3FE4E01032EC101B3823201B3C2320132
:100BC000330F5F4033230F00B38F6F403303604018
:100BD00033F36800330F6F001353AF01B38F6F000F
:100BE000337F4F0183220102330E3E01334E3E011B
:100BF000B38FCF4133A30F0033056540330360400B
:100C000033F36800B38F6F0013D3AF013305650072
:100C1000B3FF4F01032E4102B3823201B3C232014E
:100C20003305554033230500B385654033036040E9
:100C300033731301330565001353A501B3856500B4
:100C400033754501330E3E01334E3E01B385C54138
:100C5000332305009303002633036040B3F363009E
:100C60003306764033731301B385650013D3A501B2
:100C700093131300131E4300B383C30133037300A4
:100C80001313530033066600B3F5450113931E009A
:100C900093934E0033037300B38E6E0093D45E01C2
:100CA000939E5E00B3FE4E0113131F0093134F007B
:100CB00033037300330F6F0013595F01131F5F007D
:100CC000337F4F01330F9F0013931F0093934F0007
:100CD00033037300B30FF30193D45F01939F5F005D
:100CE000B3FF4F01B38F2F0113131500931345006A
:100CF000330373003305A300135955011315550031
:100D00003375450133059500139315009393450002
:100D100033037300B305B30093D455019395550085
:100D2000B3F54501B3852501330696008322810280
:100D30000323C1028323010303294103032E8103FB
:100D400033065600B38E5E0083220100B386660030
:100D5000330F6F0033077700B38F7F00B38727010E
:100D6000330525013308C801B385C501032E4100B1
:100D7000B3823201B3C23201330656403323060038
:100D8000B386664033036040337313013306660055
:100D900083228100330E3E01334E3E01B386C641AD
:100DA00033A30600330767403303604033731301F6
:100DB000B3866600032EC100B3823201B3C2320192
:100DC0003307574033230700B3876740330360403E
:100DD000337313013307670083220101330E3E0191
:100DE000334E3E01B387C74133A307003308684041
:100DF0003303604033731301B3876700B38232015A
:100E0000B3C2320133085840332308003303604033
:100E100093030026B3737300B38E7E4033731301C4
:100E20003308680093D2AE01330F5F00B3FE4E016A
:100E30009352AF01B38F5F00337F4F0193D2AF0165
:100E400033055500B3FF4F019352A501B3855500FB
:100E50003375450193D2A50133065600B3F545011C
:100E60009352A601B38656003376460193D2A6016B
:100E700033075700B3F646019352A701B3875700D3
:100E80003377470193D2A70133085800B3F74701DE
:100E9000935258011393120093934200330373004B
:100EA00033035300B70220009382F2FF33785800D7
:100EB000B38E6E002320D4012322E4012324F40105
:100EC0002326A4002328B400232AC400232CD40002
:100ED000232EE4002320F402232204030324C10868
:100EE000832481080329410883290108032AC107B3
:100EF000832081071301010967800000130101FBB2
:100F00002326810423249104232221052320310553
:100F1000232E4103232C5103232A61032328710329
:100F200023268103232491032322A1032320B10339
:100F3000232E1100930C0600138D0500930D050060
:100F4000B70F0004938FFFFF03250D0083A70C004C
:100F500083254D0003A84C00B302F5023313F502BC
:100F600003268D008326CD0003270D0183A88C0066
:100F700003A4CC0083A40C01B3030503331E0503B3
:100F800093DEA2011313630033F9F201B369D301B5
:100F9000B30215033313150393DEA301131E6E0072
:100FA000B3F3F301B3897900336ADE01B303850239
:100FB000331E850293DEA20113136300B3F2F20124
:100FC000330A5A00B36AD301B30295023313950270
:100FD00093DEA301131E6E00B3F3F301336BDE0146
:100FE000B38A7A00B383F502339EF50293DEA20141
:100FF00013136300B3F2F201B36BD301330B5B0045
:10100000B38205033393050393DEA301131E6E0021
:10101000B3F3F301336EDE01B3897900330ACA01F9
:10102000B3831503339E150393DEA20113136300EC
:10103000B3F2F2013363D301330A5A00B38A6A0070
:10104000B38285023393850293DEA301131E6E00E3
:10105000B3F3F301336EDE01B38A7A00330BCB01B5
:10106000B3839502339E950293DEA20113136300AE
:10107000B3F2F2013363D301330B5B00B38B6B002C
:10108000B302F6023313F60293DEA301131E6E00C1
:10109000B3F3F301336CDE01B38B7B00B3030603C0
:1010A000331E060393DEA20113136300B3F2F201B1
:1010B0003363D301330A5A00B38A6A00B3021603BA
:1010C0003313160393DEA301131E6E00B3F3F30173
:1010D000336EDE01B38A7A00330BCB01B303860291
:1010E000331E860293DEA20113136300B3F2F201F2
:1010F0003363D301330B5B00B38B6B00B3029602F7
:101100003313960293DEA301131E6E00B3F3F301B3
:10111000336EDE01B38B7B00330CCC01B383F6025C
:10112000339EF60293DEA20113136300B3F2F201C1
:10113000B36CD301330C5C00B38206033393060314
:1011400093DEA301131E6E00B3F3F301336EDE01D1
:10115000B38A7A00330BCB01B3831603339E160395
:1011600093DEA20113136300B3F2F2013363D301E0
:10117000330B5B00B38B6B00B38286023393860222
:1011800093DEA301131E6E00B3F3F301336EDE0191
:10119000B38B7B00330CCC01B3839602339E960253
:1011A00093DEA20113136300B3F2F2013363D301A0
:1011B000330C5C00B38C6C00B302F7023313F702FC
:1011C00093DEA301131E6E00B3F3F301336DDE0152
:1011D000B38C7C00B3030703331E070393DEA20125
:1011E00013136300B3F2F2013363D301330B5B00DB
:1011F000B38B6B00B30217033313170393DEA30102
:10120000131E6E00B3F3F301336EDE01B38B7B006C
:10121000330CCC01B3038702331E870293DEA20195
:1012200013136300B3F2F2013363D301330C5C0098
:10123000B38C6C00B30297023313970293DEA301C1
:10124000131E6E00B3F3F301336EDE01B38C7C002A
:10125000330DCD0193DEA20113136300B3F2F2014B
:10126000336FD301330D5D009352A9013379F90136
:10127000B389590093D2A901B3F9F901330A5A008D
:101280009352AA01337AFA01B38A5A0093D2AA017F
:10129000B3FAFA01330B5B009352AB01337BFB01D2
:1012A000B38B5B0093D2AB01B3FBFB01330C5C004F
:1012B0009352AC01337CFC01B38C5C0093D2AC0143
:1012C000B3FCFC01330D5D009352AD01337DFD0194
:1012D000330F5F009352AF01337FFF01139312006E
:1012E0009393420033037300B382720033095900B1
:1012F00023A02D0123A23D0123A44D0123A65D01BE
:1013000023A86D0123AA7D0123AC8D0123AE9D018D
:1013100023A0AD0323A2ED030324C104832481048D
:10132000832D01028320C101032941048329010483
:10133000032AC103832A8103032B4103832B010367
:10134000032CC102832C8102032D410213010105EC
:101350006780000083258500139645001376060FED
:101360008326450013D766013308C7000327C5004D
:101370009317670093F7070C13D64501B308F600DF
:101380008327050113D687012320C50413F6F70F21
:10139000232AC50213D607011376F60F232EC502A2
:1013A00013D687001376F60F232CC5021356270198
:1013B0001376F60F2328C5021356A7001376F60FEF
:1013C0002326C502135627001376F60F2324C502E1
:1013D00013D6C5001376F60F2320C50293D545001A
:1013E00093F5F50F232EB50093D5E60093F5F50F91
:1013F000232AB50093D5660093F5F50F2328B50091
:1014000023221503232C05018325050013D605018E
:101410001376F60F2324C50013D685001376F60F36
:101420002322C500139626001376C60F93D6850196
:101430003386C6002326C50093F5F50F2320B5009B
:1014400067800000130101F4232E110A232C910A56
:10145000232A210B2328310B2326410B2324510B54
:101460002322610B2320710B232E8109930907008E
:10147000930A0600138A05001309050003451700A7
:1014800013158500834507003365B50083452700A4
:10149000939505013365B5008345370013F6350094
:1014A000131686013365C5002324A10813D5250032
:1014B000137535008345470093F5C50F9395650077
:1014C00033E5A500834557009395E5003365B500E6
:1014D0008345670013F6F500131666013365C500F2
:1014E0002326A10813D54500830577009395450071
:1014F00033E5A5001375F50F8345870093F5C50FF8
:101500009395C50033E5A5008345970013F6F503D1
:10151000131646013365C5002328A10813D56500BD
:101520008345A7009395250033E5A5008345B700C3
:1015300093F5F5009395A5003365B5008345C70085
:1015400093F5C50F939525013365B500232AA108AE
:101550000345E700131585008345D7003365B500C3
:101560008345F70093F5F500939505013365B500C4
:10157000232CA108130B41041306400413050B0090
:101580009305000097400000E780E0D393068108B0
:10159000930B010013050A0093850A0013060B0044
:1015A00013870B0097200000E780003F63020512BD
:1015B000B385AA40B30EBA002328010023260100F8
:1015C0002324010023220100232001009303A00112
:1015D000930270001308F0FF93082001130EF0002F
:1015E000130380FF93860300130F0000130700000E
:1015F00063C8D204B385EE003316D8001346F6FF55
:1016000083C5050033F6C500B387D3403316F60013
:1016100093172F00B387FB0083A4070033069600BF
:1016200023A0C700B3D7D500130F1F0093152F00B9
:101630003386BB0083240600938508006F004002B8
:10164000B385D3403386EE0003460600B314B600DC
:1016500093152F003386BB008327060093050300F4
:10166000B387F4002320F600B386B60013071700F3
:101670006364EE00E36EA7F61305100063880600AE
:101680009305A001B385D5403315B500B3C5060059
:1016900093B51500B305BF0093952500B385BB0036
:1016A00003A605003305A60023A0A500130A4104E4
:1016B00013050A0093850B0097200000E780401770
:1016C0009305810813050A0097200000E78040CBAE
:1016D000832A4104032B4105832BC104032C81047D
:1016E0008324010537250220930545FB130A410495
:1016F00013050A0097200000E780401F032501051D
:10170000B3459500032641059356A601B306D04084
:10171000B3F5D50033C5A5008325810433C7850102
:101720003377D700B345B7000327C104B347770128
:10173000B3F7D70033C7E700B3476601B3F7D70065
:1017400033C6C7009317470093F7070F93D465017B
:10175000338897009314650093F4040C9357470162
:10176000B388F40083244104B3C75401B3F6D7000F
:10177000935786012322F1089377F60F232CF10665
:101780009357060193F7F70F2320F10813568600AD
:101790001376F60F232EC106135625011376F60F86
:1017A000232AC1061356A5001376F60F2328C10677
:1017B000135525001375F50F2326A1061355C700F1
:1017C0001375F50F2322A106135547001375F50F66
:1017D0002320A10613D5E5001375F50F232CA104D2
:1017E00013D565001375F50F232AA10423241107CF
:1017F000232E010533C596009395250093F5C50F5B
:1018000013568501B385C5002328B104935585007F
:1018100093F5F50F2324B1049355050193F5F50FC6
:101820002326B1041375F50F2322A10403C5090172
:101830002320A10003C519012322A10003C529010A
:101840002324A10003C539012326A10003C54901B2
:101850002328A10003C55901232AA10003C569015A
:10186000232CA10003C57901232EA10003C5890102
:101870002320A10203C599012322A10203C5A901C6
:101880002324A10203C5B9012326A10203C5C9016E
:101890002328A10203C5D901232AA10203C5E90116
:1018A000232CA10203C5F901232EA1022320010448
:1018B0009305010013050A0097200000E78000F45B
:1018C000032541042300A90003258104A300A900E6
:1018D0000325C1042301A90003250105A301A900D3
:1018E000032541052302A90003258105A302A900C0
:1018F0000325C1052303A90003250106A303A900AD
:10190000032541062304A90003258106A304A90099
:101910000325C1062305A90003250107A305A90086
:10192000032541072306A90003258107A306A90073
:101930000325C1072307A90003250108A307A90060
:1019400013050000032CC109832B010A032B410A54
:10195000832A810A032AC10A8329010B0329410B27
:101960008324810B8320C10B1301010C67800000CD
:101970008326060003A70500B306D7003707000437
:101980001307F7FFB3F7E6002320F50093D6A6016F
:1019900083A74500B386D70083274600B386F600A9
:1019A000B3F7E6002322F50093D6A60183A78500AE
:1019B000B386D70083278600B386F600B3F7E60028
:1019C0002324F50093D6A60183A7C500B386D700CC
:1019D0008327C600B386F600B3F7E6002326F5009A
:1019E00093D6A60183A70501B386D70083270601F6
:1019F000B386F600B3F7E6002328F50093D6A601D8
:101A000083A74501B386D70083274601B386F60036
:101A1000B3F7E600232AF50093D6A60183A7850134
:101A2000B386D70083278601B386F600B3F7E600B6
:101A3000232CF50093D6A60183A7C501B386D70052
:101A40008327C601B386F600B3F7E600232EF50020
:101A500093D6A60183A70502B386D7008327060283
:101A6000B386F60033F7E6002320E50293D6A601FD
:101A700083A54502B385D50003264602B385C5007C
:101A80002322B502172300006700830A832606007D
:101A900003A70500B306D700370700041307F7FFB5
:101AA000B3F7E6002320F50093D6A60183A74500EF
:101AB000B386D70083274600B386F600B3F7E60067
:101AC0002322F50093D6A60183A78500B386D7000D
:101AD00083278600B386F600B3F7E6002324F500DB
:101AE00093D6A60183A7C500B386D7008327C60077
:101AF000B386F600B3F7E6002326F50093D6A601D9
:101B000083A70501B386D70083270601B386F600B5
:101B1000B3F7E6002328F50093D6A60183A7450175
:101B2000B386D70083274601B386F600B3F7E600F5
:101B3000232AF50093D6A60183A78501B386D70093
:101B400083278601B386F600B3F7E600232CF50061
:101B500093D6A60183A7C501B386D7008327C60104
:101B6000B386F600B3F7E600232EF50093D6A60160
:101B700083A70502B386D70083270602B386F60043
:101B800033F7E6002320E50293D6A60183A545029C
:101B9000B385D50003264602B385C5002322B502CE
:101BA00067800000B70600041388F6FF8322060052
:101BB00083A70500938607DAB388564033F70801F8
:101BC0002320E50033B75600B3B7F600B706100080
:101BD0009382F6FFB38757003387E74093D7A80176
:101BE00093166700B3E6D70083A74500B387F600D6
:101BF000B3B6D7001357A7013303D700B70800FCCB
:101C0000B3861701032E4600B383C64133F70301A1
:101C10002322E50033B7F6003307E300B3B6C6016D
:101C200033075700B306D74013D7A3019397660035
:101C30003367F70083A78500B307F70033B7E700E2
:101C400093D6A6013383E60033871701032E86005F
:101C5000B303C741B3F603012324D500B336F7001D
:101C6000B306D3003337C701B3865600B386E640C8
:101C700013D7A301939766003367F70083A7C500C6
:101C8000B307F70033B7E70093D6A6013383E60026
:101C900033871701032EC600B303C741B3F6030110
:101CA0002326D500B336F700B306D3003337C70178
:101CB000B3865600B386E64013D7A3019397660018
:101CC0003367F70083A70501B307F70033B7E700D1
:101CD00093D6A6013383E60033871701032E06014E
:101CE000B303C741B3F603012328D500B336F70089
:101CF000B306D3003337C701B3865600B386E64038
:101D000013D7A301939766003367F70083A74501B4
:101D1000B307F70033B7E70093D6A6013383E60095
:101D200033871701032E4601B303C741B3F60301FE
:101D3000232AD500B336F700B306D3003337C701E3
:101D4000B3865600B386E64013D7A3019397660087
:101D50003367F70083A78501B307F70033B7E700C0
:101D600093D6A6013383E60033871701032E86013D
:101D7000B303C741B3F60301232CD500B336F700F4
:101D8000B306D3003337C701B3865600B386E640A7
:101D900013D7A301939766003367F70083A7C501A4
:101DA000B307F70033B7E70093D6A6013383E60005
:101DB00033871701032EC601B303C741B3F60301EE
:101DC000232ED500B336F700B306D3003337C7014F
:101DD000B3865600B386E64013D7A30193976600F7
:101DE0003367F70083A70502B307F70033B7E700AF
:101DF00093D6A6013383E6003387170183230602B7
:101E0000B3087740B3F608012320D502B336F700B4
:101E1000B306D300B386560033377700B386E64067
:101E20009396660013D7A801B366D70083A5450231
:101E3000B385D50003264602B385C5402322B502EB
:101E4000172300006700C3CE130101FD23261102F2
:101E50002324910293040500130501001306800258
:101E60009385040097300000E780803A03A50400C2
:101E70001308350183A544001356A801B388C50093
:101E800013D6A80183A68400B382C60093D6A2010C
:101E900003A7C4003303D70003A704019357A3018A
:101EA000330EF70083A744011355AE01B38EA7008C
:101EB00083A7840193D5AE01338FB70083A7C401F4
:101EC0001356AF01B38FC70083A7040293D6AF01A7
:101ED000B386D700B703200093D7A601B3E77700F6
:101EE00003A74402B383E70093D7530193F7170086
:101EF000B307F040370700041307F7FF3375E80016
:101F0000B3F5E80033F6E2003378E300B378EE008F
:101F1000B3F2EE003373EF0033FEEF00B3F6E600EA
:101F2000032701003347E5003377F7003345A70067
:101F300023A0A4000325410033C5A5003375F50097
:101F40003345B50023A2A400032581003345A60034
:101F50003375F5003345C50023A4A4000325C10053
:101F60003345A8003375F5003345050123A6A400C9
:101F70000325010133C5A8003375F500334515016C
:101F800023A8A4000325410133C5A2003375F50041
:101F90003345550023AAA400032581013345A3003E
:101FA0003375F5003345650023ACA4000325C1015A
:101FB0003345AE003375F5003345C50123AEA400AB
:101FC0000325010233C5A6003375F5003345D5005E
:101FD00023A0A4020325410233C5A3003375F500F5
:101FE0003345750023A2A402832481028320C10209
:101FF0001301010367800000130101F4232E110A6D
:10200000232C910A232A210B2328310B2326410B51
:102010002324510B9389050013090500130A0108B5
:1020200013050A001386050097F0FFFFE780808301
:10203000930A810513850A0093050A0013060A0016
:1020400097F0FFFFE780008213850A0093850A005E
:1020500013860A0097F0FFFFE780C08013850A000F
:1020600093850A001386090097E0FFFFE780807FD1
:1020700013050A0093050A0013860A0097E0FFFF84
:10208000E780407E930901031385090093050A0048
:1020900013060A0097E0FFFFE780C07C13850A0063
:1020A0009385090013860A0097E0FFFFE780807B95
:1020B0001385090093850A0013860A0097E0FFFF45
:1020C000E780407A1385090093850900138609008B
:1020D00097E0FFFFE78000791385090093850900E9
:1020E0001386090097E0FFFFE780C077138509009A
:1020F000938509001386090097E0FFFFE78080764B
:1021000013850900938509001386090097E0FFFFF6
:10211000E78040751385090093850A00138609003E
:1021200097E0FFFFE780007413850A00938509009C
:102130001386090097E0FFFFE780C07213850A004D
:1021400093850A0013860A0097E0FFFFE7808071FD
:1021500013850A0093850A0013860A0097E0FFFFA3
:10216000E780407013850A0093850A0013860A00F1
:1021700097E0FFFFE780006F13850A0093850A0050
:1021800013860A0097E0FFFFE780C06D13850A0001
:1021900093850A0013860A0097E0FFFFE780806CB2
:1021A00013850A0093850A0013860A0097E0FFFF53
:1021B000E780406B13850A0093850A0013860A00A6
:1021C00097E0FFFFE780006A13850A0093850A0005
:1021D00013860A0097E0FFFFE780C06813850A00B6
:1021E00093850A0013860A0097E0FFFFE780806767
:1021F00013850A009385090013860A0097E0FFFF04
:10220000E7804066130A810013050A0093850A00DF
:1022100013860A0097E0FFFFE780C06413050A00F9
:1022200093050A0013060A0097E0FFFFE78080632A
:1022300013050A0093050A0013060A0097E0FFFF42
:10224000E780406213050A0093050A0013060A009E
:1022500097E0FFFFE780006113050A0093050A007D
:1022600013060A0097E0FFFFE780C05F13050A002E
:1022700093050A0013060A0097E0FFFFE780805EDF
:1022800013050A0093050A0013060A0097E0FFFFF2
:10229000E780405D13050A0093050A0013060A0053
:1022A00097E0FFFFE780005C13050A0093050A0032
:1022B00013060A0097E0FFFFE780C05A13050A00E3
:1022C00093050A0013060A0097E0FFFFE780805994
:1022D00013050A0093050A0013060A0097E0FFFFA2
:1022E000E780405813050A0093050A0013060A0008
:1022F00097E0FFFFE780005713050A0093050A00E7
:1023000013060A0097E0FFFFE780C05513050A0097
:1023100093050A0013060A0097E0FFFFE780805448
:1023200013050A0093050A0013060A0097E0FFFF51
:10233000E780405313050A0093050A0013060A00BC
:1023400097E0FFFFE780005213050A0093050A009B
:1023500013060A0097E0FFFFE780C05013050A004C
:1023600093050A0013060A0097E0FFFFE780804FFD
:1023700013050A0093050A0013060A0097E0FFFF01
:10238000E780404E13050A0093050A0013060A0071
:1023900097E0FFFFE780004D13850A0093850A0050
:1023A00013060A0097E0FFFFE780C04B13850A0081
:1023B00093850A0013860A0097E0FFFFE780804AB2
:1023C00013850A0093850A0013860A0097E0FFFF31
:1023D000E780404913850A0093850A0013860A00A6
:1023E00097E0FFFFE780004813850A0093850A0005
:1023F00013860A0097E0FFFFE780C04613850A00B6
:1024000093850A0013860A0097E0FFFFE780804566
:1024100013850A0093850A0013860A0097E0FFFFE0
:10242000E780404413850A0093850A0013860A005A
:1024300097E0FFFFE780004313850A0093850A00B9
:1024400013860A0097E0FFFFE780C04113850A006A
:1024500093850A0013860A0097E0FFFFE78080401B
:1024600013850A0093850A0013860A0097E0FFFF90
:10247000E780403F13050A0093850A001386090090
:1024800097E0FFFFE780003E13850A0093050A00EE
:1024900013060A0097E0FFFFE780C03C13850A009F
:1024A00093850A0013860A0097E0FFFFE780803BD0
:1024B00013850A0093850A0013860A0097E0FFFF40
:1024C000E780403A13850A0093850A0013860A00C4
:1024D00097E0FFFFE780003913850A0093850A0023
:1024E00013860A0097E0FFFFE780C03713850A00D4
:1024F00093850A0013860A0097E0FFFFE780803685
:1025000013850A0093850A0013860A0097E0FFFFEF
:10251000E780403513850A0093850A0013860A0078
:1025200097E0FFFFE780003413850A0093850A00D7
:1025300013860A0097E0FFFFE780C03213850A0088
:1025400093850A0013860A0097E0FFFFE780803139
:1025500013850A0093850A0013860A0097E0FFFF9F
:10256000E780403013850A0093850A0013860A002D
:1025700097E0FFFFE780002F13850A0093850A008C
:1025800013860A0097E0FFFFE780C02D13850A003D
:1025900093850A0013860A0097E0FFFFE780802CEE
:1025A00013850A0093850A0013860A0097E0FFFF4F
:1025B000E780402B13850A0093850A0013860A00E2
:1025C00097E0FFFFE780002A13850A0093850A0041
:1025D00013860A0097E0FFFFE780C02813850A00F2
:1025E00093850A0013860A0097E0FFFFE7808027A3
:1025F00013850A0093850A0013860A0097E0FFFFFF
:10260000E780402613850A0093850A0013860A0096
:1026100097E0FFFFE780002513850A0093850A00F5
:1026200013860A0097E0FFFFE780C02313850A00A6
:1026300093850A0013860A0097E0FFFFE780802257
:1026400013850A0093850A0013860A0097E0FFFFAE
:10265000E780402113850A0093850A0013860A004B
:1026600097E0FFFFE780002013850A0093850A00AA
:1026700013860A0097E0FFFFE780C01E13850A005B
:1026800093850A0013860A0097E0FFFFE780801D0C
:1026900013850A0093850A0013860A0097E0FFFF5E
:1026A000E780401C13850A0093850A0013860A0000
:1026B00097E0FFFFE780001B13850A0093850A005F
:1026C00013860A0097E0FFFFE780C01913850A0010
:1026D00093850A0013860A0097E0FFFFE7808018C1
:1026E00013850A0093850A0013860A0097E0FFFF0E
:1026F000E780401713850A0093850A0013860A00B5
:1027000097E0FFFFE780001613850A0093850A0013
:1027100013860A0097E0FFFFE780C01413850A00C4
:1027200093850A0013860A0097E0FFFFE780801375
:1027300013850A0093850A0013860A0097E0FFFFBD
:10274000E780401213850A0093850A0013860A0069
:1027500097E0FFFFE780001113850A0093850A00C8
:1027600013860A0097E0FFFFE780C00F13850A0079
:1027700093850A0013860A0097E0FFFFE780800E2A
:1027800013850A0093850A0013860A0097E0FFFF6D
:10279000E780400D13850A0093850A0013860A001E
:1027A00097E0FFFFE780000C13850A0093850A007D
:1027B00013860A0097E0FFFFE780C00A13850A002E
:1027C00093850A0013860A0097E0FFFFE7808009DF
:1027D00013850A0093850A0013860A0097E0FFFF1D
:1027E000E780400813850A0093850A0013860A00D3
:1027F00097E0FFFFE780000713850A0093850A0032
:1028000013860A0097E0FFFFE780C00513850A00E2
:1028100093850A0013860A0097E0FFFFE780800493
:1028200013850A0093850A0013860A0097E0FFFFCC
:10283000E780400313850A0093850A0013860A0087
:1028400097E0FFFFE780000213850A0093850A00E6
:1028500013860A0097E0FFFFE780C00013850A0097
:1028600093850A0013860A0097E0FFFFE78080FF48
:102870001385090093850A0013060A0097E0FFFFFD
:10288000E78040FE13850A0093850900138609003E
:1028900097E0FFFFE78000FD13850A0093850A009B
:1028A00013860A0097E0FFFFE780C0FB9304200037
:1028B0009309400613850A0093850A0013860A00CF
:1028C00097E0FFFFE78000FA13850A0093850A006E
:1028D00013860A0097E0FFFFE780C0F89384240086
:1028E000E3EA34FD93048105130601031385040014
:1028F0009385040097E0FFFFE780C0F6138504008E
:10290000938504001386040097E0FFFFE78080F5BD
:1029100013850400938504001386040097E0FFFFED
:10292000E78040F4138504009385040013860400B7
:1029300097E0FFFFE78000F3138504009385040010
:102940001386040097E0FFFFE780C0F113850400C1
:10295000938504001386040097E0FFFFE78080F072
:1029600013850400938504001386040097E0FFFF9D
:10297000E78040EF1385040093850400138604006C
:1029800097E0FFFFE78000EE1385040093850400C5
:102990001386040097E0FFFFE780C0EC1385040076
:1029A000938504001386040097E0FFFFE78080EB27
:1029B00013850400938504001386040097E0FFFF4D
:1029C000E78040EA13850400938504001386040021
:1029D00097E0FFFFE78000E913850400938504007A
:1029E0001386040097E0FFFFE780C0E7138504002B
:1029F000938504001386040097E0FFFFE78080E6DC
:102A000013850400938504001386040097E0FFFFFC
:102A1000E78040E5138504009385040013860400D5
:102A200097E0FFFFE78000E413850400938504002E
:102A30001386040097E0FFFFE780C0E213850400DF
:102A4000938504001386040097E0FFFFE78080E190
:102A500013850400938504001386040097E0FFFFAC
:102A6000E78040E01385040093850400138604008A
:102A700097E0FFFFE78000DF1385040093850400E3
:102A80001386040097E0FFFFE780C0DD1385040094
:102A9000938504001386040097E0FFFFE78080DC45
:102AA00013850400938504001386040097E0FFFF5C
:102AB000E78040DB1385040093850400138604003F
:102AC00097E0FFFFE78000DA138504009385040098
:102AD0001386040097E0FFFFE780C0D81385040049
:102AE000938504001386040097E0FFFFE78080D7FA
:102AF00013850400938504001386040097E0FFFF0C
:102B0000E78040D6138504009385040013860400F3
:102B100097E0FFFFE78000D513850400938504004C
:102B20001386040097E0FFFFE780C0D313850400FD
:102B3000938504001386040097E0FFFFE78080D2AE
:102B400013850400938504001386040097E0FFFFBB
:102B5000E78040D1138504009385040013860400A8
:102B600097E0FFFFE78000D0138504009385040001
:102B70001386040097E0FFFFE780C0CE13850400B2
:102B8000938504001386040097E0FFFFE78080CD63
:102B900013850400938504001386040097E0FFFF6B
:102BA000E78040CC1385040093850400138604005D
:102BB00097E0FFFFE78000CB1385040093850400B6
:102BC0001386040097E0FFFFE780C0C91385040067
:102BD000938504001386040097E0FFFFE78080C818
:102BE00013850400938504001386040097E0FFFF1B
:102BF000E78040C713850400938504001386040012
:102C000097E0FFFFE78000C613850400938504006A
:102C10001386040097E0FFFFE780C0C4138504001B
:102C2000938504001386040097E0FFFFE78080C3CC
:102C300013850400938504001386040097E0FFFFCA
:102C4000E78040C2138504009385040013860400C6
:102C500097E0FFFFE78000C113850400938504001F
:102C60001386040097E0FFFFE780C0BF13850400D0
:102C7000938504001386040097E0FFFFE78080BE81
:102C800013850400938504001386040097E0FFFF7A
:102C9000E78040BD1385040093850400138604007B
:102CA00097E0FFFFE78000BC1385040093850400D4
:102CB0001386040097E0FFFFE780C0BA1385040085
:102CC000938504001386040097E0FFFFE78080B936
:102CD00013850400938504001386040097E0FFFF2A
:102CE000E78040B813068100138504009385040033
:102CF00097E0FFFFE78000B7138504009385040089
:102D00001386040097E0FFFFE780C0B51385040039
:102D1000938504001386040097E0FFFFE78080B4EA
:102D200013850400938504001386040097E0FFFFD9
:102D3000E78040B3138504009385040013860400E4
:102D400097E0FFFFE78000B213850400938504003D
:102D50001386040097E0FFFFE780C0B01306010868
:102D6000130509009385040097E0FFFFE78080AF1B
:102D7000832A810A032AC10A8329010B0329410BF3
:102D80008324810B8320C10B1301010C6780000099
:102D900003C615001316860083C605003366D600E9
:102DA00083C62500939606013366D60083C6350098
:102DB00093F63600939686013366D6002320C5002D
:102DC00003C635001356260083C645009396660059
:102DD00033E6C60083C655009396E6003366D600F8
:102DE00083C6650093F6F600939666013366D600B7
:102DF0002322C50003C665001356460083C675002E
:102E00009396460033E6C60083C685009396C600B7
:102E10003366D60083C6950093F6F6039396460173
:102E20003366D6002324C50003C6950013566600FA
:102E300083C6A5009396260033E6C60083C6B50078
:102E40009396A6003366D60083C6C50093962601E6
:102E50003366D6002326C50003C6E5001316860098
:102E600083C6D5003366D60083C6F5009396060167
:102E70003366D60083C6050193F636009396860125
:102E80003366D6002328C50003C605011356260065
:102E900083C615019396660033E6C60083C62501F6
:102EA0009396E6003366D60083C6350193F6F600A6
:102EB000939666013366D600232AC50003C6350102
:102EC0001356460083C645019396460033E6C60076
:102ED00083C655019396C6003366D60083C6650146
:102EE00093F6F603939646013366D600232CC5006D
:102EF00003C665011356660083C6750193962600C6
:102F000033E6C60083C685019396A6003366D600D5
:102F100083C69501939626013366D600232EC500FD
:102F200003C6B5011316860083C6A5013366D60015
:102F300083C6C501939606013366D60083C6D501C4
:102F400093F63600939686013366D6002320C50299
:102F500003C6D5011356260083C6E5019396660085
:102F600033E6C60083C5F5019395E500B365B60069
:102F70002322B5026780000003A645021356E6002F
:102F8000A30FC50003A6450213566600230FC50014
:102F900003A645021316260083C635023306D60063
:102FA000A30EC50003D62502230EC50003A6050205
:102FB00013568600A30DC50003A60502230DC50008
:102FC00003A6C50113562601A30CC50003A6C5011F
:102FD0001356A600230CC50003A6C50113562600F0
:102FE000A30BC50003A685011356460183A6C501A0
:102FF000939666003386C600230BC50003A68501A1
:103000001356C600A30AC50003A685011356460041
:10301000230AC50003A645011356660183A6850150
:10302000939646003386C600A309C50003A6450152
:103030001356E6002309C50003A645011356660092
:10304000A308C50003A645011316260083C6350153
:103050003306D6002308C50003D62501A307C50003
:1030600003A60501135686002307C50003A6050124
:10307000A306C50003A6C500135626012306C500F6
:1030800003A6C5001356A600A305C50003A6C500E8
:10309000135626002305C50003A6850013564601D6
:1030A00083A6C500939666003386C600A304C500B8
:1030B00003A685001356C6002304C50003A6850099
:1030C00013564600A303C50003A645001356660128
:1030D00083A68500939646003386C6002303C50069
:1030E00003A645001356E600A302C50003A645004B
:1030F000135666002302C50003A6450013162600DA
:1031000083C635003306D600A301C50003D62500CB
:103110002301C50003A6050013568600A300C500C1
:1031200083A505002300B50067800000130101F6A8
:10313000232E1108232C9108232A21092328310941
:1031400023264109232451092322610923207109DF
:10315000232E8107232C91079304060013090500F1
:10316000130A010013050A0097000000E78080C2DF
:10317000B70A000413858AFF8325010033F5A500F3
:103180002320A100370510009305F5FF0326410217
:10319000B375B60033E5A5002322A102930981028D
:1031A000138509009385040097000000E78080BE26
:1031B0001385090093050A0097100000E780C0AC52
:1031C00093040105138504009385040097F0FFFF25
:1031D000E780C0E213850900938509001386040087
:1031E00097D0FFFFE780006803288102130F3801A2
:1031F0001356AF018328C102B38FC80013D7AF01A4
:1032000083220103330C57009354AC010323410381
:10321000338B6400832381039357AB01B38777001B
:10322000032EC10393D6A701B386C601832E0104E2
:1032300013D5A6013305D501832541041356A501F5
:103240003306B600032A81049354A601B3844401D3
:10325000B70B200013D7A401B36B77011387FAFFD4
:10326000337FEF00B3FFEF00B37AEC003376E60074
:10327000B3F7E700B3F6E6003375E500337BEB0008
:1032800033FCE400B345B600832CC10433879B01B3
:103290009354570193F41400B3049040B3F5950090
:1032A000B3CBC5003346D50133769600B34EA600A6
:1032B00033C6C60133769600334ED600B3C67700C8
:1032C000B3F69600B3C6F600B3476B00B3F79700AA
:1032D000B3C76701B3C55A00B3F59500B3C555012F
:1032E00033C51F01337595003345F50133460F0192
:1032F000337696003346E6012324C1022326A10239
:103300002328B102232AF102232CD102232EC10348
:103310002320D1052322710533454C0133759500D7
:10332000334585012324A104334597013375950066
:103330003345E5002326A104130509009385090000
:1033400097000000E78080C313050000832C8107ED
:10335000032CC107832B0108032B4108832A810812
:10336000032AC1088329010903294109832481090A
:103370008320C1091301010A67800000130101FDC8
:10338000232411022322810223209102232E2101D2
:10339000232C3101232A41012328510123266101D5
:1033A000232471012322810123209101130C0500A4
:1033B00083A7050003A8450003A4850083A4C500D6
:1033C00003A9050103250C0083254C0003268C006E
:1033D0008326CC0003270C01B302F5023313F50258
:1033E000B70F0004938FFFFF130F5000330E050338
:1033F000B31E050393D3A20113136300336A730052
:10340000B3F9F201B382F5023393F5029353AE019F
:10341000939E6E00337EFE01B3EA7E00330ACA013A
:10342000330E8502B31E850293D3A20113136300EA
:1034300033637300B3F2F201330A5A00B38A6A00AD
:10344000B3820503339305039353AE01939E6E003D
:10345000337EFE0133EB7E00B38ACA01330EF602DF
:10346000B31EF60293D3A2011313630033637300F8
:10347000B3F2F201330B6B00B38A5A00B302950228
:10348000331395029353AE01939E6E00B3EE7E000C
:10349000337EFE01330BDB01B38ACA01338E850212
:1034A000B39E850293D3A20113136300B3F2F2011A
:1034B000B36B7300330B5B00B302060333130603D5
:1034C0009353AE01939E6E00B3EE7E00337EFE01F9
:1034D000B38BDB01330BCB01338EF602B39EF602C6
:1034E00093D3A2011313630033637300B3F2F201A9
:1034F000B38B6B00330B5B00B3022503331325033F
:103500009353AE01939E6E00B3EE7E00337EFE01B8
:10351000B38BDB01330BCB01338E9502B39E950247
:1035200093D3A20113136300B3F2F201B36C7300DF
:10353000B38B5B00B3028602331386029353AE0152
:10354000939E6E00B3EE7E00337EFE01B38CDC01F1
:10355000B38BCB01338E0603B39E060393D3A20134
:103560001313630033637300B3F2F201B38C6C0086
:10357000B38B5B00B302F7023313F7029353AE0130
:10358000939E6E00B3EE7E00337EFE01B38CDC01B1
:10359000B38BCB01338E2503B39E250393D3A201B6
:1035A0001313630033637300B3F2F201B38C6C0046
:1035B000B38B5B00B3029602331396029353AE01B2
:1035C000939E6E00337EFE01B3E87E00B38CCC0187
:1035D000338E8602B39E860293D3A2011313630037
:1035E00033637300B3F2F201B3886800B38C5C00FC
:1035F000B3020703331307039353AE01939E6E0088
:10360000B3EE7E00337EFE01B388D801B38CCC01CB
:1036100033FEF201B38CCC01B38EEC0393D3A20141
:103620001313630033637300B307260333182603B1
:10363000B3886800B3829602339396023385D9012A
:1036400093D3A70113186800B3F7F701B36C7800A0
:10365000B388F800330E8702B31E870293D3A2010A
:103660001313630033637300B3F2F201B38C6C0085
:10367000B38858009353AE01337EFE01B388C8016E
:10368000B387E803B382260333932603939E6E0029
:10369000B3EE7E00B38CDC01B305FA00330E970263
:1036A000B31E970293D3A20113136300B3F2F20186
:1036B000B3687300B38C5C00B373FE01B38C7C0001
:1036C000B387EC03B3022703331327039353AE01ED
:1036D000939E6E00B3EE7E003386FA00B388D80165
:1036E00093D3A201B3F2F201B3885800B388E80380
:1036F00013136300336373003303E303B3061B0147
:1037000033876B0097000000E78000092320AC009E
:103710002322BC002324CC002326DC002328EC0039
:103720008320810203244102832401020329C10171
:1037300083298101032A4101832A0101032BC1004E
:10374000832B8100032C4100832C01001301010312
:1037500067800000930705001388000003A5070099
:1037600083A5470003A6870083A6C70003A7070118
:1037700097000000E780400223A0A70023A2B70023
:1037800023A4C70023A6D70023A8E70093000800BE
:1037900067800000370F0004130FFFFF9352A7014B
:1037A00013932200B3826200330555003377E7019B
:1037B0009352A501B38555003375E50193D2A50158
:1037C00033065600B3F5E5019352A601B3865600C1
:1037D0003376E60193D2A60133075700B3F6E6012C
:1037E0009352A70113932200B302530033055500EF
:1037F0003377E70167800000130E0000130F050404
:103800000323050083A3050033037300330E6E000A
:103810009373FE0F23207500135E8E001305450081
:1038200093854500E35EAFFC67800000130101FF54
:10383000232081002322910023241100130405007A
:1038400093840500B70E0004938EFEFF0325040049
:1038500083A30400330E75003375DE01135EAE01E1
:103860008325440083A34400B3857500330EBE0056
:10387000B375DE01135EAE010326840083A38400CA
:1038800033067600330ECE003376DE01135EAE01D2
:103890008326C40083A3C400B3867600330EDE0003
:1038A000B376DE01135EAE010327040183A3040196
:1038B000330777003307EE0097000000E780C0ED84
:1038C0002320A4002322B4002324C4002326D400F0
:1038D0002328E40003240100832441008320810085
:1038E0001301010167800000130101FF2320810003
:1038F000232291001304050093840500B70E0004F1
:10390000938EFEFF0325040083A30400330E75008D
:103910003375DE01135EAE018325440083A34400AA
:10392000B3857500330EBE00B375DE01135EAE01C4
:103930000326840083A3840033067600330ECE0072
:103940003376DE01135EAE018326C40083A3C40078
:10395000B3867600330EDE00B376DE01135EAE0171
:103960000327040183A30401330777003307EE0024
:103970002320A4002322B4002324C4002326D4003F
:103980002328E400032401008324410013010101E2
:1039900067800000130101FE232E8100232C91007B
:1039A000232A210123283101232641012324510107
:1039B00023226101232011001304050093840500D4
:1039C0001309060093890600130A0700B70A0004CA
:1039D000938AFAFF130B000163C46413834334001A
:1039E000034324008342140013F5330013158500AC
:1039F000336565000343040013158500832E090019
:103A0000336555001315850033656500B38EAE0030
:103A10002320D901034E6400034354008342440031
:103A20001375FE00131585003365650013158500B9
:103A300033655500832E49001315650093D3230089
:103A400033657500B38EAE002322D9018343940001
:103A5000034384008342740013F5F30313158500B8
:103A60003365650013158500832E89003365550085
:103A700013154500135E4E003365C501B38EAE00CD
:103A80002324D9010345C4000343B4008342A400A6
:103A900013158500336565001315850033655500E2
:103AA000832EC9001315250093D363003365750079
:103AB000B38EAE002326D9010345F4000343E4008E
:103AC0008343D4001305051013158500832E0901C7
:103AD000336565001315850033657500B38EAE0040
:103AE0002328D901130509009385090097000000D8
:103AF000E780008913040401938404FFE3D064EF9A
:103B0000138504000324C101832481010329410199
:103B100083290101032AC100832A8100032B41006C
:103B20008320010013010102678000008322050049
:103B30000323450083238500032EC500832E050142
:103B4000032F4501832F85018325C5010326050227
:103B50008326450213D7A201370800041308F8FF93
:103B6000B3F2020133076700337307011357A7014C
:103B700033077700B37307011357A7013307C70152
:103B8000337E07011357A7013307D701B37E07011F
:103B90001357A7013307E701337F07011357A70125
:103BA0003307F701B37F07011357A7013307B700A6
:103BB000B37507011357A7013307C7003376070111
:103BC0001357A7013307D700B70720009387F7FFE4
:103BD000B376F70013575701931747009318170050
:103BE000B38717013307F70033075700B372070194
:103BF0001357A70133076700337307011357A70152
:103C000033077700B37307011357A7013307C701C1
:103C1000337E07011357A7013307D701B37E07018E
:103C20001357A7013307E701337F07011357A70194
:103C30003307F701B37F07011357A7013307B70015
:103C4000B37507011357A7013307C7003376070180
:103C50001357A701B306D700232055002322650080
:103C6000232475002326C5012328D501232AE50135
:103C7000232CF501232EB5002320C5022322D502D3
:103C800067800000130101E52326811A2324911A7D
:103C90002322211B2320311B232E4119232C5119B0
:103CA000232A1118130405009384050083220400BD
:103CB0000323440083238400032EC40023205100E7
:103CC0002322610083220401032344012324710081
:103CD0002326C10183238401032EC401232851001C
:103CE000232A61008322040203234402232C71004F
:103CF000232EC101232051022322610293021000CE
:103D000023245102232851042326010223280102DF
:103D1000232A0102232C0102232E01022320010465
:103D2000232201042324010423260104232A01045D
:103D3000232C0104232E0104232001062322010643
:103D4000232401062326010623280106232A01062F
:103D5000232C0106232E010623200108232201081B
:103D6000232401082326010823280108232A010807
:103D7000232C0108232E010883AA44029309400141
:103D800033DA3A01137A1A0013050105930501008D
:103D9000130601059306010013070A0097000000AF
:103DA000E780405E1305010A9305010513068107AC
:103DB00097E0FFFFE78000BC1305810C9305010528
:103DC0001306810797E0FFFFE78000DE1305010F70
:103DD000930501001306810297E0FFFFE78080B999
:103DE00013058111930501001306810297E0FFFF7F
:103DF000E78080DB130501149305010A1306010A0D
:103E000097D0FFFFE78000A6130581169305810C6C
:103E10001306810C97D0FFFFE780C0A41305010AA9
:103E2000930581111306010A97D0FFFFE78080A355
:103E30001305810C9305010F1306810C97D0FFFF2A
:103E4000E78040A21305010F9305810C1306010AB8
:103E500097E0FFFFE78000B2130581119305810C05
:103E60001306010A97E0FFFFE78000D41305010A5B
:103E7000930581111306811197D0FFFFE780809E83
:103E8000130581029305010A1306040097D0FFFF72
:103E9000E780409D130501009305010F1306010FF4
:103EA00097D0FFFFE780009C1305010F93050114D5
:103EB0001306811697E0FFFFE78000CF13058111FD
:103EC0009305010F97000000E780C02E13058111B4
:103ED000930581111306011497E0FFFFE78080A985
:103EE00013050105930501141306811697D0FFFFF2
:103EF000E7804097130581079305010F1306811191
:103F000097D0FFFFE7800096130501059305010098
:103F1000130601059306010013070A00970000002D
:103F2000E78040469389F9FFE3DC09E41389040242
:103F3000832A09009309900133DA3A01137A1A00AF
:103F40001305010593050100130601059306010001
:103F500013070A0097000000E780C0421305010A1A
:103F6000930501051306810797E0FFFFE78080A016
:103F70001305810C930501051306810797E0FFFFE8
:103F8000E78080C21305010F93050100130681022B
:103F900097E0FFFFE780009E130581119305010064
:103FA0001306810297E0FFFFE78000C013050114AC
:103FB0009305010A1306010A97D0FFFFE780808A64
:103FC000130581169305810C1306810C97D0FFFF12
:103FD000E78040891305010A930581111306010A40
:103FE00097D0FFFFE78000881305810C9305010F30
:103FF0001306810C97D0FFFFE780C0861305010FE1
:104000009305010A1306810C97E0FFFFE780809675
:10401000130581119305810C1306010A97E0FFFF38
:10402000E78080B81305010A9305811113068111F9
:1040300097D0FFFFE7800083130581029305010AF3
:104040001306040097D0FFFFE780C081130501002D
:104050009305010F1306010F97D0FFFFE7808080C3
:104060001305010F930501141306811697E0FFFF56
:10407000E78080B3130581119305010F97000000BD
:10408000E780401313058111930581111306011474
:1040900097E0FFFFE780008E1305010593050114EB
:1040A0001306811697C0FFFFE780C07B13058107C9
:1040B0009305010F1306811197C0FFFFE780807AF7
:1040C0001305010593050100130601059306010080
:1040D00013070A0097000000E780C02A9389F9FFC0
:1040E000E3DC09E41309C9FFE35499E483220105E1
:1040F0000323410583238105032EC105832E010679
:10410000032F4106832F81060325C106832501075E
:104110000326410723205400232264002324740033
:104120002326C4012328D401232AE401232CF401EB
:10413000232EA4002320B4022322C4028322810759
:104140000323C10783230108032E4108832E81081E
:10415000032FC108832F0109032541098325810904
:104160000326C1092324540223266402232874024F
:10417000232AC403232CD403232EE4032320F40591
:104180002322A4042324B4042326C4040324C11A30
:104190008324811A0329411A8329011A032AC11988
:1041A000832A8119832041191301011B67800000B4
:1041B000130101FE232E8100232C9100232A2101CB
:1041C000232831012326A10183A205001304050041
:1041D00093840500370F0004130FFFFFB7EF0100B2
:1041E000938F1FB403A344003385F203B395F20306
:1041F00003AE8400B303F3033316F303B30EFE03DD
:10420000B316FE03135DA5013375E50193956500B3
:10421000B3E5A50113DDA301B3F3E30113166600B3
:104220003366A601B385750083A2C40013DDAE0119
:10423000B3FEEE01B383F2033397F2039396660065
:10424000B3E6A6013306D60183A2040113DDA30160
:10425000B3F3E3013383F203B397F2031317670059
:104260003367A701B386760083A24401135DA301DF
:104270003373E301B383F2033398F2039397670038
:10428000B3E7A7013307670083A2840113DDA3010D
:10429000B3F3E3013383F203B398F2031318680016
:1042A0003368A801B387770083A2C401135DA3011B
:1042B0003373E301B383F2033399F20393986800F5
:1042C000B3E8A8013308680083A2040213DDA30148
:1042D000B3F3E3013383F203B399F20313196900D3
:1042E0003369A901B388780083A24402370E200005
:1042F000130EFEFF135DA3013373E301B383F203D7
:10430000B39EF20393996900B3E9A90133096900E7
:1043100013DDA301B3F3E301939E6E00B3EEAE0190
:10432000B389790093D3A901B3F9E901B38E7E0073
:1043300093030026B38E7E023305D5012320A4000B
:104340002322B4002324C4002326D4002328E4001D
:10435000232AF400232C0401232E140123202403F8
:10436000232234030324C101832481010329410151
:1043700083290101032DC1001301010267800000A0
:104380008322060003A306001307F7FFB3C36200EE
:10439000B3737700032E460083AE4600334F73009D
:1043A000B3CF72002320E50123A0F501B343DE0162
:1043B000B3F3E3008322860003A3860033CF7E009D
:1043C000B34F7E002322E50123A2F501B3C36200AF
:1043D000B3F3E300032EC60083AEC600334F730071
:1043E000B3CF72002324E50123A4F501B343DE011A
:1043F000B3F3E3008322060103A3060133CF7E005B
:10440000B34F7E002326E50123A6F501B3C3620066
:10441000B3F3E300032E460183AE4601334F73002E
:10442000B3CF72002328E50123A8F501B343DE01D1
:10443000B3F3E3008322860103A3860133CF7E001A
:10444000B34F7E00232AE50123AAF501B3C362001E
:10445000B3F3E300032EC60183AEC601334F7300EE
:10446000B3CF7200232CE50123ACF501B343DE0189
:10447000B3F3E3008322060203A3060233CF7E00D8
:10448000B34F7E00232EE50123AEF501B3C36200D6
:10449000B3F3E300032E460283AE4602334F7300AC
:1044A000B3CF72002320E50323A0F503B343DE015D
:1044B000B3F3E3008322860203A3860233CF7E0098
:1044C000B34F7E002322E50323A2F503B3C36200AA
:1044D000B3F3E300032EC60283AEC602334F73006C
:1044E000B3CF72002324E50323A4F503B343DE0115
:1044F000B3F3E3008322060303A3060333CF7E0056
:10450000B34F7E002326E50323A6F503B3C3620061
:10451000B3F3E300032E460383AE4603334F730029
:10452000B3CF72002328E50323A8F503B343DE01CC
:10453000B3F3E3008322860303A3860333CF7E0015
:10454000B34F7E00232AE50323AAF503B3C3620019
:10455000B3F3E300032EC60383AEC603334F7300E9
:10456000B3CF7200232CE50323ACF503B343DE0184
:10457000B3F3E3008322060403A3060433CF7E00D3
:10458000B34F7E00232EE50323AEF503B3C36200D1
:10459000B3F3E300032E460483AE4604334F7300A7
:1045A000B3CF72002320E50523A0F505B343DE0158
:1045B000B3F3E3008322860403A3860433CF7E0093
:1045C000B34F7E002322E50523A2F505B3C36200A5
:1045D000B3F3E300032EC60483AEC604334F730067
:1045E000B3CF72002324E50523A4F505B343DE0110
:1045F000B3F3E30033CF7E00B34F7E002326E505FF
:1046000023A6F505678000008397C500011122CC21
:1046100013970701418326CA06CE4AC84EC6937631
:104620008700AA842E84E5EE056713070780D98FDB
:10463000D8412396F500634DE000D85D634AE00061
:104640000145F2406244D2444249B2490561828048
:1046500018547DD703A904009396370123A00400C2
:1046600063D5060830488357C400918B99C75C40D6
:104670001D8E1C5899C35C5C1D8E1C544C4C81468D
:1046800026858297FD578356C400631DF5009C4024
:1046900075476360F7083707402005073357F70071
:1046A000058B25CBFD779387F77F1848F58FC207D9
:1046B000C18718C02316F400232204001397370182
:1046C00063580700FD576314F5009C4091E328C828
:1046D0000C5823A02401ADD5930704046384F5008E
:1046E0002685492623280402A1BF4C4C0146854655
:1046F00026850297FD572A86E317F5F69C40A5D735
:1047000075476385E70059476394E70423A02401B4
:1047100005BF93E706042316F4007D551DB783A952
:104720000501E38F09F003A905000D8B23A03501D6
:1047300033093941814711E3DC491CC4E35220F1BC
:104740005C504C4CCA864E86268582976347A000F3
:104750008357C40093E707047DBFAA993309A94092
:10476000F1BF011122CC06CE2A8411C51C5D81E760
:104770002EC62122B2458397C50091C72285624487
:10478000F240056151B5F240624401450561828005
:10479000AA8509E9938701858843970500009385D9
:1047A00085FCD5A997E7FE5F938747A7884355BF48
:1047B00001458280411122C406C62A842316B50011
:1047C0002317C5002320050023220500232405000C
:1047D0002322050623280500232A0500232C050093
:1047E000214681451305C505EF00B02D9717000040
:1047F0009387A7CF1CD097170000938767D25CD010
:10480000971700009387E7D61CD49717000093876B
:10481000C7D940CC5CD4B240224441018280972564
:1048200000009385456585A901458280411126C216
:10483000130680069384F5FFB384C4024AC02E8910
:1048400022C406C6938544076D292A8401CD2320FE
:10485000050023222501310508C4138684068145FD
:10486000EF0030262285B2402244924402494101A1
:1048700082809387018588435DB71C5DA9E741115C
:1048800006C622C4970700009387A7F95CDD8D4711
:104890002322F52E9307C52E2A842324F52E2320C8
:1048A000052E484101469145313708440546A54546
:1048B000113748440946C945F53D85471CDCB240DF
:1048C000224441018280828041119387018526C262
:1048D00084434AC006C69C5C22C42A8999E3268583
:1048E000693F9384042E8044DC40FD1763D60700A3
:1048F0009C40B9CF8440C5BF0317C40039E7C177D6
:1049000085072322040623200400232204002324F5
:1049100004005CC423280400232A0400232C040080
:10492000214681451305C405EF00B0192328040270
:10493000232A040223220404232404042285B240EF
:10494000224492440249410182801304840671BFCB
:1049500091454A85E13D88C051FDB1472320F900CA
:104960000144E9BF828082808280828097E7FE5F77
:104970009387C78A8843970500009385A5E35DACBC
:1049800097E7FE5F938787898843970500009385A3
:10499000E5E94DA4011122CC26CA4AC84EC62E8490
:1049A00006CE2A8997D9FE5F938949AAEF00F01BAA
:1049B00083A789000567C4439307F7FE33848740C4
:1049C000F198269431807D143204635DE4004A85B9
:1049D000EF00D0190145F2406244D2444249B24945
:1049E0000561828081454A85EF00502D83A78900AB
:1049F000A697E31EF5FCB30580404A85EF00102C16
:104A0000FD57631BF50281454A85EF00302B03A754
:104A10008900BD46B307E540E3DBF6FA97E6FE5FA3
:104A200093860680944293E717005CC3158D97E642
:104A3000FE5F23A5A68461BF83A78900818C93E4D0
:104A40001400C4C397E7FE5F938747839C434A855E
:104A50003384874097E7FE5F23A28782EF0010111F
:104A6000054595BF6387051C411122C426C22A84CF
:104A7000AE8406C6EF00700F83A5C4FF938684FF43
:104A800017D5FE5F1305859C93F7E5FF3386F60087
:104A90005842032885008589719B6318C804BA971A
:104AA00089E903A784FF998E9046BA97D84658C6DD
:104AB00010C713E71700D8C217D7FE5F232CD7986B
:104AC00017D7FE5F13070776184363E9E70097D708
:104AD000FE5F9387677A8C4322856D3D2285224451
:104AE000B240924441016F00700858C2014895E1FC
:104AF00083A584FF97D8FE5F9388C8958D8EAE9767
:104B00008C466385150983A8C60023A6150123A436
:104B1000B800B305E600CC41858995E5BA971846FB
:104B20006318080697D5FE5F9385C5926312B70692
:104B300017D6FE5F2326D69217D6FE5F2320D69285
:104B4000D8C698C6054813E71700D8C23387F600C1
:104B50001CC3E31508F81307F01F636FF7028D837A
:104B600013D6274005473317C700504185078E07E6
:104B7000518FAA9717D6FE5F232CE68C9843138695
:104B800087FFD0C698C694C354C789BF054851B79C
:104B9000504650C718C645BF13D697001147636EDD
:104BA000C70213D7670013078703130617000E0603
:104BB0002A96930586FF10426397C50685470987A5
:104BC0003397E7005C415D8F97D7FE5F23A2E788AC
:104BD000CCC690C694C554C611B751476365C7008B
:104BE0001307B605D9B7130740056367C70013D786
:104BF000C7001307E70655BF130740156367C700D3
:104C000013D7F700130777074DB7930540551307E0
:104C1000E007E3ECC5F813D727011307C70771B7FF
:104C200010466386C5005842719BE3EBE7FE4C4695
:104C300045B78280797122D44AD052CC56CA06D662
:104C400026D24ECE1304052E0149054AFD5A19E815
:104C5000B25022544A8592540259F249624AD24AC9
:104C600045618280044483294400FD1963D409000E
:104C70000040F1BF83D7C400637CFA008397E4004F
:104C80006388570126852EC68295B2453369A900EF
:104C900093848406D9BF797122D44AD052CC56CAA3
:104CA0005AC85EC606D626D24ECE2A8AAE8A1304CB
:104CB000052E0149054BFD5B09ECB25022544A8593
:104CC00092540259F249624AD24A424BB24B456170
:104CD0008280044483294400FD1963D40900004004
:104CE000E1BF83D7C400637BFB008397E400638745
:104CF0007701A6855285829A3369A9009384840638
:104D0000E1BF797106D622D426D24AD04ECE52CCFB
:104D100056CA5AC85EC662C466C29387B500594770
:104D20006376F70293F487FF63D30402B1471CC193
:104D30000145B250225492540259F249624AD24A71
:104D4000424BB24B224C924C45618280C144E3EF0E
:104D5000B4FC2A89192D9307701F97C9FE5F9389A8
:104D6000E96E63EC9702138784004E9740439306E5
:104D700087FF93D734006316D40040478907630C3C
:104D800087045C4058441444F19BA297D8C614C7CA
:104D9000D84313671700D8C351A013D794009307C3
:104DA000F00301CB914763E0E70893D76400938752
:104DB0008703138717000E074E974043930587FF1D
:104DC0003D456309B4005840719B33069740635FCB
:104DD000C508FD17850703A4090197C5FE5F9385E4
:104DE0006567630CB40E5840BD46719B330697400F
:104DF00063D9C60893E714005CC0B306940097C754
:104E0000FE5F23AFD76497C7FE5F23A9D76493677C
:104E10001600CCC68CC6DCC2229710C34A85B923C3
:104E20001305840039B7D14763E5E7009307B70559
:104E300049B79307400563E7E70093D7C40093871A
:104E4000E70685BF9307401563E7E70093D7F400B3
:104E500093877707B9BF930640559307E007E3EAC6
:104E6000E6F493D724019387C707A1B75444634856
:104E700006001C44D4C79CC6B307E40011BF3684A7
:104E800089B797C6FE5F23ADB65C97C6FE5F23A7C2
:104E9000B65C6348060022975C4393E717005CC347
:104EA000B5BF9306F01F03A8490063E7E6140D831E
:104EB0001356274085460507B396C6000E074E9742
:104EC000B3E6060117C6FE5F2324D6581443130623
:104ED00087FF50C414C400C3C0C613D7274005437E
:104EE0003313E30003A74900636E6704B3766700DA
:104EF00099E6F19B0603B37667009107E5DE3D4E28
:104F000093963700CE9636883E850324C8006312F8
:104F10000419050513773500210865FB13F73700E1
:104F20006316071C03A749009347F3FFF98F17C7C0
:104F3000FE5F232FF75003A7490006036364670051
:104F40006312031C83AB890003A44B00937AC4FF54
:104F500063E79A0033879A40BD4763CDE72897D728
:104F6000FE5F9387673117D7FE5F1307672B804378
:104F70001443FD57338C5B0126943A8A6396F618E6
:104F80004104A2854A851D2BFD572A8B6308F52015
:104F90006374850163943B2197DCFE5F938C0C2E38
:104FA00003A70C00229797D7FE5F23A9E72C631372
:104FB0006C1793174C01639F071483A789005694BD
:104FC00013641400C0C317D7FE5F1307A72A83A773
:104FD0000C0018436376F70017D7FE5F232CF728E1
:104FE00017D7FE5F1307C72818436379F71A17D737
:104FF000FE5F232FF7265DA213569700914663EEBE
:10500000C6029356670093868603138616000E0623
:105010004E96130586FF10426317C506054789861D
:10502000B316D700B3E6060117C7FE5F2322D742A7
:1050300048C410C400C540C64DB5D14663E5C6009E
:105040009306B605D9B79306400563E7C6009356A5
:10505000C7009386E60655BF9306401563E7C60072
:105060009356F700938676074DB713054055930680
:10507000E007E36CC5F8935627019386C60771B71E
:1050800010466306C5005442F19AE36BD7FE4846CA
:1050900045B758405044719BB3089740635B1E036B
:1050A00093E714005CC01C44B30694002297D0C759
:1050B0001CC697C7FE5F23A5D73A97C7FE5F23AFED
:1050C000D73893E71800CCC68CC6DCC22320170162
:1050D000B1B363CB080022975C4393E717005CC32E
:1050E0001C44D0C71CC61DBB328415B5E1169846BA
:1050F000FD17E305D7E281B591070603B376670094
:10510000E5DEFDBBAA87DDBF05673D073A94FD7765
:105110007D8C85BD83260A00FD57639FF60897D7CF
:10512000FE5F23AF670F137C7B00814763060C0093
:10513000A147B38787413E9B0565338AA7005A94F0
:105140007D15B377A400330AFA40337AAA00D285DA
:105150004A85AD26FD576319F500228563050C00CD
:1051600013058CFF2295014A83A70C003305654186
:10517000D2972A9A17D7FE5F2322F710136A1A00D4
:1051800097C7FE5F23A8672D23224B01E38D3BE3E6
:105190003D47636B570385472322FB0083A78900A4
:1051A000DC43F19B3387974063E59700BD4763C3BA
:1051B000E7044A85652AADBEB3078B41BA9717D776
:1051C000FE5F232DF70A85B783A74B0013844AFFA0
:1051D0006198858BC18F23A2FB009546B3878B0016
:1051E000D4C394C7E37187DE93858B004A85EFF0C3
:1051F0007F87D1BB03A4890093E714005CC0B30789
:10520000940097C6FE5F23A7F62461B6B3C7A50036
:105210008D8B3307C50081E78D4763EEC700AA87F2
:105220006370E50A83C6050085078505A38FD7FE51
:10523000E3EAE7FE828093763500AA8791CA83C6A7
:10524000050085078505A38FD7FE93F63700FDB7C8
:105250009376C7FF138606FE63F0C70683A3050097
:1052600083A2450083AF850003AFC50083AE05016F
:1052700003AE450103A3850183A8C50193854502BB
:1052800023A0770003A8C5FF23A2570023A4F7019A
:1052900023A6E70123A8D70123AAC70123AC6700EF
:1052A00023AE17019387470223AE07FF75B79041DE
:1052B0009107910523AEC7FEE3EBD7FEE3E4E7F6E3
:1052C00082803D432A876373C3029377F700BDEF63
:1052D000ADE5937606FF3D8ABA960CC34CC30CC766
:1052E0004CC74107E36BD7FE11E28280B306C3408F
:1052F0008A069702000096966780A6002307B700EB
:10530000A306B7002306B700A305B7002305B7001F
:10531000A304B7002304B700A303B7002303B70017
:10532000A302B7002302B700A301B7002301B7000F
:10533000A300B7002300B700828093F5F50F939682
:105340008500D58D93960501D58D61B7939627007D
:105350009702000096968682E78086FA9680C117AB
:105360001D8F3E96E374C3F8A5B7828082803971A1
:1053700032D436D63AD83EDA42DC46DE2E860C45AA
:10538000341006CE36C62D2CF24021618280397150
:1053900032D436D63EDA2ED23AD842DC46DE97D721
:1053A000FE5F9387A7E79C4354102A868C473E856F
:1053B00006CE36C63124F24021618280104511A804
:1053C00097D7FE5F938787E59C43AA8590473E85E4
:1053D00009A0011122CC06CE2A8409C91C5D99E7D7
:1053E00032C62EC4EFF06FC93246A2451C46FD17E7
:1053F0001CC663D00702184E63C7E70093F7F50F8A
:1054000029476398E70022856244F24005616F10E6
:1054100050061C4213F5F50F1387170018C223809E
:10542000B700F24062440561828097D7FE5F9387A0
:10543000E7DE2E86AA85884369BF397122DC2A847B
:105440002E852EC606DEA52297D70000938707B8C3
:105450003ED485473ED61C10B2453ECA89473ECC55
:105460001C5C2AD205052ED02ACE0C4491E7228559
:105470002EC6EFF08FC0B2458397C5001397270162
:10548000634B07008966F851D58F2396F500F977AD
:10549000FD17F98FFCD150082285EF105027FD57DA
:1054A00011E1A947F25062543E852161828097D76D
:1054B000FE5F9387A7D6AA85884341B7411122C4CE
:1054C0002A842E8523A4018806C6EFA08049FD57B3
:1054D0006317F500938781889C4391C31CC0B24039
:1054E000224441018280411122C42E848395E5002B
:1054F00006C6EF30D071634905003C48AA973CC806
:10550000B2402244410182808357C4007D777D17D9
:10551000F98F2316F400EDB70145828083D7C500CB
:10552000011122CC26CA4AC84EC606CE93F70710F0
:10553000AA842E843289B68999C78395E500894665
:105540000146EF30203A8357C4007D777D17F98FED
:105550002316F4008315E4006244F240CE864A86A6
:10556000B24942492685D24405616F10007D411140
:1055700022C42E848395E50006C6EF30A036FD5781
:105580000357C400631BF500FD77FD17F98F231641
:10559000F400B2402244410182808567D98F2316EE
:1055A000F40028C8FDB78395E5006F10F009AA87BD
:1055B000850703C7F7FF6DFF3385A7407D15828000
:1055C00045712326111C2322911C2320211D232EEB
:1055D000311B2328611B2E89B284368B2324811C26
:1055E000232C411B232A511B2326711B2324811B9F
:1055F0002322911B2320A11B232EB119AA89EF304E
:1056000080201C413E853ED45D372ACA82C982CBA8
:1056100082CD82CF6388090083A7890381E74E8505
:10562000EFF0AFA58317C90013972701634D07005B
:10563000896603274906D58F2316F900F977FD17E8
:10564000F98F2322F9068357C900A18B95C78327B9
:1056500009019DC38357C9002947E98B6392E70677
:105660008317E90063CE0704DA862686CA854E854D
:10567000EF1060572ACC01A8CA854E85EF10C06E86
:1056800071D9FD573ECC8320C11C0324811C624587
:105690008324411C0329011C8329C11B032A811B6C
:1056A000832A411B032B011B832BC11A032C811A54
:1056B000832C411A032D011A832DC119796182802F
:1056C000FC11BEC382C782C5014A3E8C02DA02D8F1
:1056D00002C202D202D602CC2684130750028347AC
:1056E000040099C36394E708B30A9440638C0A02E8
:1056F000BE4723209C0023225C01D697BEC7AE473D
:105700001D47210C8507BEC5635BF700D001CA8524
:105710004E85EF50D00F631E0550130CC10EE247AB
:10572000D6973ECC8347040099E36F102047930738
:105730001400A303010AFD5D02CE0144A94B254DCF
:10574000930CA00283CA0700138717003AC8930678
:10575000A00593870AFEE3E6F64C17D7000013076F
:1057600027878A07BA979C43BA978287050485BF23
:105770004E85EF3040095C413E853ED60D3D2AD234
:105780004E85EF3040081C453EC2925781CB924770
:1057900091C783C7070099C313640440C2475DB72C
:1057A0008347710AE5FF93070002A303F10AFDB7DF
:1057B00013641400E5B783270B00110B3ECEE3DF23
:1057C00007FCB307F0403ECE13644400C1BF93070B
:1057D000B002E1BF4247C247834A07008507639989
:1057E0009A03832D0B0013074B0063D30D00FD5D5F
:1057F0003A8B3EC865B733837D03850783CAF7FFBD
:10580000B30DE30013870AFDE377EDFE3EC891B7C1
:10581000814DCDBF1364040851B7C24702CE724711
:10582000938A0AFD850733077703569783CAF7FFE4
:105830003ACE13870AFDE374EDFEC9BF13648400FA
:10584000B1BFC24703C70700930780066318F7007C
:10585000C2471364042085073EC889B71364040453
:1058600035BFC24703C707009307C0066318F70098
:10587000C24785073EC8136404020DB713640401D0
:1058800031BF93074B003EC683270B00A303010AD9
:105890002306F112014B854D014D02C4814B814C11
:1058A00064126AD06353BD016ED00347710A01C709
:1058B000825785073ED0937724003EDC81C782570C
:1058C00089073ED0937744083EDEA9EBF2470257A2
:1058D0003387E7406354E004C14E17DE0000130E27
:1058E000EE851D4FAE462320CC013E46850693052E
:1058F0008C00E3C1EE342322EC003297BAC7B6C560
:105900001D472E8C635CD700D001CA854E85EF50B1
:10591000007019C16F10A024130CC10E0347710A47
:1059200005CF1307710A2320EC0005472322EC0062
:105930003E479D46210C0507BAC72E470507BAC545
:1059400063DCE600D001CA854E85EF50406C19C17A
:105950006F10E020130CC10EE2579DCB38112320AD
:10596000EC0009472322EC003E479D46210C090725
:10597000BAC72E470507BAC563DCE600D001CA8561
:105980004E85EF50C06819C16F10601D130CC10E19
:10599000F257130700086399E704F2470257998FFB
:1059A0006354F00441481D4E2E4797C5000093856F
:1059B000E5792320BC00BE46050713068C00E346AC
:1059C000F82A2322FC00B697BEC7BAC59D46328C82
:1059D00063DCE600D001CA854E85EF50406319C1F3
:1059E0006F10E017130CC10E330DBD416354A005B9
:1059F000C1471D482E47BE4613068C000507E3CD60
:105A0000A7292322AC0197C7000093872774369DEE
:105A10002320FC00EAC7BAC59D46328C63DCE60051
:105A2000D001CA854E85EF50805E19C16F102013DA
:105A3000130CC10E137704103E4DE31A0728AE472E
:105A40003383AD0123209C0085072322BC019AC724
:105A5000BEC51D47210CE35FF744D001CA854E85C2
:105A6000EF50E05A19C16F10800F130CC10E6F0078
:105A700070441364040193770402A9CF1D0B137BB8
:105A80008BFF032D0B00832C4B0093078B003EC62E
:105A900063C40C006F10E011330DA041B337A001B7
:105AA000B30C9041B38CFC409307D002A303F10ADE
:105AB00085477D57E386ED042287B3669D01137405
:105AC000F4F7E39F0602E3840D140547E39DE70224
:105AD0006F10200F93074B003EC69377040191C7C8
:105AE000032D0B00935CFD4165B793770404032DF0
:105AF0000B0089C7420D135D0D41EDB7937704206C
:105B0000F5D3620D135D8D41F1BF93778400B5CF5E
:105B100093074B003EC683270B009043D44398471E
