:020000042001D9
:100000009721FF5F938181A397D200009382023FE3
:10001000739052301701FFDF1301C1FE9700FFDF1D
:10002000938040FE638300008290732540F18145F8
:1000300001460D209700FFDF9380C0FC6383000022
:100040008290970200009382C20073905230032383
:100050000000F5BF06849721FF5F9381219E173131
:10006000FF5F130161A6137101FF01E19712010007
:10007000938282331703FF5F1303C3F89713FF5F65
:1000800093830321638C6200635A730003A502000B
:1000900091022320A3001103E34A73FE971201008B
:1000A000938282301703FF5F1303C3F59703FF5F4B
:1000B000938343F5638C6200635A730003A50200C7
:1000C00091022320A3001103E34A73FE1713FF5F7D
:1000D0001303031C938301896357730023200300D8
:1000E0001103E34D73FE11C2029617D500001305EC
:1000F000654DEFD0A049EFD04050F32710303707BF
:10010000010013078702F98F99C7F32700300967A9
:10011000D98F739007300545970501009385457980
:100120001706010013060679EF20C00AEFD06047DA
:06013000A28082808280A3
:10018000130101E2232E111C232C811C1304011ED8
:10019000930606001387050093070500232AA4FE93
:1001A0002328B4FE2326C4FE130500002324A4E460
:1001B0002322D4E42320E4E4232EF4E26F00400061
:1001C000032584E49305F00163ECA5026F00400071
:1001D000032504FF832584E43305B50003050500EA
:1001E0001306C4E4B305B6002380A5006F004000E9
:1001F000032584E4130515002324A4E46FF05FFCB9
:100200000345C4E41375850F2306A4E40345B4E64F
:100210001375F507A305A4E60305B4E61365050405
:10022000A305A4E6130500002324A4E46F00400006
:10023000032584E49305F00163EEA5026F004000FE
:100240000325C4FE832584E43305B500034505007A
:10025000939525001306C4E6B305B60023A0A500B8
:100260006F004000032584E4130515002324A4E453
:100270006FF01FFC37050220130585AC97200000A6
:10028000E78000FF9305C4E61306C4E4232CA4E230
:1002900013850500232AB4E29305060097000000A9
:1002A000E780800B37050220130595AD97200000ED
:1002B000E78000FC9305C4EE2328A4E21385050023
:1002C0002326B4E297100000E78040951305C4F69A
:1002D0002324A4E2832544E30326C4E2971000000C
:1002E000E78000E5032584E297100000E78040FDE9
:1002F000130500002324A4E46F004000032584E4D8
:100300009305F00163EEA5026F004000032584E42D
:10031000931525001306C4E6B305B60083A50510A2
:10032000032644FF3305A6002300B5006F004000FC
:10033000032584E4130515002324A4E46FF01FFCB7
:10034000130500000324811D8320C11D1301011E1C
:100350006780000037160000130606D93301C1403C
:10036000371600001306C6D83306C1002320160036
:1003700037160000130686D83306C10023208600F6
:1003800037160000130606D93304C1001386050092
:10039000930605002328A4FE2326B4FE13050000BF
:1003A000B7F5FFFF9385452EB305B40023A0A50044
:1003B00037F5FFFF1305852D3305A4002320C50065
:1003C00037F5FFFF1305452D3305A4002320D50085
:1003D0006F00400037F5FFFF1305452E3305A400DD
:1003E000032505009305F00163E0A5066F004000BA
:1003F000032504FFB7F5FFFF9385452EB305B40031
:1004000083A50500939525003305B5000325050058
:100410001306C4EEB305B60023A0A5006F0040008C
:1004200037F5FFFF1305452E3305A400032505000E
:1004300013051500B7F5FFFF9385452EB305B400EE
:1004400023A0A5006FF01FF9130510002326A4F6C2
:1004500013051002B7F5FFFF9385452EB305B400D1
:1004600023A0A5006F00400037F5FFFF1305452EC0
:100470003305A400032505009305F00363ECA504F0
:100480006F00400037F5FFFF1305452E3305A4002C
:1004900003250500131525009305C4EE3385A5003B
:1004A000930500002320B5006F00400037F5FFFFE3
:1004B0001305452E3305A40003250500130515007B
:1004C000B7F5FFFF9385452EB305B40023A0A50023
:1004D0006FF09FF9130510002326A4DEB7F5FFFF88
:1004E0009385452EB305B40023A0A5006F004000FE
:1004F00037F5FFFF1305452E3305A400032505003E
:100500009305F00363ECA5046F00400037F5FFFF8F
:100510001305452E3305A4000325050013152500FA
:100520009305C4DE3385A500930500002320B500A4
:100530006F00400037F5FFFF1305452E3305A4007B
:100540000325050013051500B7F5FFFF9385452E1C
:10055000B305B40023A0A5006FF09FF91305E00FC9
:10056000B7F5FFFF9385C52DB305B40023A0A50003
:100570006F00400037F5FFFF1305C52D3305A400BC
:100580000325050093050000634AB55C6F00400039
:100590000325C4FEB7F5FFFF9385C52DB305B40051
:1005A00083A5050013D6F5411356D6013386C50041
:1005B000135636403305C5000345050093F5750015
:1005C0003355B500B7F5FFFF9385052EB305B4008D
:1005D00023A0A50037F5FFFF1305052E3305A40062
:1005E0000325050013751500B7F5FFFF9385052E4C
:1005F000B305B40023A0A50037F5FFFF1305052EB2
:100600003305A400032705001305C4CE9305C4BE1B
:100610001306C4DE9306C4EEB7F7FFFF9387072DDA
:10062000B307F40023A0A700B7F7FFFF9387C72CF9
:10063000B307F40023A0B700B7F7FFFF9387872C19
:10064000B307F40023A0C700B7F7FFFF9387472C39
:10065000B307F40023A0D70097100000E78080D7ED
:100660001305C4D69305C48E37F6FFFF1306062C78
:100670003306C4002320A6001385050037F6FFFFCC
:100680001306062D3306C40003260600B7F6FFFF47
:100690009386C62BB306D40023A0B60093050600AC
:1006A00037F6FFFF1306062C3306C40003260600A8
:1006B00097100000E78080E31305C496B7F5FFFFAD
:1006C0009385852BB305B40023A0A500B7F5FFFFE4
:1006D0009385052DB305B40083A5050037F6FFFF0C
:1006E0001306062C3306C4000326060097100000EC
:1006F000E78040EF1305C4C6B7F5FFFF9385C57EBD
:10070000B305B4009385050037F6FFFF1306462BAB
:100710003306C4002320A6001385050037F6FFFF2B
:100720001306C62C3306C40003260600B7F6FFFFE7
:100730009386062BB306D40023A0B60093050600CB
:1007400037F6FFFF1306462B3306C40003260600C8
:1007500097100000E78080D91305C486B7F5FFFF26
:100760009385C52AB305B40023A0A500B7F5FFFF04
:100770009385C52CB305B40083A5050037F6FFFFAC
:100780001306462B3306C40003260600971000000C
:10079000E78040E537F5FFFF1305C56E3305A4007C
:1007A00013050500B7F5FFFF9385852AB305B4004F
:1007B00023A0A500B7F5FFFF9385C52BB305B400B3
:1007C00083A5050097100000E78040F237F5FFFF92
:1007D0001305C5763305A40013050500B7F5FFFF23
:1007E0009385452AB305B40023A0A500B7F5FFFF04
:1007F0009385852BB305B40083A5050097100000F1
:10080000E780C0EE37F5FFFF1305C55E3305A40092
:1008100013050500B7F5FFFF9385052AB305B4005E
:1008200023A0A500B7F5FFFF9385052BB305B40002
:1008300083A5050037F6FFFF1306862B3306C40099
:100840000326060097100000E780808E37F5FFFF33
:100850001305C5663305A40013050500B7F5FFFFB2
:100860009385C529B305B40023A0A500B7F5FFFF04
:100870009385C52AB305B40083A5050037F6FFFFAD
:100880001306C62B3306C40003260600971000008B
:10089000E780008A37F5FFFF1305C54E3305A40036
:1008A00013050500B7F5FFFF93858529B305B4004F
:1008B00023A0A500B7F5FFFF9385052AB305B40073
:1008C00083A5050037F6FFFF1306C6293306C400CB
:1008D0000326060097100000E78040C137F5FFFFB0
:1008E0001305C5563305A40013050500B7F5FFFF32
:1008F00093854529B305B40023A0A500B7F5FFFFF4
:100900009385052AB305B40083A5050037F6FFFFDC
:100910001306C6293306C4000326060097100000FC
:10092000E78040CC37F5FFFF1305C5463305A4002B
:1009300013050500B7F5FFFF93850529B305B4003E
:1009400023A0A500B7F5FFFF93854529B305B400A3
:1009500083A5050097100000E78040D937F5FFFF19
:100960001305C53E3305A40013050500B7F5FFFFC9
:100970009385C528B305B40023A0A500B7F5FFFFF4
:100980009385852AB305B40083A5050037F6FFFFDC
:100990001306462A3306C4000326060097100000FB
:1009A000E78040C437F5FFFF1305C5363305A400C3
:1009B00013050500B7F5FFFF93858528B305B4003F
:1009C00023A0A500B7F5FFFF9385C528B305B400A4
:1009D00083A5050097100000E78080F337F5FFFF3F
:1009E0001305C52E3305A40013050500B7F5FFFF59
:1009F00093854528B305B40023A0A500B7F5FFFFF4
:100A000093858528B305B40083A5050037F6FFFF5D
:100A10001306862A3306C40003260600971000003A
:100A2000E780C0AC1305C4AEB7F5FFFF938505287A
:100A3000B305B40023A0A500B7F5FFFF9385852A71
:100A4000B305B40083A5050037F6FFFF1306462A59
:100A50003306C4000326060097000000E780406DBF
:100A60001305C4B6B7F5FFFF9385C528B305B400D9
:100A700083A5050037F6FFFF130646283306C4009A
:100A80000326060097000000E780806A1305C49ED5
:100A9000B7F5FFFF9385C527B305B40023A0A500D4
:100AA000B7F5FFFF93858529B305B40083A505003D
:100AB00097100000E78080C31305C4A6032604FF37
:100AC000B7F5FFFF93850529B305B40083A505009D
:100AD00097000000E780C06537F5FFFF1305052E7E
:100AE0003305A4000327050037F5FFFF1305852C08
:100AF0003305A40003250500B7F5FFFF9385452CBA
:100B0000B305B40083A5050037F6FFFF13060628DA
:100B10003306C40003260600B7F6FFFF9386C627F8
:100B2000B306D40083A6060097100000E780808AF1
:100B30006F00400037F5FFFF1305C52D3305A400F6
:100B4000032505001305F5FFB7F5FFFF9385C52DB8
:100B5000B305B40023A0A5006FF0DFA113050000CA
:100B6000B7F5FFFF9385452EB305B40023A0A5007C
:100B70006F00400037F5FFFF1305452E3305A40035
:100B8000032505009305F00363E0A5066F00400010
:100B900037F5FFFF1305452E3305A4000325050097
:100BA000131525009305C4DEB385A50083A50500B4
:100BB000032604FF3305A6002320B5006F00400084
:100BC00037F5FFFF1305452E3305A4000325050067
:100BD00013051500B7F5FFFF9385452EB305B40047
:100BE00023A0A5006FF01FF937150000130585D865
:100BF0003305A10003240500371500001305C5D8EF
:100C00003305A1008320050037150000130505D921
:100C10003301A10067800000130101A6232E1158A3
:100C2000232C81581304015A1386050093060500EE
:100C30002328A4FE2326B4FE8325C4FE1305C4F690
:100C40002322A4AE2320C4AE232ED4AC97100000E0
:100C5000E780C0A91305C4AE232CA4AC832544AE01
:100C600097100000E78080A81305C4B6232AA4AC1F
:100C7000832584AD97100000E78040A70326C4FEBB
:100C80001305C4EE2328A4AC832544AD97000000CF
:100C9000E780004A1305C4E62326A4AC832504ADEF
:100CA000032644AE97000000E7808048032544AD4A
:100CB0008325C4AC97100000E78040A31305C4DE71
:100CC0002324A4AC832544AD032604AD9700000083
:100CD000E7800046032544AD832584AC97100000CF
:100CE000E780C0A0032584AD832544AD97100000A4
:100CF000E780C09F032544AD832584AD9710000095
:100D0000E780C09E032584AD832544AD9710000085
:100D1000E780C09D032544AD832584AD9710000076
:100D2000E780C09C1305C4D62322A4AC832544AD20
:100D3000032684AC97000000E780803F032544AD84
:100D4000832544AC97100000E780409A032584ADCA
:100D5000832544AD97100000E780409913052000DB
:100D60002324A4AE6F004000032584AE93059000B9
:100D700063C2A5046F0040001305C4B69305C4AE5A
:100D80002320A4AC232EB4AA97100000E78000967D
:100D90000325C4AB832504AC97100000E7800095C1
:100DA0006F004000032584AE130525002324A4AE64
:100DB0006FF09FFB1305C4CE9305C4AE1306C4D6D3
:100DC000232CA4AA232AB4AA97000000E780403667
:100DD0001305C4B62328A4AA832584AB971000006A
:100DE000E780C090032544AB832504AB9710000037
:100DF000E780C08F130520002324A4AE6F004000BD
:100E0000032584AE9305300163C2A5046F00400042
:100E10001305C4B69305C4AE2326A4AA2324B4AAFA
:100E200097100000E780808C032584AA8325C4AA3C
:100E300097100000E780808B6F004000032584AE90
:100E4000130525002324A4AE6FF09FFB1305C4B641
:100E50009305C4AE1306C4CE2322A4AA2320B4AAA9
:100E600097000000E780C02C032504AA832544AA2C
:100E700097100000E7808087032544AA832504AAF1
:100E800097100000E7808086130520002324A4AE7D
:100E90006F004000032584AE9305900063C2A50453
:100EA0006F0040001305C4AE9305C4B6232EA4A85A
:100EB000232CB4A897100000E7804083032584A961
:100EC0008325C4A997100000E78040826F0040008E
:100ED000032584AE130525002324A4AE6FF09FFBE9
:100EE0001305C4C69305C4B61306C4D6232AA4A802
:100EF0002328B4A897000000E7808023032504A9D5
:100F0000832544A997000000E780407E1305C4AE06
:100F1000832504A997000000E780407D1305200089
:100F20002324A4AE6F004000032584AE9305100374
:100F300063C2A5046F0040001305C4B69305C4AE98
:100F40002326A4A82324B4A897000000E780007AF1
:100F5000032584A88325C4A897000000E7800079B2
:100F60006F004000032584AE130525002324A4AEA2
:100F70006FF09FFB1305C4BE9305C4AE1306C4C631
:100F80002322A4A82320B4A897000000E780401AD9
:100F9000032504A8832544A897000000E780007576
:100FA0001305C4B6832504A897000000E7800074E9
:100FB000130520002324A4AE6F004000032584AE57
:100FC0009305300663C2A5046F0040001305C4AE4C
:100FD0009305C4B6232EA4A6232CB4A69700000024
:100FE000E780C070032584A78325C4A7970000006D
:100FF000E780C06F6F004000032584AE1305250015
:101000002324A4AE6FF09FFB1305C4AE9305C4B6B2
:101010001306C4BE232AA4A62328B4A69700000062
:10102000E7800011032504A7832544A7970000004B
:10103000E780C06B032544A7832504A79700000021
:10104000E780C06A130520002324A4AE6F0040008F
:10105000032584AE9305100363C2A5046F0040000E
:101060001305C4B69305C4AE2326A4A62324B4A6B0
:1010700097000000E7808067032584A68325C4A627
:1010800097000000E78080666F004000032584AE73
:10109000130525002324A4AE6FF09FFB1305C4B6EF
:1010A0009305C4AE1306C4C62322A4A62320B4A667
:1010B00097000000E780C007032504A6832544A607
:1010C00097000000E7808062032544A6832504A6DC
:1010D00097000000E7808061032504A6832544A6CD
:1010E00097000000E7808060032544A6832504A6BE
:1010F00097000000E780805F032504A6832544A6AF
:1011000097000000E780805E032504FF1306C4E615
:10111000832504A697000000E780800103248159FD
:101120008320C1591301015A67800000130101FD9A
:1011300023261102232481021304010393060600CF
:101140001387050093070500232AA4FE2328B4FE75
:101150002326C4FE130500002324A4FE232ED4FC62
:10116000232CE4FC232AF4FC6F004000032584FEBA
:101170009305F00163E6A5126F004000130500001F
:101180002320A4FE2322A4FE6F004000032544FE7A
:10119000832584FE63EEA5046F004000032504FF51
:1011A000832544FE139625003305C500032505005D
:1011B0000326C4FE832684FEB385B640939525009E
:1011C000B305B60083A5050097C00000E780C01DE9
:1011D000832504FE3385A5002320A4FE6F00400074
:1011E000032544FE130515002322A4FE6FF01FFA09
:1011F000032584FE130515002322A4FE6F00400082
:10120000032544FE9305F00163E6A5066F00400048
:10121000032504FF832544FE139625003305C500EE
:10122000032505000326C4FE832684FE938606025A
:10123000B385B64093952500B305B60083A5050098
:1012400097C00000E78040169305600297C0000039
:10125000E7808015832504FE3385A5002320A4FEA6
:101260006F004000032544FE130515002322A4FE51
:101270006FF01FF9032504FE832544FF032684FE37
:1012800013162600B385C50023A0A5006F004000FB
:10129000032584FE130515002324A4FE6FF01FED23
:1012A000032544FF97100000E78000820324810299
:1012B0008320C1021301010367800000130101F6BE
:1012C000232E1108232C81081304010A930505001D
:1012D000232AA4FE130500002328A4F62324B4F631
:1012E0006F004000032504F79305F00163EEA502AB
:1012F0006F004000032544FF832504F793952500E4
:101300003305B50003250500130644F7B305B60001
:1013100023A0A5006F004000032504F71305150066
:101320002328A4F66FF01FFC032544FFB705022015
:101330001386C5AE2322A4F6832544F69700000049
:10134000E780C01A032544FF0325C5071355750020
:1013500013751500930500003385A5402326A4F6D8
:101360002328B4F66F004000032504F79305F0012D
:1013700063E8A5046F0040000325C4F6832504F745
:1013800093952500130644F73306B600032606009E
:10139000832644FFB385B60083A605003346D600F6
:1013A0003375C50033C5A60023A0A5006F0040001B
:1013B000032504F7130515002328A4F66FF0DFFAC0
:1013C000032481098320C1091301010A67800000F9
:1013D000130101FC232E1102232C810213040104AA
:1013E0009307070013880600930806009382050000
:1013F00013030500232AA4FE2328B4FE2326C4FEDB
:101400002324D4FE2322E4FE032544FE1305F5FF26
:10141000232CA4FC130500002320A4FE232AF4FCA3
:10142000232804FD232614FD232454FC232264FCDA
:101430006F004000032504FE9305F00363EEA5084A
:101440006F004000032584FD8325C4FE032604FEAF
:1014500013162600B385C50083A50500832684FEE8
:101460003386C60003260600B3C5C5003375B50034
:10147000232EA4FC032584FE832504FE93952500DA
:101480003305B500032505000326C4FD3345C5001B
:10149000032644FFB305B60023A0A5000325C4FE20
:1014A000832504FE939525003305B500032505002B
:1014B0000326C4FD3345C500032604FFB305B6006B
:1014C00023A0A5006F004000032504FE13051500AE
:1014D0002320A4FE6FF01FF6032481038320C103A1
:1014E0001301010467800000130101FD232611028E
:1014F00023248102130401039306060013870500C9
:1015000093070500232AA4FE2328B4FE2326C4FE45
:10151000130500002322A4FE2324A4FE2320D4FECE
:10152000232EE4FC232CF4FC6F004000032584FEF2
:101530009305E00163E8A5066F004000032504FF62
:10154000832584FE939525003305B500032505000A
:101550000326C4FEB305B60083A505003305B50018
:10156000832544FE3385A5002322A4FE034544FEC3
:10157000832544FF032684FE13162600B385C50089
:1015800023A0A500032544FE135585002322A4FEB5
:101590006F004000032584FE130515002324A4FEDC
:1015A0006FF0DFF8032504FF0325C5078325C4FE7C
:1015B00083A5C5073305B500832544FE3385A50003
:1015C0002322A4FE032544FE832544FF23AEA50663
:1015D000032481028320C1021301010367800000FC
:1015E000130101FD232611022324810213040103A8
:1015F000930606001387050093070500232AA4FE1F
:101600002328B4FE2326C4FE1305A00D2322A4FE26
:10161000130500002324A4FE2320D4FE232EE4FC83
:10162000232CF4FC6F004000032584FE9305E001A9
:1016300063EEA5066F004000032504FF832584FEAA
:10164000939525003305B5000325050037060100F5
:10165000130606F03305C5000326C4FEB305B60025
:1016600083A505003305B540832544FE3385A500D9
:101670002322A4FE034544FE832544FF032684FE63
:1016800013162600B385C50023A0A500032544FE3C
:10169000135585002322A4FE6F004000032584FE1D
:1016A000130515002324A4FE6FF01FF8032504FF83
:1016B0000325C5078325C4FE83A5C5073305B540AB
:1016C000832544FE3385A5002322A4FE032544FE82
:1016D000832544FF23AEA506032481028320C10293
:1016E0001301010367800000130101FD232611028D
:1016F00023248102130401031386050093060500C9
:10170000232AA4FE2328B4FE130500002326A4FEEA
:101710002320C4FE232ED4FC6F0040000325C4FE0A
:101720009305F00163E6A51C6F004000130500005F
:101730002322A4FE2324A4FE6F004000032584FE80
:101740008325C4FEB385A540637EB5046F004000C9
:10175000032504FF832584FE139625003306C50068
:10176000032606008326C4FEB385B6409395250064
:101770003305B500832505001305060097C000005A
:10178000E78080C2832544FE3385A5002322A4FE82
:101790006F004000032584FE130515002324A4FEDA
:1017A0006FF0DFF90325C4FE130515002324A4FE02
:1017B0006F004000032584FE8325C4FE9385050247
:1017C000B385A5406376B5066F004000032504FF8E
:1017D000832584FE139625003306C50003260600E4
:1017E0008326C4FE93860602B385B64093952500F2
:1017F0003305B500832505001305060097C00000DA
:10180000E78080BA9305600297C00000E780C0B906
:10181000832544FE3385A5002322A4FE6F004000EB
:10182000032584FE130515002324A4FE6FF09FF802
:10183000032544FE131515002322A4FE0345C4FE10
:1018400013751500631005086F004000032504FFA1
:101850008325C4FE9395150093F5C5FF3305B500A8
:1018600003250500232CA4FC832584FD97C00000DC
:10187000E78080B3832544FE3385A5002322A4FEA0
:10188000032504FF8325C4FE9395150093F5C5FF3A
:101890003305B50003250504232AA4FC832544FD54
:1018A00097C00000E78040B09305600297C0000039
:1018B000E78080AF832544FE3385A5002322A4FE64
:1018C0006F004000032544FE832544FF0326C4FE29
:1018D00013162600B385C50023A0A5006F004000A5
:1018E0000325C4FE130515002326A4FE6FF01FE395
:1018F000032544FF97000000E780001D03248102B8
:101900008320C1021301010367800000130101FE5F
:10191000232E1100232C81001304010213860500DD
:1019200093060500232AA4FE2328B4FE1305000015
:101930002324A4FE2326A4FE2322C4FE2320D4FEB7
:101940006F0040000325C4FE9305E00163E8A5068F
:101950006F004000032504FF8325C4FE93952500F6
:101960003305B50003250500B7E50100938515B4DF
:1019700097C00000E78040A3832584FE3385A5003F
:101980002324A4FE034584FE832544FF0326C4FECE
:1019900013162600B385C50023A0A500032584FEE9
:1019A000135585002324A4FE6F0040000325C4FEC8
:1019B000130515002326A4FE6FF0DFF8032504FFAE
:1019C0000325C507B7E50100938515B497C000004E
:1019D000E780809D832584FE3385A5002324A4FE13
:1019E000032584FE1375F507832544FF23AEA50662
:1019F000032584FE135575009305300197C0000040
:101A0000E780809A2324A4FE130500002326A4FE69
:101A10006F0040000325C4FE9305E00163E0A506C6
:101A20006F004000032544FF8325C4FE93952500E5
:101A30003305B50003250500832584FE3385A50005
:101A40002324A4FE034584FE832544FF0326C4FE0D
:101A500013162600B385C50023A0A500032584FE28
:101A6000135585002324A4FE6F0040000325C4FE07
:101A7000130515002326A4FE6FF0DFF9032544FFAC
:101A80008325C4FE939525003305B5000325050085
:101A9000832584FE3385A5002324A4FE032584FE2C
:101AA000832544FF0326C4FE13162600B385C50014
:101AB00023A0A500032481018320C1011301010299
:101AC00067800000130101FE232E1100232C8100EA
:101AD0001304010293050500232AA4FE1305000048
:101AE0002326A4FE2328A4FE2324B4FE6F00400076
:101AF000032504FF9305E00163E0A5066F004000A5
:101B0000032544FF832504FF939525003305B50085
:101B1000032505008325C4FE3385A5002326A4FEE6
:101B20000345C4FE832544FF032604FF1316260045
:101B3000B385C50023A0A5000325C4FE1355850069
:101B40002326A4FE6F004000032504FF13051500A3
:101B50002328A4FE6FF0DFF9032544FF0325C50702
:101B60008325C4FE3385A5002326A4FE0325C4FED9
:101B70001375F507832544FF23AEA5060325C4FE90
:101B8000135575009305300197C00000E780C081B0
:101B90002326A4FE130500002328A4FE6F004000A6
:101BA000032504FF9305E00163E0A5066F004000F4
:101BB000032544FF832504FF939525003305B500D5
:101BC000032505008325C4FE3385A5002326A4FE36
:101BD0000345C4FE832544FF032604FF1316260095
:101BE000B385C50023A0A5000325C4FE13558500B9
:101BF0002326A4FE6F004000032504FF13051500F3
:101C00002328A4FE6FF0DFF9032544FF0325C50751
:101C10008325C4FE3385A5002326A4FE0325C4FE28
:101C2000832544FF23AEA506032481018320C1013F
:101C30001301010267800000130101FD2326110238
:101C40002324810213040103138605009306050073
:101C5000232AA4FE2328B4FE130500002326A4FE95
:101C60002324C4FE2322D4FE6F0040000325C4FEBB
:101C7000832504FF6350B5046F004000032544FF33
:101C80008325C4FE3305B5008345050037050220D2
:101C90001305C5B697000000E780805D2320A4FEF1
:101CA0006F0040000325C4FE130515002326A4FE83
:101CB0006FF0DFFB37050220130585BC970000009D
:101CC000E780005B232EA4FC032481028320C10251
:101CD0001301010367800000130101FD2326110297
:101CE00023248102130401031386050093060500D3
:101CF000232AA4FE2328B4FE032504FF1305350080
:101D00002326A4FE2324C4FE2322D4FE6F00400019
:101D10000325C4FE9305E00363C6A5046F004000DD
:101D2000032544FF8325C4FE939525003305B500A4
:101D300083250500032545FFB385A540370502200F
:101D4000130515B797000000E78080522320A4FEFA
:101D50006F0040000325C4FE130535002326A4FEB2
:101D60006FF01FFB37050220130585BC97000000AC
:101D7000E7800050232EA4FC032481028320C102AB
:101D80001301010367800000130101FE232E1100DF
:101D9000232C81001304010213860500930605001D
:101DA000232AA4FE2328B4FE032504FF834505004F
:101DB0000347150013178700B3E5E5000347250027
:101DC00013170701B3E5E50003453500137535002A
:101DD0001315850133E5A500832544FF23A0A50045
:101DE000032504FF8345350093D5250003474500AF
:101DF00013176700B3E5E500034755001317E70025
:101E0000B3E5E500034565001375F500131565019D
:101E100033E5A500832544FF23A2A500032504FF85
:101E20008345650093D545000347750013174700A8
:101E3000B3E5E500034785001317C700B3E5E500E8
:101E4000034595001375F5031315450133E5A5000A
:101E5000832544FF23A4A500032504FF83459500A3
:101E600093D565000347A50013172700B3E5E500E8
:101E70000347B5001317A700B3E5E5000345C50008
:101E80001315250133E5A500832544FF23A6A500EE
:101E9000032504FF8345D5000347E500131787009A
:101EA000B3E5E5000347F50013170701B3E5E500C7
:101EB000030505011315850133E5A500832544FFBE
:101EC00023A8A5002326C4FE2324D4FE03248101D5
:101ED0008320C1011301010267800000130101EB9F
:101EE00023261114232481141304011597000000E4
:101EF000E780C03313050000232CA4EC6F004000E2
:101F0000032584ED9305400163C2A5066F004000E0
:101F1000032584ED9305C00097B00000E780C0481A
:101F20009305C4EF3385A50097000000E780402E9D
:101F3000B70500809385050237060080130606006A
:101F40009306C4ED232AA4EC1385060097E0FFFF57
:101F5000E78040232328A4EC6F004000032584ED94
:101F600013051500232CA4EC6FF09FF93705022010
:101F7000130575B797000000E780802F9305C4EF25
:101F8000130600002326A4EC138505002324B4ECDB
:101F90009305060097000000E78040D43705022033
:101FA0001305F5B897000000E780802C930510001A
:101FB000032684EC2322A4EC1305060097000000FE
:101FC000E780C0D137050220130575BA97000000DD
:101FD000E780002A93052000032684EC2320A4EC4C
:101FE0001305060097000000E78040CF3705022068
:101FF0001305E5BB97000000E78080279305C4ED3B
:1020000013060002232EA4EA13850500930506009B
:1020100097000000E78080C237050220130575BCD9
:1020200097000000E780C024232CA4EA0324811435
:102030008320C1141301011567800000130101FD05
:1020400023261102232481021304010313860500B1
:1020500093060500232AA4FE2328B4FE13050000DE
:102060002326A4FE2324C4FE2322D4FE6F004000B6
:102070000325C4FE832504FF6350B5046F004000B0
:10208000032544FF8325C4FE3305B50083450500C1
:10209000370502201305C5B697000000E780401DF4
:1020A0002320A4FE6F0040000325C4FE1305150085
:1020B0002326A4FE6FF0DFFB37050220130585BC45
:1020C00097000000E780C01A232EA4FC032481029D
:1020D0008320C1021301010367800000130101FE88
:1020E000232E1100232C8100130401029305050007
:1020F000232AA4FE032544FF370602201306A6BCAC
:102100002328A4FE13050600032604FF2326B4FE9D
:102110009305060097000000E78080152324A4FEA5
:10212000032481018320C1011301010267800000A3
:10213000130101FD2326110223248102130401034C
:102140001386050093060500232AA4FE2328B4FE67
:10215000130500002326A4FE2324C4FE2322D4FE5C
:102160006F0040000325C4FE832504FF6352B504BD
:102170006F004000032544FF8325C4FE939525008E
:102180003305B50083250500370502201305C5B6C4
:1021900097000000E780C00D2320A4FE6F004000E0
:1021A0000325C4FE130515002326A4FE6FF09FFB34
:1021B00037050220130585BC97000000E780400B1F
:1021C000232EA4FC032481028320C10213010103F6
:1021D00067800000130101FF2326110023248100E2
:1021E0001304010113050000232AA4FE2328A4FEE2
:1021F00097000000E780C0CE032504FF0324810080
:102200008320C1001301010167800000F32200B0A8
:1022100023205500F32230B023225500F32240B092
:102220002324550067800000B7220000938212002B
:1022300073903232B74200009382120073904232A0
:10224000678000001305010067800000397132D4F7
:1022500036D63AD83EDA42DC46DE2E860C453410BD
:1022600006CE36C61D28F24021618280397132D4F3
:1022700036D63EDA2ED23AD842DC46DE97F7FE5FFB
:102280009387C7FB9C4354102A868C473E8506CE15
:1022900036C62120F2402161828045712326111C1F
:1022A0002322911C2320211D232E311B2328611B57
:1022B0002E89B284368B2324811C232C411B232A94
:1022C000511B2326711B2324811B2322911B2320B6
:1022D000A11B232EB119AA89EF3020461C413E854F
:1022E0003ED4EF40300C2ACA82C982CB82CD82CF45
:1022F0006388090083A7890381E74E85EF10101AD0
:102300008317C90013972701634D070089660327C8
:102310004906D58F2316F900F977FD17F98F232287
:10232000F9068357C900A18B95C7832709019DC36F
:102330008357C9002947E98B6392E7068317E900B1
:1023400063CE0704DA862686CA854E85EF1060576D
:102350002ACC01A8CA854E85EF10405F71D9FD5780
:102360003ECC8320C11C0324811C62458324411C74
:102370000329011C8329C11B032A811B832A411BBA
:10238000032B011B832BC11A032C811A832C411AA6
:10239000032D011A832DC11979618280FC11BEC3FE
:1023A00082C782C5014A3E8C02DA02D802C202D23A
:1023B00002D602CC2684130750028347040099C337
:1023C0006394E708B30A9440638C0A02BE47232053
:1023D0009C0023225C01D697BEC7AE471D47210C47
:1023E0008507BEC5635BF700D001CA854E85EF50F7
:1023F000705C631F0550130CC10EE247D6973ECCAC
:102400008347040099E36F10204793071400A30348
:10241000010AFD5D02CE0144A94B254D930CA0029B
:1024200083CA0700138717003AC89306A00593874D
:102430000AFEE3E7F64C17D700001307A7798A07CF
:10244000BA979C43BA978287050485BF4E85EF30C3
:10245000C02E5C413E853ED6EF40C0742AD24E85E8
:10246000EF30A02D1C453EC2925781CB924791C7B9
:1024700083C7070099C313640440C24755B7834715
:10248000710AE5FF93070002A303F10AFDB7136485
:102490001400E5B783270B00110B3ECEE3DF07FCEA
:1024A000B307F0403ECE13644400C1BF9307B002AF
:1024B000E1BF4247C247834A0700850763999A03F1
:1024C000832D0B0013074B0063D30D00FD5D3A8B8A
:1024D0003EC865B733837D03850783CAF7FFB30D15
:1024E000E30013870AFDE377EDFE3EC889B7814D0F
:1024F000CDBF1364040851B7C24702CE7247938A16
:102500000AFD850733077703569783CAF7FF3ACE4C
:1025100013870AFDE374EDFEC9BF13648400B1BFE5
:10252000C24703C70700930780066318F700C24736
:102530001364042085073EC889B71364040435BFBB
:10254000C24703C707009307C0066318F700C247D6
:1025500085073EC8136404020DB71364040131BF3C
:1025600093074B003EC683270B00A303010A2306F3
:10257000F112014B854D014D02C4814B814C641217
:102580006AD06353BD016ED00347710A01C78257F9
:1025900085073ED0937724003EDC81C782578907A8
:1025A0003ED0937744083EDEA9EBF24702573387CB
:1025B000E7406354E004C14E17DE0000130E4E786E
:1025C0001D4FAE462320CC013E46850693058C0068
:1025D000E3C1EE342322EC003297BAC7B6C51D47DB
:1025E0002E8C635CD700D001CA854E85EF50903C9D
:1025F00019C16F10A024130CC10E0347710A05CF37
:102600001307710A2320EC0005472322EC003E4704
:102610009D46210C0507BAC72E470507BAC563DCDE
:10262000E600D001CA854E85EF50D03819C16F1031
:10263000E020130CC10EE2579DCB38112320EC0093
:1026400009472322EC003E479D46210C0907BAC7E3
:102650002E470507BAC563DCE600D001CA854E8562
:10266000EF50503519C16F10601D130CC10EF25799
:10267000130700086399E704F2470257998F6354E0
:10268000F00441481D4E2E4797D500009385456CB8
:102690002320BC00BE46050713068C00E346F82A3B
:1026A0002322FC00B697BEC7BAC59D46328C63DCB8
:1026B000E600D001CA854E85EF50D02F19C16F10AA
:1026C000E017130CC10E330DBD416354A005C14783
:1026D0001D482E47BE4613068C000507E3CDA729EB
:1026E0002322AC0197D7000093878766369D23206D
:1026F000FC00EAC7BAC59D46328C63DCE600D00117
:10270000CA854E85EF50102B19C16F102013130C82
:10271000C10E137704103E4DE31A0728AE473383EA
:10272000AD0123209C0085072322BC019AC7BEC5AA
:102730001D47210CE35FF744D001CA854E85EF5059
:10274000702719C16F10800F130CC10E6F007044F9
:102750001364040193770402A9CF1D0B137B8BFF35
:10276000032D0B00832C4B0093078B003EC663C4E4
:102770000C006F10C011330DA041B337A001B30C92
:102780009041B38CFC409307D002A303F10A854724
:102790007D57E386ED042287B3669D011374F4F739
:1027A000E39F0602E3840D140547E39DE7026F10E3
:1027B000000F93074B003EC69377040191C7032D8A
:1027C0000B00935CFD4165B793770404032D0B0068
:1027D00089C7420D135D0D41EDB793770420F5D302
:1027E000620D135D8D41F1BF93778400B5CF9307E0
:1027F0004B003EC683270B009043D4439847DC47E9
:10280000B2C9B6CBBACD8809BECFEF20D06E2AD7D9
:1028100089476310F508CE470C0108093EC9DE4719
:1028200002C102C33ECBEE4702C502C73ECDFE4702
:102830003ECFEF809037635605009307D002A30385
:10284000F10A9307700497D400009384645163D60F
:10285000570197D400009384E4501374F4F7014BAC
:102860008D4D014D6F00E07C1D0B137B8BFF83258D
:102870000B0003264B0093078B0008093EC6EFA010
:10288000207ACA47BEC9DA47BECBEA47BECDFA476F
:102890009DBF85476316F502FE4763D60700930781
:1028A000D002A303F10A9307700497D40000938425
:1028B000A44BE3D457FB97D400009384244B71BFFF
:1028C00093FBFAFD93071004639BFB04930700033B
:1028D0002304F10A13071006930780076384EA00B4
:1028E00093078005A304F10A9307300613642400BC
:1028F00063D0B73393851D004E85EF302002AA8444
:10290000631B05308357C90093E707042316F900BA
:102910008357C90093F70704E38507A489B4FD57DB
:10292000638DFD2E93077004014B6396FB00639447
:102930000D006E8B854D7E4A936704103ED002DCFD
:102940004E4EDE486E4D63590A00B707008033CA09
:1029500047019307D0023EDC930710046397FB2ED8
:10296000080972C946CB6ACD52CFEFA09000701112
:10297000EF30D0732E86AA850809EFA0606ACA4797
:1029800090108C18BED8DA47080182D0BEDAEA4728
:1029900082D282D4BEDCFA47BEDEB707FC3FBED689
:1029A000EF8050300A481A46AA463A4D0C010809F1
:1029B00042C9C2C032CB32DE36CD36C46ACF02C184
:1029C00002C302C502C7EF805004A24672560648F1
:1029D00019E105473AD797D700009387673913075E
:1029E00010063EC46387EA0097D7000093878739B3
:1029F0003EC4138EFDFFA68CB70703400C0132C303
:102A000008099018F2C442C136C56AC7BEDE82D832
:102A100082DA82DCEF8010294A46DA46EA47080962
:102A2000B2C2B6C03EDEEFA06041AA852A8A08097C
:102A30007A4DEFA0604FF25716468646BEDCCA4775
:102A4000B2D88C18BED0DA4790100801BED2EA473F
:102A5000EADEB6DABED4FA47850CBED6EF9040580F
:102A6000A247264EBA4EB385470183C505008A4268
:102A70009A4F2A4F72DEA38FBCFEFD57768D6300FE
:102A8000FE047D1E0C010809F6CEFACCFECA96C8DB
:102A9000F2C616C996C47ECBFEC27ACDFAC076CFF6
:102AA00002C102C302C502C7EF80207686461646E1
:102AB0002648364EC642D64F664FF64E15FD370DA8
:102AC000FE3F0C01080916C996C67ECBFEC47ACD1E
:102AD000FAC276CFF6C002C102C302C56AC7EF8050
:102AE000207D6348A002B642A64F164F864E0C01C9
:102AF000080916C97ECB7ACD76CF02C102C302C5C2
:102B00006AC7EF808070631C0512137A1A0063088D
:102B10000A12A24766DF9305000303C6F700FA56C0
:102B20009387F6FF3EDF83C7F6FF638BC70E13065E
:102B30009003639AC70EA24783C7A700A38FF6FE30
:102B4000668A13077004330A9A40BA5C639AEB1CD6
:102B5000755763C4EC0063D69D23F91A9386FCFF76
:102B600036D713F6FAFD1305100413F7FA0F814553
:102B70006316A6003D071377F70F8545230AE10A80
:102B80009307B00263D706008546B3869641930744
:102B9000D002A30AF10AA54763D0D71C1307310C52
:102BA0003A85A94513083006B3E7B6021306F7FFC6
:102BB00093870703A30FF7FEB3C7B6026344D81881
:102BC00093870703A30FF6FE79171306610B636E55
:102BD000A7165C19B307F6403ED8B38D4701854769
:102BE00063C547019377140099C3D247BE9D137400
:102BF000F4BF936704103ED002C4814B814CE2576E
:102C000089C71307D002A303E10A0254014D8DBA0C
:102C1000014B64120DB32A8B39BB014B994D21BB7B
:102C2000A38FB6FEEDBD850793F7F70F01BF050A29
:102C3000A30FEAFEB3874C41E3DB07FE19B7F25757
:102C4000668A13070003BE9CF5B793076004638B85
:102C5000FB009307500413831D006383FB006E8306
:102C6000094619A06E830D461C199A861308C10BDC
:102C700078110C094E8572C9F2C046CB46DE1AC4E3
:102C80006ACD52CFEF20E01793077004AA84224345
:102C9000F258064E6397FB009377140099E37A5A33
:102CA0004DB593076004B38C64006391FB0403C7C4
:102CB0000400930700036319F7020C01080972C9A5
:102CC00072DE46CB46C49AC06ACD52CF02C102C35F
:102CD00002C502C7EF806053A248725E11C5064369
:102CE0008547B38767403ED7BA57BE9C0C01080999
:102CF00072C946CB6ACD52CF02C102C302C502C718
:102D0000EF80A05011E166DF1307000331A0938626
:102D1000170036DF2380E700FA57E3EA97FF41B751
:102D200013076004E39CEBE2137714003367B701E9
:102D30006354900549CBD2473387FC00BA9D930A70
:102D40006006BDA03287BE8685B505078347F7FFBD
:102D50000506A30FF6FEA5BD1307610B99E59307C2
:102D60000003230BF10A1307710B93870603130665
:102D700017002300F700B1BD29CBD24713871700F6
:102D800075BF63CC4C0113771400E68D01C7D247A1
:102D9000B38DFC00930A700621A8D247930A7006EF
:102DA000B30DFA006346900133839D41930D1300E8
:102DB000937B044002C4E3840BE4814BE35190E530
:102DC0009306F00F15A0E68D9DBF930A6006854D12
:102DD000C5B7635097039247B38CEC4003C7170005
:102DE0000DC38507850B3EC2924703C70700E31258
:102DF000D7FEA2473387FB0092573307F702BA9DED
:102E0000FDBBA24785073EC4C5B713074B003AC6B2
:102E10001377040283270B0009CB624798C37D8791
:102E2000D8C3324BC2446FF0EFD81377040101C707
:102E3000624798C3FDB71377040409C7624723901C
:102E4000E700C5B71374042065D462472380E70008
:102E5000C9BF13640401937704028DC31D0B137B58
:102E60008BFF032D0B00832C4B0093078B003EC67A
:102E70001374F4BF8147A303010A19BA93074B00E7
:102E80003EC69377040181C7032D0B0031A09377D1
:102E9000040489C7035D0B00814CD9BF93770420DC
:102EA000E5D7034D0B00CDBF93074B003EC6E1773E
:102EB00093C707832314F10A97D70000938747EB42
:102EC0003EDA032D0B00814C136424008947930ADA
:102ED000800755B793074B003EC6A303010AFD5771
:102EE00083240B00638EFD006E8681452685EF20CE
:102EF00030792A8BE3070596B30D9540014B95B2C7
:102F00002685EF30304AAA8DD5BF1364040193772C
:102F1000040289CF1D0B137B8BFF032D0B00832C29
:102F20004B0093078B003EC68547B1B793074B0014
:102F30003EC69377040181C7032D0B0031A0937720
:102F4000040489C7035D0B00814CF9BF937704200B
:102F5000E5D7034D0B00CDBF97D70000938787E2DD
:102F60003EDA93770402B1C31D0B137B8BFF032D55
:102F70000B00832C4B0093078B003EC69377140005
:102F800081CFB3679D0189CB930700032304F10A26
:102F9000A304510B136424001374F4BF8947E1BDEB
:102FA00097D700009387C7DC65BF93074B003EC6E9
:102FB0009377040181C7032D0B0031A0937704049C
:102FC00089C7035D0B00814C55BF93770420E5D77B
:102FD000034D0B00CDBF228785476FF0EFFB054700
:102FE000E38AE70A0947638DE70C1C0B9396DC0123
:102FF00013777D00135D3D001307070333EDA60132
:1030000093DC3C00A38FE7FEB3669D019384F7FF3A
:1030100095E69376140089CA930600036306D700E9
:10302000A38FD4FE9384E7FF1C0B6E8D014BB38DF1
:10303000974002C4814B814C6FF08FD4A6877DB737
:10304000014A1C0B937B0440254B294681466A8527
:10305000E6859384F7FF3EC4EF70604CA2471305EA
:103060000503050AA38FA7FE638E0B02924783C751
:1030700007006319FA029307F00F6305FA026394DD
:103080000C006371AB039257B255014A9D8C3E868A
:103090002685EF305032924783C7170081C7924789
:1030A00085073EC2294681466A85E685EF70401154
:1030B00063940C00E37AABF72A8DAE8CA68771B7C8
:1030C000040B52579377FD00FD14BA9783C707008E
:1030D000135D4D002380F4009397CC0133EDA701DD
:1030E00093DC4C00B3679D01E9FF3DBF040B8DFFEE
:1030F000058B1DDB93070003A307F1186F00A07A6F
:10310000638C0A7623065113A303010A5AC66FF093
:103110004FC641062322DC01B2C7B6C56352DF02A7
:10312000D001CA854E85BAC0EF50C008631805703B
:103130000647EC111D4F17DE0000130E6EC0C14E86
:1031400041172E8C6FF0EFC7C10623220C01B6C7C2
:10315000BAC5635EEE00D001CA854E853EDCEF50F5
:103160006005631D056CE257F0111D4E4148C11703
:10317000328C6FF04FD197D50000938565BDC106A5
:103180002320BC002322FC00B6C7BAC5635CE8005C
:10319000D001CA854E85EF50E0016311056AF01138
:1031A0001D48C147411D328C6FF0AFD21307500646
:1031B000635A574F4E470C0108093AC95E4702C18E
:1031C00002C33ACB6E4702C502C73ACD7E473ACF1B
:1031D000EF80A00369ED97D700009387E7BB23201A
:1031E000FC0085472322FC00AE47050DEAC7850792
:1031F000BEC51D47210C635BF700D001CA854E8513
:10320000EF40507B631C0562130CC10EBA5763C6B6
:10321000470193771400638E0716A2575247210C7B
:10322000232CFCFED247232EFCFEBE47BA97BEC716
:10323000AE471D478507BEC5635BF700D001CA8551
:103240004E85EF403077631B055E130CC10E93046F
:10325000FAFF63509014C14A9D4BAE4717D6000049
:10326000130606AF2320CC003E47850793068C004B
:1032700063CD9A0023229C00BA94A6C7BEC51D4701
:10328000368C6358F7106FF02FCB410723225C0177
:10329000BAC7BEC563DAFB00D001CA854E85EF40D0
:1032A0007071631D0558F411C114368C7DB73A57FF
:1032B000634EE01297D70000938707AE2320FC00EF
:1032C00085472322FC00AE47050DEAC78507BEC52A
:1032D0001D47210C635BF700D001CA854E85EF4086
:1032E000706D631D0554130CC10EBA57937614000C
:1032F0003E47B367FA00D58FC9CFA25793088C0019
:103300002320FC00D2472322FC00BA97BEC7AE4759
:103310001D478507BEC5635BF700D001CA854E8592
:10332000EF405069631C05509308C10EBA5A63D32D
:103330000A04B30A50414687C14B1D4CAE4717D60D
:1033400000001306E6A010C3BE468507A10863CCA3
:103350005B0723225701B69AD6C7BEC51D47635BDC
:10336000F700D001CA854E85EF40D0646318054C44
:103370009308C10EBE4723A0980023A24801D2970C
:10338000BEC7AE471D47138C88008507BEC5634581
:10339000F7BA118863120446F24A825763D3FA00DF
:1033A000BE8AE247D6973ECCBE4781CBD001CA85C4
:1033B0004E85EF4030606313054882C5631A0B4A9F
:1033C000130CC10EB9BCC10623227701B6C7BEC516
:1033D000635BFC00D001CA854E85EF40B05D631F82
:1033E00005449308C10EC11A468789BFE68A635314
:1033F0009A01D28A635850032E47569D23209C0081
:10340000050723225C01EAC7BAC59D46210C63DB90
:10341000E600D001CA854E85EF40D05963100542C1
:10342000130CC10E63D30A00814AB38A5C41635313
:103430005005414D9D4D2E4797D7000093874791EA
:103440002320FC00BE46050713068C0063435D1372
:1034500023225C01B69AD6C7BAC59D46328C63DB7F
:10346000E600D001CA854E85EF40D0546318053C74
:10347000130CC10E93770440B38A940191CF1D4D74
:10348000B38D4401A24763980B1063970710B3876D
:10349000440163F35701BE8ABA5763C54701937766
:1034A00014009DCBA2575247210C232CFCFED2477F
:1034B000232EFCFEBE47BA97BEC7AE471D47850701
:1034C000BEC5635BF700D001CA854E85EF40904EC4
:1034D00063160536130CC10ED294B3875441BA5407
:1034E000B3049A4063D39700BE8463599002BE47E9
:1034F00023205C0123229C00A697BEC7AE471D4730
:10350000210C8507BEC5635BF700D001CA854E85D7
:10351000EF40504A63140532130CC10EA68763D3E3
:1035200004008147BA54B3049A409D8CE35390E65B
:10353000C14A9D4BAE4717D6000013066681232073
:10354000CC003E47850793068C00E3D59AD241070D
:1035500023225C01BAC7BEC563DAFB00D001CA856D
:103560004E85EF403045631B052CF411C114368C99
:10357000D1B7C1062322AC01B6C7BAC563DAED00E4
:10358000D001CA854E85EF40F0426319052AF0113B
:10359000C11A328C4DB5D9CFA247FD173EC4B257E0
:1035A0001257210C232CFCFE9257232EFCFEBE4703
:1035B000BA97BEC7AE478507BEC5635BFD00D001A5
:1035C000CA854E85EF40103F631A0526130CC10EC5
:1035D000924733875D4183C707006353F700BA877B
:1035E000635AF0023E4723205C012322FC003E97F1
:1035F000BAC72E47210C0507BAC5635DED00D0019F
:10360000CA854E853EDCEF40F03A63190522E25749
:10361000130CC10E3E8763D3070001479247414810
:1036200083C70700998F6340F004924783C7070060
:10363000BE9A89BD9247FD1BFD173EC28DB7C106DC
:1036400023220C01B6C7BAC5635DED00D001CA855F
:103650004E853EDCEF4010366312051EE257F01136
:103660004148C117328C2E4797C500009385456E9F
:103670002320BC00BE46050713068C00E341F8FC7E
:103680002322FC00B697BEC7BAC5328CE35FEDF8C3
:10369000D001CA854E85EF40F0316311051A130C35
:1036A000C10E61B7AE47054723209C00050D850775
:1036B000930B8C00634647019376140063860612D1
:1036C00005472322EC00EAC7BEC51D47635BF70030
:1036D000D001CA854E85EF40F02D63110516930B7E
:1036E000C10EA2575247A10B23ACFBFED24723AE1B
:1036F000FBFEBE47BA97BEC7AE471D478507BEC58E
:10370000635BF700D001CA854E85EF40B02A63178E
:103710000512930BC10ECE470C0108093EC9DE47C6
:10372000930AFAFF02C13ECBEE4702C302C53ECD6B
:10373000FE4702C73ECFEF70502D29CDBE472E4722
:103740008504FD17D297050723A09B0023A25B01E8
:10375000BEC7BAC59D47A10B63DAE700D001CA8591
:103760004E85EF40302579E9930BC10E5C1923A0FB
:10377000FB00C2574257138C8B0023A2FB00BE47AD
:10378000BA97BEC7AE471D478507BEC5E353F7C00E
:103790006FE09FFAE35C50FDC1441D4C2E4717C6F5
:1037A00000001306E65A23A0CB00BE470507938608
:1037B0008B0063CA5401D69723A25B01BEC7BAC56A
:1037C0009D47B68B51BFC10723A29B00BEC7BAC598
:1037D0006359EC00D001CA854E85EF40B01D39ED2C
:1037E000F411C11AB68B5DBF2322EC00EAC7BEC537
:1037F0001D47E35DF7F69DB7F24702573384E74074
:10380000E35C80B8C14A97C40000938464539D4B25
:10381000AE4723209C003E47850763C98A022322C6
:103820008C003A94A2C7BEC51D47E357F7B6D00136
:10383000CA854E85EF401018E30005B6630A0B8C6D
:10384000DA854E85EF0020646FF08F8C41072322CC
:103850005C01BAC7BEC5210C63DAFB00D001CA8582
:103860004E85EF40301579F9130CC10E41144DB758
:10387000DA854E85092DA9B6BE4799E36FF04F89C9
:10388000D001CA854E85EF40F0126FF06F88FD576A
:103890006393FDF463960CFAA54763E3A7FB130D4E
:1038A0000D03A307A1199304F1186FF0EFF797E741
:1038B000FE5F9387A798B2862E86AA8588436FE01D
:1038C000DF9D83D7C500130101B8232C8146F59BEA
:1038D000231AF100FC512E84232A9146BED683D7A9
:1038E000E50023282147232E1146231BF100DC4D40
:1038F0002A8902D03ED2DC512C003ED69C183EC410
:103900003ECC930700403EC83ECEEFE01F99AA840C
:10391000634705002C004A85AD2411C1FD5483572F
:10392000410193F7070499C78357C40093E707043D
:103930002316F4008320C1470324814726850329E9
:10394000014783244147130101488280411197E7D1
:10395000FE5F9387A78E26C2AA84884322C406C628
:103960002E8401C51C5D91E3152E0317C400931727
:103970000701C18393F68700A1EE93F6070189EE54
:10398000A5479CC0136707042316E4007D55B24089
:103990002244924441018280918B8DC70C5889C981
:1039A000930704046384F5002685F1292328040283
:1039B0008357C4002322040093F7B7FD2316F400B5
:1039C0001C481CC08357C40093E787002316F400EB
:1039D0001C4889EF8357C4001307002093F707287A
:1039E0006386E700A2852685EF1070698357C400BF
:1039F00013F7170005C75C4823240400B307F04001
:103A00001CCC1C480145C1F78317C40013F70708F5
:103A10003DDF93E707042316F4008DBF898B014730
:103A200091E3584818C4F1BF8397C500011122CC17
:103A300013970701418326CA06CE4AC84EC693761D
:103A40008700AA842E84E5EE056713070780D98FC7
:103A5000D8412396F500634DE000D85D634AE0004D
:103A60000145F2406244D2444249B2490561828034
:103A700018547DD703A904009396370123A00400AE
:103A800063D5060830488357C400918B99C75C40C2
:103A90001D8E1C5899C35C5C1D8E1C544C4C814679
:103AA00026858297FD578356C400631DF5009C4010
:103AB00075476360F7083707402005073357F7005D
:103AC000058B25CBFD779387F77F1848F58FC207C5
:103AD000C18718C02316F40023220400139737016E
:103AE00063580700FD576314F5009C4091E328C814
:103AF0000C5823A02401ADD5930704046384F5007A
:103B00002685512623280402A1BF4C4C0146854638
:103B100026850297FD572A86E317F5F69C40A5D720
:103B200075476385E70059476394E70423A02401A0
:103B300005BF93E706042316F4007D551DB783A93E
:103B40000501E38F09F003A905000D8B23A03501C2
:103B500033093941814711E3DC491CC4E35220F1A8
:103B60005C504C4CCA864E86268582976347A000DF
:103B70008357C40093E707047DBFAA993309A9407E
:103B8000F1BF011122CC06CE2A8411C51C5D81E74C
:103B90002EC62922B2458397C50091C7228562446B
:103BA000F240056151B5F2406244014505618280F1
:103BB000AA8509E9938701858843970500009385C5
:103BC00085FCDDA997D7FE5F93874767884355BF7C
:103BD00001458280411122C406C62A842316B500FD
:103BE0002317C500232005002322050023240500F8
:103BF0002322050623280500232A0500232C05007F
:103C0000214681451305C505EF202029973700007F
:103C1000938707DA1CD0973700009387C7DC5CD006
:103C200097370000938747E11CD4973700009387AC
:103C300027E440CC5CD4B2402244410182809755B5
:103C400000009385C50A8DA901458280411126C2D5
:103C5000130680069384F5FFB384C4024AC02E89FC
:103C600022C406C693854407EF10504B2A8401CD29
:103C70002320050023222501310508C4138684066C
:103C80008145EF2080212285B2402244924402499E
:103C90004101828093870185884355B71C5DA9E760
:103CA000411106C622C497070000938787F95CDD9F
:103CB0008D472322F52E9307C52E2A842324F52E23
:103CC0002320052E484101469145293708440546E1
:103CD000A545093748440946C945ED3D85471CDCE3
:103CE000B240224441018280828041119387018544
:103CF00026C284434AC006C69C5C22C42A8999E332
:103D00002685693F9384042E8044DC40FD1763D6EA
:103D100007009C40B9CF8440C5BF0317C40039E7F2
:103D2000C1778507232204062320040023220400F0
:103D3000232404005CC423280400232A0400232C29
:103D40000400214681451305C405EF2000152328F2
:103D50000402232A040223220404232404042285C7
:103D6000B2402244924402494101828013048406F5
:103D700071BF91454A85D93D88C051FDB147232087
:103D8000F9000144E9BF828082808280828097D7D7
:103D9000FE5F9387A74A884397050000938585E3D4
:103DA0005DAC97D7FE5F938767498843970500000E
:103DB0009385C5E94DA4011122CC26CA4AC84EC636
:103DC0002E8406CE2A8997D9FE5F9389E980EF2059
:103DD000401783A789000567C4439307F7FE338420
:103DE0008740F198269431807D143204635DE400AD
:103DF0004A85EF2020150145F2406244D2444249F1
:103E0000B2490561828081454A85EF20902783A7CA
:103E10008900A697E31EF5FCB30580404A85EF2094
:103E20005026FD57631BF50281454A85EF2070251A
:103E300003A78900BD46B307E540E3DBF6FA97D652
:103E4000FE5F9386E63F944293E717005CC3158DAF
:103E500097D6FE5F23A4A64461BF83A78900818C07
:103E600093E41400C4C397D7FE5F938727439C4312
:103E70004A853384874097D7FE5F23A18742EF208E
:103E8000600C054595BF6387051C411122C426C2FD
:103E90002A84AE8406C6EF20C00A83A5C4FF938699
:103EA00084FF17C5FE5F1305257393F7E5FF33867F
:103EB000F6005842032885008589719B6318C80461
:103EC000BA9789E903A784FF998E9046BA97D84696
:103ED00058C610C713E71700D8C217C7FE5F2321C3
:103EE000D77017D7FE5F1307E735184363E9E7007C
:103EF00097D7FE5F9387473A8C4322856D3D228595
:103F00002244B240924441016F20C00358C201488C
:103F100095E183A584FF97C8FE5F9388686C8D8EBA
:103F2000AE978C466385150983A8C60023A61501A4
:103F300023A4B800B305E600CC41858995E5BA977E
:103F400018466318080697C5FE5F93856569631276
:103F5000B70617C6FE5F232BD66817C6FE5F23255C
:103F6000D668D8C698C6054813E71700D8C2338765
:103F7000F6001CC3E31508F81307F01F636FF70280
:103F80008D8313D6274005473317C7005041850757
:103F90008E07518FAA9717C6FE5F2321E6649843C8
:103FA000138687FFD0C698C694C354C789BF0548F7
:103FB00051B7504650C718C645BF13D69700114792
:103FC000636EC70213D76700130787031306170032
:103FD0000E062A96930586FF10426397C50685470D
:103FE00009873397E7005C415D8F97C7FE5F23A782
:103FF000E75ECCC690C694C554C611B751476365F9
:10400000C7001307B605D9B7130740056367C70094
:1040100013D7C7001307E70655BF1307401563679B
:10402000C70013D7F700130777074DB7930540551F
:104030001307E007E3ECC5F813D727011307C707F9
:1040400071B710466386C5005842719BE3EBE7FEEB
:104050004C4645B78280797122D44AD052CC56CA98
:1040600006D626D24ECE1304052E0149054AFD5A26
:1040700019E8B25022544A8592540259F249624AD0
:10408000D24A45618280044483294400FD1963D4E7
:1040900009000040F1BF83D7C400637CFA00839716
:1040A000E4006388570126852EC68295B2453369A0
:1040B000A90093848406D9BF797122D44AD052CC06
:1040C00056CA5AC85EC606D626D24ECE2A8AAE8AAE
:1040D0001304052E0149054BFD5B09ECB250225437
:1040E0004A8592540259F249624AD24A424BB24B33
:1040F00045618280044483294400FD1963D409008A
:104100000040E1BF83D7C400637BFB008397E400DA
:1041100063877701A6855285829A3369A9009384C3
:104120008406E1BF930745010905231F05FEE31D32
:10413000F5FE828081475147B306F50003D606009D
:10414000B386F50089072390C600E397E7FE8280D7
:104150009307A5010905231F05FEE31DF5FE8280D7
:1041600081476147B306F50003D60600B386F50024
:1041700089072390C600E397E7FE239C0500828011
:10418000914769463307F500835607003387F500EA
:10419000035707006387E60005456368D7007D5530
:1041A00082808907E390C7FE01458280930645001F
:1041B00081476905617603D706009375170099C199
:1041C00093E7170093F52700058391E9860723906D
:1041D000E600C2078906C183E31FD5FC8280518FA8
:1041E000F5B793066501014783D7260013960701AB
:1041F000418663540600136717008607C2071376CB
:104200002700C18311EA06072391F6004207F91639
:104210004183E31BD5FC828093E71700EDB793073A
:1042200045000147690583D60700890713D6860034
:10423000518F239FE7FE1397860042074183E314C3
:10424000F5FE828093076501014783D62700F917A1
:1042500013968600518F2392E70013D78600E3164A
:10426000F5FE82809307450013078501890783D6F1
:104270000700239FD7FEE31BF7FE231C0500828067
:104280009307850113074500F91783D6070023918B
:10429000D700E31BF7FE231205008280E105130718
:1042A000650181468357270003D605007917F91564
:1042B000B297B6972391F500C18393F61700E313E5
:1042C000E5FE8280E10513076501814683D705007D
:1042D0007917F915958F83564700958F2391F5002F
:1042E000C18393F61700E313E5FE82800111416359
:1042F00093888501231D0100231E01009105740888
:104300007D1303D70800F916F91805E7239F06FE69
:10431000E39915FF914769474C00BE9583D5050089
:10432000B306F60089072390B600E397E7FE056120
:1043300082803307A70203D82600B3776700C297AD
:1043400013D807012391F6009357070103D70600FE
:10435000BA97C2972390F600C183239FF6FE4DBF04
:104360008357250193C7F7FF1397170109EB9307AD
:10437000250109050357E5FF09E7E39CA7FE014571
:10438000828005458280411122C406C62A84C93F25
:1043900001E9031524017D81B2402244410182805C
:1043A0000145DDBF83172501411106C622C426C27F
:1043B0004AC063D80704FD572390F5000357250131
:1043C000A167FD177D8F2391E50013090501631790
:1043D000F7042E84AA84693705C993076400231261
:1043E00004001385C4FF7919035729008907239F07
:1043F000E7FEE31AA9FEB240224492440249410179
:104400008280239005005DBF930744009305A401BB
:104410008907239F07FEE39DB7FEF1BF93876500E1
:104420002392050079157919035729008907239FDD
:10443000E7FEE31AA9FE239C050075BF5D71A6C2C5
:10444000CAC086C6A2C42A89AE84193F41E5268522
:10445000013F2A8441E12C004A85A9374C1026856A
:1044600091370357810083574102638CE7028947E4
:10447000E14630003E960356060005E250103E9697
:104480000356060019EA8907E395D7FE2285B64050
:1044900026449644064961618280054465DB7D546B
:1044A000F5B7054791C37D578147E1453400BE9676
:1044B00003D606005410BE9683D606006308D600C5
:1044C0003A84E3E5C6FC3304E040C9B78907E39FBB
:1044D000B7FC6DBF79545DBF8357250193C7F7FFC4
:1044E0001397170109EB411106C69D3DB2401335E4
:1044F0001500410182800145828013072501AA87AA
:104500008907239F07FEE39DE7FE83572501216767
:104510007D17D98F2319F5008280011122CC4EC658
:1045200006CE26CA4AC852C456C2AA892E8463D46B
:10453000050A3309B0404A8A8144BD4A63C74A0329
:1045400013594900C155B305B9021D4A338485404A
:10455000228963432A0393553400E157B385F5025A
:104560002E9415E033359000B1A883D789014E858C
:10457000411ADD8C3133D9B783C789014E85611962
:10458000DD8C7139F9B783D789014E857D14858B10
:10459000DD8C2939F9B74E85F131C114E34D99FE0F
:1045A00093554400C157B385F5021D492E94A2844A
:1045B0006346990293553400E157B385F5022E9472
:1045C00015E00145F2406244D2444249B249224AD0
:1045D000924A05618280AE843D49C9B74E859D31BE
:1045E000E114F9B74E85F53E7D14D9BF83574500D8
:1045F000411126C206C622C44AC0AA8491CB93F7B1
:1046000007F0014499C3213961541309F0F68DA0D4
:104610008317650001441309000A63DE0700228541
:10462000B2402244924402494101828026854104DD
:104630001539E30624FF83D76400EDDB83D76400DC
:1046400093F707F089CF1309000A83976400E3C842
:1046500007FC268505047136E35989FEC9B726850E
:10466000D5362104E1BF26857D148936E30924FB74
:1046700083D74400EDFB65B713070501AA878907B7
:10468000239F07FEE39DE7FEB7C7FF7F1CC982801B
:104690002A87835607002E858357270099C2E17623
:1046A000D58F2319F50003562700A166FD16930741
:1046B0006700631AD600690783D6070085E2890779
:1046C000E39CE7FE1DBD41056107890783D6E7FF2F
:1046D00079152311D500E39AE7FE828071BF7971C5
:1046E00026D2AA84480022D406D62E84953403D735
:1046F000E40093170701C18763C607022312010074
:10470000A166FD16758F9387E4006316D70426878C
:104710008356070081CE22858537B25022549254A9
:1047200045618280FD572312F100D9BF0907E3914B
:10473000E7FE2285C53A2285C9338397E400E3DE8C
:1047400007FC2285313971F9835724016177B98FCC
:104750002319F400D9B72313E1005400F91703D645
:10476000070089062392C600E39AF4FE19E7231492
:104770000100A2854800293F4DB78547FD554800F7
:104780002314F100593BF5B7011122CC26CA4AC8BF
:104790004EC652C456C236893E8406CEAA84AE891D
:1047A000328ABA8AA135930700093309A94063D731
:1047B000A702A167F91763CE270393872400E904B2
:1047C0008907239F07FEE39D97FEF2406244D2448F
:1047D0004249B249224A924A05618280635B0900DC
:1047E000930700F76341F912CA8526853D336315A7
:1047F000051263860A0E58401C406307F704130530
:10480000A401B9325C40130780036387E714634750
:10481000F71061476387E716130750036388E714AF
:10482000314718C4370701807D1758C80547231C36
:10483000E4002D4758C458448356840121070607D5
:1048400022972315D7001CC0634E200158409307C0
:1048500000096309F70083D784012685858BB3E9B6
:10486000F900A9321444035644014C401397160032
:10487000269783570700F18F1306F0086347B600A9
:1048800085063A86B14563D0D51083564401035658
:10489000070093C6F6FFF18E2310D700035764017B
:1048A000B376F70091CE631CF70E6398090E5C4453
:1048B000035784018607A69783D70700F98FE5E39E
:1048C000634920015840930700096304F7002685D7
:1048D000093A83D7440081C72685C9380509A167ED
:1048E000239C0400F91763D1270DE17793C7F7FFE5
:1048F0002391F40093874400E10423900700890783
:10490000E39DF4FED9B593872400E9048907239F2A
:1049100007FEE39D97FE55BD8549E1BD13070004E1
:104920006381E70213071007E39CE7EE3787004037
:104930007D17A94658C814C46177231CE40054C4E9
:10494000DDBD1D4718C4370701807D1758C80547CE
:10495000231CE4001947F9BD994637078000130767
:10496000F70F58C814C413070010C1BF370700045D
:104970001307F77F994658C8056714C413070780C3
:104980006DBF9146D9BF0355260019C193E71700A3
:104990002311060085060906FDB5E3130AF2A68574
:1049A0001305A401E53829BF6355090023910400CC
:1049B00029BD2391240111BD011152C4035A2500C0
:1049C00022CC2E8406CE26CA4AC856C25AC0328984
:1049D000130B46034EC6AA8A113983542400330AA6
:1049E000AA4022852131898C5A85EFF06FF663D277
:1049F000440322856244F240B249224A924A024B61
:104A0000CA87A6864249D2440147014681450561CD
:104A1000A5BBA2855685EFF0AFF681496346A0009D
:104A2000A2855685453085495A85EFF08FFB83571F
:104A3000C9042285FD14B3E9F90023163905EFF006
:104A40004FFA75B7757122C526C34AC1D2DC06C7B5
:104A5000CEDED6DADAD8DED6E2D42A892E84B28443
:104A6000368AFD380DC1A6854A85EFF0AFECBA4015
:104A70002A449A440A49F659665AD65A465BB65BA6
:104A8000265C496182802285E13801C5A6852285A0
:104A9000E9BF4A85913415ED22853D3C01C997B5A2
:104AA00000009385A52F4A85513A1DC94A852D34AA
:104AB00001E5228515341DC94A85F1302A892285F0
:104AC000D9306302A902E1772399F40026853534B1
:104AD00079BF97B500009385652C228585324DFD01
:104AE0002685593E69B723990400CDB76C004A85E5
:104AF000553822852C107D308359E1000354A102E2
:104B00006387090A8357A102228BD5CBA2571309C9
:104B10004A03930BEA04232AFA0293078A03239099
:104B200007008907E39D77FF6000130C81FF814A2E
:104B30000355840109C92C10D000EFF02FFBCA8562
:104B4000C800EFF0AFF58357CA044A857914B3EA79
:104B5000FA00EFF0EFF2E31D8CFCCA853C1003D79E
:104B6000050089058907239FE7FEE39A75FFF17623
:104B7000DA998906D28713070004CE960146D685B6
:104B8000281019310357C100835781026316F704B7
:104B900023140102A6852810E53CD1BD890783D6E0
:104BA000270081CA68009934B309A040A1BF7C00E6
:104BB0001810E395E7FE2685EFF0CFD64DBD3C10EB
:104BC0007818E38AE7FE890783D62700FDDA2810E4
:104BD000313C330BA4401DBFFD572314F1025DBFD0
:104BE000757122C526C34AC1D6DA06C7CEDED2DC2D
:104BF000DAD8DED6E2D4E6D22A892E84B284B68A06
:104C0000EFF00FF615C1A6854A85EFF0AFD2BA4096
:104C10002A449A440A49F659665AD65A465BB65B04
:104C2000265C965C496182802285EFF06FF301C5B6
:104C3000A6852285D9BF97B50000938525164A859C
:104C4000EFF0CFFF05C94A854138AA89228569302E
:104C5000639D090221C14A85EFF0EFF22A8922857E
:104C6000EFF06FF26300A918E1772399F40026852D
:104C7000693071BF97B50000938545122285EFF02A
:104C8000EFFB71F12685CD3A59B76DFD2685EFF022
:104C90006FC9B5BF4A856C00EFF0CFF022852C10AC
:104CA000EFF04FF00359A1020354E100630C090E29
:104CB0008357E100A28B638D0710225793878A03E5
:104CC000138BEA0423AAEA02BE898907239F07FE01
:104CD000E39D67FF2810EFF06FCD035C2101416A6F
:104CE0007D1AB30C4C038357C1020354E102C2077F
:104CF000A297528463E6FC0033D4870342044180C8
:104D00006C002285D000EFF06FDE2C10C800EFF0B1
:104D10002FC7635FA000CC006800EFF0AFDA2C1063
:104D2000C800EFF0EFC56342A00C7D14420441803F
:104D30002C10C800EFF00FD92810239089008909A2
:104D4000EFF04FD2E3113BFB38109306E103BA8733
:104D5000814503D647008907D18DE39CF6FEB33524
:104D6000B00093874A0383D6070089070907231FEA
:104D7000D7FEE31AFBFE916633097941FD16D6870B
:104D800013070004CA9601462810FD3A0357C100D4
:104D9000835781026313F70623140102A6852810A6
:104DA000C538B5B53C107818E382E7EE890783D69D
:104DB0002700FDDA28101D383309A040D5BD89072A
:104DC00083D6270081CA68001530B30BA440F5B51F
:104DD0007C001810E395E7FE0357C100835781025A
:104DE000E314F7E82399040059B579144204CC0080
:104DF00068004180EFF00FCD25BFFD572314F1026D
:104E000071BF03AE050003A3450083A88500CC4510
:104E10000571232C811C2ED63E842C41FD5723285E
:104E2000F114930700092328211D2322511D232C4F
:104E3000811B232A911B232E111C232A911C23261C
:104E4000311D2324411D2320611D232E711B232886
:104E5000A11B2326B11B42C872D01AD246D4232AE2
:104E6000F1142A89B28A368CBA8C99C97C410547DB
:104E70003317F700DCC198C5EF1040132320090455
:104E800008108C08A9388808EFF0EFCF63020514EA
:104E900085471CC08D476380FA14D144638A0A0099
:104EA0009304FCFF9307A00263D497009304A0022D
:104EB0008327411588083ECAEFF08FCA2A8B97B521
:104EC00000009385E512631D057A93070009EC1035
:104ED0008808232AF114EFF0EFA58357E10702C4F5
:104EE00013970701418763590700C607C583231F2E
:104EF000F106C167FD173EC42C0117B5000013056C
:104F000065FBEFF02FA30357E107631D0774FC1047
:104F10001307E10783D60700E9EA8907E31CF7FED8
:104F200001448C012801EFF0EFC72C018801EFF05C
:104F30002FA38C01E810EFF0EFC6EC108801EFF022
:104F40002FA2900AEC102801853C8359C11917BA89
:104F50000000130AAAE463980900D285E810EFF074
:104F6000EFCD6315054CA247638C074E9307D00223
:104F7000230AF1108D47268A639AFA00338A840047
:104F80009307A00263D44701130AA002A947639CB8
:104F9000F94C93071003A30AF1109307E002230BC7
:104FA000F110930971116359400193070003A30B9A
:104FB000F1107D1A93098111050463500A4C228671
:104FC00097B50000938505054E85EF10B0197DADAE
:104FD00023200400C1B5E284F1B58317C10797B55A
:104FE00000009385E50263DD0768EC1017B500004B
:104FF000130545ECEFF08FC405D5635105304C1116
:10500000E810EFF02F9391679387E708231BF10ACD
:10501000C1473EC6A167FD173ECCF1778907014421
:1050200097BB0000938BCBE23ECE97B900009389EB
:1050300069E8940A30014C115E855D366C182801D0
:10504000EFF04F8FE247035AE104337DFA00F24755
:105050003E9D634EA0038801EFF0CF8C420A135AA5
:105060000A4163500A0C814778183E97835607001F
:1050700098013E9703570700638DE6264E85EFF0B3
:105080002FAE35C18C014E85EFF0CF8A59A893071A
:105090000009338DA7418C016818EFF0AF89635286
:1050A000A0099801EA87BD4663CAF60293574D00EE
:1050B0001397170094013697C156B387D70297B656
:1050C00000009386A6CDEA978607B69783D7C712C6
:1050D00083560700F58F2310F70049B72310070008
:1050E000C1170907D1B78801EFF08FA701C58C015F
:1050F0002E8559BF4E85EFF02FBE2A8A8801EFF02A
:10510000AFBD2A8D63020A0E69C14E85EFF0AFA7CD
:105110002A8A8801EFF02FA76319AA0A8801EFF005
:10512000AFD5814738013E978356070098013E97D7
:1051300003570700639CE60089074947E394E7FEAD
:105140004C112801EFE01FFFB2473E94B247D10B4C
:1051500085833EC6E39F3BED8357610B0357E10711
:10516000EC104811BA977177130727F7BA97231BEA
:10517000F10AEFE03FFC5E852C01EFE0BFFB056A22
:1051800097B900009389C9C297BB0000938B4BD19C
:105190004C115E85EFF08FAAE345A0D84C114E85E7
:1051A000EFF0CFA9634DA0005011B285940A4E854F
:1051B000053C3001940AB2854E8569305294135AE9
:1051C0001A00E38079D7D109E1B74E858C01EFE071
:1051D0007FF68801EFF0CF9829F58357210D61778D
:1051E000B98F2319F10C35BFE31305F0EC094E8597
:1051F000EFF04F9BAC198801EFF0CF9A8357C10DA8
:10520000835DE10D035AA10F93C7F7FF231EF10C35
:10521000B3854D416352B0024C0AA819EFE05FF428
:10522000AC19E809EFE0DFF3EC09480AEFE05FF3BF
:10523000B305BA41035AA10F8DCD9307F0F663C3AE
:10524000F506E809EFF06FADAA8D0357C10D83573E
:10525000810FAC19E809631AF708EFF02F849C0A54
:1052600013070004D2866A86EE85A819EFF0CFD125
:1052700015A8AC19E809EFE0BFF021E90357C10D0B
:105280008357810F6306F7008801EFE0BFE951BD46
:105290008357A10F89EF8317E10F63CA0700A8198D
:1052A000EFE03FF48C01A819EFF08FBE9DBDBC1953
:1052B0001307E11083D6270089C6050A231D410F75
:1052C000D5B78907E318F7FED5BF814DE35FA0F698
:1052D0004C0AA819EFE0DFE8AC19E809EFE05FE855
:1052E000EC09480AEFE0DFE78DB7EFE0BFFD054DC1
:1052F000BDB789074947E399E7D625B58357E10745
:10530000014497B900009389A9B9ADCF8C01E81089
:105310009169EFF02F89F919130A50FD8357810D18
:105320009D8BA9E74C118801EFE09FE34811EFE066
:10533000FFE74811EFE09FE74C118801EFE01FF60F
:105340008357610A8D072313F10A8357810AE1EB22
:105350008357C10B81EF8357610A63E9F9008C0120
:1053600048117D14EFE0DFDFE31A44FBEC10880105
:10537000EFF00FB221A8F010940AB2854E85EFF03D
:105380006FEC7D148317C107E3D707FE8C01E8108B
:10539000EFE05FDA2C0117B500001305A5B1EFE0CF
:1053A0007FD9814BFD7997BD0000938D2DB4094DB8
:1053B00033877D0197B700009387879F8C0117B5CE
:1053C0000000130525AF3AC6338A7701EFF00F8747
:1053D0003247635CA0028C013A85EFF02F86634F61
:1053E00005009001B285940A5285EFF0AFE53001D7
:1053F000940AB2855285EFF0EFE44E94D10B9307F7
:105400004010B3C9A903E395FBFA3001940A97B59C
:105410000000938525AA3285EFF08FFC19B648115C
:10542000EFE0DFD88357610A850731BFE810EFE06E
:105430005FDB4C11E810EFE0BFD24811EFE07FDAFC
:105440004811EFE01FDAEC104811EFE03FE5900A59
:10545000EC102801EFF04FD67D148359C119E5BC3B
:105460009307000231B6938909039307E002A30A68
:105470003111230BF11093097111B38B6901635042
:105480006A058357C11911479389FBFFE359F7B2A6
:1054900015476384E706CE871306E0029305800371
:1054A00093060003FD1703C707001377F70763523E
:1054B0000A08130710032380E700050409B6E81063
:1054C000EFE03FD24C11E810EFE09FC94811EFE048
:1054D0005FD14811EFE0FFD0EC104811EFE01FDC86
:1054E000900AEC102801EFF02FCD8347C119050B6E
:1054F000938707032380FB0049B72C01E810EFF0E6
:105500002F9997B50000938565892801EFE01FF377
:1055100059F1E3460AAA83C7EBFF938727FD93B7A8
:10552000170093C7F7FFCE9783C70700858BA5F7B2
:1055300079B46310C70203C7F7FF9306800363E6DD
:10554000E6000507A38FE7FE9DBC050413071003C3
:10555000D5BF63E6E50005072380E7008DB423800F
:10556000D70089B79307140023A0FC009306E0023C
:10557000D28703C7070001E71307500439A8138631
:1055800017006304D700B287EDB703C7170085077C
:10559000A38FE7FE7DFBCDB7FD1783C607006384AD
:1055A000E600E36BFAFE2380070031A2850709AA13
:1055B000B68931AAFD192380090003C7F9FF6316D4
:1055C000D70033874941E3C7E7FE0D4793079C00A7
:1055D000639FEA00269463570400230A011023A066
:1055E0000C00D28983A70C003E9C93073C00232229
:1055F00009041147930647018325490463FFD70433
:105600004A85EF0050142320A904D2852A84EF1084
:105610004058C24791C7B3894941A29923A0370195
:1056200022858320C11D0324811D8324411D03295C
:10563000011D8329C11C032A811C832A411C032BC1
:10564000011C832BC11B032C811B832C411B032DAD
:10565000011B832DC11A3D61828085052322B90477
:10566000060749BFA167FD17E319F796A24797B54B
:1056700000009385259989C797B500009385C59744
:10568000480A0964EF10002E1304F470D24788080A
:1056900023208116232AF114EFE01FE4130A41119D
:1056A00011E58808EFE0DFCBE30E05EA8967938711
:1056B000F77023A0FC00D287130600029306D002E5
:1056C00003C70700E304C7EEE302D7EED2898507DC
:1056D00003C7F7FF93861900A38FE6FEE31A07ECD2
:1056E000094785476386EA00A68763D38400A287BB
:1056F00093060003D9B51C4139714C083EC05C418A
:1057000006DE3EC21C453EC45C450A853EC6EFE04F
:105710001FFD83576102014593C7F7FF13971701D8
:1057200019E74808EFE0DFC3133515000505F2500F
:10573000216182801305050F828097C7FE5F9387E2
:10574000E7AF9C43C85B09E517B5FE5F130505D2BB
:105750001305050F828097C7FE5F938727AE9C4392
:10576000C85B09E517B5FE5F130545D01305050FA6
:10577000828011EE17B500001305058A828017B5E7
:10578000000013056589B240224441018280411125
:1057900097B5000093858588328522C406C6328479
:1057A000EF10402D69DD97B500009385E5862285D1
:1057B000EF10402C69D597A500009385A55D228543
:1057C000EF10402B4DDD01457DBF97C7FE5F9387EE
:1057D000E7A69C43DC5B89E797B7FE5F938707C921
:1057E00003C5871282800325C50E828097C7FE5F9E
:1057F0009387C7A49C43DC5B89E797B7FE5F9387D9
:10580000E7C603A5C70E828097C7FE5F938707A3ED
:105810002E86AA858843B1BF1971A6DAAE84839516
:10582000E500A2DC86DE328463DC050083D7C40099
:1058300023A0060093F7070895EB930700400DA8F7
:10584000300836C6EF308064B246E34105FE724749
:10585000BD670565F98F7977BA9793B717009CC232
:10586000930700401CC01305058029A0930700047E
:105870001CC00145F6506654D6540961828083D716
:10588000C500011122CC06CE26CA4AC8898B2E84B7
:1058900089CF930734041CC01CC885475CC8F240FC
:1058A0006244D24442490561828074003000AA8477
:1058B000A537A2452A892685952001ED8317C400C6
:1058C00013F7072069FFF19B93E727002316F400E5
:1058D000C9B797E7FFFF9387C736DCDC8357C4005F
:1058E00008C008C893E707082316F400A2475CC85D
:1058F000B24791CF8315E4002685EF30900901C9A6
:105900008357C400F19B93E717002316F4008357D5
:10591000C4003369F9002316240151B7797106D602
:1059200022D426D24AD04ECE52CC56CA5AC85EC6CF
:1059300062C466C29387B50059476376F70293F451
:1059400087FF63D30402B1471CC10145B250225402
:1059500092540259F249624AD24A424BB24B224C0B
:10596000924C45618280C144E3EFB4FC2A89D12B7B
:105970009307701F97B9FE5F938909C663EC97027E
:10598000138784004E974043930687FF93D73400D4
:105990006316D40040478907630C87045C40584471
:1059A0001444F19BA297D8C614C7D84313671700B5
:1059B000D8C351A013D794009307F00301CB9147AC
:1059C00063E0E70893D76400938787031387170082
:1059D0000E074E974043930587FF3D456309B4008A
:1059E0005840719B33069740635FC508FD178507D4
:1059F00003A4090197B5FE5F938585BE630CB40EC1
:105A00005840BD46719B3306974063D9C60893E75B
:105A100014005CC0B306940097B7FE5F23A8D7BC00
:105A200097B7FE5F23A2D7BC93671600CCC68CC67F
:105A3000DCC2229710C34A8531231305840039B78D
:105A4000D14763E5E7009307B70549B793074005DA
:105A500063E7E70093D7C4009387E70685BF930702
:105A6000401563E7E70093D7F40093877707B9BF42
:105A7000930640559307E007E3EAE6F493D7240141
:105A80009387C707A1B75444634806001C44D4C792
:105A90009CC6B307E40011BF368489B797B6FE5F92
:105AA00023A6B6B497B6FE5F23A0B6B4634806003B
:105AB00022975C4393E717005CC3B5BF9306F01FC2
:105AC00003A8490063E8E6140D8313562740854672
:105AD0000507B396C6000E074E97B3E6060117B644
:105AE000FE5F232DD6AE1443130687FF50C414C4A3
:105AF00000C3C0C613D7274005433313E30003A7F1
:105B00004900636E6704B376670099E6F19B06036C
:105B1000B37667009107E5DE3D4E93963700CE964B
