:020000042001D9
:100000009721FF5F9381819F97C200009382C2FA7C
:10001000739052301701FFDF1301C1FE9700FFDF1D
:10002000938040FE638300008290732540F18145F8
:1000300001460D209700FFDF9380C0FC6383000022
:100040008290970200009382C20073905230032383
:100050000000F5BF06849721FF5F9381219A173135
:10006000FF5F130161A2137101FF01E1970201001B
:10007000938202E21703FF5F1303C3F89713FF5F36
:100080009383031D638C6200635A730003A502000F
:1000900091022320A3001103E34A73FE970201009B
:1000A000938202DF1703FF5F1303C3F59703FF5F1C
:1000B000938343F5638C6200635A730003A50200C7
:1000C00091022320A3001103E34A73FE1713FF5F7D
:1000D00013030318938301896357730023200300DC
:1000E0001103E34D73FE11C2029617C500001305FC
:1000F0002509EFC06005EFC0000CF327103037076B
:10010000010013078702F98F99C7F32700300967A9
:10011000D98F73900730054597F500009385C52763
:1001200017F6000013068627752DEFC04003A28046
:0401300082808280C7
:10018000130101FD2326110223248102130401031C
:100190001386050093060500232AA4FE2328B4FE37
:1001A000130500002326A4FE2324C4FE2322D4FE2C
:1001B0006F0040000325C4FE832504FF6350B5048F
:1001C0006F004000032544FF8325C4FE3305B500BE
:1001D0008345050037E5012013058564971000006D
:1001E000E780C0C42320A4FE6F0040000325C4FEA6
:1001F000130515002326A4FE6FF0DFFB37E5012071
:100200001305456A97100000E78040C2232EA4FC26
:10021000032481028320C1021301010367800000CF
:10022000130101FD2326110223248102130401037B
:100230001386050093060500232AA4FE2328B4FE96
:10024000032504FF130535002326A4FE2324C4FE42
:100250002322D4FE6F0040000325C4FE9305E00373
:1002600063C6A5046F004000032544FF8325C4FE38
:10027000939525003305B50083250500032545FF2B
:10028000B385A54037E501201305D564971000001C
:10029000E780C0B92320A4FE6F0040000325C4FE00
:1002A000130535002326A4FE6FF01FFB37E5012060
:1002B0001305456A97100000E78040B7232EA4FC81
:1002C000032481028320C10213010103678000001F
:1002D000130101FE232E1100232C810013040102BF
:1002E0001386050093060500232AA4FE2328B4FEE6
:1002F000032504FF834505000347150013178700F6
:10030000B3E5E5000347250013170701B3E5E50052
:1003100003453500137535001315850133E5A50038
:10032000832544FF23A0A500032504FF8345350052
:1003300093D525000347450013176700B3E5E50093
:10034000034755001317E700B3E5E50003456500D3
:100350001375F5001315650133E5A500832544FFEA
:1003600023A2A500032504FF8345650093D545001E
:100370000347750013174700B3E5E5000347850001
:100380001317C700B3E5E500034595001375F503A2
:100390001315450133E5A500832544FF23A4A500DB
:1003A000032504FF8345950093D565000347A50009
:1003B00013172700B3E5E5000347B5001317A7009F
:1003C000B3E5E5000345C5001315250133E5A50098
:1003D000832544FF23A6A500032504FF8345D500FC
:1003E0000347E50013178700B3E5E5000347F50071
:1003F00013170701B3E5E500030505011315850192
:1004000033E5A500832544FF23A8A5002326C4FEC9
:100410002324D4FE032481018320C101130101029E
:1004200067800000130101E32326111C2324811C93
:100430001304011D37F5838913054564232AA4FE9F
:1004400037C5EE08130565402328A4FE376574F20E
:100450001305C54A2326A4FE3715549E1305059699
:100460002324A4FE37A546C71305A5A72322A4FE6F
:1004700037D55119130525D62320A4FE37F585D489
:1004800013053597232EA4FC372555641305B57144
:10049000232CA4FC370574D6130555C7232AA4FCC6
:1004A0003765BDA81305D52C2328A4FC37B52B73BD
:1004B000130555652326A4FC37756EE9130595963B
:1004C0002324A4FC3765206B130545572322A4FC85
:1004D00037356279130525D32320A4FC37652033F3
:1004E0001305E546232EA4FA37857061130555865A
:1004F000232CA4FA97100000E780008F130500005A
:10050000232CA4E46F004000032584E593054001FB
:1005100063C6A5066F004000032584E59305C0006F
:1005200097C00000E78000A49305C4E73385A500C9
:1005300097100000E7808089930584F7130684FCF8
:10054000930684FD130784FB232AA4E41385050086
:100550009305060013860600930607009700000027
:10056000E780402F2328A4E46F004000032584E5A2
:1005700013051500232CA4E46FF01FF937E50120C3
:100580001305356597100000E780408A9305C4E79E
:10059000130600002326A4E4138505002324B4E4F5
:1005A0009305060097000000E780C0C737E50120EB
:1005B0001305B56697100000E7804087930510008B
:1005C000032684E42322A4E4130506009700000018
:1005D000E78040C537E50120130535689710000016
:1005E000E780C08493052000032684E42320A4E44C
:1005F0001305060097000000E780C0C237E5012020
:100600001305A56997100000E7804082930584F7E1
:1006100013060002232EA4E21385050093050600AD
:1006200097000000E78000B637E501201305356A22
:1006300097000000E780807F232CA4E20324811C24
:100640008320C11C1301011D67800000130101FDFF
:1006500023261102232481021304010313860500BB
:1006600093060500232AA4FE2328B4FE13050000E8
:100670002326A4FE2324C4FE2322D4FE6F004000C0
:100680000325C4FE832504FF6350B5046F004000BA
:10069000032544FF8325C4FE3305B50083450500CB
:1006A00037E501201305856497000000E780007896
:1006B0002320A4FE6F0040000325C4FE130515008F
:1006C0002326A4FE6FF0DFFB37E501201305456A02
:1006D00097000000E7808075232EA4FC032481028C
:1006E0008320C1021301010367800000130101FE92
:1006F000232E1100232C8100130401029305050011
:10070000232AA4FE032544FF37E601201306666A68
:100710002328A4FE13050600032604FF2326B4FEA7
:100720009305060097000000E78040702324A4FE94
:10073000032481018320C1011301010267800000AD
:10074000130101FD23261102232481021304010356
:100750001386050093060500232AA4FE2328B4FE71
:10076000130500002326A4FE2324C4FE2322D4FE66
:100770006F0040000325C4FE832504FF6352B504C7
:100780006F004000032544FF8325C4FE9395250098
:100790003305B5008325050037E501201305A56A5B
:1007A00097000000E78080682320A4FE6F004000CF
:1007B0000325C4FE130515002326A4FE6FF09FFB3E
:1007C00037E501201305456A97000000E7800066C1
:1007D000232EA4FC032481028320C1021301010300
:1007E00067800000130101FF2326110023248100EC
:1007F0001304010113050000232AA4FE2328A4FEEC
:1008000097000000E78040C2032504FF0324810015
:100810008320C1001301010167800000130101FF63
:1008200023261100232481001304010137E5012050
:100830001305056B97000000E780405F232AA4FEA4
:10084000032481008320C10013010101678000009F
:10085000130101FE232E8100232C9100232A210164
:100860002328310123264101232451012322610140
:100870002320710183C2360003C3260093928200B5
:10088000B3E2620003C3160093928200B3E26200F7
:1008900003C3060093928200B3E3620083423600F2
:1008A0000343260093928200B3E2620003431600E2
:1008B00093928200B3E262000343060093928200A7
:1008C00033EE620083427600034366009392820017
:1008D000B3E262000343560093928200B3E26200E7
:1008E0000343460093928200B3EE62008342B60057
:1008F0000343A60093928200B3E262000343960092
:1009000093928200B3E262000343860093928200D6
:1009100033EF62008342F6000343E60093928200C5
:10092000B3E262000343D60093928200B3E2620016
:100930000343C60093928200B3EF620083C2760045
:1009400003C3660093928200B3E2620003C35600C1
:1009500093928200B3E2620003C346009392820046
:1009600033E7620083C2350003C3250093928200FF
:10097000B3E2620003C3150093928200B3E2620007
:1009800003C3050093928200B3E7620083C275003F
:1009900003C3650093928200B3E2620003C3550073
:1009A00093928200B3E2620003C3450093928200F7
:1009B00033E8620083C2B50003C3A50093928200AE
:1009C000B3E2620003C3950093928200B3E2620037
:1009D00003C3850093928200B3E8620083C2F500EE
:1009E00003C3E50093928200B3E2620003C3D50023
:1009F00093928200B3E2620003C3C5009392820027
:100A000033E4620083C2B60003C3A600939282005F
:100A1000B3E2620003C3960093928200B3E26200E5
:100A200003C3860093928200B3E4620083423601DE
:100A30000343260193928200B3E26200034316014E
:100A400093928200B3E26200034306019392820014
:100A500033E9620083427601034366019392820088
:100A6000B3E262000343560193928200B3E2620054
:100A70000343460193928200B3E962008342B601C8
:100A80000343A60193928200B3E2620003439601FE
:100A900093928200B3E26200034386019392820044
:100AA00033EA62008342F6010343E6019392820037
:100AB000B3E262000343D60193928200B3E2620084
:100AC0000343C60193928200B3EA620083C2F60038
:100AD00003C3E60093928200B3E2620003C3D60030
:100AE00093928200B3E2620003C3C6009392820035
:100AF00033EB6200930B4001B38233011393720016
:100B000093D29201B3E26200B3CF5F00B3827F0061
:100B10001393920093D27201B3E26200B3C85800FB
:100B2000B382F8011393D20093D23201B3E2620090
:100B3000B3C95900B38219011393220193D2E20081
:100B4000B3E26200B3C35300B302C7011393720050
:100B500093D29201B3E2620033445400B302E40042
:100B60001393920093D27201B3E26200334A5A00A7
:100B7000B3028A001393D20093D23201B3E262002F
:100B8000334E5E00B3024E011393220193D2E20072
:100B9000B3E2620033475700B382F400139372004C
:100BA00093D29201B3E26200B3CA5A00B3829A00B0
:100BB0001393920093D27201B3E26200B3CE5E004F
:100BC000B3825E011393D20093D23201B3E262008A
:100BD000B3C75700B382D7011393220193D2E20027
:100BE000B3E26200B3C45400B3022B01139372004A
:100BF00093D29201B3E26200334F5F00B3026F0100
:100C00001393920093D27201B3E26200334858000A
:100C1000B302E8011393D20093D23201B3E262002F
:100C200033495900B30209011393220193D2E20020
:100C3000B3E26200334B5B00B382E30113937200B3
:100C400093D29201B3E26200334E5E00B3027E00A3
:100C50001393920093D27201B3E26200B3CE5E00AE
:100C6000B382CE011393D20093D23201B3E2620079
:100C7000334F5F00B302DF011393220193D2E200EE
:100C8000B3E26200B3C35300B302F70113937200DF
:100C900093D29201B3E26200B3C75700B382E70078
:100CA0001393920093D27201B3E26200334858006A
:100CB000B302F8001393D20093D23201B3E2620080
:100CC000B3CF5F00B3820F011393220193D2E200EE
:100CD000B3E2620033475700B3828400139372007B
:100CE00093D29201B3E2620033495900B3029900F2
:100CF0001393920093D27201B3E26200B3C858001A
:100D0000B38228011393D20093D23201B3E262007E
:100D100033445400B30214011393220193D2E2002E
:100D2000B3E26200B3C45400B3025B0113937200D8
:100D300093D29201B3E26200B3C95900B382690150
:100D40001393920093D27201B3E26200334A5A00C5
:100D5000B3023A011393D20093D23201B3E262009C
:100D6000B3CA5A00B3824A011393220193D2E2001C
:100D7000B3E26200334B5B00938BEBFFE34E70D723
:100D8000232075002322E5002324950023266501F6
:100D90002328F500232A0501232C1501232E850085
:100DA0000324C10183248101032941018329010115
:100DB000032AC100832A8100032B4100832B0100F9
:100DC0001301010267800000F32200B023205500C8
:100DD000F32230B023225500F32240B023245500E3
:100DE00067800000B72200009382120073903232B5
:100DF000B742000093821200739042326780000075
:100E00001305010067800000397132D436D63AD814
:100E10003EDA42DC46DE2E860C45341006CE36C65F
:100E20001D28F24021618280397132D436D63EDAF3
:100E30002ED23AD842DC46DE9707FF5F9387073C05
:100E40009C4354102A868C473E8506CE36C6212008
:100E5000F2402161828045712326111C2322911CBE
:100E60002320211D232E311B2328611B2E89B284B0
:100E7000368B2324811C232C411B232A511B232620
:100E8000711B2324811B2322911B2320A11B232EB2
:100E9000B119AA89EF3020461C413E853ED4EF406F
:100EA000300C2ACA82C982CB82CD82CF63880900E6
:100EB00083A7890381E74E85EF10101A8317C900B5
:100EC00013972701634D0700896603274906D58FCD
:100ED0002316F900F977FD17F98F2322F9068357B6
:100EE000C900A18B95C7832709019DC38357C900FA
:100EF0002947E98B6392E7068317E90063CE07046D
:100F0000DA862686CA854E85EF1060572ACC01A85E
:100F1000CA854E85EF10405F71D9FD573ECC8320C6
:100F2000C11C0324811C62458324411C0329011C2C
:100F30008329C11B032A811B832A411B032B011B0D
:100F4000832BC11A032C811A832C411A032D011AF9
:100F5000832DC11979618280FC11BEC382C782C50D
:100F6000014A3E8C02DA02D802C202D202D602CC78
:100F70002684130750028347040099C36394E7084B
:100F8000B30A9440638C0A02BE4723209C002322AC
:100F90005C01D697BEC7AE471D47210C8507BEC56D
:100FA000635BF700D001CA854E85EF50705C631F0C
:100FB0000550130CC10EE247D6973ECC8347040080
:100FC00099E36F10204793071400A303010AFD5D06
:100FD00002CE0144A94B254D930CA00283CA070001
:100FE000138717003AC89306A00593870AFEE3E724
:100FF000F64C17D700001307676C8A07BA979C4313
:10100000BA978287050485BF4E85EF30C02E5C41BC
:101010003E853ED6EF40C0742AD24E85EF30A02DDB
:101020001C453EC2925781CB924791C783C70700A8
:1010300099C313640440C24755B78347710AE5FF5B
:1010400093070002A303F10AFDB713641400E5B788
:1010500083270B00110B3ECEE3DF07FCB307F04004
:101060003ECE13644400C1BF9307B002E1BF4247C4
:10107000C247834A0700850763999A03832D0B00B3
:1010800013074B0063D30D00FD5D3A8B3EC865B777
:1010900033837D03850783CAF7FFB30DE30013870E
:1010A0000AFDE377EDFE3EC889B7814DCDBF1364DD
:1010B000040851B7C24702CE7247938A0AFD8507DA
:1010C00033077703569783CAF7FF3ACE13870AFD93
:1010D000E374EDFEC9BF13648400B1BFC24703C708
:1010E0000700930780066318F700C24713640420C3
:1010F00085073EC889B71364040435BFC24703C7D8
:1011000007009307C0066318F700C24785073EC86B
:10111000136404020DB71364040131BF93074B003D
:101120003EC683270B00A303010A2306F112014BDD
:10113000854D014D02C4814B814C64126AD06353CA
:10114000BD016ED00347710A01C7825785073ED0A3
:10115000937724003EDC81C7825789073ED093777E
:1011600044083EDEA9EBF24702573387E740635459
:10117000E004C14E17DE0000130E0E6B1D4FAE468D
:101180002320CC013E46850693058C00E3C1EE3456
:101190002322EC003297BAC7B6C51D472E8C635C7C
:1011A000D700D001CA854E85EF50903C19C16F1011
:1011B000A024130CC10E0347710A05CF1307710A4F
:1011C0002320EC0005472322EC003E479D46210CDE
:1011D0000507BAC72E470507BAC563DCE600D0018C
:1011E000CA854E85EF50D03819C16F10E020130C1E
:1011F000C10EE2579DCB38112320EC000947232272
:10120000EC003E479D46210C0907BAC72E4705074B
:10121000BAC563DCE600D001CA854E85EF50503573
:1012200019C16F10601D130CC10EF257130700088F
:101230006399E704F2470257998F6354F0044148D9
:101240001D4E2E4797D500009385055F2320BC00D7
:10125000BE46050713068C00E346F82A2322FC004D
:10126000B697BEC7BAC59D46328C63DCE600D00196
:10127000CA854E85EF50D02F19C16F10E017130C9F
:10128000C10E330DBD416354A005C1471D482E4713
:10129000BE4613068C000507E3CDA7292322AC0127
:1012A00097D7000093874759369D2320FC00EAC753
:1012B000BAC59D46328C63DCE600D001CA854E85F6
:1012C000EF50102B19C16F102013130CC10E1377A0
:1012D00004103E4DE31A0728AE473383AD012320A7
:1012E0009C0085072322BC019AC7BEC51D47210C5F
:1012F000E35FF744D001CA854E85EF50702719C1CE
:101300006F10800F130CC10E6F0070441364040142
:1013100093770402A9CF1D0B137B8BFF032D0B00CA
:10132000832C4B0093078B003EC663C40C006F10E8
:10133000C011330DA041B337A001B30C9041B38C61
:10134000FC409307D002A303F10A85477D57E3864B
:10135000ED042287B3669D011374F4F7E39F060240
:10136000E3840D140547E39DE7026F10000F930718
:101370004B003EC69377040191C7032D0B00935C8D
:10138000FD4165B793770404032D0B0089C7420D17
:10139000135D0D41EDB793770420F5D3620D135D16
:1013A0008D41F1BF93778400B5CF93074B003EC6C4
:1013B00083270B009043D4439847DC47B2C9B6CB90
:1013C000BACD8809BECFEF20D06E2AD789476310E7
:1013D000F508CE470C0108093EC9DE4702C102C329
:1013E0003ECBEE4702C502C73ECDFE473ECFEF8063
:1013F0009037635605009307D002A303F10A9307C1
:10140000700497D400009384244463D6570197D482
:1014100000009384A4431374F4F7014B8D4D014DE8
:101420006F00E07C1D0B137B8BFF83250B000326D5
:101430004B0093078B0008093EC6EFA0207ACA47ED
:10144000BEC9DA47BECBEA47BECDFA479DBF854746
:101450006316F502FE4763D607009307D002A30385
:10146000F10A9307700497D400009384643EE3D498
:1014700057FB97D400009384E43D71BF93FBFAFDC2
:1014800093071004639BFB04930700032304F10AF2
:1014900013071006930780076384EA00930780050B
:1014A000A304F10A930730061364240063D0B73312
:1014B00093851D004E85EF302002AA84631B053002
:1014C0008357C90093E707042316F9008357C9001F
:1014D00093F70704E38507A489B4FD57638DFD2EB8
:1014E00093077004014B6396FB0063940D006E8BB1
:1014F000854D7E4A936704103ED002DC4E4EDE4896
:101500006E4D63590A00B707008033CA470193073D
:10151000D0023EDC930710046397FB2E080972C9C2
:1015200046CB6ACD52CFEFA090007011EF30D07350
:101530002E86AA850809EFA0606ACA4790108C1809
:10154000BED8DA47080182D0BEDAEA4782D282D416
:10155000BEDCFA47BEDEB707FC3FBED6EF80503098
:101560000A481A46AA463A4D0C01080942C9C2C0A7
:1015700032CB32DE36CD36C46ACF02C102C302C5D9
:1015800002C7EF805004A2467256064819E105478B
:101590003AD797D700009387272C130710063EC42D
:1015A0006387EA0097D700009387472C3EC4138EC9
:1015B000FDFFA68CB70703400C0132C30809901841
:1015C000F2C442C136C56AC7BEDE82D882DA82DC86
:1015D000EF8010294A46DA46EA470809B2C2B6C087
:1015E0003EDEEFA06041AA852A8A08097A4DEFA065
:1015F000604FF25716468646BEDCCA47B2D88C18F2
:10160000BED0DA4790100801BED2EA47EADEB6DA69
:10161000BED4FA47850CBED6EF904058A247264E5E
:10162000BA4EB385470183C505008A429A4F2A4FB7
:1016300072DEA38FBCFEFD57768D6300FE047D1E17
:101640000C010809F6CEFACCFECA96C8F2C616C935
:1016500096C47ECBFEC27ACDFAC076CF02C102C359
:1016600002C502C7EF802076864616462648364ECB
:10167000C642D64F664FF64E15FD370DFE3F0C01A4
:10168000080916C996C67ECBFEC47ACDFAC276CFBB
:10169000F6C002C102C302C56AC7EF80207D63485D
:1016A000A002B642A64F164F864E0C01080916C975
:1016B0007ECB7ACD76CF02C102C302C56AC7EF8066
:1016C0008070631C0512137A1A0063080A12A2477D
:1016D00066DF9305000303C6F700FA569387F6FF0B
:1016E0003EDF83C7F6FF638BC70E13069003639A32
:1016F000C70EA24783C7A700A38FF6FE668A13070B
:101700007004330A9A40BA5C639AEB1C755763C441
:10171000EC0063D69D23F91A9386FCFF36D713F6A7
:10172000FAFD1305100413F7FA0F81456316A6009E
:101730003D071377F70F8545230AE10A9307B002A7
:1017400063D706008546B38696419307D002A30A65
:10175000F10AA54763D0D71C1307310C3A85A94578
:1017600013083006B3E7B6021306F7FF93870703A3
:10177000A30FF7FEB3C7B6026344D81893870703D5
:10178000A30FF6FE79171306610B636EA7165C199B
:10179000B307F6403ED8B38D4701854763C547017F
:1017A0009377140099C3D247BE9D1374F4BF936717
:1017B00004103ED002C4814B814CE25789C7130705
:1017C000D002A303E10A0254014D8DBA014B641209
:1017D0000DB32A8B39BB014B994D21BBA38FB6FEAC
:1017E000EDBD850793F7F70F01BF050AA30FEAFECA
:1017F000B3874C41E3DB07FE19B7F257668A13073C
:101800000003BE9CF5B793076004638BFB0093074E
:10181000500413831D006383FB006E83094619A0E7
:101820006E830D461C199A861308C10B78110C099A
:101830004E8572C9F2C046CB46DE1AC46ACD52CF7D
:10184000EF20E01793077004AA842243F258064E53
:101850006397FB009377140099E37A5A4DB5930789
:101860006004B38C64006391FB0403C70400930716
:1018700000036319F7020C01080972C972DE46CB36
:1018800046C49AC06ACD52CF02C102C302C502C784
:10189000EF806053A248725E11C506438547B38747
:1018A00067403ED7BA57BE9C0C01080972C946CBA7
:1018B0006ACD52CF02C102C302C502C7EF80A05059
:1018C00011E166DF1307000331A09386170036DFAE
:1018D0002380E700FA57E3EA97FF41B71307600454
:1018E000E39CEBE2137714003367B7016354900570
:1018F00049CBD2473387FC00BA9D930A6006BDA04E
:101900003287BE8685B505078347F7FF0506A30F17
:10191000F6FEA5BD1307610B99E593070003230BA2
:10192000F10A1307710B93870603130617002300B0
:10193000F700B1BD29CBD2471387170075BF63CC21
:101940004C0113771400E68D01C7D247B38DFC001C
:10195000930A700621A8D247930A7006B30DFA00C5
:101960006346900133839D41930D1300937B0440A4
:1019700002C4E3840BE4814BE35190E59306F00F3E
:1019800015A0E68D9DBF930A6006854DC5B76350CF
:1019900097039247B38CEC4003C717000DC385072C
:1019A000850B3EC2924703C70700E312D7FEA2474A
:1019B0003387FB0092573307F702BA9DFDBBA2475E
:1019C00085073EC4C5B713074B003AC61377040218
:1019D00083270B0009CB624798C37D87D8C3324B5E
:1019E000C2446FF0EFD81377040101C7624798C370
:1019F000FDB71377040409C762472390E700C5B712
:101A00001374042065D462472380E700C9BF1364C0
:101A10000401937704028DC31D0B137B8BFF032DF1
:101A20000B00832C4B0093078B003EC61374F4BF4E
:101A30008147A303010A19BA93074B003EC6937767
:101A4000040181C7032D0B0031A09377040489C7DB
:101A5000035D0B00814CD9BF93770420E5D7034D7C
:101A60000B00CDBF93074B003EC6E17793C70783BA
:101A70002314F10A97D70000938707DE3EDA032D7F
:101A80000B00814C136424008947930A800755B7E3
:101A900093074B003EC6A303010AFD5783240B00A6
:101AA000638EFD006E8681452685EF2030792A8B76
:101AB000E3070596B30D9540014B95B22685EF30AF
:101AC000304AAA8DD5BF136404019377040289CFED
:101AD0001D0B137B8BFF032D0B00832C4B009307F7
:101AE0008B003EC68547B1B793074B003EC6937740
:101AF000040181C7032D0B0031A09377040489C72B
:101B0000035D0B00814CF9BF93770420E5D7034DAB
:101B10000B00CDBF97D70000938747D53EDA937768
:101B20000402B1C31D0B137B8BFF032D0B00832C11
:101B30004B0093078B003EC69377140081CFB367A9
:101B40009D0189CB930700032304F10AA304510BE1
:101B5000136424001374F4BF8947E1BD97D70000D4
:101B6000938787CF65BF93074B003EC693770401E9
:101B700081C7032D0B0031A09377040489C7035D4F
:101B80000B00814C55BF93770420E5D7034D0B0024
:101B9000CDBF228785476FF0EFFB0547E38AE70A51
:101BA0000947638DE70C1C0B9396DC0113777D00CE
:101BB000135D3D001307070333EDA60193DC3C00E2
:101BC000A38FE7FEB3669D019384F7FF95E69376B6
:101BD000140089CA930600036306D700A38FD4FEBE
:101BE0009384E7FF1C0B6E8D014BB38D974002C4AD
:101BF000814B814C6FF08FD4A6877DB7014A1C0BB7
:101C0000937B0440254B294681466A85E68593846B
:101C1000F7FF3EC4EF70604CA24713050503050AA9
:101C2000A38FA7FE638E0B02924783C70700631939
:101C3000FA029307F00F6305FA0263940C006371D4
:101C4000AB039257B255014A9D8C3E862685EF30F4
:101C50005032924783C7170081C7924785073EC21B
:101C6000294681466A85E685EF70401163940C0031
:101C7000E37AABF72A8DAE8CA68771B7040B525767
:101C80009377FD00FD14BA9783C70700135D4D00DD
:101C90002380F4009397CC0133EDA70193DC4C0033
:101CA000B3679D01E9FF3DBF040B8DFF058B1DDB75
:101CB00093070003A307F1186F00A07A638C0A76DC
:101CC00023065113A303010A5AC66FF04FC64106FB
:101CD0002322DC01B2C7B6C56352DF02D001CA8538
:101CE0004E85BAC0EF50C008631805700647EC1166
:101CF0001D4F17DE0000130E2EB3C14E41172E8C60
:101D00006FF0EFC7C10623220C01B6C7BAC5635EE8
:101D1000EE00D001CA854E853EDCEF506005631DA4
:101D2000056CE257F0111D4E4148C117328C6FF01F
:101D30004FD197D50000938525B0C1062320BC0064
:101D40002322FC00B6C7BAC5635CE800D001CA858F
:101D50004E85EF50E0016311056AF0111D48C1473F
:101D6000411D328C6FF0AFD213075006635A574FA4
:101D70004E470C0108093AC95E4702C102C33ACB7B
:101D80006E4702C502C73ACD7E473ACFEF80A00327
:101D900069ED97D700009387A7AE2320FC00854705
:101DA0002322FC00AE47050DEAC78507BEC51D47C7
:101DB000210C635BF700D001CA854E85EF40507B54
:101DC000631C0562130CC10EBA5763C647019377B3
:101DD0001400638E0716A2575247210C232CFCFED9
:101DE000D247232EFCFEBE47BA97BEC7AE471D475B
:101DF0008507BEC5635BF700D001CA854E85EF40FD
:101E00003077631B055E130CC10E9304FAFF635019
:101E10009014C14A9D4BAE4717D600001306C6A1C9
:101E20002320CC003E47850793068C0063CD9A00A3
:101E300023229C00BA94A6C7BEC51D47368C6358A2
:101E4000F7106FF02FCB410723225C01BAC7BEC544
:101E500063DAFB00D001CA854E85EF407071631DC7
:101E60000558F411C114368C7DB73A57634EE01211
:101E700097D700009387C7A02320FC008547232223
:101E8000FC00AE47050DEAC78507BEC51D47210CFE
:101E9000635BF700D001CA854E85EF40706D631D0E
:101EA0000554130CC10EBA57937614003E47B3671E
:101EB000FA00D58FC9CFA25793088C002320FC00CD
:101EC000D2472322FC00BA97BEC7AE471D478507FD
:101ED000BEC5635BF700D001CA854E85EF405069EF
:101EE000631C05509308C10EBA5A63D30A04B30A9F
:101EF00050414687C14B1D4CAE4717D60000130614
:101F0000A69310C3BE468507A10863CC5B072322B6
:101F10005701B69AD6C7BEC51D47635BF700D0010F
:101F2000CA854E85EF40D0646318054C9308C10EF6
:101F3000BE4723A0980023A24801D297BEC7AE4750
:101F40001D47138C88008507BEC56345F7BA118805
:101F500063120446F24A825763D3FA00BE8AE2470C
:101F6000D6973ECCBE4781CBD001CA854E85EF4087
:101F700030606313054882C5631A0B4A130CC10E07
:101F8000B9BCC10623227701B6C7BEC5635BFC009E
:101F9000D001CA854E85EF40B05D631F05449308AC
:101FA000C10EC11A468789BFE68A63539A01D28A55
:101FB000635850032E47569D23209C00050723227B
:101FC0005C01EAC7BAC59D46210C63DBE600D0017F
:101FD000CA854E85EF40D05963100542130CC10EDF
:101FE00063D30A00814AB38A5C4163535005414D73
:101FF0009D4D2E4797D70000938707842320FC0030
:10200000BE46050713068C0063435D1323225C0163
:10201000B69AD6C7BAC59D46328C63DBE600D001BE
:10202000CA854E85EF40D0546318053C130CC10E91
:1020300093770440B38A940191CF1D4DB38D440131
:10204000A24763980B1063970710B387440163F3AB
:102050005701BE8ABA5763C54701937714009DCBD9
:10206000A2575247210C232CFCFED247232EFCFE04
:10207000BE47BA97BEC7AE471D478507BEC5635B5F
:10208000F700D001CA854E85EF40904E63160536A5
:10209000130CC10ED294B3875441BA54B3049A407E
:1020A00063D39700BE8463599002BE4723205C012E
:1020B00023229C00A697BEC7AE471D47210C85076B
:1020C000BEC5635BF700D001CA854E85EF40504A1C
:1020D00063140532130CC10EA68763D30400814735
:1020E000BA54B3049A409D8CE35390E6C14A9D4B89
:1020F000AE4717C60000130626742320CC003E47C7
:10210000850793068C00E3D59AD2410723225C0110
:10211000BAC7BEC563DAFB00D001CA854E85EF4061
:102120003045631B052CF411C114368CD1B7C106A0
:102130002322AC01B6C7BAC563DAED00D001CA8567
:102140004E85EF40F0426319052AF011C11A328C16
:102150004DB5D9CFA247FD173EC4B2571257210C37
:10216000232CFCFE9257232EFCFEBE47BA97BEC717
:10217000AE478507BEC5635BFD00D001CA854E85AD
:10218000EF40103F631A0526130CC10E92473387A8
:102190005D4183C707006353F700BA87635AF002B3
:1021A0003E4723205C012322FC003E97BAC72E47FE
:1021B000210C0507BAC5635DED00D001CA854E85C7
:1021C0003EDCEF40F03A63190522E257130CC10ED2
:1021D0003E8763D3070001479247414883C7070002
:1021E000998F6340F004924783C70700BE9A89BD68
:1021F0009247FD1BFD173EC28DB7C10623220C017D
:10220000B6C7BAC5635DED00D001CA854E853EDC18
:10221000EF4010366312051EE257F0114148C11716
:10222000328C2E4797C50000938505612320BC00A2
:10223000BE46050713068C00E341F8FC2322FC0090
:10224000B697BEC7BAC5328CE35FEDF8D001CA8538
:102250004E85EF40F0316311051A130CC10E61B7C2
:10226000AE47054723209C00050D8507930B8C0086
:1022700063464701937614006386061205472322BE
:10228000EC00EAC7BEC51D47635BF700D001CA85F5
:102290004E85EF40F02D63110516930BC10EA2572A
:1022A0005247A10B23ACFBFED24723AEFBFEBE4739
:1022B000BA97BEC7AE471D478507BEC5635BF7002B
:1022C000D001CA854E85EF40B02A63170512930BE3
:1022D000C10ECE470C0108093EC9DE47930AFAFF3A
:1022E00002C13ECBEE4702C302C53ECDFE4702C748
:1022F0003ECFEF70502D29CDBE472E478504FD17E8
:10230000D297050723A09B0023A25B01BEC7BAC5D5
:102310009D47A10B63DAE700D001CA854E85EF40E7
:10232000302579E9930BC10E5C1923A0FB00C2573D
:102330004257138C8B0023A2FB00BE47BA97BEC73F
:10234000AE471D478507BEC5E353F7C06FE09FFA50
:10235000E35C50FDC1441D4C2E4717C60000130618
:10236000A64D23A0CB00BE47050793868B0063CA0A
:102370005401D69723A25B01BEC7BAC59D47B68B51
:1023800051BFC10723A29B00BEC7BAC56359EC0069
:10239000D001CA854E85EF40B01D39EDF411C11A48
:1023A000B68B5DBF2322EC00EAC7BEC51D47E35DC7
:1023B000F7F69DB7F24702573384E740E35C80B8F5
:1023C000C14A97C40000938424469D4BAE47232006
:1023D0009C003E47850763C98A0223228C003A94F9
:1023E000A2C7BEC51D47E357F7B6D001CA854E85C3
:1023F000EF401018E30005B6630A0B8CDA854E85B2
:10240000EF0020646FF08F8C410723225C01BAC774
:10241000BEC5210C63DAFB00D001CA854E85EF40B2
:10242000301579F9130CC10E41144DB7DA854E857C
:10243000092DA9B6BE4799E36FF04F89D001CA852F
:102440004E85EF40F0126FF06F88FD576393FDF4F7
:1024500063960CFAA54763E3A7FB130D0D03A307CF
:10246000A1199304F1186FF0EFF797F7FE5F9387C8
:10247000E7D8B2862E86AA8588436FE0DF9D83D792
:10248000C500130101B8232C8146F59B231AF100E6
:10249000FC512E84232A9146BED683D7E5002328FB
:1024A0002147232E1146231BF100DC4D2A8902D03F
:1024B0003ED2DC512C003ED69C183EC43ECC930745
:1024C00000403EC83ECEEFE01F99AA846347050056
:1024D0002C004A85AD2411C1FD548357410193F767
:1024E000070499C78357C40093E707042316F40031
:1024F0008320C1470324814726850329014783247C
:102500004147130101488280411197F7FE5F93878D
:10251000E7CE26C2AA84884322C406C62E8401C5FB
:102520001C5D91E3152E0317C40093170701C183A7
:1025300093F68700A1EE93F6070189EEA5479CC0AC
:10254000136707042316E4007D55B24022449244E9
:1025500041018280918B8DC70C5889C9930704046F
:102560006384F5002685F129232804028357C400DB
:102570002322040093F7B7FD2316F4001C481CC067
:102580008357C40093E787002316F4001C4889EFA3
:102590008357C4001307002093F707286386E700DA
:1025A000A2852685EF1070698357C40013F71700C2
:1025B00005C75C4823240400B307F0401CCC1C482A
:1025C0000145C1F78317C40013F707083DDF93E700
:1025D00007042316F4008DBF898B014791E3584807
:1025E00018C4F1BF8397C500011122CC13970701CE
:1025F000418326CA06CE4AC84EC693768700AA846F
:102600002E84E5EE056713070780D98FD8412396FE
:10261000F500634DE000D85D634AE0000145F240FB
:102620006244D2444249B2490561828018547DD740
:1026300003A904009396370123A0040063D506087C
:1026400030488357C400918B99C75C401D8E1C583D
:1026500099C35C5C1D8E1C544C4C81462685829728
:10266000FD578356C400631DF5009C4075476360A9
:10267000F7083707402005073357F700058B25CBB0
:10268000FD779387F77F1848F58FC207C18718C079
:102690002316F40023220400139737016358070020
:1026A000FD576314F5009C4091E328C80C5823A003
:1026B0002401ADD5930704046384F50026855126D3
:1026C00023280402A1BF4C4C01468546268502976B
:1026D000FD572A86E317F5F69C40A5D77547638515
:1026E000E70059476394E70423A0240105BF93E75B
:1026F00006042316F4007D551DB783A90501E38F59
:1027000009F003A905000D8B23A0350133093941D8
:10271000814711E3DC491CC4E35220F15C504C4C6E
:10272000CA864E86268582976347A0008357C400D9
:1027300093E707047DBFAA993309A940F1BF0111AE
:1027400022CC06CE2A8411C51C5D81E72EC6292223
:10275000B2458397C50091C722856244F240056166
:1027600051B5F2406244014505618280AA8509E9BC
:1027700093870185884397050000938585FCDDA933
:1027800097F7FE5F938787A7884355BF01458280EF
:10279000411122C406C62A842316B5002317C5009A
:1027A00023200500232205002324050023220506FB
:1027B00023280500232A0500232C050021468145F6
:1027C0001305C505EF20202997370000938707DA06
:1027D0001CD0973700009387C7DC5CD09737000088
:1027E000938747E11CD497370000938727E440CCB8
:1027F0005CD4B24022444101828097550000938509
:10280000C50A8DA901458280411126C213068006A2
:102810009384F5FFB384C4024AC02E8922C406C63D
:1028200093854407EF10504B2A8401CD23200500E7
:1028300023222501310508C4138684068145EF2033
:1028400080212285B2402244924402494101828083
:1028500093870185884355B71C5DA9E7411106C6DA
:1028600022C497070000938787F95CDD8D472322F8
:10287000F52E9307C52E2A842324F52E2320052E1A
:10288000484101469145293708440546A545093781
:1028900048440946C945ED3D85471CDCB240224409
:1028A00041018280828041119387018526C2844341
:1028B0004AC006C69C5C22C42A8999E32685693FE2
:1028C0009384042E8044DC40FD1763D607009C40AF
:1028D000B9CF8440C5BF0317C40039E7C177850766
:1028E00023220406232004002322040023240400BE
:1028F0005CC423280400232A0400232C040021465E
:1029000081451305C405EF20001523280402232A5E
:10291000040223220404232404042285B240224416
:1029200092440249410182801304840671BF91459B
:102930004A85D93D88C051FDB1472320F9000144A3
:10294000E9BF828082808280828097F7FE5F9387D2
:10295000E78A884397050000938585E35DAC97F788
:10296000FE5F9387A7898843970500009385C5E993
:102970004DA4011122CC26CA4AC84EC62E8406CECA
:102980002A8997E9FE5F938929C1EF20401783A721
:1029900089000567C4439307F7FE33848740F198A5
:1029A000269431807D143204635DE4004A85EF2073
:1029B00020150145F2406244D2444249B2490561C2
:1029C000828081454A85EF20902783A78900A697BA
:1029D000E31EF5FCB30580404A85EF205026FD57E5
:1029E000631BF50281454A85EF20702503A7890006
:1029F000BD46B307E540E3DBF6FA97F6FE5F938644
:102A00002680944293E717005CC3158D97F6FE5F0E
:102A100023A6A68461BF83A78900818C93E4140058
:102A2000C4C397F7FE5F938767839C434A853384CB
:102A3000874097F7FE5F23A38782EF20600C054550
:102A400095BF6387051C411122C426C22A84AE8427
:102A500006C6EF20C00A83A5C4FF938684FF17E54E
:102A6000FE5F130565B393F7E5FF3386F600584222
:102A7000032885008589719B6318C804BA9789E982
:102A800003A784FF998E9046BA97D84658C610C7B8
:102A900013E71700D8C217E7FE5F2323D7B017E765
:102AA000FE5F13072776184363E9E70097E7FE5FA9
:102AB0009387877A8C4322856D3D22852244B240DC
:102AC000924441016F20C00358C2014895E183A59B
:102AD00084FF97E8FE5F9388A8AC8D8EAE978C46F6
:102AE0006385150983A8C60023A6150123A4B80091
:102AF000B305E600CC41858995E5BA971846631879
:102B0000080697E5FE5F9385A5A96312B70617E649
:102B1000FE5F232DD6A817E6FE5F2327D6A8D8C6CA
:102B200098C6054813E71700D8C23387F6001CC3C0
:102B3000E31508F81307F01F636FF7028D8313D6B0
:102B4000274005473317C700504185078E07518F2F
:102B5000AA9717E6FE5F2323E6A49843138687FF10
:102B6000D0C698C694C354C789BF054851B75046CC
:102B700050C718C645BF13D697001147636EC702EA
:102B800013D7670013078703130617000E062A964C
:102B9000930586FF10426397C506854709873397DB
:102BA000E7005C415D8F97E7FE5F23A9E79ECCC6F7
:102BB00090C694C554C611B751476365C700130743
:102BC000B605D9B7130740056367C70013D7C70019
:102BD0001307E70655BF130740156367C70013D7F0
:102BE000F700130777074DB7930540551307E00724
:102BF000E3ECC5F813D727011307C70771B71046D1
:102C00006386C5005842719BE3EBE7FE4C4645B72F
:102C10008280797122D44AD052CC56CA06D626D2A6
:102C20004ECE1304052E0149054AFD5A19E8B2504B
:102C300022544A8592540259F249624AD24A456165
:102C40008280044483294400FD1963D409000040B4
:102C5000F1BF83D7C400637CFA008397E4006388E4
:102C6000570126852EC68295B2453369A900938403
:102C70008406D9BF797122D44AD052CC56CA5AC8D8
:102C80005EC606D626D24ECE2A8AAE8A1304052EFA
:102C90000149054BFD5B09ECB25022544A85925420
:102CA0000259F249624AD24A424BB24B4561828094
:102CB000044483294400FD1963D409000040E1BFA6
:102CC00083D7C400637BFB008397E40063877701AD
:102CD000A6855285829A3369A90093848406E1BF50
:102CE000930745010905231F05FEE31DF5FE8280BC
:102CF00081475147B306F50003D60600B386F500B9
:102D000089072390C600E397E7FE82809307A50119
:102D10000905231F05FEE31DF5FE828081476147FB
:102D2000B306F50003D60600B386F50089072390A5
:102D3000C600E397E7FE239C050082809147694621
:102D40003307F500835607003387F5000357070064
:102D50006387E60005456368D7007D558280890753
:102D6000E390C7FE014582809306450081476905CF
:102D7000617603D706009375170099C193E7170092
:102D800093F52700058391E986072390E600C207A3
:102D90008906C183E31FD5FC8280518FF5B7930666
:102DA0006501014783D726001396070141866354C6
:102DB0000600136717008607C20713762700C18332
:102DC00011EA06072391F6004207F9164183E31B37
:102DD000D5FC828093E71700EDB7930745000147C4
:102DE000690583D60700890713D68600518F239F74
:102DF000E7FE1397860042074183E314F5FE8280C5
:102E000093076501014783D62700F91713968600BB
:102E1000518F2392E70013D78600E316F5FE8280D8
:102E20009307450013078501890783D60700239F71
:102E3000D7FEE31BF7FE231C050082809307850164
:102E400013074500F91783D607002391D700E31B2A
:102E5000F7FE231205008280E10513076501814614
:102E60008357270003D605007917F915B297B6974F
:102E70002391F500C18393F61700E313E5FE8280EA
:102E8000E10513076501814683D705007917F91518
:102E9000958F83564700958F2391F500C18393F654
:102EA0001700E313E5FE82800111416393888501D9
:102EB000231D0100231E0100910574087D1303D713
:102EC0000800F916F91805E7239F06FEE39915FF98
:102ED000914769474C00BE9583D50500B306F600BF
:102EE00089072390B600E397E7FE056182803307E8
:102EF000A70203D82600B3776700C29713D807014B
:102F00002391F6009357070103D70600BA97C2979B
:102F10002390F600C183239FF6FE4DBF8357250102
:102F200093C7F7FF1397170109EB930725010905CD
:102F30000357E5FF09E7E39CA7FE014582800545AD
:102F40008280411122C406C62A84C93F01E90315C3
:102F500024017D81B2402244410182800145DDBFD0
:102F600083172501411106C622C426C24AC063D870
:102F70000704FD572390F50003572501A167FD17AE
:102F80007D8F2391E500130905016317F7042E8453
:102F9000AA84693705C993076400231204001385C6
:102FA000C4FF7919035729008907239FE7FEE31A15
:102FB000A9FEB240224492440249410182802390FA
:102FC00005005DBF930744009305A4018907239F73
:102FD00007FEE39DB7FEF1BF9387650023920500CE
:102FE00079157919035729008907239FE7FEE31A0A
:102FF000A9FE239C050075BF5D71A6C2CAC086C626
:10300000A2C42A89AE84193F41E52685013F2A845E
:1030100041E12C004A85A9374C102685913703578A
:10302000810083574102638CE7028947E146300003
:103030003E960356060005E250103E9603560600E3
:1030400019EA8907E395D7FE2285B64026449644BF
:10305000064961618280054465DB7D54F5B705470B
:1030600091C37D578147E1453400BE9603D60600E3
:103070005410BE9683D606006308D6003A84E3E572
:10308000C6FC3304E040C9B78907E39FB7FC6DBFB6
:1030900079545DBF8357250193C7F7FF1397170135
:1030A00009EB411106C69D3DB240133515004101A3
:1030B00082800145828013072501AA878907239F03
:1030C00007FEE39DE7FE8357250121677D17D98F12
:1030D0002319F5008280011122CC4EC606CE26CAE5
:1030E0004AC852C456C2AA892E8463D4050A330939
:1030F000B0404A8A8144BD4A63C74A031359490014
:10310000C155B305B9021D4A338485402289634302
:103110002A0393553400E157B385F5022E9415E048
:1031200033359000B1A883D789014E85411ADD8CD3
:103130003133D9B783C789014E856119DD8C713967
:10314000F9B783D789014E857D14858BDD8C2939AC
:10315000F9B74E85F131C114E34D99FE9355440002
:10316000C157B385F5021D492E94A2846346990286
:1031700093553400E157B385F5022E9415E00145CF
:10318000F2406244D2444249B249224A924A05611D
:103190008280AE843D49C9B74E859D31E114F9B7AF
:1031A0004E85F53E7D14D9BF83574500411126C297
:1031B00006C622C44AC0AA8491CB93F707F0014403
:1031C00099C3213961541309F0F68DA08317650066
:1031D00001441309000A63DE07002285B24022443D
:1031E0009244024941018280268541041539E30653
:1031F00024FF83D76400EDDB83D7640093F707F0E7
:1032000089CF1309000A83976400E3C807FC268569
:1032100005047136E35989FEC9B72685D5362104E0
:10322000E1BF26857D148936E30924FB83D744005A
:10323000EDFB65B713070501AA878907239F07FEE2
:10324000E39DE7FEB7C7FF7F1CC982802A878356AC
:1032500007002E858357270099C2E176D58F231961
:10326000F50003562700A166FD1693076700631A51
:10327000D600690783D6070085E28907E39CE7FE4D
:103280001DBD41056107890783D6E7FF7915231125
:10329000D500E39AE7FE828071BF797126D2AA84B5
:1032A000480022D406D62E84953403D7E400931721
:1032B0000701C18763C6070223120100A166FD163C
:1032C000758F9387E4006316D7042687835607001B
:1032D00081CE22858537B250225492544561828036
:1032E000FD572312F100D9BF0907E391E7FE2285BC
:1032F000C53A2285C9338397E400E3DE07FC2285C3
:10330000313971F9835724016177B98F2319F4009A
:10331000D9B72313E1005400F91703D60700890633
:103320002392C600E39AF4FE19E723140100A28554
:103330004800293F4DB78547FD5548002314F1004B
:10334000593BF5B7011122CC26CA4AC84EC652C411
:1033500056C236893E8406CEAA84AE89328ABA8A9B
:10336000A135930700093309A94063D7A702A167D4
:10337000F91763CE270393872400E9048907239F65
:1033800007FEE39D97FEF2406244D2444249B249AF
:10339000224A924A05618280635B0900930700F725
:1033A0006341F912CA8526853D336315051263868C
:1033B0000A0E58401C406307F7041305A401B932F4
:1033C0005C40130780036387E7146347F710614786
:1033D0006387E716130750036388E714314718C45F
:1033E000370701807D1758C80547231CE4002D4787
:1033F00058C4584483568401210706072297231591
:10340000D7001CC0634E2001584093070009630990
:10341000F70083D784012685858BB3E9F900A932AB
:103420001444035644014C401397160026978357C3
:103430000700F18F1306F0086347B60085063A8649
:10344000B14563D0D510835644010356070093C697
:10345000F6FFF18E2310D70003576401B376F7000F
:1034600091CE631CF70E6398090E5C4403578401E8
:103470008607A69783D70700F98FE5E36349200104
:103480005840930700096304F7002685093A83D75B
:10349000440081C72685C9380509A167239C04001B
:1034A000F91763D1270DE17793C7F7FF2391F40054
:1034B00093874400E104239007008907E39DF4FE0D
:1034C000D9B593872400E9048907239F07FEE39D6C
:1034D00097FE55BD8549E1BD130700046381E702EE
:1034E00013071007E39CE7EE378700407D17A946D6
:1034F00058C814C46177231CE40054C4DDBD1D47C3
:1035000018C4370701807D1758C80547231CE400FD
:103510001947F9BD9946370780001307F70F58C8B8
:1035200014C413070010C1BF370700041307F77F47
:10353000994658C8056714C4130707806DBF9146A4
:10354000D9BF0355260019C193E7170023110600C0
:1035500085060906FDB5E3130AF2A6851305A40145
:10356000E53829BF635509002391040029BD239143
:10357000240111BD011152C4035A250022CC2E840E
:1035800006CE26CA4AC856C25AC03289130B460311
:103590004EC6AA8A113983542400330AAA402285D0
:1035A0002131898C5A85EFF06FF663D2440322856E
:1035B0006244F240B249224A924A024BCA87A68626
:1035C0004249D2440147014681450561A5BBA28518
:1035D0005685EFF0AFF681496346A000A285568577
:1035E000453085495A85EFF08FFB8357C904228502
:1035F000FD14B3E9F90023163905EFF04FFA75B75A
:10360000757122C526C34AC1D2DC06C7CEDED6DA22
:10361000DAD8DED6E2D42A892E84B284368AFD38FE
:103620000DC1A6854A85EFF0AFECBA402A449A4412
:103630000A49F659665AD65A465BB65B265C49611A
:1036400082802285E13801C5A6852285E9BF4A85A9
:10365000913415ED22853D3C01C997B50000938555
:1036600065224A85513A1DC94A852D3401E52285D6
:1036700015341DC94A85F1302A892285D930630263
:10368000A902E1772399F4002685353479BF97B5EF
:1036900000009385251F228585324DFD2685593EE4
:1036A00069B723990400CDB76C004A855538228547
:1036B0002C107D308359E1000354A1026387090A6D
:1036C0008357A102228BD5CBA25713094A03930B30
:1036D000EA04232AFA0293078A0323900700890742
:1036E000E39D77FF6000130C81FF814A035584013D
:1036F00009C92C10D000EFF02FFBCA85C800EFF0ED
:10370000AFF58357CA044A857914B3EAFA00EFF09B
:10371000EFF2E31D8CFCCA853C1003D70500890538
:103720008907239FE7FEE39A75FFF176DA99890608
:10373000D28713070004CE960146D685281019318A
:103740000357C100835781026316F7042314010253
:10375000A6852810E53CD1BD890783D6270081CAFC
:1037600068009934B309A040A1BF7C001810E3950C
:10377000E7FE2685EFF0CFD64DBD3C107818E38AE2
:10378000E7FE890783D62700FDDA2810313C330B8A
:10379000A4401DBFFD572314F1025DBF757122C502
:1037A00026C34AC1D6DA06C7CEDED2DCDAD8DED6E8
:1037B000E2D4E6D22A892E84B284B68AEFF00FF6DC
:1037C00015C1A6854A85EFF0AFD2BA402A449A4483
:1037D0000A49F659665AD65A465BB65B265C965C31
:1037E000496182802285EFF06FF301C5A6852285AD
:1037F000D9BF97B500009385E5084A85EFF0CFFF64
:1038000005C94A854138AA8922856930639D090224
:1038100021C14A85EFF0EFF22A892285EFF06FF29D
:103820006300A918E1772399F4002685693071BFF8
:1038300097B50000938505052285EFF0EFFB71F148
:103840002685CD3A59B76DFD2685EFF06FC9B5BF16
:103850004A856C00EFF0CFF022852C10EFF04FF08E
:103860000359A1020354E100630C090E8357E100E0
:10387000A28B638D0710225793878A03138BEA0468
:1038800023AAEA02BE898907239F07FEE39D67FFFB
:103890002810EFF06FCD035C2101416A7D1AB30C53
:1038A0004C038357C1020354E102C207A29752841A
:1038B00063E6FC0033D48703420441806C00228518
:1038C000D000EFF06FDE2C10C800EFF02FC7635F61
:1038D000A000CC006800EFF0AFDA2C10C800EFF0C9
:1038E000EFC56342A00C7D14420441802C10C80037
:1038F000EFF00FD92810239089008909EFF04FD2FB
:10390000E3113BFB38109306E103BA87814503D6E8
:1039100047008907D18DE39CF6FEB335B00093874D
:103920004A0383D6070089070907231FD7FEE31A36
:10393000FBFE916633097941FD16D6871307000413
:10394000CA9601462810FD3A0357C10083578102E9
:103950006313F70623140102A6852810C538B5B5F0
:103960003C107818E382E7EE890783D62700FDDA5A
:1039700028101D383309A040D5BD890783D62700FC
:1039800081CA68001530B30BA440F5B57C0018104F
:10399000E395E7FE0357C10083578102E314F7E87C
:1039A0002399040059B579144204CC006800418081
:1039B000EFF00FCD25BFFD572314F10271BF03AE09
:1039C000050003A3450083A88500CC450571232C81
:1039D000811C2ED63E842C41FD572328F1149307D9
:1039E00000092328211D2322511D232C811B232A5A
:1039F000911B232E111C232A911C2326311D2324C5
:103A0000411D2320611D232E711B2328A11B23266A
:103A1000B11B42C872D01AD246D4232AF1142A8983
:103A2000B28A368CBA8C99C97C4105473317F700A6
:103A3000DCC198C5EF1040132320090408108C083E
:103A4000A9388808EFF0EFCF6302051485471CC042
:103A50008D476380FA14D144638A0A009304FCFF03
:103A60009307A00263D497009304A0028327411513
:103A700088083ECAEFF08FCA2A8B97B5000093855D
:103A8000A505631D057A93070009EC108808232A11
:103A9000F114EFF0EFA58357E10702C41397070174
:103AA000418763590700C607C583231FF106C16715
:103AB000FD173EC42C0117B50000130525EEEFF0ED
:103AC0002FA30357E107631D0774FC101307E107D9
:103AD00083D60700E9EA8907E31CF7FE01448C015D
:103AE0002801EFF0EFC72C018801EFF02FA38C0124
:103AF000E810EFF0EFC6EC108801EFF02FA2900A6B
:103B0000EC102801853C8359C11917BA0000130A2B
:103B10006AD763980900D285E810EFF0EFCD6315FE
:103B2000054CA247638C074E9307D002230AF1107D
:103B30008D47268A639AFA00338A84009307A0028D
:103B400063D44701130AA002A947639CF94C930769
:103B50001003A30AF1109307E002230BF11093095D
:103B600071116359400193070003A30BF1107D1AF3
:103B700093098111050463500A4C228697B5000011
:103B80009385C5F74E85EF10B0197DAD2320040055
:103B9000C1B5E284F1B58317C10797B500009385DD
:103BA000A5F563DD0768EC1017B50000130505DF08
:103BB000EFF08FC405D5635105304C11E810EFF0DC
:103BC0002F9391679387E708231BF10AC1473EC6ED
:103BD000A167FD173ECCF1778907014497BB000030
:103BE000938B8BD53ECE97B90000938929DB940A3D
:103BF00030014C115E855D366C182801EFF04F8F57
:103C0000E247035AE104337DFA00F2473E9D634EDA
:103C1000A0038801EFF0CF8C420A135A0A41635087
:103C20000A0C814778183E978356070098013E9703
:103C300003570700638DE6264E85EFF02FAE35C1A2
:103C40008C014E85EFF0CF8A59A893070009338D78
:103C5000A7418C016818EFF0AF896352A009980161
:103C6000EA87BD4663CAF60293574D0013971700C3
:103C700094013697C156B387D70297B60000938652
:103C800066C0EA978607B69783D7C71283560700A0
:103C9000F58F2310F70049B723100700C117090754
:103CA000D1B78801EFF08FA701C58C012E8559BFD0
:103CB0004E85EFF02FBE2A8A8801EFF0AFBD2A8D26
:103CC00063020A0E69C14E85EFF0AFA72A8A880108
:103CD000EFF02FA76319AA0A8801EFF0AFD581474B
:103CE00038013E978356070098013E970357070017
:103CF000639CE60089074947E394E7FE4C112801DD
:103D0000EFE01FFFB2473E94B247D10B85833EC61A
:103D1000E39F3BED8357610B0357E107EC1048111C
:103D2000BA977177130727F7BA97231BF10AEFE0C9
:103D30003FFC5E852C01EFE0BFFB056A97B90000F0
:103D4000938989B597BB0000938B0BC44C115E859A
:103D5000EFF08FAAE345A0D84C114E85EFF0CFA924
:103D6000634DA0005011B285940A4E85053C300188
:103D7000940AB2854E8569305294135A1A00E38032
:103D800079D7D109E1B74E858C01EFE07FF6880144
:103D9000EFF0CF9829F58357210D6177B98F23195B
:103DA000F10C35BFE31305F0EC094E85EFF04F9BA6
:103DB000AC198801EFF0CF9A8357C10D835DE10DF7
:103DC000035AA10F93C7F7FF231EF10CB3854D4192
:103DD0006352B0024C0AA819EFE05FF4AC19E8098D
:103DE000EFE0DFF3EC09480AEFE05FF3B305BA4117
:103DF000035AA10F8DCD9307F0F663C3F506E809CA
:103E0000EFF06FADAA8D0357C10D8357810FAC1929
:103E1000E809631AF708EFF02F849C0A13070004DF
:103E2000D2866A86EE85A819EFF0CFD115A8AC1915
:103E3000E809EFE0BFF021E90357C10D8357810F77
:103E40006306F7008801EFE0BFE951BD8357A10F7A
:103E500089EF8317E10F63CA0700A819EFE03FF469
:103E60008C01A819EFF08FBE9DBDBC191307E1109E
:103E700083D6270089C6050A231D410FD5B78907B8
:103E8000E318F7FED5BF814DE35FA0F64C0AA819F1
:103E9000EFE0DFE8AC19E809EFE05FE8EC09480A79
:103EA000EFE0DFE78DB7EFE0BFFD054DBDB7890758
:103EB0004947E399E7D625B58357E107014497B908
:103EC0000000938969ACADCF8C01E8109169EFF0E7
:103ED0002F89F919130A50FD8357810D9D8BA9E78E
:103EE0004C118801EFE09FE34811EFE0FFE7481134
:103EF000EFE09FE74C118801EFE01FF68357610A5E
:103F00008D072313F10A8357810AE1EB8357C10B15
:103F100081EF8357610A63E9F9008C0148117D1430
:103F2000EFE0DFDFE31A44FBEC108801EFF00FB2A3
:103F300021A8F010940AB2854E85EFF06FEC7D1445
:103F40008317C107E3D707FE8C01E810EFE05FDAC3
:103F50002C0117B50000130565A4EFE07FD9814B54
:103F6000FD7997BD0000938DEDA6094D33877D0146
:103F700097B70000938747928C0117B5000013058F
:103F8000E5A13AC6338A7701EFF00F873247635CC9
:103F9000A0028C013A85EFF02F86634F0500900157
:103FA000B285940A5285EFF0AFE53001940AB285EC
:103FB0005285EFF0EFE44E94D10B93074010B3C954
:103FC000A903E395FBFA3001940A97B500009385A5
:103FD000E59C3285EFF08FFC19B64811EFE0DFD891
:103FE0008357610A850731BFE810EFE05FDB4C11B2
:103FF000E810EFE0BFD24811EFE07FDA4811EFE0C0
:104000001FDAEC104811EFE03FE5900AEC102801B0
:10401000EFF04FD67D148359C119E5BC9307000218
:1040200031B6938909039307E002A30A3111230BE8
:10403000F11093097111B38B690163506A058357BD
:10404000C11911479389FBFFE359F7B21547638400
:10405000E706CE871306E00293058003930600036C
:10406000FD1703C707001377F70763520A08130702
:1040700010032380E700050409B6E810EFE03FD203
:104080004C11E810EFE09FC94811EFE05FD14811F3
:10409000EFE0FFD0EC104811EFE01FDC900AEC10CD
:1040A0002801EFF02FCD8347C119050B9387070334
:1040B0002380FB0049B72C01E810EFF02F9997A55A
:1040C00000009385257C2801EFE01FF359F1E346BA
:1040D0000AAA83C7EBFF938727FD93B7170093C7FF
:1040E000F7FFCE9783C70700858BA5F779B46310D8
:1040F000C70203C7F7FF9306800363E6E6000507E0
:10410000A38FE7FE9DBC050413071003D5BF63E62C
:10411000E50005072380E7008DB42380D70089B729
:104120009307140023A0FC009306E002D28703C784
:10413000070001E71307500439A81386170063042A
:10414000D700B287EDB703C717008507A38FE7FE37
:104150007DFBCDB7FD1783C607006384E600E36BE4
:10416000FAFE2380070031A2850709AAB68931AA81
:10417000FD192380090003C7F9FF6316D7003387B1
:104180004941E3C7E7FE0D4793079C00639FEA00A0
:10419000269463570400230A011023A00C00D2893F
:1041A00083A70C003E9C93073C002322090411477F
:1041B000930647018325490463FFD7044A85EF002E
:1041C00050142320A904D2852A84EF104058C247F6
:1041D00091C7B3894941A29923A037012285832041
:1041E000C11D0324811D8324411D0329011D832931
:1041F000C11C032A811C832A411C032B011C832B15
:10420000C11B032C811B832C411B032D011B832D00
:10421000C11A3D61828085052322B904060749BF82
:10422000A167FD17E319F796A24797B5000093859C
:10423000E58B89C797B500009385858A480A09648C
:10424000EF10002E1304F470D24788082320811643
:10425000232AF114EFE01FE4130A411111E5880845
:10426000EFE0DFCBE30E05EA89679387F77023A0C1
:10427000FC00D287130600029306D00203C7070092
:10428000E304C7EEE302D7EED289850703C7F7FF41
:1042900093861900A38FE6FEE31A07EC09478547CA
:1042A0006386EA00A68763D38400A287930600038F
:1042B000D9B51C4139714C083EC05C4106DE3EC296
:1042C0001C453EC45C450A853EC6EFE01FFD835792
:1042D0006102014593C7F7FF1397170119E74808D3
:1042E000EFE0DFC3133515000505F2502161828030
:1042F0001305050F828097D7FE5F938727F09C43B5
:10430000C85B09E517C5FE5F130545121305050FC8
:10431000828097D7FE5F938767EE9C43C85B09E571
:1043200017C5FE5F130585101305050F828011EE7A
:1043300017A500001305C57C828017A50000130592
:10434000257CB240224441018280411197A50000A2
:104350009385457B328522C406C63284EF10402DFA
:1043600069DD97A500009385A5792285EF10402C83
:1043700069D597A50000938565502285EF10402BE5
:104380004DDD01457DBF97D7FE5F938727E79C43AF
:10439000DC5B89E797C7FE5F9387470903C58712F0
:1043A00082800325C50E828097D7FE5F938707E53D
:1043B0009C43DC5B89E797C7FE5F9387270703A5CC
:1043C000C70E828097D7FE5F938747E32E86AA8524
:1043D0008843B1BF1971A6DAAE848395E500A2DCEB
:1043E00086DE328463DC050083D7C40023A0060088
:1043F00093F7070895EB930700400DA8300836C6E1
:10440000EF308064B246E34105FE7247BD67056543
:10441000F98F7977BA9793B717009CC2930700403A
:104420001CC01305058029A0930700041CC001458A
:10443000F6506654D6540961828083D7C5000111B5
:1044400022CC06CE26CA4AC8898B2E8489CF9307F0
:1044500034041CC01CC885475CC8F2406244D24486
:1044600042490561828074003000AA84A537A245C4
:104470002A892685952001ED8317C40013F70720AC
:1044800069FFF19B93E727002316F400C9B797E76C
:10449000FFFF9387C736DCDC8357C40008C008C819
:1044A00093E707082316F400A2475CC8B24791CFF0
:1044B0008315E4002685EF30900901C98357C400B5
:1044C000F19B93E717002316F4008357C400336968
:1044D000F9002316240151B7797106D622D426D2C9
:1044E0004AD04ECE52CC56CA5AC85EC662C466C2C4
:1044F0009387B50059476376F70293F487FF63D338
:104500000402B1471CC10145B250225492540259D1
:10451000F249624AD24A424BB24B224C924C45611C
:104520008280C144E3EFB4FC2A89D12B9307701F2A
:1045300097C9FE5F9389490663EC9702138784004D
:104540004E974043930687FF93D734006316D400F9
:1045500040478907630C87045C4058441444F19B2E
:10456000A297D8C614C7D84313671700D8C351A061
:1045700013D794009307F00301CB914763E0E7085A
:1045800093D7640093878703138717000E074E970E
:104590004043930587FF3D456309B4005840719B34
:1045A00033069740635FC508FD17850703A409011B
:1045B00097C5FE5F9385C5FE630CB40E5840BD469B
:1045C000719B3306974063D9C60893E714005CC01B
:1045D000B306940097C7FE5F23AAD7FC97C7FE5F78
:1045E00023A4D7FC93671600CCC68CC6DCC22297E6
:1045F00010C34A8531231305840039B7D14763E5D9
:10460000E7009307B70549B79307400563E7E7005D
:1046100093D7C4009387E70685BF9307401563E7E8
:10462000E70093D7F40093877707B9BF9306405507
:104630009307E007E3EAE6F493D724019387C707DB
:10464000A1B75444634806001C44D4C79CC6B307B2
:10465000E40011BF368489B797C6FE5F23A8B6F47D
:1046600097C6FE5F23A2B6F46348060022975C4318
:1046700093E717005CC3B5BF9306F01F03A849007A
:1046800063E8E6140D831356274085460507B39665
:10469000C6000E074E97B3E6060117C6FE5F232F2E
:1046A000D6EE1443130687FF50C414C400C3C0C61B
:1046B00013D7274005433313E30003A74900636E74
:1046C0006704B376670099E6F19B0603B37667004B
:1046D0009107E5DE3D4E93963700CE9636883E85AF
:1046E0000324C80063130419050513773500210856
:1046F00065FB13F737006317071C03A749009347AF
:10470000F3FFF98F17C7FE5F232AF7E803A74900D5
:104710000603636467006313031C83AB890003A46F
:104720004B00937AC4FF63E79A0033879A40BD47F2
:1047300063CFE72897D7FE5F938707B217D7FE5F4F
:10474000130707AC80431443FD57338C5B01269459
:104750003A8A6397F6184104A2854A85EF00304EE5
:10476000FD572A8B6309F5206374850163953B210E
:1047700097DCFE5F938C8CAE03A70C00229797D733
:10478000FE5F23ADE7AC63136C1793174C01639F77
:10479000071483A78900569413641400C0C317D765
:1047A000FE5F130727AB83A70C0018436376F7005F
:1047B00017D7FE5F2320F7AA17D7FE5F130747A975
:1047C0001843637AF71A17D7FE5F2323F7A865A269
:1047D00013569700914663EEC60293566700938680
:1047E0008603138616000E064E96130586FF1042AA
:1047F0006317C50605478986B316D700B3E60601D9
:1048000017C7FE5F232CD7D848C410C400C540C6C4
:1048100045B5D14663E5C6009306B605D9B79306FC
:10482000400563E7C6009356C7009386E60655BF6A
:104830009306401563E7C6009356F7009386760704
:104840004DB7130540559306E007E36CC5F8935642
:1048500027019386C60771B710466306C500544208
:10486000F19AE36BD7FE484645B758405044719BD8
:10487000B3089740635B1E0393E714005CC01C44BD
:10488000B30694002297D0C71CC697C7FE5F23AF1C
:10489000D7D097C7FE5F23A9D7D093E71800CCC61F
:1048A0008CC6DCC223201701A9B363CB0800229772
:1048B0005C4393E717005CC31C44D0C71CC615BB00
:1048C00032840DB5E1169846FD17E304D7E23DBDED
:1048D00091070603B3766700E5DEF5BBAA87DDBF67
:1048E00005673D073A94FD777D8CBDB583260A00A8
:1048F000FD576390F60A97D7FE5F23A36791137C59
:104900007B00814763060C00A147B38787413E9B2C
:104910000565338AA7005A947D15B377A400330A3E
:10492000FA40337AAA00D2854A85EF005031FD570C
:104930006319F500228563050C0013058CFF229591
:10494000014A83A70C0033056541D2972A9A17D7ED
:10495000FE5F2325F790136A1A0097C7FE5F23A115
:1049600067C523224B01E38C3BE33D47636B570351
:1049700085472322FB0083A78900DC43F19B338713
:10498000974063E59700BD4763C3E7044A858D2AD6
:104990009DBEB3078B41BA9717D7FE5F2320F78CD4
:1049A000B9BF83A74B0013844AFF6198858BC18FE1
:1049B00023A2FB009546B3878B00D4C394C7E37052
:1049C00087DE93858B004A85EFE0AF87C9BB03A4E0
:1049D000890093E714005CC0B307940097C6FE5F9C
:1049E00023A0F6BC51B697D7FE5F938727819C43DF
:1049F000DC5B89E797C7FE5F938747A303A3470E56
:104A0000028385E141116C00014511CA795581CAC3
:104A1000834706009CC1034506003335A0004101D1
:104A20008280014519CA795589CA834706009CC10D
:104A3000034506003335A0008280828093F5F50F90
:104A40002A966314C5000145828083470500E38DE3
:104A5000B7FE0505FDB73D432A876373C30293770D
:104A6000F700BDEFADE5937606FF3D8ABA960CC31D
:104A70004CC30CC74CC74107E36BD7FE11E28280E1
:104A8000B306C3408A069702000096966780A60088
:104A90002307B700A306B7002306B700A305B70096
:104AA0002305B700A304B7002304B700A303B7008E
:104AB0002303B700A302B7002302B700A301B70086
:104AC0002301B700A300B7002300B700828093F54D
:104AD000F50F93968500D58D93960501D58D61B719
:104AE000939627009702000096968682E78086FAC2
:104AF0009680C1171D8F3E96E374C3F8A5B78280D8
:104B000082807C45411126C24AC006C622C4AA84BE
:104B10002E8995C7F84493172900BA97884315ED55
:104B2000054433142401130654000A0685452685DE
:104B3000EF20504D01CD2322250100C50DA0130605
:104B400010029145EF20104CE8C469F50145B240D0
:104B500022449244024941018280184198C323288B
:104B6000050023260500E5B789C9DC411397270016
:104B70007C45BA97984398C18CC3828079714ECE98
:104B8000AA89416522D426D22E84844906D64AD0E9
:104B9000D10501487D159C419105050833F7A70013
:104BA0003307C702C183B387C702369793560701FD
:104BB000698FB69793D60701C207BA9723AEF5FE61
:104BC000E34B98FC95CE1C4463C5F4024C404E85E3
:104BD00036C685053D3710489305C4002A89090665
:104BE0000A063105EF30201CA2854E85B53FB2463E
:104BF0004A84938744008A07A297D4C3850404C8D3
:104C00002285B250225492540259F2494561828061
:104C100079719387860052CC368AA54622D426D253
:104C20004ECE2E84B3C7D70206D64AD056CAAA891A
:104C3000B2848546814563CAF6044E853AC6D135AD
:104C4000324785471CC958C9A54763D39704930ABF
:104C500094005689269405098346F9FFAA852946BA
:104C6000938606FD4E85193FE31789FE138484FF62
:104C70005694268963414903B250225492540259F2
:104C8000F249624AD24A456182808606850565B747
:104C90002904A544F9BFB3079940A29783C607002A
:104CA000AA852946938606FD4E85C93D0509D9B7D3
:104CB0004177698FAA87014519E3C2074145370744
:104CC00000FF7D8F19E32105A207370700F07D8FD4
:104CD00019E311059207370700C07D8F19E3090515
:104CE0008A0763C907001397170005056344070087
:104CF0001305000282801C4113F777000DC393F661
:104D00001700014799E613F7270011C785831CC1D7
:104D100005473A85828089831CC10947DDBF939688
:104D20000701C182014799E2C183414793F6F70F1A
:104D300099E22107A18393F6F70099E21107918385
:104D400093F6370099E20907898393F6170081E605
:104D50008583050799C31CC16DBF1307000255BFAA
:104D6000411122C42E84854506C6613B40C9B2402C
:104D70002244054718C94101828098491C4A79712B
:104D800026D206D622D44AD04ECEAE846354F70043
:104D9000B2842E8683A90401032906019C44CC40D9
:104DA0003384290163D38700850532C6993B324697
:104DB00013084501131324004293C28763ED670271
:104DC00093854401939829005106131E2900C1665A
:104DD000AE98329EFD166364C6036356800071135D
:104DE00083270300F1CB00C9B250225492540259D8
:104DF000F2494561828023A007009107C1B7832F44
:104E00000600B3FFDF00638A0F04428FAE82814445
:104E100003A7020083230F00110FB37ED700B38EC8
:104E2000FE03B3F7D30093D303019102BE9E9357C1
:104E30000701B387F703A69E13D70E01B3FEDE006A
:104E40009E97BA9793D40701C207B3E7D701232EE1
:104E5000FFFEE3EF12FB23209F0083522600638AAC
:104E6000020483270800C28E2E8F814F03270F0074
:104E700083D32E00F58F758F33075702910E110FD4
:104E80001E977E97931F0701B3E7FF0023AEFEFE38
:104E90008357EFFF83AF0E004183B3875702B3FF01
:104EA000DF00FE97BA9793DF0701E3611FFD23A0A0
:104EB000FE001106110805B77D1405B7011126CAB9
:104EC0004AC84EC606CE22CC52C4937736002A89F1
:104ED000B284AE8981CFFD1717A70000130787C3DF
:104EE0008A07BA97904381465139AA898984B1C407
:104EF0000324890411E8930510274A859535232456
:104F0000A9042A842320050093F7140091CBCE85B1
:104F100022864A859D352A8ACE854A85B131D28935
:104F2000858481CC084001E92286A2854A85B13575
:104F300008C0232005002A84C1BFF24062444E8588
:104F4000D2444249B249224A05618280797126D20F
:104F5000AE844ECE83A9040122D4CC4113545640D2
:104F60009C44A2994AD056CA06D652CCAA8A138922
:104F7000190063C22709568532C661363246930747
:104F800045012A8ABE860147910663498706635315
:104F90000400014494480A04338787008A069387F3
:104FA00044017D8ABE9639CE130800023308C840FA
:104FB00081458843110791073315C500C98D232EFC
:104FC000B7FE83A5C7FFB3D50501E3E4D7FE0CC345
:104FD00099C1138929007D1923282A015685A685A0
:104FE0006136B2502254528592540259F249624AB3
:104FF000D24A4561828085058607A5BF23AE06FE9D
:10500000050759B7910703A6C7FF1107232EC7FE4F
:10501000E3EAD7FEC9B71C499849998F8DE30A077F
:105020005105D105B306E500BA95F116F115904288
:1050300098416308E600FD576363E60085473E85B7
:105040008280E364D5FEE5BF011126CAAE844EC658
:10505000B285AA89268522CC06CE4AC83284653F0D
:1050600019ED81454E85713C85471CC9232A0500F1
:10507000F2406244D2444249B24905618280054906
:1050800063460500A28701492684BE844C404E85B4
:105090008D3C0323040183A8040113064401131E5D
:1050A0002300138844018A08C16E23262501329EFD
:1050B000C29893064501014FFD1E1842832F080038
:1050C0009106B375D701B3F7DF01FA959D8D93DF94
:1050D0000F0193570701B387F74113D70541BA97DB
:1050E00013DF0741B3F5D501C207CD8F110823AEF9
:1050F000F6FE1106E36318FDC165FD156368C60180
:10510000F1169C4295C7232865009DB71C42910665
:10511000110633F7B7007A9713580741C183C29736
:1051200013DF07416D8FC207D98F23AEF6FEF9B7A3
:105130007D13F9B7B707F07FFD8DB707C0FCBE95AB
:105140006355B00081473E858280B305B04093D758
:1051500045414D476347F700B7050800B3D5F54013
:10516000D5B71387C7FEF94681458547E3CDE6FCF1
:10517000B7070080B3D7E700F9B7797126D20449A1
:105180004ECE930945018A04CE9422D403A4C4FFD1
:105190004AD02EC6228506D6213EB245930700028C
:1051A000898F9CC1A9471389C4FF63CDA702AD476E
:1051B000898F3707F03FB356F400D98E014763F467
:1051C000290103A784FF55053315A400B357F70041
:1051D000C98FB250225492540259F2493E85B68585
:1051E00045618280814763F6290183A784FF138983
:1051F00084FF551505C9130700023306A74033D7AE
:10520000C7003314A400598CB706F03FC18E014784
:1052100063F429010327C9FFB397A7003357C700D9
:10522000D98F45BFB706F03FC18E65B7797122D4DB
:105230002E84854526D24AD0B2844ECE52CC3A89AD
:1052400006D6368A7D38370710009307F7FFE58FBB
:10525000D18093F4F47FAA89ADE03EC625C428002E
:1052600022C4513CA24621CD324793070002898FC8
:10527000B317F700D58F3357A70023AAF9003AC612
:10528000324423AC890033348000050423A889000C
:10529000B1C49384D4BCAA949307500323209A00EA
:1052A0003385A7402320A900B25022544E85925442
:1052B0000259F249624A45618280D98F79BF23AA97
:1052C000D9007DBF6800053CB247130505020544BF
:1052D00023AAF900854723A8F9005DBF931724008E
:1052E0001305E5BCCE972320AA00884B1604C932CB
:1052F000098C232089004DBF79714AD02E892C005A
:1053000006D622D426D24ECE52CC2A8ABD35AA89C0
:10531000AE842E844A856C008D35832709010327CE
:105320000A01A2461D8FB24716079D8EB307D7000C
:105330006355F002D2072E86338497003287A28508
:105340002A86BA864E85EF40600EB250225492549F
:105350000259F249624A456182803707F0FFB387FC
:10536000E7023386B700D9BF411122C406C64AC23C
:105370004EC0DD472A8463C1A702131435009797F6
:105380000000938727793E9408484C48B240224455
:10539000124982494101828097C7FE5F938787E95E
:1053A0008843CC4397C7FE5F938747E903A907006B
:1053B00083A947004A86CE867D14EF40C05B7DF806
:1053C000F1B79387F5FF184A958785078A079306F3
:1053D00046010A07AA97369763E5E600636AF50077
:1053E0008280910603A6C6FF1105232EC5FEEDB7E8
:1053F0001105232E05FEDDB7144993D75540130739
:10540000450163C7F60263DFD700FD8981CD93961E
:105410002700BA9690420545B356B600B395B6003C
:10542000631EB6008A07BA976366F700014582805B
:10543000B687CDBFF1179443E5DA05458280411167
:1054400022C42A842E8523A4018806C6EF607042F8
:10545000FD576317F500938781889C4391C31CC057
:10546000B240224441018280411126C2B70400802B
:1054700022C406C693C4F4FF33F7B4002320060009
:105480003708F07FAA86AE87328463570705B36872
:10549000A7006383080433F805012E866311080210
:1054A00097C7FE5F938707DA9043D443EF40A04C41
:1054B0009307A0FCAA862E8633F7B4001CC01C40BC
:1054C0005187130727C03E97B7071080FD177D8EC1
:1054D000B707E03F18C0D18FB240224492443685CE
:1054E000BE854101828035713ECBB707008093C7EE
:1054F000F7FF3ECE3EC8C17736C72EC42ECC938769
:10550000872074012C0086DE3ECA3AC942CD46CFC0
:1055100036C25124A24723800700F6500D618280D5
:1055200035713ECBB707008093C7F7FF3ECE3EC82C
:10553000C1779387872032C536C73AC942CD46CF57
:105540003ECA97C7FE5F938767CB2AC42ACC88439D
:1055500034012E862C0086DE36C2352CA2472380ED
:105560000700F6500D618280411122C42E8483957C
:10557000E50006C6EF203013634905003C48AA97B2
:105580003CC8B2402244410182808357C4007D77E9
:105590007D17F98F2316F400EDB70145828083D77C
:1055A000C500011122CC26CA4AC84EC606CE93F7C2
:1055B0000710AA842E843289B68999C78395E5009D
:1055C00089460146EF20407B8357C4007D777D17D5
:1055D000F98F2316F4008315E4006244F240CE866E
:1055E0004A86B24942492685D24405616F20A01EF1
:1055F000411122C42E848395E50006C6EF20C077B2
:10560000FD570357C400631BF500FD77FD17F98FA5
:105610002316F400B2402244410182808567D98F6D
:105620002316F40028C8FDB78395E5006F200025F8
:105630003367B500FD530D8B79E7B7877F7F93877D
:10564000F7F710419441B372F6003363F600BE924F
:10565000B3E262006397720C6318D6065041D441DE
:10566000B372F6003363F600BE92B3E26200639851
:10567000720A631BD60410459445B372F600336377
:10568000F600BE92B3E262006391720A631ED60214
:105690005045D445B372F6003363F600BE92B3E2D0
:1056A0006200639A72086311D60210499449B3727A
:1056B000F6003363F600BE92B3E2620063937208B1
:1056C0005105D105E30FD6F613170601939706018E
:1056D000631CF7001357060193D706013305F74003
:1056E0009375F50F91E982804183C1833305F740BB
:1056F0009375F50F91E182801377F70F93F7F70F0A
:105700003305F74082800346050083C60500050582
:1057100085056313D60065FA3305D64082801105EE
:105720009105E312D6FE014582802105A105E31C07
:10573000D6FC014582803105B105E316D6FC014552
:1057400082804105C105E310D6FC01458280AA870D
:1057500003C7050085078505A38FE7FE75FB8280DB
:10576000AA87850703C7F7FF6DFF3385A7407D151F
:105770008280AA8709CA850503C7F5FF85077D16BC
:10578000A38FE7FE65FB3E966393C7008280850783
:10579000A38F07FED5BF45712326111C2322911C20
:1057A0002320211D232E311B2328611BAE89B284A7
:1057B000368B2324811C232C411B232A511B232697
:1057C000711B2324811B2322911B2320A11B232E29
:1057D000B1192A89EFE03FB21C413E853ED44937DA
:1057E00083D7C9002ACA82C982CB82CD82CF93F7E0
:1057F000070885CB83A709018DE7930500044A8537
:10580000EFE09FCD23A0A90023A8A90019E5B14787
:105810002320F900FD573ECC61A39307000423AA7F
:10582000F900FC11BEC382C782C5014A3E8C02DA70
:1058300002D802C202D202D602CC2684130750023A
:105840008347040099C36394E708B30A9440638CC8
:105850000A02BE4723209C0023225C01D697BEC7C4
:10586000AE471D47210C8507BEC5635BF700D0011D
:10587000CE854A85EF201020631E0550130CC10E03
:10588000E247D6973ECC8347040099E36F10E04A85
:1058900093071400A303010AFD5D02CE0144A94B46
:1058A000254D930CA00283CA0700138717003AC83E
:1058B0009306A00593870AFEE3E2F65017970000CF
:1058C0001307C7378A07BA979C43BA97828705049C
:1058D00085BF4A85EFE03FA25C413E853ED6493513
:1058E0002AD24A85EFE03FA11C453EC2925781CBA8
:1058F000924791C783C7070099C313640440C24706
:105900005DB78347710AE5FF93070002A303F10A1D
:10591000FDB713641400E5B783270B00110B3ECECF
:10592000E3DF07FCB307F0403ECE13644400C1BF81
:105930009307B002E1BF4247C247834A0700850789
:1059400063999A03832D0B0013074B0063D30D005B
:10595000FD5D3A8B3EC865B733837D03850783CAF7
:10596000F7FFB30DE30013870AFDE377EDFE3EC8B2
:1059700091B7814DCDBF1364040851B7C24702CE21
:105980007247938A0AFD850733077703569783CAC0
:10599000F7FF3ACE13870AFDE374EDFEC9BF136427
:1059A0008400B1BFC24703C707009307800663188E
:1059B000F700C2471364042085073EC889B7136403
:1059C000040435BFC24703C707009307C006631826
:1059D000F700C24785073EC8136404020DB713647D
:1059E000040131BF93074B003EC683270B00A3037E
:1059F000010A2306F112014B854D014D02C4814B72
:105A0000814C64126AD06353BD016ED00347710AA2
:105A100001C7825785073ED0937724003EDC81C7BB
:105A2000825789073ED0937744083EDEA9EBF247C0
:105A300002573387E7406354E004C14E179E0000CD
:105A4000130E8E361D4FAE462320CC013E468506F2
:105A500093058C00E3CDEE362322EC003297BAC7D3
:105A6000B6C51D472E8C635CD700D001CE854A8514
:105A7000EF20500019C16F102028130CC10E0347EE
:105A8000710A05CF1307710A2320EC000547232272
:105A9000EC003E479D46210C0507BAC72E47050777
:105AA000BAC563DCE600D001CE854A85EF20807C54
:105AB00019C16F106024130CC10EE2579DCB381131
:105AC0002320EC0009472322EC003E479D46210C91
:105AD0000907BAC72E470507BAC563DCE600D0013F
:105AE000CE854A85EF20007919C16F10E020130C94
:105AF000C10EF257130700086399E704F2470257F3
:105B0000998F6354F00441481D4E2E47979500002D
:105B10009385852A2320BC00BE46050713068C000A
