:020000042001D9
:100000009721FF5F938181A097D200009382C22F36
:10001000739052301701FFDF1301C1FE9700FFDF1D
:10002000938040FE638300008290732540F18145F8
:1000300001460D209700FFDF9380C0FC6383000022
:100040008290970200009382C20073905230032383
:100050000000F5BF06849721FF5F9381219B173134
:10006000FF5F130161A3137101FF01E1971201000A
:10007000938202251703FF5F1303C3F89713FF5FF3
:100080009383031E638C6200635A730003A502000E
:1000900091022320A3001103E34A73FE971201008B
:1000A000938202221703FF5F1303C3F59703FF5FD9
:1000B000938343F5638C6200635A730003A50200C7
:1000C00091022320A3001103E34A73FE1713FF5F7D
:1000D00013030319938301896357730023200300DB
:1000E0001103E34D73FE11C2029617D500001305EC
:1000F000253EEFD0603AEFD00041F32710303707AC
:10010000010013078702F98F99C7F32700300967A9
:10011000D98F739007300545970501009385C56A0F
:10012000170601001306866AEF10502CEFD0203816
:06013000A28082808280A3
:1001800093061000634ED60083A605002320D500F9
:1001900093854500130545001306F6FFE31606FE9A
:1001A0006780000083258500139645001376060FAF
:1001B0008326450013D766013308C7000327C5000F
:1001C0009317670093F7070C13D64501B308F600A1
:1001D0008327050113D687012320C50413F6F70FE3
:1001E000232AC50213D607011376F60F232EC50264
:1001F00013D687001376F60F232CC502135627015A
:100200001376F60F2328C5021356A7001376F60FB0
:100210002326C502135627001376F60F2324C502A2
:1002200013D6C5001376F60F2320C50293D54500DB
:1002300093F5F50F232EB50093D5E60093F5F50F52
:10024000232AB50093D5660093F5F50F2328B50052
:1002500023221503232C05018325050013D6050150
:100260001376F60F2324C50013D685001376F60FF8
:100270002322C500139626001376C60F93D6850158
:100280003386C6002326C50093F5F50F2320B5005D
:1002900067800000130101FC232E1102232C910220
:1002A000232A210323283103232641032324510336
:1002B0002322610323207103232E810113090500EA
:1002C00003AA450083A9050083244600832A06006B
:1002D00033859A409355F541338649419356F6410B
:1002E00097D00000E780A0F9130B05001395650077
:1002F0009355AB01B3EBA5001385040093050000F3
:1003000013060A009306000097D00000E78020F74C
:10031000130C0500139565009355AC0133EAA50055
:1003200013850A0093050000138609009306000058
:1003300097D00000E780A0F4939565001356A501BF
:10034000B365B600370600049304F6FF33769C00CD
:10035000B305B60033864501B309764133769B0079
:10036000B37A950033855501330BC54023265101DF
:10037000232C410123286101232A310193055000D8
:100380000325490197D00000E78000EEB305550131
:1003900033B5A5001315650013D6A5013365A60076
:1003A000330665013335A600131565009356A60183
:1003B00033E5A600B3F595002320B900B305350158
:1003C00033B5A5001315650093D6A50133E5A60046
:1003D000337696002322C900B3F595002324B90093
:1003E000B305450133F695002326C90033B5A500B2
:1003F0001315650093D5A50133E5A5002328A900B1
:10040000032CC101832B0102032B4102832A8102A9
:10041000032AC102832901030329410383248103A1
:100420008320C1031301010467800000130101FA56
:10043000232E1104232C9104232A2105232831057E
:10044000232641052324510523226105232071051C
:10045000232E8103232C9103232AA1032328B103F4
:10046000232CA10083A68500232AD10083AC05009C
:100470003385DC40B3B6DC001397A601330DE500ED
:10048000032786002328E100832A06003385EA40FB
:1004900033B7EA009317A701B30DF50003AB45008E
:1004A0003309DB40832B4600B389EB4033853D4164
:1004B0009355F54133062D419356F64197D00000F0
:1004C000E780E0DB2326A100139665009355A50184
:1004D00033E5C5002324A10033857A419355F541C6
:1004E00033866C419356F64197D00000E78020D9BF
:1004F000130C0500138A050013850D0093050000F9
:1005000013060D009306000097D00000E78020D767
:10051000130D0500139565009355AD01B3EDA500CE
:1005200013850900930500001306090093060000D7
:1005300097D00000E780A0D4130905009389050037
:10054000370500049304F5FF33759900B30DB50129
:1005500013850A009305000013860C009306000023
:1005600097D00000E780A0D1930A0500139565009D
:1005700093D5AA01B3ECA50013156A009355AC01FD
:1005800033EAA50013850B009305000013060B004A
:100590009306000097D00000E78060CE9395650039
:1005A0001356A501336BB6003375950033059501DD
:1005B000939569001356A9013369B600B3852D01DF
:1005C00003268100B38BC5408325C100B3F5950098
:1005D000B37C9D0033869D01330DB640B3056501A4
:1005E000338A4541B3759C00B3FA9A00330555012F
:1005F000330CB5400325010193050000032641019A
:100600009306000097D00000E78060C793090500BB
:100610001395650093D5A90133E5A5009355AD0168
:10062000B38B7501B3B5BB009395650013D6AB01D1
:10063000B365B600B38525011356AC01330A4601F4
:100640003336CA00131666009356AA0133E6C60075
:100650003306660133769600330BA60033F595001A
:100660003305AB40130950009305090097D00000F3
:10067000E78080BFB3F5990033769A00B305B600E2
:10068000B3799C0033063B01B3769D00330AD64014
:1006900033F69B00338BC540B3855501B38B954131
:1006A000B30A55012320310323227103232661035A
:1006B00023244103232E5101032C810103254C01E6
:1006C0009305090097D00000E78000BAB30A5501EE
:1006D00033B5AA001315650093D5AA0133E5A5002B
:1006E000B309350133B5A9001315650093D5A901E8
:1006F00033E5A500B30B750133B5AB0013156500E9
:1007000093D5AB0133E5A500330A45013335AA0083
:10071000131565009355AA0133E5A500330B650158
:100720003335AB00131565009355AB0133E5A500D8
:1007300093050000130609009306000097D00000FF
:10074000E780E0B333F69A003306C5003335A600E0
:100750003385A500931565009356A601B3E5B60051
:10076000B3F69900B386D500B3B5B6001355A5010D
:100770003305B500B37596002320BC001315650042
:1007800093D5A60133E5A500B3F59B00B305B500ED
:1007900033B5A5001315650013D6A5013365A60072
:1007A00033F696002322CC00B3F595002324BC0039
:1007B000B3759A0033769B00B305B500B3F6950088
:1007C0002326DC0033B5A5001315650093D5A501DC
:1007D00033E5A5003305A6002328AC00832D0103D3
:1007E000032D4103832C8103032CC103832B0104BC
:1007F000032B4104832A8104032AC10483290105B0
:1008000003294105832481058320C10513010106C5
:1008100067800000130101ED232611122324911299
:100820002322211323203113232E4111232C511174
:10083000232A611123287111232681112324911168
:100840002322A1112320B11193090600138D050065
:10085000130A050003A505002328A10A03A54500E6
:10086000232AA10A03A58500232CA10A032506003B
:100870002322A10A032546002324A10A032586007A
:100880002326A10A1305C10B9305010B1306410A88
:1008900097000000E780C0B9130541071306000365
:1008A0009305000097200000E780A08183AA09013A
:1008B00003ABC90033055B419355F541832B0D0113
:1008C000032CCD0033067C419356F64197D00000AF
:1008D000E780E09A930C05001395650093D5AC0171
:1008E000B3EDA50013850A009305000013860B00E5
:1008F0009306000097D00000E780609893040500FD
:100900001395650093D5A40133E9A50013050B00E9
:100910009305000013060C009306000097D000001A
:10092000E780E095939565001356A501B365B60081
:10093000370600041306F6FFB3F6C400B385B6000D
:10094000B3862501B386B64133F7CC003375C500B5
:10095000B385A500B385E5402320A10613D5A501E5
:10096000B306D50033B5A6001315650013D7A6014D
:100970003365A700B3F5C5002322B106B3F5C60061
:100980002324B106B305250133F6C5002326C1068D
:1009900033B5A5001315650093D5A50133E5A50072
:1009A0002328A10603258D00232CA10003254D003B
:1009B00083250D00338685412328C100B3B5850109
:1009C000330675413306B6403305B54033357501FE
:1009D0003305A640232AA10003A589002326A100F0
:1009E00003A5490083A50900338665412322C10080
:1009F000B3B56501330655413306B6403305B540FE
:100A0000333555013305A6402324A1009309C101C4
:100A100093050101130641001385090097000000AA
:100A2000E78000A10325410C9315450093F5050FC0
:100A30000326010C93566601B385B6008326810C0C
:100A4000139766001377070C935745013387E70028
:100A50008327C10C93D48701232E910E93F4F70FB3
:100A60002328910E93D4070193F4F40F232C910EB5
:100A700093D7870093F7F70F232AF10E93D7260118
:100A800093F7F70F2326F10E93D7A60093F7F70FEE
:100A90002324F10E93D6260093F6F60F2322D10ECF
:100AA0009356C50093F6F60F232ED10C135545002F
:100AB0001375F50F232CA10C1355E6001375F50FD4
:100AC0002328A10C135566001375F50F2326A10CDE
:100AD0002320E10E232AB10C131526001375C50F30
:100AE0008325C10B13D685013305A60013D68500D7
:100AF0001376F60F2320C10C13D605011376F60FDB
:100B00002322C10C2324A10C13F5F50F232EA10AD7
:100B100003250107935585012320B10A9375F50F2D
:100B2000232AB1089355050193F5F50F232EB1083B
:100B3000135585001375F50F232CA1080325C10655
:100B40009355250193F5F50F2328B1089355A5007A
:100B500093F5F50F2326B1089355250093F5F50F6E
:100B60002324B108131565001375050C8325810630
:100B700013D645013305A6002322A10813D5C500CD
:100B80001375F50F2320A10813D545001375F50F34
:100B9000232EA106139545001375050F83254106E5
:100BA00013D665013305A600232CA10613D56500D5
:100BB0001375F50F2328A10613D5E5001375F50F5E
:100BC000232AA106139525001375C50F8325010659
:100BD00013D685013305A6002326A10613D585006B
:100BE0001375F50F2322A10613D505011375F50F13
:100BF0002324A10613F5F50F2320A1060325C10226
:100C000093558501232EB1049355050193F5F50FF6
:100C1000232CB1049355850093F5F50F232AB104D5
:100C20001375F50F2328A10403258102935525018F
:100C300093F5F50F2326B1049355A50093F5F50F11
:100C40002324B1049355250093F5F50F2322B10415
:100C5000131565001375050C8325410213D6450154
:100C60003305A6002320A10413D5C5001375F50F85
:100C7000232EA10213D545001375F50F232CA102D5
:100C8000139545001375050F8325010213D66501E1
:100C90003305A600232AA10213D565001375F50FAD
:100CA0002326A10213D5E5001375F50F2328A10211
:100CB000139525001375C50F8325C10113D6850132
:100CC0003305A60013F6F50F232EC1002324A1023D
:100CD00013D505011375F50F2322A10213D5850045
:100CE0001375F50F2320A102930410011305C10B06
:100CF0009385040097100000E780009F130501060C
:100D00009385040097100000E780009E138509007A
:100D10009385040097100000E780009D8329410C13
:100D2000832A810633853A01832541023305B54084
:100D3000032B0106330565011309500093050900D3
:100D400097C00000E7804052832BC10B330575012B
:100D50002320AA00032C810C8324C106338584013F
:100D6000832581023305B540832C41063305950167
:100D70009305090097C00000E780004F032D010C88
:100D80003305A5012322AA00138504009305090059
:100D900097C00000E780404DB3057B01B385850116
:100DA000338BA5008324C10C338554018325C102F4
:100DB0003305B5409305090097C00000E780C04A9D
:100DC000B385AC01330535012324AA000325C101F5
:100DD0003305AB40B38595002326AA000325010205
:100DE0003385A5402328AA00832D0110032D41102F
:100DF000832C8110032CC110832B0111032B411173
:100E0000832A8111032AC111832901120329411266
:100E1000832481128320C112130101136780000013
:100E2000130101EC232E1112232C9112232A2113DA
:100E30002328311323264113232451132322611322
:100E400023207113232E8111232C9111232AA11108
:100E50002328B111938D0600130D06009389050018
:100E60002324A100034517001315850083450700BF
:100E70003365B50083452700939505013365B500BB
:100E80008345370013F63500131686013365C50018
:100E9000232CA10A13D5250013753500834547007F
:100EA00093F5C50F9395650033E5A500834557007D
:100EB0009395E5003365B5008345670013F6F500AB
:100EC000131666013365C500232EA10A13D545000C
:100ED000830577009395450033E5A5001375F50F5D
:100EE0008345870093F5C50F9395C50033E5A500AD
:100EF0008345970013F6F503131646013365C500C5
:100F00002320A10C13D565008345A70093952500E8
:100F100033E5A5008345B70093F5F5009395A5004B
:100F20003365B5008345C70093F5C50F939525013B
:100F30003365B5002322A10C0345E7001315850096
:100F40008345D7003365B5002322E1008345F700D0
:100F500093F5F500939505013365B5002324A10CA5
:100F60001305410713064004930500009710000085
:100F7000E78020153365BD01630A054413090103A9
:100F8000130AA001930A7000930BF0FF930C200149
:100F9000370500041305F5FF2324A102130B810B71
:100FA000130CC0FF93070000130700009308000014
:100FB00093060000130800002326E1002328F10017
:100FC000232A1101232ED100232601031305090032
:100FD000930500001306400497100000E780600EA0
:100FE00093050A0013050000930400001308F000A5
:100FF000930880FF63C4BA0433869900B396BB009C
:1010000093C6F6FF03470600B376D7003307BA400E
:10101000B396E600131725003307E900832707007E
:10102000B386F6002320D700034606003356B600E9
:101030001305150093860C006F0080013306BA403B
:10104000B386990083C606003396C60093860800CF
:10105000131725003307E900832707003306F6003E
:101060002320C700B385D5009384140063609802E1
:10107000638A0D0033C60D003336C000E31C06F64C
:101080006F00C00033B6A401E31606F62320A103C7
:101090002322B103130610000327C1016388050052
:1010A0003306BA40930610003396C600232C9100F5
:1010B000B3C5050093B515003305B500131525001C
:1010C0003305A90083250500B385C5002320B5009D
:1010D000032501038325C1023305B5009355A501FE
:1010E000B305B70003264103B385C50013D6A50198
:1010F000832641013386C600832681033306D6004A
:101100009356A6010327C100B306D7000327810227
:101110003375E500232AA1060325C1033385A60004
:101120009356A50183270101B386D700B3F5E500E7
:10113000232CB10683250104B385B6003375E50081
:101140003376E600232EC1062320A1082322B1080E
:1011500093890901232E3101130D810793090000A2
:10116000930A0000930C0000930B0000130A500038
:10117000938409001309410733059B0003250500EB
:1011800003260900930500009306000097C00000A5
:10119000E780E00EB3857501B30C950133B5AC0063
:1011A000B38BA500130949009384C4FFE39684FD23
:1011B00013851A00130940002326A10293040A0094
:1011C000636AA904130A0D00930D810C03250A001C
:1011D00003A60D00930500009306000097C00000D1
:1011E000E780E009138604009306000097C0000022
:1011F000E780E008B3857501B30C950133B5AC0009
:10120000B38BA500130A4A00938DCDFF1309F9FF94
:10121000E39E2AFB13952A009305C10C3385A50094
:1012200083258102B3F5BC002320B50013D5AC01A2
:1012300093956B00B36CB500130D4D009389490075
:1012400093DBAB41138A0400832AC102E3929AF232
:1012500013850C0093050A0097C00000E780C000CA
:101260008325C10C3309B5003335A900131565007A
:101270009355A90133E5A500032D01020326810141
:10128000B335CD00330DCD40832D4102B38DBD402C
:101290002320910F232491098325010DB30BB50061
:1012A00033B5AB001315650093D5AB0133E5A5004D
:1012B0008325410DB309B50033B5A90013156500A9
:1012C00093D5A90133E5A5008325810D13060A00F6
:1012D000330AB5003335AA00131565009355AA01EA
:1012E00033E5A5008325C10DB30AB50033B5AA00C7
:1012F0001315650093D5AA0133E5A50093050000F9
:101300009306000097C00000E78060F78324810205
:10131000337699003306C5003335A6003385A50022
:10132000931565009356A601B3E5B600B3F69B008E
:10133000B386D500B3B5B6001355A5013305B50086
:101340001315650093D5A60133E5A500B3F5990003
:10135000B305B50033B5A5001315650013D7A50176
:101360003365A70033779A003307E5003335A700CC
:10137000131565009357A70133E5A700B3F79A004B
:10138000B387A700B3F89500B3F6960033789600BC
:10139000337797003365BD01232A0107232CD1063B
:1013A000232E11072320E1082322F1088329C101FC
:1013B00013090103130AA001930A7000930BF0FFB5
:1013C000930C2001E31A05BE6F0080011308000092
:1013D0009306000093080000130700009307000025
:1013E000139548001375050F93D5660133E5A500E5
:1013F0009315670093F5050C13D64801B365B60045
:1014000013D68701232AC10A13F6F70F2324C10A32
:10141000135627012322C10A13D607011376F60FAC
:101420002328C10A13D687001376F60F2326C10A94
:101430001356A7001376F60F2320C10A1356270070
:101440001376F60F232EC10813D6C8001376F60FB5
:10145000232AC10813D648001376F60F2328C108A3
:1014600013D6E6001376F60F2324C10813D66600C0
:101470001376F60F2322C108135608011376F60FD0
:10148000232EC106135688001376F60F232CC106AF
:10149000232CB1082326A108139526001375C50F28
:1014A0009355880133E5A5002320A1081379F80F8F
:1014B000232A2107130AC10C930A41079309400408
:1014C00013050A0093850A0013860900971000008F
:1014D000E780C0B3130659001375F60F232AA1063F
:1014E00013058107B70502209386859C93050004A8
:1014F00013070000B307E5001356860083A4070016
:101500003386C400B304D70083A444003306960096
:101510009374F60F23A0970013074700E31CB7FC52
:101520000326410B135676003306C0409306000095
:101530003307DA0003270700B387DA0083A4070024
:1015400033C7E4003377C7003347970023A0E70091
:1015500093864600E39E36FD0327410003460701BC
:101560002328C10283461701232AD102834627017B
:10157000232CD10283463701232ED1028346470113
:101580002320D104834657012322D10483466701D7
:101590002324D104834677012326D104834687017F
:1015A0002328D10483469701232AD1048346A70127
:1015B000232CD1048346B701232ED1048346C701CF
:1015C0002320D1068346D7012322D1068346E70193
:1015D0002324D1068346F7012326D10623280106BA
:1015E000832641073387C6001376F70F232AC106E7
:1015F0001306410393060000B307D5001357870075
:1016000083A407003387E400B304D60083A4040056
:10161000330797009374F70F23A097009386460033
:10162000E39CB6FC03254107832581002380A500A8
:1016300003258107A380A5000325C1072381A500F9
:1016400003250108A381A500032541082382A500E5
:1016500003258108A382A5000325C1082383A500D3
:1016600003250109A383A500032541092384A500BF
:1016700003258109A384A5000325C1092385A500AD
:101680000325010AA385A5000325410A2386A50099
:101690000325810AA386A5000325C10A2387A50087
:1016A0000325010BA387A50013050000832D01115D
:1016B000032D4111832C8111032CC111832B0112A5
:1016C000032B4112832A8112032AC1128329011399
:1016D00003294113832481138320C11313010114AF
:1016E00067800000130101FF2326110023249100CD
:1016F000232221012320310193040500130510004A
:1017000063C6A50213890500370502209309C5A009
:1017100083A504001385090097100000E780E0A668
:10172000938444001309F9FFE31409FE1305A00094
:101730008329010003294100832481008320C10003
:101740001301010117130000670043A7130101FFF4
:10175000232611002324910023222101232031017B
:10176000930405001305100063C6A5021389050044
:1017700037050220930965A183C50400138509007C
:1017800097100000E78060A0938414001309F9FF0C
:10179000E31409FE1305A000832901000329410079
:1017A000832481008320C10013010101171300006D
:1017B0006700C3A0130101F32326110C2324910C0D
:1017C0002322210D2320310D37D5F880130585FC08
:1017D000232EA10A37651FA41305D552232CA10A75
:1017E00037254E651305E538232AA10A3745121D12
:1017F000130555922328A10A37553C25130515D208
:101800002326A10A3715C2CB1305D5162324A10A16
:10181000372572911305C5E12322A10A37A5A72513
:101820001305E56E2320A10A37050220930525A69E
:101830009304D1011309300813850400130609002D
:1018400097000000E780807C1305D1001307010A90
:1018500093850400130609009306000097F0FFFF2C
:10186000E780405C370900809304090003450900C4
:101870008345D1006316B50C0345E10083C5140010
:101880006390A50C0345F10083C52400639AA50A63
:101890000345010183C534006394A50A0345110182
:1018A00083C54400639EA5080345210183C55400F8
:1018B0006398A5080345310183C564006392A508B8
:1018C0000345410183C57400639CA506034551018E
:1018D00083C584006396A5060345610183C5940012
:1018E0006390A5060345710183C5A400639AA5040E
:1018F0000345810183C5B4006394A50403459101A8
:1019000083C5C400639EA5020345A10183C5D4001D
:101910006398A5020345B10183C5E4006392A50263
:101920000345C10183C5F400639CA500370502206F
:101930001305F5A197100000E78020976F0000279E
:1019400037050220130525A397100000E780E095D6
:1019500037050220130595A497100000E780E09456
:101960008345090037050220930935A11385090035
:1019700097100000E780608183C51400138509007B
:1019800097100000E780608083C52400138509005C
:1019900097000000E780607F83C53400138509004D
:1019A00097000000E780607E83C54400138509002E
:1019B00097000000E780607D83C55400138509000F
:1019C00097000000E780607C83C5640013850900F0
:1019D00097000000E780607B83C5740013850900D1
:1019E00097000000E780607A1309A0001305090042
:1019F00097000000E780807C83C584001385090080
:101A000097000000E780607883C594001385090083
:101A100097000000E780607783C5A4001385090064
:101A200097000000E780607683C5B4001385090045
:101A300097000000E780607583C5C4001385090026
:101A400097000000E780607483C5D4001385090007
:101A500097000000E780607383C5E40013850900E8
:101A600097000000E780607283C5F40013850900C9
:101A700097000000E78060711305090097000000DF
:101A8000E780C073370502201305A5A59710000055
:101A9000E780A0818345D1001385090097000000ED
:101AA000E780A06E8345E1001385090097000000E0
:101AB000E780A06D8345F1001385090097000000C1
:101AC000E780A06C834501011385090097000000A1
:101AD000E780A06B83451101138509009700000082
:101AE000E780A06A83452101138509009700000063
:101AF000E780A06983453101138509009700000044
:101B0000E780A06883454101138509009700000024
:101B1000E780A0671305090097000000E780006ACE
:101B2000834551011385090097000000E780E065B7
:101B3000834561011385090097000000E780E06498
:101B4000834571011385090097000000E780E06379
:101B5000834581011385090097000000E780E0625A
:101B6000834591011385090097000000E780E0613B
:101B70008345A1011385090097000000E780E0601C
:101B80008345B1011385090097000000E780E05FFD
:101B90008345C1011385090097000000E780E05EDE
:101BA0001305090097000000E78040618329010CBC
:101BB0000329410C8324810C8320C10C1301010DE6
:101BC00067800000130101FF232611009305050023
:101BD000370502201305B5A197000000E780E05A01
:101BE0008320C1001301010167800000130101FA85
:101BF000232E1104232C9104930441011306400465
:101C0000138504009305000097000000E780604BF7
:101C100037453E02130575422326A10037E55001E2
:101C20001305D50F2324A10037B535021305A57A76
:101C30002322A10037D58E031305A59D2320A100E3
:101C4000930581001306010013850400970000002E
:101C5000E780C01A032541019355A50103268101A0
:101C6000B305B60013D6A5018326C1013386C6008D
:101C7000B70600049386F6FF3375D500232AA1002A
:101C800033F5D500232CA1003375D600232EA100F7
:101C90001355A601832501023385A500B375D50030
:101CA0002320B1021355A501832541023385A500E8
:101CB0002322A1021385040097E0FFFFE780C04EB6
:101CC000370502209304C5A0832541011385040034
:101CD00097000000E780604B832581011385040095
:101CE00097000000E780604A8325C1011385040046
:101CF00097000000E78060498325010213850400F6
:101D000097000000E78060488325410213850400A6
:101D100097000000E7806047832581021385040057
:101D200097000000E78060468325C1021385040008
:101D300097000000E78060458325010313850400B8
:101D400097000000E7806044832541031385040069
:101D500097000000E780604383258103138504001A
:101D600097000000E78060428325C10313850400CB
:101D700097000000E780604183250104138504007B
:101D800097000000E780604083254104138504002C
:101D900097000000E780603F8325810413850400DD
:101DA00097000000E780603E8325C104138504008E
:101DB00097000000E780603D83250105138504003E
:101DC00097000000E780603C8325410513850400EF
:101DD00097000000E780603B1305A000970000001B
:101DE000E780C03D13050000832481058320C105E1
:101DF0001301010667800000130101FE232E8100FC
:101E0000232C9100232A210123283101232641017B
:101E10002324510123226101232011001304050012
:101E200003A5050093840500832506001309060019
:101E3000EF00C00A2320A400B309B50003A54400A5
:101E4000138A050083254900EF004009B389A900E2
:101E500083A2040003A3440083230900032E490046
:101E6000330AAA00330ABA002326B400B3826240C0
:101E700093DAF241B383C34113DBF341B3825201DE
:101E800033C55201B3836301B3C56301EF0000059D
:101E9000B3CA6A013305550133455501B389A940D9
:101EA000B3855501B3C55501330ABA402322340125
:101EB000232444010324C101832481010329410116
:101EC00083290101032AC100832A8100032B4100D9
:101ED0008320010013010102678000001306000047
:101EE0009306000013F3150033036040337365005D
:101EF000B38666001315150093D5150013F315006E
:101F00003303604033736500B38666001315150014
:101F100093D5150013F31500330360403373650048
:101F2000B38666001315150093D5150013F315003D
:101F30003303604033736500B386660013151500E4
:101F400093D5150013F31500330360403373650018
:101F5000B38666001315150093D5150013F315000D
:101F60003303604033736500B386660033B36600A5
:101F70001307030093D515001353F501130603004F
:101F80001315150013F3150033036040B373660097
:101F900033736500B306D30033B3660033076700BD
:101FA000330777009307300193D5150013161600F9
:101FB0001353F501330666001315150013F31500CE
:101FC00033036040B373660033736500B306D30018
:101FD00033B3660033076700330777009387F7FF53
:101FE000E39407FC13D3A6011317670033076700B8
:101FF000370300041303F3FFB3F6660013850600EE
:102000009305070067800000B3C7A5008D8B3307D9
:10201000C50081E78D4763EEC700AA876370E50AB4
:1020200083C6050085078505A38FD7FEE3EAE7FE93
:10203000828093763500AA8791CA83C605008507FA
:102040008505A38FD7FE93F63700FDB79376C7FFBC
:10205000138606FE63F0C70683A3050083A245002E
:1020600083AF850003AFC50083AE050103AE450114
:1020700003A3850183A8C5019385450223A07700AA
:1020800003A8C5FF23A2570023A4F70123A6E70155
:1020900023A8D70123AAC70123AC670023AE1701E9
:1020A0009387470223AE07FF75B7904191079105CB
:1020B00023AEC7FEE3EBD7FEE3E4E7F682803D43C1
:1020C0002A876373C3029377F700BDEFADE593767C
:1020D00006FF3D8ABA960CC34CC30CC74CC74107D8
:1020E000E36BD7FE11E28280B306C3408A069702F3
:1020F000000096966780A6002307B700A306B700E6
:102100002306B700A305B7002305B700A304B70053
:102110002304B700A303B7002303B700A302B7004B
:102120002302B700A301B7002301B700A300B70043
:102130002300B700828093F5F50F93968500D58D27
:1021400093960501D58D61B79396270097020000FD
:1021500096968682E78086FA9680C1171D8F3E96F6
:10216000E374C3F8A5B7397132D436D63AD83EDA1B
:1021700042DC46DE2E860C45341006CE36C6A12241
:10218000F24021618280397132D436D63EDA2ED2C5
:102190003AD842DC46DE97F7FE5F938727079C43D9
:1021A00054102A868C473E8506CE36C6292AF24030
:1021B00021618280104511A897F7FE5F938707057C
:1021C0009C43AA8590473E8509A0011122CC06CEEA
:1021D0002A8409C91C5D99E732C62EC4EF10103B52
:1021E0003246A2451C46FD171CC663D00702184E96
:1021F00063C7E70093F7F50F29476398E700228547
:102200006244F24005616F1000771C4213F5F50F30
:102210001387170018C22380B700F240624405619B
:10222000828097F7FE5F938767FE2E86AA85884394
:1022300069BF397122DC2A842E852EC606DE9D28D0
:1022400097E700009387878A3ED485473ED61C10C7
:10225000B2453ECA89473ECC1C5C2AD205052ED029
:102260002ACE0C4491E722852EC6EF103032B245BB
:102270008397C50013972701634B07008966F851C0
:10228000D58F2396F500F977FD17F98FFCD150080B
:102290002285EF10506BFD5711E1A947F2506254AF
:1022A0003E852161828097F7FE5F938727F6AA8596
:1022B000884341B7AA87850703C7F7FF6DFF3385BA
:1022C000A7407D15828045712326111C2322911C75
:1022D0002320211D232E311B2328611B2E89B2842C
:1022E000368B2324811C232C411B232A511B23269C
:1022F000711B2324811B2322911B2320A11B232E2E
:10230000B119AA89EF3070001C413E853ED45D377B
:102310002ACA82C982CB82CD82CF6388090083A773
:10232000890381E74E85EF1070268317C900139744
:102330002701634D0700896603274906D58F2316B9
:10234000F900F977FD17F98F2322F9068357C900A1
:10235000A18B95C7832709019DC38357C9002947CE
:10236000E98B6392E7068317E90063CE0704DA86F8
:102370002686CA854E85EF1060572ACC01A8CA85EB
:102380004E85EF10606B71D9FD573ECC8320C11C88
:102390000324811C62458324411C0329011C8329D9
:1023A000C11B032A811B832A411B032B011B832B87
:1023B000C11A032C811A832C411A032D011A832D73
:1023C000C11979618280FC11BEC382C782C5014AEE
:1023D0003E8C02DA02D802C202D202D602CC268495
:1023E000130750028347040099C36394E708B30AB4
:1023F0009440638C0A02BE4723209C0023225C0188
:10240000D697BEC7AE471D47210C8507BEC5635B87
:10241000F700D001CA854E85EF60004A631E055063
:10242000130CC10EE247D6973ECC8347040099E3D4
:102430006F10204793071400A303010AFD5D02CE2D
:102440000144A94B254D930CA00283CA07001387B2
:1024500017003AC89306A00593870AFEE3E6F64CF8
:1024600017D700001307C7688A07BA979C43BA9723
:102470008287050485BF4E85EF3020695C413E852B
:102480003ED60D3D2AD24E85EF3020681C453EC217
:10249000925781CB924791C783C7070099C31364B2
:1024A0000440C2475DB78347710AE5FF9307000206
:1024B000A303F10AFDB713641400E5B783270B00EB
:1024C000110B3ECEE3DF07FCB307F0403ECE1364B2
:1024D0004400C1BF9307B002E1BF4247C247834AED
:1024E0000700850763999A03832D0B0013074B00A0
:1024F00063D30D00FD5D3A8B3EC865B733837D0322
:10250000850783CAF7FFB30DE30013870AFDE3775E
:10251000EDFE3EC891B7814DCDBF1364040851B79D
:10252000C24702CE7247938A0AFD850733077703B5
:10253000569783CAF7FF3ACE13870AFDE374EDFE80
:10254000C9BF13648400B1BFC24703C70700930724
:1025500080066318F700C2471364042085073EC84D
:1025600089B71364040435BFC24703C70700930744
:10257000C0066318F700C24785073EC8136404020B
:102580000DB71364040131BF93074B003EC6832788
:102590000B00A303010A2306F112014B854D014DE7
:1025A00002C4814B814C64126AD06353BD016ED06A
:1025B0000347710A01C7825785073ED093772400ED
:1025C0003EDC81C7825789073ED0937744083EDEC0
:1025D000A9EBF24702573387E7406354E004C14E4A
:1025E00017DE0000130E8E671D4FAE462320CC0170
:1025F0003E46850693058C00E3C1EE342322EC00B1
:102600003297BAC7B6C51D472E8C635CD700D00180
:10261000CA854E85EF60402A19C16F10A024130CA3
:10262000C10E0347710A05CF1307710A2320EC007E
:1026300005472322EC003E479D46210C0507BAC7FB
:102640002E470507BAC563DCE600D001CA854E8572
:10265000EF60802619C16F10E020130CC10EE25705
:102660009DCB38112320EC0009472322EC003E4784
:102670009D46210C0907BAC72E470507BAC563DC7A
:10268000E600D001CA854E85EF60002319C16F10A6
:10269000601D130CC10EF257130700086399E7047D
:1026A000F2470257998F6354F00441481D4E2E475C
:1026B00097D500009385855B2320BC00BE460507A7
:1026C00013068C00E346F82A2322FC00B697BEC707
:1026D000BAC59D46328C63DCE600D001CA854E85C2
:1026E000EF60801D19C16F10E017130CC10E330D80
:1026F000BD416354A005C1471D482E47BE46130681
:102700008C000507E3CDA7292322AC0197D7000051
:102710009387C755369D2320FC00EAC7BAC59D465E
:10272000328C63DCE600D001CA854E85EF60C018AC
:1027300019C16F102013130CC10E137704103E4DF6
:10274000E31A0728AE473383AD0123209C00850799
:102750002322BC019AC7BEC51D47210CE35FF74485
:10276000D001CA854E85EF60201519C16F10800F0A
:10277000130CC10E6F0070441364040193770402BC
:10278000A9CF1D0B137B8BFF032D0B00832C4B005C
:1027900093078B003EC663C40C006F10E011330D2D
:1027A000A041B337A001B30C9041B38CFC40930718
:1027B000D002A303F10A85477D57E386ED04228703
:1027C000B3669D011374F4F7E39F0602E3840D14CE
:1027D0000547E39DE7026F10200F93074B003EC6AD
:1027E0009377040191C7032D0B00935CFD4165B7FE
:1027F00093770404032D0B0089C7420D135D0D412F
:10280000EDB793770420F5D3620D135D8D41F1BFD1
:1028100093778400B5CF93074B003EC683270B0008
:102820009043D4439847DC47B2C9B6CBBACD8809A8
:10283000BECFEF3040292AD789476310F508CE472D
:102840000C0108093EC9DE4702C102C33ECBEE4778
:1028500002C502C73ECDFE473ECFEF801021635632
:1028600005009307D002A303F10A9307700497D4DD
:1028700000009384A44063D6570197D4000093844A
:1028800024401374F4F7014B8D4D014D6F00E07C33
:102890001D0B137B8BFF83250B0003264B00930737
:1028A0008B0008093EC6EFA0A063CA47BEC9DA473D
:1028B000BECBEA47BECDFA479DBF85476316F502FA
:1028C000FE4763D607009307D002A303F10A9307DC
:1028D000700497D400009384E43AE3D457FB97D470
:1028E00000009384643A71BF93FBFAFD93071004D0
:1028F000639BFB04930700032304F10A13071006EC
:10290000930780076384EA0093078005A304F10A14
:10291000930730061364240063D0B73393851D00FA
:102920004E85EF30A03CAA84631B05308357C90055
:1029300093E707042316F9008357C90093F70704A8
:10294000E38607A491B4FD57638DFD2E93077004B1
:10295000014B6396FB0063940D006E8B854D7E4AA0
:10296000936704103ED002DC4E4EDE486E4D635934
:102970000A00B707008033CA47019307D0023EDC44
:10298000930710046397FB2E080972C946CB6ACDE2
:1029900052CFEFA0006A7011EF4060622E86AA85C8
:1029A0000809EFA0E053CA4790108C18BED8DA4748
:1029B000080182D0BEDAEA4782D282D4BEDCFA476E
:1029C000BEDEB707FC3FBED6EF80D0190A481A46D4
:1029D000AA463A4D0C01080942C9C2C032CB32DEC8
:1029E00036CD36C46ACF02C102C302C502C7EF802A
:1029F000C06DA2467256064819E105473AD797D7E7
:102A000000009387A728130710063EC46387EA00D7
:102A100097D700009387C7283EC4138EFDFFA68C6E
:102A2000B70703400C0132C308099018F2C442C131
:102A300036C56AC7BEDE82D882DA82DCEF809012A9
:102A40004A46DA46EA470809B2C2B6C03EDEEFA0FF
:102A5000E02AAA852A8A08097A4DEFA0E038F257C1
:102A600016468646BEDCCA47B2D88C18BED0DA47B6
:102A700090100801BED2EA47EADEB6DABED4FA47C1
:102A8000850CBED6EF90C041A247264EBA4EB38504
:102A9000470183C505008A429A4F2A4F72DEA38FF1
:102AA000BCFEFD57768D6300FE047D1E0C010809F7
:102AB000F6CEFACCFECA96C8F2C616C996C47ECB2C
:102AC000FEC27ACDFAC076CF02C102C302C502C7E8
:102AD000EF80A05F864616462648364EC642D64F41
:102AE000664FF64E15FD370DFE3F0C01080916C95D
:102AF00096C67ECBFEC47ACDFAC276CFF6C002C1AE
:102B000002C302C56AC7EF80A0666348A002B6424E
:102B1000A64F164F864E0C01080916C97ECB7ACDFA
:102B200076CF02C102C302C56AC7EF80005A631C98
:102B30000512137A1A0063080A12A24766DF93058A
:102B4000000303C6F700FA569387F6FF3EDF83C7FC
:102B5000F6FF638BC70E13069003639AC70EA24756
:102B600083C7A700A38FF6FE668A13077004330A93
:102B70009A40BA5C639AEB1C755763C4EC0063D649
:102B80009D23F91A9386FCFF36D713F6FAFD130539
:102B9000100413F7FA0F81456316A6003D0713775B
:102BA000F70F8545230AE10A9307B00263D70600B1
:102BB0008546B38696419307D002A30AF10AA5473A
:102BC00063D0D71C1307310C3A85A945130830068A
:102BD000B3E7B6021306F7FF93870703A30FF7FEC9
:102BE000B3C7B6026344D81893870703A30FF6FE52
:102BF00079171306610B636EA7165C19B307F640CD
:102C00003ED8B38D4701854763C5470193771400CC
:102C100099C3D247BE9D1374F4BF936704103ED08E
:102C200002C4814B814CE25789C71307D002A3032A
:102C3000E10A0254014D8DBA014B64120DB32A8B87
:102C400039BB014B994D21BBA38FB6FEEDBD850766
:102C500093F7F70F01BF050AA30FEAFEB3874C41B4
:102C6000E3DB07FE19B7F257668A13070003BE9C21
:102C7000F5B793076004638BFB009307500413833D
:102C80001D006383FB006E83094619A06E830D4609
:102C90001C199A861308C10B78110C094E8572C94C
:102CA000F2C046CB46DE1AC46ACD52CFEF20605246
:102CB00093077004AA842243F258064E6397FB00E0
:102CC0009377140099E37A5A4DB593076004B38C57
:102CD00064006391FB0403C70400930700036319B6
:102CE000F7020C01080972C972DE46CB46C49AC0CD
:102CF0006ACD52CF02C102C302C502C7EF80E03CD9
:102D0000A248725E11C506438547B38767403ED728
:102D1000BA57BE9C0C01080972C946CB6ACD52CF86
:102D200002C102C302C502C7EF80203A11E166DF8B
:102D30001307000331A09386170036DF2380E700D6
:102D4000FA57E3EA97FF41B713076004E39CEBE20D
:102D5000137714003367B7016354900549CBD2470A
:102D60003387FC00BA9D930A6006BDA03287BE86F9
:102D700085B505078347F7FF0506A30FF6FEA5BD3A
:102D80001307610B99E593070003230BF10A13075F
:102D9000710B93870603130617002300F700B1BDDC
:102DA00029CBD2471387170075BF63CC4C0113772B
:102DB0001400E68D01C7D247B38DFC00930A70065C
:102DC00021A8D247930A7006B30DFA00634690011A
:102DD00033839D41930D1300937B044002C4E3842D
:102DE0000BE4814BE35190E59306F00F15A0E68DBF
:102DF0009DBF930A6006854DC5B763509703924700
:102E0000B38CEC4003C717000DC38507850B3EC28A
:102E1000924703C70700E312D7FEA2473387FB00A0
:102E200092573307F702BA9DFDBBA24785073EC400
:102E3000C5B713074B003AC61377040283270B006C
:102E400009CB624798C37D87D8C3324BC2446FF029
:102E50000FD91377040101C7624798C3FDB71377F1
:102E6000040409C762472390E700C5B71374042020
:102E700065D462472380E700C9BF136404019377D8
:102E800004028DC31D0B137B8BFF032D0B00832CC2
:102E90004B0093078B003EC61374F4BF8147A30316
:102EA000010A19BA93074B003EC69377040181C704
:102EB000032D0B0031A09377040489C7035D0B0039
:102EC000814CD9BF93770420E5D7034D0B00CDBFCC
:102ED00093074B003EC6E17793C707832314F10A9B
:102EE00097D70000938787DA3EDA032D0B00814CD9
:102EF000136424008947930A800755B793074B0052
:102F00003EC6A303010AFD5783240B00638EFD0018
:102F10006E8681452685EF30A0332A8BE307059620
:102F2000B30D9540014B95B22685EFF0AFB8AA8D51
:102F3000D5BF136404019377040289CF1D0B137B63
:102F40008BFF032D0B00832C4B0093078B003EC699
:102F50008547B1B793074B003EC69377040181C7FD
:102F6000032D0B0031A09377040489C7035D0B0088
:102F7000814CF9BF93770420E5D7034D0B00CDBFFB
:102F800097D700009387C7D13EDA93770402B1C385
:102F90001D0B137B8BFF032D0B00832C4B00930722
:102FA0008B003EC69377140081CFB3679D0189CB18
:102FB000930700032304F10AA304510B13642400B4
:102FC0001374F4BF8947E1BD97D70000938707CCFE
:102FD00065BF93074B003EC69377040181C7032D5D
:102FE0000B0031A09377040489C7035D0B00814C6B
:102FF00055BF93770420E5D7034D0B00CDBF228743
:1030000085476FF0EFFB0547E38BE70A0947638DC0
:10301000E70C1C0B9396DC0113777D00135D3D00DC
:103020001307070333EDA60193DC3C00A38FE7FEF3
:10303000B3669D019384F7FF95E69376140089CAE1
:10304000930600036306D700A38FD4FE9384E7FFA3
:103050001C0B6E8D014BB38D974002C4814B814C8C
:103060006FF08FD4A6877DB7014A1C0B937B044079
:10307000254B294681466A85E6859384F7FF3EC441
:10308000EF70E035A24713050503050AA38FA7FEDD
:10309000638E0B02924783C707006319FA029307F6
:1030A000F00F6305FA0263940C006371AB0392574F
:1030B000B255014A9D8C3E862685EF40C01F92473F
:1030C00083C7170081C7924785073EC229468146BC
:1030D0006A85E685EF60D07A63940C00E37AABF7FB
:1030E0002A8DAE8CA68771B7040B52579377FD00DB
:1030F000FD14BA9783C70700135D4D002380F400C9
:103100009397CC0133EDA70193DC4C00B3679D018D
:10311000E9FF3DBF040B8DFF058B1DDB930700030B
:10312000A307F1186F00C07A638D0A762306511346
:10313000A303010A5AC66FF04FC641062322DC01E1
:10314000B2C7B6C56352DF02D001CA854E85BAC088
:10315000EF508076631805700647EC111D4F17DE9F
:103160000000130EAEAFC14E41172E8C6FF0EFC7AB
:10317000C10623220C01B6C7BAC5635EEE00D001BA
:10318000CA854E853EDCEF502073631D056CE25707
:10319000F0111D4E4148C117328C6FF04FD197D5B9
:1031A00000009385A5ACC1062320BC002322FC00AF
:1031B000B6C7BAC5635CE800D001CA854E85EF503A
:1031C000A06F6311056AF0111D48C147411D328C83
:1031D0006FF0AFD213075006635A574F4E470C019A
:1031E00008093AC95E4702C102C33ACB6E4702C51D
:1031F00002C73ACD7E473ACFEF70306D69ED97D771
:103200000000938727AB2320FC0085472322FC0086
:10321000AE47050DEAC78507BEC51D47210C635B98
:10322000F700D001CA854E85EF500069631C056226
:10323000130CC10EBA5763C6470193771400638E0F
:103240000716A2575247210C232CFCFED247232EEF
:10325000FCFEBE47BA97BEC7AE471D478507BEC531
:10326000635BF700D001CA854E85EF50E064631BB5
:10327000055E130CC10E9304FAFF63509014C14A0B
:103280009D4BAE4717D600001306469E2320CC0068
:103290003E47850793068C0063CD9A0023229C004D
:1032A000BA94A6C7BEC51D47368C6358F7106FF099
:1032B0002FCB410723225C01BAC7BEC563DAFB00EE
:1032C000D001CA854E85EF50205F631D0558F4116B
:1032D000C114368C7DB73A57634EE01297D7000081
:1032E0009387479D2320FC0085472322FC00AE479F
:1032F000050DEAC78507BEC51D47210C635BF700B6
:10330000D001CA854E85EF50205B631D0554130C18
:10331000C10EBA57937614003E47B367FA00D58FB3
:10332000C9CFA25793088C002320FC00D247232248
:10333000FC00BA97BEC7AE471D478507BEC5635B95
:10334000F700D001CA854E85EF500057631C055029
:103350009308C10EBA5A63D30A04B30A5041468790
:10336000C14B1D4CAE4717D600001306269010C364
:10337000BE468507A10863CC5B0723225701B69A96
:10338000D6C7BEC51D47635BF700D001CA854E8511
:10339000EF5080526318054C9308C10EBE4723A01E
:1033A000980023A24801D297BEC7AE471D47138C91
:1033B00088008507BEC56345F7BA118863120446C5
:1033C000F24A825763D3FA00BE8AE247D6973ECCD0
:1033D000BE4781CBD001CA854E85EF50E04D6313C7
:1033E000054882C5631A0B4A130CC10EB9BCC1064D
:1033F00023227701B6C7BEC5635BFC00D001CA8536
:103400004E85EF50604B631F05449308C10EC11AEF
:10341000468789BFE68A63539A01D28A635850036C
:103420002E47569D23209C00050723225C01EAC7F6
:10343000BAC59D46210C63DBE600D001CA854E85E6
:10344000EF50804763100542130CC10E63D30A008E
:10345000814AB38A5C4163535005414D9D4D2E47CF
:1034600097D70000938787802320FC00BE4605077E
:1034700013068C0063435D1323225C01B69AD6C702
:10348000BAC59D46328C63DBE600D001CA854E8505
:10349000EF5080426318053C130CC10E9377044033
:1034A000B38A940191CF1D4DB38D4401A247639817
:1034B0000B1063970710B387440163F35701BE8A6B
:1034C000BA5763C54701937714009DCBA257524763
:1034D000210C232CFCFED247232EFCFEBE47BA97BC
:1034E000BEC7AE471D478507BEC5635BF700D00169
:1034F000CA854E85EF50403C63160536130CC10E4D
:10350000D294B3875441BA54B3049A4063D397001A
:10351000BE8463599002BE4723205C0123229C0095
:10352000A697BEC7AE471D47210C8507BEC5635B86
:10353000F700D001CA854E85EF500038631405327C
:10354000130CC10EA68763D304008147BA54B30499
:103550009A409D8CE35390E6C14A9D4BAE4717C6F7
:1035600000001306A6702320CC003E478507930673
:103570008C00E3D59AD2410723225C01BAC7BEC5AD
:1035800063DAFB00D001CA854E85EF50E032631B41
:10359000052CF411C114368CD1B7C1062322AC011D
:1035A000B6C7BAC563DAED00D001CA854E85EF50C3
:1035B000A0306319052AF011C11A328C4DB5D9CF4C
:1035C000A247FD173EC4B2571257210C232CFCFE14
:1035D0009257232EFCFEBE47BA97BEC7AE4785075B
:1035E000BEC5635BFD00D001CA854E85EF50C02C7F
:1035F000631A0526130CC10E924733875D4183C7BA
:1036000007006353F700BA87635AF0023E4723204E
:103610005C012322FC003E97BAC72E47210C050708
:10362000BAC5635DED00D001CA854E853EDCEF5022
:10363000A02863190522E257130CC10E3E8763D3FD
:10364000070001479247414883C70700998F6340AD
:10365000F004924783C70700BE9A89BD9247FD1BBD
:10366000FD173EC28DB7C10623220C01B6C7BAC5ED
:10367000635DED00D001CA854E853EDCEF50C0236E
:103680006312051EE257F0114148C117328C2E47D4
:1036900097C500009385855D2320BC00BE460507C5
:1036A00013068C00E341F8FC2322FC00B697BEC74A
:1036B000BAC5328CE35FEDF8D001CA854E85EF5074
:1036C000A01F6311051A130CC10E61B7AE47054761
:1036D00023209C00050D8507930B8C006346470152
:1036E000937614006386061205472322EC00EAC78E
:1036F000BEC51D47635BF700D001CA854E85EF50FC
:10370000A01B63110516930BC10EA2575247A10BC4
:1037100023ACFBFED24723AEFBFEBE47BA97BEC723
:10372000AE471D478507BEC5635BF700D001CA855C
:103730004E85EF50601863170512930BC10ECE47EC
:103740000C0108093EC9DE47930AFAFF02C13ECBCD
:10375000EE4702C302C53ECDFE4702C73ECFEF7023
:10376000D01629CDBE472E478504FD17D2970507F1
:1037700023A09B0023A25B01BEC7BAC59D47A10B36
:1037800063DAE700D001CA854E85EF50E01279E98F
:10379000930BC10E5C1923A0FB00C2574257138C38
:1037A0008B0023A2FB00BE47BA97BEC7AE471D479A
:1037B0008507BEC5E353F7C06FE09FFAE35C50FD99
:1037C000C1441D4C2E4717C600001306264A23A0ED
:1037D000CB00BE47050793868B0063CA5401D6977A
:1037E00023A25B01BEC7BAC59D47B68B51BFC107B7
:1037F00023A29B00BEC7BAC56359EC00D001CA859D
:103800004E85EF50600B39EDF411C11AB68B5DBFD8
:103810002322EC00EAC7BEC51D47E35DF7F69DB75E
:10382000F24702573384E740E35C80B8C14A97C44B
:1038300000009384A4429D4BAE4723209C003E474A
:10384000850763C98A0223228C003A94A2C7BEC5A9
:103850001D47E357F7B6D001CA854E85EF50C00526
:10386000E30005B6630A0B8CDA854E85EF00A07085
:103870006FF08F8C410723225C01BAC7BEC5210CB3
:1038800063DAFB00D001CA854E85EF50E00279F97A
:10389000130CC10E41144DB7DA854E85EF00A06DB3
:1038A000A1B6BE4799E36FF02F89D001CA854E8536
:1038B000EF5080006FF04F88FD576392FDF46395E1
:1038C0000CFAA54763E2A7FB130D0D03A307A1198B
:1038D0009304F1186FF0CFF797E7FE5F9387079394
:1038E000B2862E86AA8588436FE0FF9D83D7C500E8
:1038F000130101B8232C8146F59B231AF100FC51DA
:103900002E84232A9146BED683D7E500232821475B
:10391000232E1146231BF100DC4D2A8902D03ED212
:10392000DC512C003ED69C183EC43ECC9307004090
:103930003EC83ECEEFE03F99AA84634705002C00C5
:103940004A85352611C1FD548357410193F7070479
:1039500099C78357C40093E707042316F400832014
:10396000C147032481472685032901478324414712
:10397000130101488280011122CC26CA4AC806CE12
:103980004EC62A89AE84328401C51C5D91E3FD2EAA
:103990001C4C1CC48357C400A18BBDC71C48ADC7B9
:1039A0008317C40093F9F40F93F4F40F13972701CE
:1039B000635207061C4808401D8D5C486346F500AD
:1039C000A2854A856D2429E51C440505FD171CC404
:1039D0001C401387170018C0238037015C48638997
:1039E000A7008357C400858B81CBA9476396F40059
:1039F000A2854A85AD2C09EDF240624426854249F4
:103A0000D244B24905618280A2854A85352049D9D0
:103A1000FD54DDB70967D98F2316F4007C50797700
:103A20007D17F98F7CD079B797D7FE5F9387077E94
:103A30002E86AA85884381B7411197D7FE5F938769
:103A4000E77C26C2AA84884322C406C62E8401C508
:103A50001C5D91E3252E0317C40093170701C18352
:103A600093F68700A1EE93F6070189EEA5479CC067
:103A7000136707042316E4007D55B24022449244A4
:103A800041018280918B8DC70C5889C9930704042A
:103A90006384F5002685C521232804028357C400CA
:103AA0002322040093F7B7FD2316F4001C481CC022
:103AB0008357C40093E787002316F4001C4889EF5E
:103AC0008357C4001307002093F707286386E70095
:103AD000A2852685EF20A0178357C40013F717008F
:103AE00005C75C4823240400B307F0401CCC1C48E5
:103AF0000145C1F78317C40013F707083DDF93E7BB
:103B000007042316F4008DBF898B014791E35848C1
:103B100018C4F1BF8397C500011122CC1397070188
:103B2000418326CA06CE4AC84EC693768700AA8429
:103B30002E84E5EE056713070780D98FD8412396B9
:103B4000F500634DE000D85D634AE0000145F240B6
:103B50006244D2444249B2490561828018547DD7FB
:103B600003A904009396370123A0040063D5060837
:103B700030488357C400918B99C75C401D8E1C58F8
:103B800099C35C5C1D8E1C544C4C814626858297E3
:103B9000FD578356C400631DF5009C407547636064
:103BA000F7083707402005073357F700058B25CB6B
:103BB000FD779387F77F1848F58FC207C18718C034
:103BC0002316F400232204001397370163580700DB
:103BD000FD576314F5009C4091E328C80C5823A0BE
:103BE0002401ADD5930704046384F500268561267E
:103BF00023280402A1BF4C4C014685462685029726
:103C0000FD572A86E317F5F69C40A5D775476385CF
:103C1000E70059476394E70423A0240105BF93E715
:103C200006042316F4007D551DB783A90501E38F13
:103C300009F003A905000D8B23A035013309394193
:103C4000814711E3DC491CC4E35220F15C504C4C29
:103C5000CA864E86268582976347A0008357C40094
:103C600093E707047DBFAA993309A940F1BF011169
:103C700022CC06CE2A8411C51C5D81E72EC63922CE
:103C8000B2458397C50091C722856244F240056121
:103C900051B5F2406244014505618280AA8511E96F
:103CA00093870185884397050000938585FC6F0005
:103CB000A07D97D7FE5F9387675588434DBF014529
:103CC0008280411122C406C62A842316B500231718
:103CD000C5002320050023220500232405002322FC
:103CE000050623280500232A0500232C050021466C
:103CF00081451305C505EFE08FBC9737000093871A
:103D0000473C1CD0973700009387073F5CD097371C
:103D10000000938787431CD497370000938767463A
:103D200040CC5CD4B24022444101828097550000CF
:103D30009385256C6F00407501458280411126C234
:103D4000130680069384F5FFB384C4024AC02E890B
:103D500022C406C693854407EF1050792A8401CD0A
:103D60002320050023222501310508C4138684067B
:103D70008145EFE0CFB42285B2402244924402490B
:103D8000410182809387018588434DB71C5DA9E777
:103D9000411106C622C497070000938767F95CDDCE
:103DA0008D472322F52E9307C52E2A842324F52E32
:103DB0002320052E484101469145213708440546F8
:103DC000A545013748440946C945E53D85471CDC02
:103DD000B240224441018280828041119387018553
:103DE00026C284434AC006C69C5C22C42A8999E341
:103DF0002685693F9384042E8044DC40FD1763D6FA
:103E000007009C40B9CF8440C5BF0317C40039E701
:103E1000C1778507232204062320040023220400FF
:103E2000232404005CC423280400232A0400232C38
:103E30000400214681451305C405EFE04FA823285F
:103E40000402232A040223220404232404042285D6
:103E5000B240224492440249410182801304840604
:103E600071BF91454A85D93D88C051FDB147232096
:103E7000F9000144E9BF828082808280828097D7E6
:103E8000FE5F9387A738884397050000938565E315
:103E900059AB97D7FE5F9387673788439705000034
:103EA0009385C5E949A3011122CC26CA4AC84EC64A
:103EB0002E8406CE2A8997C9FE5F9389E96EEF208A
:103EC000603F83A789000567C4439307F7FE3384E7
:103ED0008740F198269431807D143204635DE400BC
:103EE0004A85EF20403D0145F2406244D2444249B8
:103EF000B2490561828081454A85EF30A00983A7D8
:103F00008900A697E31EF5FCB30580404A85EF3093
:103F10006008FD57631BF50281454A85EF30800735
:103F200003A78900BD46B307E540E3DBF6FA97D661
:103F3000FE5F9386E62D944293E717005CC3158DD0
:103F400097D6FE5F23A4A63261BF83A78900818C28
:103F500093E41400C4C397D7FE5F938727319C4333
:103F60004A853384874097D7FE5F23A18730EF20AF
:103F70008034054595BF6387051C411122C426C2C4
:103F80002A84AE8406C6EF20E03283A5C4FF938660
:103F900084FF17C5FE5F1305256193F7E5FF3386A0
:103FA000F6005842032885008589719B6318C80470
:103FB000BA9789E903A784FF998E9046BA97D846A5
:103FC00058C610C713E71700D8C217C7FE5F2321D2
:103FD000D75E17D7FE5F1307E723184363E9E700AF
:103FE00097D7FE5F938747288C4322856D3D2285B6
:103FF0002244B240924441016F20E02B58C2014854
:1040000095E183A584FF97C8FE5F9388685A8D8EDB
:10401000AE978C466385150983A8C60023A61501B3
:1040200023A4B800B305E600CC41858995E5BA978D
:1040300018466318080697C5FE5F93856557631297
:10404000B70617C6FE5F232BD65617C6FE5F23257D
:10405000D656D8C698C6054813E71700D8C2338786
:10406000F6001CC3E31508F81307F01F636FF7028F
:104070008D8313D6274005473317C7005041850766
:104080008E07518FAA9717C6FE5F2321E6529843E9
:10409000138687FFD0C698C694C354C789BF054806
:1040A00051B7504650C718C645BF13D697001147A1
:1040B000636EC70213D76700130787031306170041
:1040C0000E062A96930586FF10426397C50685471C
:1040D00009873397E7005C415D8F97C7FE5F23A791
:1040E000E74CCCC690C694C554C611B7514763651A
:1040F000C7001307B605D9B7130740056367C700A4
:1041000013D7C7001307E70655BF130740156367AA
:10411000C70013D7F700130777074DB7930540552E
:104120001307E007E3ECC5F813D727011307C70708
:1041300071B710466386C5005842719BE3EBE7FEFA
:104140004C4645B782801C4681E781473E85828088
:1041500083D7C5005D71A2C4CAC056DA86C6A6C29E
:104160004EDE52DC5AD85ED662D466D26AD06ECEAB
:10417000A18BB28A2E842A89C9CF9C49D9CB835777
:10418000C40003AA0A0013F727006316070E858BE5
:10419000638F0714814B0145014B814963860924D4
:1041A00001ED4E86A9455A85EF20800A938B1900B0
:1041B00001C50505B30B65415E8C63F379014E8C37
:1041C00008401C48544863F8A7220444B69463D4BA
:1041D0008423DA852686EF2040091C40A2854A8583
:1041E000A6971CC06934631C050EB38B9B40054524
:1041F00063960B00A2854A859D3C75E183A78A00E2
:10420000269BB3899940B384974023A49A00D9F49C
:1042100091A0A2854A85EFF03F82FD572DD125A8B8
:1042200083290A0083244A00210AFDD8A6866373E5
:104230009B00DA865C504C4C4E864A8582976350D0
:10424000A00A83A78A00AA99898C3385A74023A452
:10425000AA0061FD8147B640264496440649F259BA
:10426000625AD25A425BB25B225C925C025DF24DB2
:104270003E8561618280370B008081498144134B08
:104280000BC065B7032B0A0083244A00210AFDD81E
:104290000357C4001C440840937607206389060E28
:1042A00063EAF40893760748D1C6832D44010C488D
:1042B000B38DBC03B309B54093871900A697B3CD5E
:1042C000AD0363F3FD00BE8D137707404DC3EE854C
:1042D0004A85EF10B0211DE5B1472320F90083572F
:1042E000C40093E707042316F400FD57ADB7B70BDE
:1042F000008013CCEBFF014B814493CBFBFF8D4C33
:10430000094D71B70C484E862AC6EFD0FFCF035730
:10431000C400B2471377F7B7136707082316E40002
:104320001CC8232AB401CE97B38D3D411CC0232461
:10433000B401A687A68963F3F400A68708403E86E9
:10434000DA853EC6EF1070721844B2471D8F18C44C
:104350001840BA971CC083A78A004E9BB38434418F
:10436000B389374123A43A01E39309F2E5B56E8698
:104370004A85EF203008AA8745F50C484A85E53E76
:104380008357C40093F7F7F72316F400B1B7184822
:104390006365A700544863F8D402BE8963F3F40050
:1043A000A6894E86DA85EF10506C1C441840B387FE
:1043B00037414E971CC418C0D9FFA2854A85EFF03B
:1043C0001F8B51D929BFA68763739C00DE87B3C7B3
:1043D000D70258504C4C5A864A85B386D70202976A
:1043E000AA89E34AA0F6E5BD032B0A0083294A0007
:1043F0000145210A65B3634BDC005C504C4C5A8686
:104400004A858297AA84E342A0DED1BD6286DA851E
:10441000EF10B0651C44E284B38787411CC41C4084
:10442000E2971CC0D9B3797122D44AD052CC56CA73
:1044300006D626D24ECE1304052E0149054AFD5A52
:1044400019E8B25022544A8592540259F249624AFC
:10445000D24A45618280044483294400FD1963D413
:1044600009000040F1BF83D7C400637CFA00839742
:10447000E4006388570126852EC68295B2453369CC
:10448000A90093848406D9BF797122D44AD052CC32
:1044900056CA5AC85EC606D626D24ECE2A8AAE8ADA
:1044A0001304052E0149054BFD5B09ECB250225463
:1044B0004A8592540259F249624AD24A424BB24B5F
:1044C00045618280044483294400FD1963D40900B6
:1044D0000040E1BF83D7C400637BFB008397E40007
:1044E00063877701A6855285829A3369A9009384F0
:1044F0008406E1BF930745010905231F05FEE31D5F
:10450000F5FE828081475147B306F50003D60600C9
:10451000B386F50089072390C600E397E7FE828003
:104520009307A5010905231F05FEE31DF5FE828003
:1045300081476147B306F50003D60600B386F50050
:1045400089072390C600E397E7FE239C050082803D
:10455000914769463307F500835607003387F50016
:10456000035707006387E60005456368D7007D555C
:1045700082808907E390C7FE01458280930645004B
:1045800081476905617603D706009375170099C1C5
:1045900093E7170093F52700058391E98607239099
:1045A000E600C2078906C183E31FD5FC8280518FD4
:1045B000F5B793066501014783D7260013960701D7
:1045C000418663540600136717008607C2071376F7
:1045D0002700C18311EA06072391F6004207F91666
:1045E0004183E31BD5FC828093E71700EDB7930767
:1045F00045000147690583D60700890713D6860061
:10460000518F239FE7FE1397860042074183E314EF
:10461000F5FE828093076501014783D62700F917CD
:1046200013968600518F2392E70013D78600E31676
:10463000F5FE82809307450013078501890783D61D
:104640000700239FD7FEE31BF7FE231C0500828093
:104650009307850113074500F91783D607002391B7
:10466000D700E31BF7FE231205008280E105130744
:10467000650181468357270003D605007917F91590
:10468000B297B6972391F500C18393F61700E31311
:10469000E5FE8280E10513076501814683D70500A9
:1046A0007917F915958F83564700958F2391F5005B
:1046B000C18393F61700E313E5FE82800111416385
:1046C00093888501231D0100231E010091057408B4
:1046D0007D1303D70800F916F91805E7239F06FE96
:1046E000E39915FF914769474C00BE9583D50500B6
:1046F000B306F60089072390B600E397E7FE05614D
:1047000082803307A70203D82600B3776700C297D9
:1047100013D807012391F6009357070103D706002A
:10472000BA97C2972390F600C183239FF6FE4DBF30
:104730008357250193C7F7FF1397170109EB9307D9
:10474000250109050357E5FF09E7E39CA7FE01459D
:10475000828005458280411122C406C62A84C93F51
:1047600001E9031524017D81B24022444101828088
:104770000145DDBF83172501411106C622C426C2AB
:104780004AC063D80704FD572390F500035725015D
:10479000A167FD177D8F2391E500130905016317BC
:1047A000F7042E84AA84693705C99307640023128D
:1047B00004001385C4FF7919035729008907239F33
:1047C000E7FEE31AA9FEB2402244924402494101A5
:1047D0008280239005005DBF930744009305A401E8
:1047E0008907239F07FEE39DB7FEF1BF938765000E
:1047F0002392050079157919035729008907239F0A
:10480000E7FEE31AA9FE239C050075BF5D71A6C2F1
:10481000CAC086C6A2C42A89AE84193F41E526854E
:10482000013F2A8441E12C004A85A9374C10268596
:1048300091370357810083574102638CE702894710
:10484000E14630003E960356060005E250103E96C3
:104850000356060019EA8907E395D7FE2285B6407C
:1048600026449644064961618280054465DB7D5497
:10487000F5B7054791C37D578147E1453400BE96A2
:1048800003D606005410BE9683D606006308D600F1
:104890003A84E3E5C6FC3304E040C9B78907E39FE7
:1048A000B7FC6DBF79545DBF8357250193C7F7FFF0
:1048B0001397170109EB411106C69D3DB240133510
:1048C0001500410182800145828013072501AA87D6
:1048D0008907239F07FEE39DE7FE83572501216794
:1048E0007D17D98F2319F5008280011122CC4EC685
:1048F00006CE26CA4AC852C456C2AA892E8463D498
:10490000050A3309B0404A8A8144BD4A63C74A0355
:1049100013594900C155B305B9021D4A3384854076
:10492000228963432A0393553400E157B385F50286
:104930002E9415E033359000B1A883D789014E85B8
:10494000411ADD8C3133D9B783C789014E8561198E
:10495000DD8C7139F9B783D789014E857D14858B3C
:10496000DD8C2939F9B74E85F131C114E34D99FE3B
:1049700093554400C157B385F5021D492E94A28476
:104980006346990293553400E157B385F5022E949E
:1049900015E00145F2406244D2444249B249224AFC
:1049A000924A05618280AE843D49C9B74E859D31EA
:1049B000E114F9B74E85F53E7D14D9BF8357450004
:1049C000411126C206C622C44AC0AA8491CB93F7DD
:1049D00007F0014499C3213961541309F0F68DA001
:1049E0008317650001441309000A63DE070022856E
:1049F000B24022449244024941018280268541040A
:104A00001539E30624FF83D76400EDDB83D7640008
:104A100093F707F089CF1309000A83976400E3C86E
:104A200007FC268505047136E35989FEC9B726853A
:104A3000D5362104E1BF26857D148936E30924FBA0
:104A400083D74400EDFB65B713070501AA878907E3
:104A5000239F07FEE39DE7FEB7C7FF7F1CC9828047
:104A60002A87835607002E858357270099C2E1764F
:104A7000D58F2319F50003562700A166FD1693076D
:104A80006700631AD600690783D6070085E28907A5
:104A9000E39CE7FE1DBD41056107890783D6E7FF5B
:104AA00079152311D500E39AE7FE828071BF7971F1
:104AB00026D2AA84480022D406D62E84953403D761
:104AC000E40093170701C18763C6070223120100A0
:104AD000A166FD16758F9387E4006316D7042687B9
:104AE0008356070081CE22858537B25022549254D6
:104AF00045618280FD572312F100D9BF0907E39178
:104B0000E7FE2285C53A2285C9338397E400E3DEB8
:104B100007FC2285313971F9835724016177B98FF8
:104B20002319F400D9B72313E1005400F91703D671
:104B3000070089062392C600E39AF4FE19E72314BE
:104B40000100A2854800293F4DB78547FD55480023
:104B50002314F100593BF5B7011122CC26CA4AC8EB
:104B60004EC652C456C236893E8406CEAA84AE8949
:104B7000328ABA8AA135930700093309A94063D75D
:104B8000A702A167F91763CE270393872400E904DE
:104B90008907239F07FEE39D97FEF2406244D244BB
:104BA0004249B249224A924A05618280635B090008
:104BB000930700F76341F912CA8526853D336315D3
:104BC000051263860A0E58401C406307F70413055C
:104BD000A401B9325C40130780036387E71463477D
:104BE000F71061476387E716130750036388E714DC
:104BF000314718C4370701807D1758C80547231C63
:104C0000E4002D4758C45844835684012107060701
:104C100022972315D7001CC0634E200158409307EC
:104C200000096309F70083D784012685858BB3E9E2
:104C3000F900A9321444035644014C40139716005E
:104C4000269783570700F18F1306F0086347B600D5
:104C500085063A86B14563D0D51083564401035684
:104C6000070093C6F6FFF18E2310D70003576401A7
:104C7000B376F70091CE631CF70E6398090E5C447F
:104C8000035784018607A69783D70700F98FE5E3CA
:104C9000634920015840930700096304F700268503
:104CA000093A83D7440081C72685C9380509A16719
:104CB000239C0400F91763D1270DE17793C7F7FF11
:104CC0002391F40093874400E104239007008907AF
:104CD000E39DF4FED9B593872400E9048907239F57
:104CE00007FEE39D97FE55BD8549E1BD130700040E
:104CF0006381E70213071007E39CE7EE3787004064
:104D00007D17A94658C814C46177231CE40054C415
:104D1000DDBD1D4718C4370701807D1758C80547FA
:104D2000231CE4001947F9BD994637078000130793
:104D3000F70F58C814C413070010C1BF3707000489
:104D40001307F77F994658C8056714C413070780EF
:104D50006DBF9146D9BF0355260019C193E71700CF
:104D60002311060085060906FDB5E3130AF2A685A0
:104D70001305A401E53829BF6355090023910400F8
:104D800029BD2391240111BD011152C4035A2500EC
:104D900022CC2E8406CE26CA4AC856C25AC03289B0
:104DA000130B46034EC6AA8A113983542400330AD2
:104DB000AA4022852131898C5A85EFF06FF663D2A3
:104DC000440322856244F240B249224A924A024B8D
:104DD000CA87A6864249D2440147014681450561FA
:104DE000A5BBA2855685EFF0AFF681496346A000CA
:104DF000A2855685453085495A85EFF08FFB83574C
:104E0000C9042285FD14B3E9F90023163905EFF032
:104E10004FFA75B7757122C526C34AC1D2DC06C7E1
:104E2000CEDED6DADAD8DED6E2D42A892E84B2846F
:104E3000368AFD380DC1A6854A85EFF0AFECBA4041
:104E40002A449A440A49F659665AD65A465BB65BD2
:104E5000265C496182802285E13801C5A6852285CC
:104E6000E9BF4A85913415ED22853D3C01C997B5CE
:104E70000000938565E44A85513A1DC94A852D3461
:104E800001E5228515341DC94A85F1302A8922851C
:104E9000D9306302A902E1772399F40026853534DD
:104EA00079BF97B50000938525E1228585324DFDB8
:104EB0002685593E69B723990400CDB76C004A8511
:104EC000553822852C107D308359E1000354A1020E
:104ED0006387090A8357A102228BD5CBA2571309F6
:104EE0004A03930BEA04232AFA0293078A032390C6
:104EF00007008907E39D77FF6000130C81FF814A5B
:104F00000355840109C92C10D000EFF02FFBCA858E
:104F1000C800EFF0AFF58357CA044A857914B3EAA5
:104F2000FA00EFF0EFF2E31D8CFCCA853C1003D7CA
:104F3000050089058907239FE7FEE39A75FFF1764F
:104F4000DA998906D28713070004CE960146D685E2
:104F5000281019310357C100835781026316F704E3
:104F600023140102A6852810E53CD1BD890783D60C
:104F7000270081CA68009934B309A040A1BF7C0012
:104F80001810E395E7FE2685EFF0CFD64DBD3C1017
:104F90007818E38AE7FE890783D62700FDDA281010
:104FA000313C330BA4401DBFFD572314F1025DBFFC
:104FB000757122C526C34AC1D6DA06C7CEDED2DC59
:104FC000DAD8DED6E2D4E6D22A892E84B284B68A32
:104FD000EFF00FF615C1A6854A85EFF0AFD2BA40C3
:104FE0002A449A440A49F659665AD65A465BB65B31
:104FF000265C965C496182802285EFF06FF301C5E3
:10500000A6852285D9BF97B500009385E5CA4A8554
:10501000EFF0CFFF05C94A854138AA89228569305A
:10502000639D090221C14A85EFF0EFF22A892285AA
:10503000EFF06FF26300A918E1772399F400268559
:10504000693071BF97B50000938505C72285EFF0E1
:10505000EFFB71F12685CD3A59B76DFD2685EFF04E
:105060006FC9B5BF4A856C00EFF0CFF022852C10D8
:10507000EFF04FF00359A1020354E100630C090E55
:105080008357E100A28B638D0710225793878A0311
:10509000138BEA0423AAEA02BE898907239F07FE2D
:1050A000E39D67FF2810EFF06FCD035C2101416A9B
:1050B0007D1AB30C4C038357C1020354E102C207AB
:1050C000A297528463E6FC0033D4870342044180F4
:1050D0006C002285D000EFF06FDE2C10C800EFF0DE
:1050E0002FC7635FA000CC006800EFF0AFDA2C1090
:1050F000C800EFF0EFC56342A00C7D14420441806C
:105100002C10C800EFF00FD92810239089008909CE
:10511000EFF04FD2E3113BFB38109306E103BA875F
:10512000814503D647008907D18DE39CF6FEB33550
:10513000B00093874A0383D6070089070907231F16
:10514000D7FEE31AFBFE916633097941FD16D68737
:1051500013070004CA9601462810FD3A0357C10000
:10516000835781026313F70623140102A6852810D2
:10517000C538B5B53C107818E382E7EE890783D6C9
:105180002700FDDA28101D383309A040D5BD890756
:1051900083D6270081CA68001530B30BA440F5B54B
:1051A0007C001810E395E7FE0357C1008357810286
:1051B000E314F7E82399040059B579144204CC00AC
:1051C00068004180EFF00FCD25BFFD572314F10299
:1051D00071BF03AE050003A3450083A88500CC453D
:1051E0000571232C811C2ED63E842C41FD5723288B
:1051F000F114930700092328211D2322511D232C7C
:10520000811B232A911B232E111C232A911C232648
:10521000311D2324411D2320611D232E711B2328B2
:10522000A11B2326B11B42C872D01AD246D4232A0E
:10523000F1142A89B28A368CBA8C99C97C41054707
:105240003317F700DCC198C5EF10600D2320090467
:1052500008108C08A9388808EFF0EFCF6302051416
:1052600085471CC08D476380FA14D144638A0A00C5
:105270009304FCFF9307A00263D497009304A00259
:105280008327411588083ECAEFF08FCA2A8B97B54D
:1052900000009385A5C7631D057A93070009EC10EC
:1052A0008808232AF114EFF0EFA58357E10702C421
:1052B00013970701418763590700C607C583231F5A
:1052C000F106C167FD173EC42C0117B50000130598
:1052D00025B0EFF02FA30357E107631D0774FC10FF
:1052E0001307E10783D60700E9EA8907E31CF7FE05
:1052F00001448C012801EFF0EFC72C018801EFF089
:105300002FA38C01E810EFF0EFC6EC108801EFF04E
:105310002FA2900AEC102801853C8359C11917BAB5
:105320000000130A6A9963980900D285E810EFF02B
:10533000EFCD6315054CA247638C074E9307D0024F
:10534000230AF1108D47268A639AFA00338A840073
:105350009307A00263D44701130AA002A947639CE4
:10536000F94C93071003A30AF1109307E002230BF3
:10537000F110930971116359400193070003A30BC6
:10538000F1107D1A93098111050463500A4C22869D
:1053900097B500009385C5B94E85EF10D04D7DAD12
:1053A00023200400C1B5E284F1B58317C10797B586
:1053B00000009385A5B763DD0768EC1017B5000002
:1053C000130505A1EFF08FC405D5635105304C11CD
:1053D000E810EFF02F9391679387E708231BF10AFA
:1053E000C1473EC6A167FD173ECCF177890701444E
:1053F00097BB0000938B8B973ECE97B900009389A3
:10540000299D940A30014C115E855D366C18280187
:10541000EFF04F8FE247035AE104337DFA00F24781
:105420003E9D634EA0038801EFF0CF8C420A135AD1
:105430000A4163500A0C814778183E97835607004B
:1054400098013E9703570700638DE6264E85EFF0DF
:105450002FAE35C18C014E85EFF0CF8A59A8930746
:105460000009338DA7418C016818EFF0AF896352B2
:10547000A0099801EA87BD4663CAF60293574D001A
:105480001397170094013697C156B387D70297B682
:10549000000093866682EA978607B69783D7C7127D
:1054A00083560700F58F2310F70049B72310070034
:1054B000C1170907D1B78801EFF08FA701C58C018B
:1054C0002E8559BF4E85EFF02FBE2A8A8801EFF056
:1054D000AFBD2A8D63020A0E69C14E85EFF0AFA7FA
:1054E0002A8A8801EFF02FA76319AA0A8801EFF032
:1054F000AFD5814738013E978356070098013E9704
:1055000003570700639CE60089074947E394E7FED9
:105510004C112801EFE01FFFB2473E94B247D10B78
:1055200085833EC6E39F3BED8357610B0357E1073D
:10553000EC104811BA977177130727F7BA97231B16
:10554000F10AEFE03FFC5E852C01EFE0BFFB056A4E
:1055500097A900009389897797BB0000938B0B86EE
:105560004C115E85EFF08FAAE345A0D84C114E8513
:10557000EFF0CFA9634DA0005011B285940A4E857B
:10558000053C3001940AB2854E8569305294135A15
:105590001A00E38079D7D109E1B74E858C01EFE09D
:1055A0007FF68801EFF0CF9829F58357210D6177B9
:1055B000B98F2319F10C35BFE31305F0EC094E85C3
:1055C000EFF04F9BAC198801EFF0CF9A8357C10DD4
:1055D000835DE10D035AA10F93C7F7FF231EF10C62
:1055E000B3854D416352B0024C0AA819EFE05FF455
:1055F000AC19E809EFE0DFF3EC09480AEFE05FF3EC
:10560000B305BA41035AA10F8DCD9307F0F663C3DA
:10561000F506E809EFF06FADAA8D0357C10D83576A
:10562000810FAC19E809631AF708EFF02F849C0A80
:1056300013070004D2866A86EE85A819EFF0CFD151
:1056400015A8AC19E809EFE0BFF021E90357C10D37
:105650008357810F6306F7008801EFE0BFE951BD72
:105660008357A10F89EF8317E10F63CA0700A819B9
:10567000EFE03FF48C01A819EFF08FBE9DBDBC197F
:105680001307E11083D6270089C6050A231D410FA1
:10569000D5B78907E318F7FED5BF814DE35FA0F6C4
:1056A0004C0AA819EFE0DFE8AC19E809EFE05FE881
:1056B000EC09480AEFE0DFE78DB7EFE0BFFD054DED
:1056C000BDB789074947E399E7D625B58357E10771
:1056D000014497A900009389696EADCF8C01E81051
:1056E0009169EFF02F89F919130A50FD8357810D45
:1056F0009D8BA9E74C118801EFE09FE34811EFE093
:10570000FFE74811EFE09FE74C118801EFE01FF63B
:105710008357610A8D072313F10A8357810AE1EB4E
:105720008357C10B81EF8357610A63E9F9008C014C
:1057300048117D14EFE0DFDFE31A44FBEC10880131
:10574000EFF00FB221A8F010940AB2854E85EFF069
:105750006FEC7D148317C107E3D707FE8C01E810B7
:10576000EFE05FDA2C0117A5000013056566EFE096
:105770007FD9814BFD7997AD0000938DED68094D80
:1057800033877D0197A70000938747548C0117A5A5
:1057900000001305E5633AC6338A7701EFF00F87FF
:1057A0003247635CA0028C013A85EFF02F86634F8D
:1057B00005009001B285940A5285EFF0AFE5300103
:1057C000940AB2855285EFF0EFE44E94D10B930723
:1057D0004010B3C9A903E395FBFA3001940A97A5D9
:1057E00000009385E55E3285EFF08FFC19B6481115
:1057F000EFE0DFD88357610A850731BFE810EFE09B
:105800005FDB4C11E810EFE0BFD24811EFE07FDA28
:105810004811EFE01FDAEC104811EFE03FE5900A85
:10582000EC102801EFF04FD67D148359C119E5BC67
:105830009307000231B6938909039307E002A30A94
:105840003111230BF11093097111B38B690163506E
:105850006A058357C11911479389FBFFE359F7B2D2
:1058600015476384E706CE871306E002930580039D
:1058700093060003FD1703C707001377F70763526A
:105880000A08130710032380E700050409B6E8108F
:10589000EFE03FD24C11E810EFE09FC94811EFE074
:1058A0005FD14811EFE0FFD0EC104811EFE01FDCB2
:1058B000900AEC102801EFF02FCD8347C119050B9A
:1058C000938707032380FB0049B72C01E810EFF012
:1058D0002F9997A500009385253E2801EFE01FF33F
:1058E00059F1E3460AAA83C7EBFF938727FD93B7D5
:1058F000170093C7F7FFCE9783C70700858BA5F7DF
:1059000079B46310C70203C7F7FF9306800363E609
:10591000E6000507A38FE7FE9DBC050413071003EF
:10592000D5BF63E6E50005072380E7008DB423803B
:10593000D70089B79307140023A0FC009306E00268
:10594000D28703C7070001E71307500439A813865D
:1059500017006304D700B287EDB703C717008507A8
:10596000A38FE7FE7DFBCDB7FD1783C607006384D9
:10597000E600E36BFAFE2380070031A2850709AA3F
:10598000B68931AAFD192380090003C7F9FF631600
:10599000D70033874941E3C7E7FE0D4793079C00D3
:1059A000639FEA00269463570400230A011023A092
:1059B0000C00D28983A70C003E9C93073C00232255
:1059C00009041147930647018325490463FFD7045F
:1059D0004A85EF00700E2320A904D2852A84EF1097
:1059E000700CC24791C7B3894941A29923A03701DE
:1059F00022858320C11D0324811D8324411D032989
:105A0000011D8329C11C032A811C832A411C032BED
:105A1000011C832BC11B032C811B832C411B032DD9
:105A2000011B832DC11A3D61828085052322B904A3
:105A3000060749BFA167FD17E319F796A24797A587
:105A400000009385E54D89C797A500009385854C97
:105A5000480A0964EF1020621304F470D2478808E2
:105A600023208116232AF114EFE01FE4130A4111C9
:105A700011E58808EFE0DFCBE30E05EA896793873D
:105A8000F77023A0FC00D287130600029306D00211
:105A900003C70700E304C7EEE302D7EED289850708
:105AA00003C7F7FF93861900A38FE6FEE31A07ECFE
:105AB000094785476386EA00A68763D38400A287E7
:105AC00093060003D9B51C4139714C083EC05C41B6
:105AD00006DE3EC21C453EC45C450A853EC6EFE07C
:105AE0001FFD83576102014593C7F7FF1397170105
:105AF00019E74808EFE0DFC3133515000505F2503C
:105B0000216182801305050F828097B7FE5F93871E
:105B1000E76F9C43C85B09E517B5FE5F1305059267
