:020000042001D9
:100000009721FF5F938181A397E20000938242448E
:10001000739052301701FFDF1301C1FE9700FFDF1D
:10002000938040FE638300008290732540F18145F8
:1000300001460D209700FFDF9380C0FC6383000022
:100040008290970200009382C20073905230032383
:100050000000F5BF06849721FF5F9381219E173131
:10006000FF5F130161A6137101FF01E197220100F7
:100070009382022A1703FF5F1303C3F89713FF5FEE
:1000800093830321638C6200635A730003A502000B
:1000900091022320A3001103E34A73FE972201007B
:1000A000938202271703FF5F1303C3F59703FF5FD4
:1000B000938343F5638C6200635A730003A50200C7
:1000C00091022320A3001103E34A73FE1713FF5F7D
:1000D0001303031C938301896357730023200300D8
:1000E0001103E34D73FE11C2029617E500001305DC
:1000F000A552EFE0E04EEFE08055F32710303707D0
:10010000010013078702F98F99C7F32700300967A9
:10011000D98F739007300545971501009385C56FFA
:10012000171601001306866F7126EFE0C04CA280FF
:0401300082808280C7
:10018000011106CE26CC4ACA4EC852C6AA840545DD
:1001900063CBA5022E8937150220930985AC371A47
:1001A000008083C504004E8597400000E780E0D8BA
:1001B00003258A23084597300000E780201885042E
:1001C0007D19E31009FE2945324AC2495249E244E9
:1001D000F240056117430000670043D9411106C68C
:1001E00026C44AC24EC0AE84854563C4B402930996
:1001F000F5FF37150220130985AC33859900834537
:1002000005004A8597400000E78020D3FD14E346AF
:1002100090FE294582491249A244B2404101174348
:1002200000006700A3D4411106C626C44AC24EC0CE
:10023000AA84054563C1A5022E89371502209309BA
:10024000D5AC8C404E8597400000E78000CF9104EC
:100250007D19E31809FE294582491249A244B2409A
:10026000410117430000670063D0411106C626C450
:100270004AC24EC0AA84054563C2A5022E8937151D
:1002800002209309D5AC83C504004E859740000039
:10029000E780A0CA85047D19E31709FE2945824934
:1002A0001249A244B240410117430000670003CC49
:1002B000011106CE26CC4ACA4EC852C693893500D3
:1002C00013068009634736038A05B304B500371562
:1002D0000220130965AD130A90098840CC44898D2A
:1002E0004A8597400000E78040C5B1048D09E3C608
:1002F00049FF2945324AC2495249E244F240056168
:1003000017430000670083C6130101D52326112A75
:100310002324912A2322212B2320312B232E4129F0
:10032000232C5129232A6129232871290A8A97001D
:100330000000E780401C130BC100370500809309C3
:10034000050037050080930A050213090127930B66
:100350004026814433059B0097000000E780001889
:100360004A85CE85568697000000E780A01AB10422
:10037000E39274FF371502201305C5AD97400000C6
:10038000E780A0BB8D4437150220930A65AD930921
:10039000900903250B008325CB00898D5685974056
:1003A0000000E78080B9310B8D04E3E434FF294578
:1003B00097400000E78080BB37150220130545AF4A
:1003C00097400000E78060B7114B640803A544FF25
:1003D0008C40898D568597400000E78000B6B104B7
:1003E0000D0BE3653BFF294597400000E78000B80F
:1003F00037150220130535B197400000E780E0B3C0
:10040000154B041003A544FF8C40898D56859740F9
:100410000000E78080B2B1040D0BE3653BFF294586
:1004200097400000E78080B437150220130545B2DD
:1004300097400000E78060B037150220130B85ACB1
:10044000B7190080930A000281443305990083455F
:1004500005005A8597400000E78020AE03A5892358
:10046000084597300000E78060ED8504E39F54FD68
:10047000294597400000E78060AF3715022013053B
:10048000D5B297400000E78040BD5281832B0129FF
:10049000032B4129832A8129032AC1298329012A7F
:1004A0000329412A8324812A8320C12A1301012B95
:1004B00082800000411106C697000000E78000E539
:1004C0000145B24041018280371502201305F5B283
:1004D00017430000670063B8F32200B023205500E3
:1004E000F32230B023225500F32240B023245500DC
:1004F0008280996285027390323293022010739049
:10050000423282800A8582800325C14D82800000AC
:10051000757106C722C54AC32A8432890A85971095
:100520000000E780402582421253B7030004E11324
:10053000B3F2720016C0B7032000FD1333737300CB
:10054000B7031000336373001AD22810CA859710BE
:100550000000E780402228108A8597000000E7808D
:10056000200488088C0897100000E7800089281074
:100570002C10900897100000E780806028109700EA
:100580000000E780407422852C1097100000E7805F
:10059000E032BA402A441A494961828061712326B7
:1005A000811A2324911A2322211B2320311B232E5D
:1005B0004119232C5119232A11182A84AE8483222D
:1005C00004000323440083238400032EC40016C0C8
:1005D0001AC283220401032344011EC472C683236A
:1005E0008401032EC40116C81ACA832204020323FD
:1005F00044021ECC72CE16D01AD2854216D496C8AA
:1006000002D602D802DA02DC02DE82C082C282C4D2
:1006100082C682CA82CC82CE82D082D282D482D654
:1006200082D882DA82DC82DE02C102C302C502C73E
:1006300002C902CB02CD02CF83AA4402D14933DAE8
:100640003A01137A1A0088088A8590088A865287A8
:1006500097200000E780C05508118C08B01897005B
:100660000000E780602DA8018C08B01897000000FA
:10067000E780A04088198A85301097000000E78045
:10068000A02B280A8A85301097000000E780E03E02
:1006900088020C11101197100000E780604EA8121C
:1006A000AC01B00197100000E780804D08112C0AC2
:1006B000101197100000E780A04CA8018C19B00120
:1006C00097100000E780C04B8819AC01101197000B
:1006D0000000E7806026280AAC0110119700000096
:1006E000E780A03908112C0A300A97100000E78033
:1006F000204928100C11228697100000E7804048FE
:100700000A858C19901997100000E78060478819B6
:100710008C02B01297000000E7802036280A8C195E
:1007200097200000E78040D9280A2C0A9002970001
:100730000000E780602088088C02B012971000004B
:10074000E7800044A8188C19300A97100000E78051
:10075000204388088A8590088A865287972000005F
:10076000E7800045FD19E3DC09EC13890402832AC4
:100770000900E54933DA3A01137A1A0088088A85B4
:1007800090088A86528797200000E780604208110F
:100790008C08B01897000000E780001AA8018C08A8
:1007A000B01897000000E780402D88198A85301026
:1007B00097000000E7804018280A8A8530109700CB
:1007C0000000E780802B88020C11101197100000A8
:1007D000E780003BA812AC01B00197100000E78051
:1007E000203A08112C0A101197100000E7804039B8
:1007F000A8018C19B00197100000E78060388819B3
:100800000C11B00197000000E7800013280AAC012A
:10081000101197000000E780402608112C0A300ACA
:1008200097100000E780C03528100C112286971021
:100830000000E780E0340A858C19901997100000B9
:10084000E780003488198C02B01297000000E7801E
:10085000C022280A8C1997200000E780E0C5280AEA
:100860002C0A900297000000E780000D88088C0297
:10087000B01297100000E780A030A8188C19300A39
:1008800097100000E780C02F88088A8590088A8624
:10089000528797200000E780A031FD19E3DC09ECC6
:1008A0007119E35699ECC6425643E643764E865E8E
:1008B000165FA65F3655C655565623205400232290
:1008C0006400232474002326C4012328D401232A8E
:1008D000E401232CF40148CC0CD050D0E6527653DE
:1008E0008A431A4EAA4E3A4FCA4F5A45EA457A46AB
:1008F000232454022326640223287402232AC403D7
:10090000232CD403232EE4032320F40568C02CC435
:1009100070C40324C11A8324811A0329411A83292C
:10092000011A032AC119832A8119832041195D61A3
:100930008280000014429841BA96370700047D1760
:10094000B3F7E6001CC1E982DC41BE965C42BE966C
:10095000B3F7E6005CC1E9829C45BE961C46BE9694
:10096000B3F7E6001CC5E982DC45BE965C46BE9640
:10097000B3F7E6005CC5E9829C49BE961C4ABE9668
:10098000B3F7E6001CC9E982DC49BE965C4ABE9614
:10099000B3F7E6005CC9E9829C4DBE961C4EBE963C
:1009A000B3F7E6001CCDE982DC4DBE965C4EBE96E8
:1009B000B3F7E6005CCDE9829C51BE961C52BE9610
:1009C000758F18D1E982CC51B6955052B2954CD161
:1009D000172300006700034614429841BA96370770
:1009E00000047D17B3F7E6001CC1E982DC41BE9626
:1009F0005C42BE96B3F7E6005CC1E9829C45BE96B8
:100A00001C46BE96B3F7E6001CC5E982DC45BE96DF
:100A10005C46BE96B3F7E6005CC5E9829C49BE968B
:100A20001C4ABE96B3F7E6001CC9E982DC49BE96B3
:100A30005C4ABE96B3F7E6005CC9E9829C4DBE965F
:100A40001C4EBE96B3F7E6001CCDE982DC4DBE9687
:100A50005C4EBE96B3F7E6005CCDE9829C51BE9633
:100A60001C52BE96758F18D1E982CC51B695505262
:100A7000B2954CD18280B70600041388F6FF83221A
:100A800006009C41938607DAB388564033F7080185
:100A900018C133B75600B3B7F600B70610009382FB
:100AA000F6FF96973387E74093D7A8019316670020
:100AB000DD8EDC41B697B3B6D70069833303D70028
:100AC000B70800FCB3861701032E4600B383C64166
:100AD00033F7030158C133B7F6001A97B3B6C6010E
:100AE0001697B306D74013D7A301939766005D8F7F
:100AF0009C45BA9733B7E700E9823383E600338732
:100B00001701032E8600B303C741B3F6030114C5D2
:100B1000B336F7009A963337C7019696998E13D756
:100B2000A301939766005D8FDC45BA9733B7E70062
:100B3000E9823383E60033871701032EC600B3032F
:100B4000C741B3F6030154C5B336F7009A9633375D
:100B5000C7019696998E13D7A301939766005D8F70
:100B60009C49BA9733B7E700E9823383E6003387BD
:100B70001701032E0601B303C741B3F6030114C9DD
:100B8000B336F7009A963337C7019696998E13D7E6
:100B9000A301939766005D8FDC49BA9733B7E700EE
:100BA000E9823383E60033871701032E4601B3033E
:100BB000C741B3F6030154C9B336F7009A963337E9
:100BC000C7019696998E13D7A301939766005D8F00
:100BD0009C4DBA9733B7E700E9823383E600338749
:100BE0001701032E8601B303C741B3F6030114CDE9
:100BF000B336F7009A963337C7019696998E13D776
:100C0000A301939766005D8FDC4DBA9733B7E70079
:100C1000E9823383E60033871701032EC601B3034D
:100C2000C741B3F6030154CDB336F7009A96333774
:100C3000C7019696998E13D7A301939766005D8F8F
:100C40009C51BA9733B7E700E9823383E6003387D4
:100C5000170183230602B3087740B3F6080114D1C5
:100C6000B336F7009A96969633377700998E9A06A0
:100C700013D7A801D98ECC51B6955052918D4CD135
:100C8000172300006700031B1308C00701478147B3
:100C9000B386E5009442BE96B307E6009C43BE9639
:100CA000B308E50093F7F60F23A0F80093D786006A
:100CB0001107E31F07FDEC5DBE95705EB2956CDD1C
:100CC0008280797106D626D4AA840A85130680020A
:100CD000A68597300000E780200E88401308350174
:100CE000CC401356A801B388C50013D6A80194447C
:100CF000B382C60093D6A201D8443303D7009848E4
:100D00009357A301330EF700DC481355AE01B38EA1
:100D1000A7009C4C93D5AE01338FB700DC4C135623
:100D2000AF01B38FC7009C5093D6AF01BE96B703F7
:100D3000200093D7A601B3E77700D850B383E7002C
:100D400093D75301858BB307F040370700047D1715
:100D50003375E800B3F5E80033F6E2003378E300DA
:100D6000B378EE00B3F2EE003373EF0033FEEF0022
:100D7000F98E0247298F7D8F398D88C012452D8DC0
:100D80007D8D2D8DC8C02245318D7D8D318D88C4DE
:100D900032453345A8007D8D33450501C8C4424521
:100DA00033C5A8007D8D3345150188C8524533C52C
:100DB000A2007D8D33455500C8C862453345A30068
:100DC0007D8D3345650088CC72453345AE007D8D01
:100DD0003345C501C8CC0255358D7D8D358D88D004
:100DE000125533C5A3007D8D33457500C8D0A2547C
:100DF000B25045618280317106DF26DD4ADB4ED973
:100E000052D756D5AE892A89130A010852852E86F3
:100E100097100000E780C0D6930A81055685D285D9
:100E2000528697100000E780A0D55685D685568655
:100E300097100000E780C0D45685D6854E8697105F
:100E40000000E780E0D35285D285568697100000D7
:100E5000E78000D3930901034E85D285528697100F
:100E60000000E780E0D15685CE85568697100000B9
:100E7000E78000D14E85D685568697100000E78022
:100E800020D04E85CE854E8697100000E78040CF5B
:100E90004E85CE854E8697100000E78060CE4E8549
:100EA000CE854E8697100000E78080CD4E85CE859A
:100EB0004E8697100000E780A0CC4E85D6854E86E2
:100EC00097100000E780C0CB5685CE854E869710E0
:100ED0000000E780E0CA5685D68556869710000048
:100EE000E78000CA5685D685568697100000E780B1
:100EF00020C95685D685568697100000E78040C8E1
:100F00005685D685568697100000E78060C75685BF
:100F1000D685568697100000E78080C65685D68510
:100F2000568697100000E780A0C55685D685568660
:100F300097100000E780C0C45685D6855686971066
:100F40000000E780E0C35685D685568697100000DE
:100F5000E78000C35685CE85568697100000E7804F
:100F600020C2130A81005285D6855686971000004C
:100F7000E78000C15285D285528697100000E78035
:100F800020C05285D285528697100000E78040BF6E
:100F90005285D285528697100000E78060BE528548
:100FA000D285528697100000E78080BD5285D28599
:100FB000528697100000E780A0BC5285D2855286E9
:100FC00097100000E780C0BB5285D28552869710EB
:100FD0000000E780E0BA5285D28552869710000063
:100FE000E78000BA5285D285528697100000E780CC
:100FF00020B95285D285528697100000E78040B80C
:101000005285D285528697100000E78060B75285DE
:10101000D285528697100000E78080B65285D2852F
:10102000528697100000E780A0B55285D28552867F
:1010300097100000E780C0B45285D2855286971081
:101040000000E780E0B35285D285528697100000F9
:10105000E78000B35285D285528697100000E78062
:1010600020B25285D285528697100000E78040B1A9
:101070005285D285528697100000E78060B0568571
:10108000D685528697100000E78080AF5685D685BA
:10109000568697100000E780A0AE5685D685568606
:1010A00097100000E780C0AD5685D685568697100C
:1010B0000000E780E0AC5685D68556869710000084
:1010C000E78000AC5685D685568697100000E780ED
:1010D00020AB5685D685568697100000E78040AA3B
:1010E0005685D685568697100000E78060A95685FC
:1010F000D685568697100000E78080A85685D6854D
:10110000568697100000E780A0A75685D68556869C
:1011100097100000E780C0A65285D6854E869710AE
:101120000000E780E0A55685D28552869710000022
:10113000E78000A55685D685568697100000E78083
:1011400020A45685D685568697100000E78040A3D8
:101150005685D685568697100000E78060A2568592
:10116000D685568697100000E78080A15685D685E3
:10117000568697100000E780A0A05685D685568633
:1011800097100000E780C09F5685D6855686971039
:101190000000E780E09E5685D685568697100000B1
:1011A000E780009E5685D685568697100000E7801A
:1011B000209D5685D685568697100000E780409C76
:1011C0005685D685568697100000E780609B568529
:1011D000D685568697100000E780809A5685D6857A
:1011E000568697100000E780A0995685D6855686CA
:1011F00097100000E780C0985685D68556869710D0
:101200000000E780E0975685D68556869710000047
:10121000E78000975685D685568697100000E780B0
:1012200020965685D685568697100000E780409513
:101230005685D685568697100000E78060945685BF
:10124000D685568697100000E78080935685D68510
:10125000568697100000E780A0925685D685568660
:1012600097100000E780C0915685D6855686971066
:101270000000E780E0905685D685568697100000DE
:10128000E78000905685D685568697100000E78047
:10129000208F5685D685568697100000E780408EB1
:1012A0005685D685568697100000E780608D568556
:1012B000D685568697100000E780808C5685D685A7
:1012C000568697100000E780A08B5685D6855686F7
:1012D00097100000E780C08A5685D68556869710FD
:1012E0000000E780E0895685D68556869710000075
:1012F000E78000895685D685568697100000E780DE
:1013000020885685D685568697100000E78040874E
:101310005685D685568697100000E78060865685EC
:10132000D685568697100000E78080855685D6853D
:10133000568697100000E780A0845685D68556868D
:1013400097100000E780C0835685D6855686971093
:101350000000E780E0825685D6855686971000000B
:10136000E78000825685D685568697100000E78074
:1013700020815685D685568697100000E7804080EC
:101380005685D685568697000000E780607F568593
:10139000D685568697000000E780807E5685D685E4
:1013A000568697000000E780A07D5685D685568634
:1013B00097000000E780C07C5685D685568697004A
:1013C0000000E780E07B5685D685568697000000B2
:1013D000E780007B5685D685568697000000E7801B
:1013E000207A4E85D685528697000000E7804079A6
:1013F0005685CE854E8697000000E780607856853A
:10140000D685568697000000E78080778944930947
:1014100040065685D685568697000000E7804076C0
:101420005685D685568697000000E780607589044A
:10143000E3E134FFA40810182685A6859700000074
:10144000E78000742685A685268697000000E78041
:1014500020732685A685268697000000E7804072C7
:101460002685A685268697000000E7806071268580
:10147000A685268697000000E78080702685A685D1
:10148000268697000000E780A06F2685A685268621
:1014900097000000E780C06E2685A6852686970007
:1014A0000000E780E06D2685A6852686970000006F
:1014B000E780006D2685A685268697000000E780D8
:1014C000206C2685A685268697000000E780406B65
:1014D0002685A685268697000000E780606A268517
:1014E000A685268697000000E78080692685A68568
:1014F000268697000000E780A0682685A6852686B8
:1015000097000000E780C0672685A685268697009D
:101510000000E780E0662685A68526869700000005
:10152000E78000662685A685268697000000E7806E
:1015300020652685A685268697000000E780406402
:101540002685A685268697000000E78060632685AD
:10155000A685268697000000E78080622685A685FE
:10156000268697000000E780A0612685A68526864E
:1015700097000000E780C0602685A6852686970034
:101580000000E780E05F2685A6852686970000009C
:10159000E780005F2685A685268697000000E78005
:1015A000205E2685A685268697000000E780405DA0
:1015B0002685A685268697000000E780605C268544
:1015C000A685268697000000E780805B2685A68595
:1015D000268697000000E780A05A2685A6852686E5
:1015E00097000000E780C0592685A68526869700CB
:1015F0000000E780E0582685A68526869700000033
:10160000E78000582685A685268697000000E7809B
:1016100020572685A685268697000000E78040563D
:101620002685A685268697000000E78060552685DA
:10163000A685268697000000E78080542685A6852B
:10164000268697000000E780A0532685A68526867B
:1016500097000000E780C0522685A6852686970061
:101660000000E780E0512685A685268697000000C9
:10167000E78000512685A685268697000000E78032
:1016800020502685A685268697000000E780404FDB
:101690002685A685268697000000E780604E268571
:1016A000A685268697000000E780804D2685A685C2
:1016B000268697000000E780A04C2685A685268612
:1016C00097000000E780C04B2685A68526869700F8
:1016D0000000E780E04A2685A68526869700000060
:1016E000E780004A2685A685268697000000E780C9
:1016F00020492685A685268697000000E780404879
:1017000030002685A68597000000E7806047268583
:10171000A685268697000000E78080462685A68558
:10172000268697000000E780A0452685A6852686A8
:1017300097000000E780C0442685A685268697008E
:101740000000E780E0432685A685268697000000F6
:10175000E780004310014A85A68597000000E780D6
:101760002042AA5A3A5ACA595A59EA54FA50296197
:10177000828003C61500220683C60500558E83C6E7
:101780002500C206558E83C635008D8AE206558E29
:1017900010C103C63500098283C645009A06558EDE
:1017A00083C65500BA06558E83C66500BD8ADA0623
:1017B000558E50C103C66500118283C6750092061E
:1017C000558E83C68500B206558E83C6950093F666
:1017D000F603D206558E10C503C69500198283C63E
:1017E000A5008A06558E83C6B500AA06558E83C607
:1017F000C500CA06558E50C503C6E500220683C63D
:10180000D500558E83C6F500C206558E83C60501E8
:101810008D8AE206558E10C903C60501098283C66A
:1018200015019A06558E83C62501BA06558E83C6C4
:101830003501BD8ADA06558E50C903C635011182BD
:1018400083C645019206558E83C65501B206558E54
:1018500083C6650193F6F603D206558E10CD03C6F6
:101860006501198283C675018A06558E83C6850176
:10187000AA06558E83C69501CA06558E50CD03C65D
:10188000B501220683C6A501558E83C6C501C206D1
:10189000558E83C6D5018D8AE206558E10D103C6BA
:1018A000D501098283C6E5019A06558E83C5F501E7
:1018B000BA05D18D4CD18280D0513982A30FC50099
:1018C000D0511982230FC500D0510A0683C63502B4
:1018D0003696A30EC50003D62502230EC5009051EF
:1018E0002182A30DC5009051230DC500D04D498222
:1018F000A30CC500D04D2982230CC500D04D098210
:10190000A30BC500904D5182D44D9A063696230BF9
:10191000C500904D3182A30AC500904D1182230A63
:10192000C500D0495982944D92063696A309C50048
:10193000D04939822309C500D0491982A308C500BE
:10194000D0490A0683C6350136962308C50003D65A
:101950002501A307C500904921822307C5009049AE
:10196000A306C500D04549822306C500D04529827B
:10197000A305C500D04509822305C50090455182C5
:10198000D4459A063696A304C500904531822304B7
:10199000C50090451182A303C500D04159829445EA
:1019A000920636962303C500D0413982A302C500B2
:1019B000D04119822302C500D0410A0683C63500F2
:1019C0003696A301C50003D625002301C50090412A
:1019D0002182A300C5008C412300B50082803571AF
:1019E00006CF26CD4ACB4EC952C756C55AC35EC193
:1019F000E2DEE6DCB2842A890A8A5285970000007A
:101A0000E78060D7B70A000413858AFF82456D8D91
:101A10002AC0370510009305F5FF1256F18D4D8D44
:101A20002AD2930981024E85A68597000000E7809F
:101A300080D44E85D28597F0FFFFE78060B684089A
:101A40002685A68597F0FFFFE780203B4E85CE8553
:101A5000268697000000E780A0122258130F380155
:101A60001356AF01B258B38FC80013D7AF01C2529B
:101A7000330C57009354AC015253338B6400E25340
:101A80009357AB019E97725E93D6A701F296864E4E
:101A900013D5A601769596451356A5012E96264A8E
:101AA0009354A601D294B70B200013D7A401B36BB3
:101AB00077011387FAFF337FEF00B3FFEF00B37AAC
:101AC000EC00798EF98FF98E798D337BEB0033FC46
:101AD000E400B18DB64C33879B0193545701858840
:101AE000B3049040E58DB3CBC5003346D501658E78
:101AF000B34EA60033C6C601658E334ED600B3C6BC
:101B00007700E58EBD8EB3476B00E58FB3C76701E5
:101B1000B3C55A00E58DB3C5550133C51F01658DA9
:101B20003345F50133460F01658E3346E60132D465
:101B30002AD62ED83EDA36DC72DEF6C0DEC2334557
:101B40004C01658D33458501AAC433459701658DE8
:101B5000398DAAC64A85CE8597000000E78000D659
:101B60000145E65C765C8A4B1A4BAA4A3A4ACA4956
:101B70005A49EA44FA400D6182800000757122C71B
:101B800026C54AC34EC1D2DE86DC370A00047D1A60
:101B90002A84AE843289281097100000E78000DB89
:101BA00083A2040003AF440103A3440037080004E8
:101BB000B382E24113D5F241B375A80083AF84012B
:101BC000AE9205893303A3403303F34183A384001A
:101BD0001355F341B375A80003AFC4012E930589D3
:101BE000B383A340B383E34103AEC40013D5F341F1
:101BF000B375A80083AF0402AE930589330EAE40DF
:101C0000330EFE4183AE04011355FE41B375A800A7
:101C100003AF44022E9E0589B38EAE40B38EEE41D3
:101C200093D9FE4133F54901B3C2A2003343A30067
:101C3000B3C3A300334EAE00B3CE3E0133053041F3
:101C4000AA9213D5F2012A93B3F242011355F3017C
:101C5000AA933373430113D5F3012A9EB3F34301CF
:101C60001355FE01AA9E337E4E0196C89ACA9ECC99
:101C7000F2CEF6D083220900032F49010323490045
:101C800037080004B382E24113D5F241B375A800CE
:101C9000832F8901AE9205893303A3403303F341B7
:101CA000832389001355F341B375A800032FC9019D
:101CB0002E930589B383A340B383E341032EC90068
:101CC00013D5F341B375A800832F0902AE9305899C
:101CD000330EAE40330EFE41832E09011355FE41F3
:101CE000B375A800032F49022E9E0589B38EAE401E
:101CF000B38EEE4193D5FE4133F54501B3C2A20048
:101D00003343A300B3C3A300334EAE00B3CEBE0033
:101D10003305B040AA9213D5F2012A93B3F24201DF
:101D20001355F301AA933373430113D5F3012A9E8C
:101D3000B3F343011355FE01AA9E337E4E01B3C98E
:101D4000B90096D29AD49ED6F2D8F6DA0A858C08D3
:101D5000D01097100000E78060BF88089385440189
:101D60001306490197100000E78040BEF25E064F5F
:101D7000964F2645B6454646D6466647F647065828
:101D800076969652FA967E97AA972E98265EB30E6E
:101D9000560013931200939342001E939A9293D489
:101DA00052019602B3F242011696B652338FC60123
:101DB00013131E0093134E001E931A9E13595E01B7
:101DC000160E337E4E01269EF296465EB30F5700E6
:101DD00013931200939342001E931693935453014E
:101DE0001603337343014A931A97D6523385C701BA
:101DF00013131E0093134E001E9372931359530135
:101E000016033373430126939A97524EB305580035
:101E100013931200939342001E931693935453010D
:101E20001603337343014A931A9813931400939340
:101E300044001E9316039A9EE2424E9E334E3E018C
:101E4000B38ECE4133A30E00330F6F40B7080004AA
:101E50003303604033F368009A9E13D3AE011A9F98
:101E6000B3FE4E01724ECE92B3C23201330F5F40C9
:101E700033230F00B38F6F403303604033F36800A8
:101E80001A9F1353AF019A9F337F4F0182524E9E88
:101E9000334E3E01B38FCF4133A30F00330565406E
:101EA0003303604033F368009A9F13D3AF011A9550
:101EB000B3FF4F01125ECE92B3C2320133055540DB
:101EC00033230500B385654033036040337313014A
:101ED0001A951353A5019A95337545014E9E334EBD
:101EE0003E01B385C5413323050093030026330328
:101EF0006040B3F3630033067640337313019A9561
:101F000013D3A50193131300131E4300F2931E93E2
:101F100016031A96B3F5450113931E0093934E00D2
:101F20001E939A9E93D45E01960EB3FE4E01131338
:101F30001F0093134F001E931A9F13595F01160F32
:101F4000337F4F01269F13931F0093934F001E93DF
:101F50009A9F93D45F01960FB3FF4F01CA9F13134B
:101F60001500931345001E931A9513595501160534
:101F700033754501269513931500939345001E93E1
:101F80009A9593D455019605B3F54501CA952696C1
:101F9000A2523253C2535259625E1696969E8242A4
:101FA0009A961A9F1E979E9FCA974A957298F29585
:101FB000124ECE92B3C2320133065640332306008E
:101FC000B386664033036040337313011A96A2420E
:101FD0004E9E334E3E01B386C64133A306003307FF
:101FE000674033036040337313019A96324ECE92AA
:101FF000B3C232013307574033230700B38767402A
:1020000033036040337313011A97C2424E9E334E1E
:102010003E01B387C74133A3070033086840330349
:102020006040337313019A97CE92B3C232013308E2
:102030005840332308003303604093030026B373F2
:102040007300B38E7E40337313011A9893D2AE019E
:10205000169FB3FE4E019352AF01969F337F4F01FF
:1020600093D2AF011695B3FF4F019352A5019695F8
:102070003375450193D2A5011696B3F545019352E8
:10208000A60196963376460193D2A6011697B3F62B
:1020900046019352A70196973377470193D2A70140
:1020A0001698B3F747019352580113931200939374
:1020B00042001E931693B7022000FD123378580099
:1020C0009A9E93D2AE01169FB3FE4E019352AF017A
:1020D000969F337F4F0193D2AF011695B3FF4F0107
:1020E0009352A50196953375450193D2A501169695
:1020F000B3F545019352A60196963376460193D2E5
:10210000A6011697B3F646019352A7019697337727
:10211000470193D2A70116982320D4012322E4017A
:102120002324F40148C40CC850C814CC58CC1CD08B
:10213000232204033A44AA441A498A49765AE650AB
:1021400049618280370700047D1713F315003303BC
:10215000604033766500858113F3150033036040DA
:1021600093539501B3F6630093131500B3F3E300A3
:10217000B3F363001E96858113F3150033036040AB
:1021800093538501B3F363009E9693132500B3F335
:10219000E300B3F363001E96858113F31500330348
:1021A000604093537501B3F363009E96931335001B
:1021B000B3F3E300B3F363001E96858113F31500B8
:1021C0003303604093536501B3F363009E9693130A
:1021D0004500B3F3E300B3F363001E96858113F368
:1021E00015003303604093535501B3F363009E968B
:1021F00093135500B3F3E300B3F363001E96858198
:1022000013F315003303604093534501B3F36300A8
:102210009E9693136500B3F3E300B3F363001E9639
:10222000858113F315003303604093533501B3F3F5
:1022300063009E9693137500B3F3E300B3F363005A
:102240001E96858113F315003303604093532501D7
:10225000B3F363009E9693138500B3F3E300B3F3E7
:1022600063001E96858113F315003303604093537A
:102270001501B3F363009E9693139500B3F3E30047
:10228000B3F363001E96858113F31500330360409A
:1022900093530501B3F363009E969313A500B3F324
:1022A000E300B3F363001E96858113F31500330337
:1022B00060409353F500B3F363009E969313B5000B
:1022C000B3F3E300B3F363001E96858113F31500A7
:1022D000330360409353E500B3F363009E9693137A
:1022E000C500B3F3E300B3F363001E96858113F3D7
:1022F0001500330360409353D500B3F363009E96FB
:102300009313D500B3F3E300B3F363001E96858106
:1023100013F31500330360409353C500B3F3630018
:102320009E969313E500B3F3E300B3F363001E96A8
:10233000858113F31500330360409353B500B3F365
:1023400063009E969313F500B3F3E300B3F36300C9
:102350001E96858113F31500330360409353A50047
:10236000B3F363009E9693130501B3F3E300B3F355
:1023700063001E96858113F3150033036040935369
:102380009500B3F363009E9693131501B3F3E30036
:10239000B3F363001E96858113F315003303604089
:1023A00093538500B3F363009E9693132501B3F313
:1023B000E300B3F363001E96858113F31500330326
:1023C000604093537500B3F363009E9693133501F9
:1023D000B3F3E300B3F363001E96858113F3150096
:1023E0003303604093536500B3F363009E969313E9
:1023F0004501B3F3E300B3F363001E96858113F345
:1024000015003303604093535500B3F363009E9669
:1024100093135501B3F3E300B3F363001E96858174
:1024200013F315003303604093534500B3F3630087
:102430009E9693136501B3F3E300B3F363001E9616
:10244000858113F315003303604093533500B3F3D4
:1024500063009E9693137501B3F3E300B3F3630037
:102460001E96858113F315003303604093532500B6
:10247000B3F363009E9693138501B3F3E300B3F3C4
:1024800063001E96858113F3150033036040935358
:102490001500B3F363009E9693139501B3F3E30025
:1024A000B3F363001E969352A601B38556003375AD
:1024B000E6008280011122CE26CC4ACA4EC852C6FE
:1024C00083A205002A84AE84B7080004FD18139384
:1024D000620033731301169393931200B389720051
:1024E000139E0201337E1E011A9E93938900B3F35B
:1024F00013011E9E8E03B3F313011E9E8E03B3F3CE
:102500001301B30E7E0013D9420193D2A200169993
:1025100083A2440093D9C9004E9993D939004E99AA
:1025200093D93900330F390113D9AE014A9FB3FE55
:102530001E011393620033731301169393931200D9
:10254000B3897200139E0201337E1E011A9E93937B
:102550008900B3F313011E9E8E03B3F313011E9E75
:102560008E03B3F31301F2931E9F13D9420193D24A
:10257000A200169983A2840093D9C9004E9993D9D9
:1025800039004E9993D93900B30F39011359AF016E
:10259000CA9F337F1F011393620033731301169395
:1025A00093931200B3897200139E0201337E1E01C1
:1025B0001A9E93938900B3F313011E9E8E03B3F307
:1025C00013011E9E8E03B3F31301F2939E9F13D942
:1025D000420193D2A200169983A2C40093D9C900E4
:1025E0004E9993D939004E9993D939003305390161
:1025F00013D9AF014A95B3FF1F01139362003373E0
:102600001301169393931200B3897200139E020173
:10261000337E1E011A9E93938900B3F313011E9E0D
:102620008E03B3F313011E9E8E03B3F31301F293D3
:102630001E9513D9420193D2A200169983A20401D8
:1026400093D9C9004E9993D939004E9993D939003D
:10265000B30539011359A501CA95337515011393B3
:10266000620033731301169393931200B3897200BF
:10267000139E0201337E1E011A9E93938900B3F3C9
:1026800013011E9E8E03B3F313011E9E8E03B3F33C
:102690001301F2939E9513D9420193D2A200169989
:1026A00083A2440193D9C9004E9993D939004E9918
:1026B00093D939003306390113D9A5014A96B3F5E8
:1026C0001501139362003373130116939393120051
:1026D000B3897200139E0201337E1E011A9E9393EA
:1026E0008900B3F313011E9E8E03B3F313011E9EE4
:1026F0008E03B3F31301F2931E9613D9420193D2C2
:10270000A200169983A2840193D9C9004E9993D946
:1027100039004E9993D93900B30639011359A601EE
:10272000CA9633761601139362003373130116931E
:1027300093931200B3897200139E0201337E1E012F
:102740001A9E93938900B3F313011E9E8E03B3F375
:1027500013011E9E8E03B3F31301F2939E9613D9B9
:10276000420193D2A200169983A2C40193D9C90051
:102770004E9993D939004E9993D9390033073901CD
:1027800013D9A6014A97B3F6160113936200337367
:102790001301169393931200B3897200139E0201E2
:1027A000337E1E011A9E93938900B3F313011E9E7C
:1027B0008E03B3F313011E9E8E03B3F31301F29342
:1027C0001E9713D9420193D2A200169983A2040244
:1027D00093D9C9004E9993D939004E9993D93900AC
:1027E000B30739011359A701CA9733771701139318
:1027F000620033731301169393931200B38972002E
:10280000139E0201337E1E011A9E93938900B3F337
:1028100013011E9E8E03B3F313011E9E8E03B3F3AA
:102820001301F2939E9713D9420193D2A2001699F5
:1028300083A2440293D9C9004E9993D939004E9985
:1028400093D939003308390113D9A7014A98B3F74E
:102850001701370920007D19139362003373230198
:10286000169393931200B3897200139E0201337E74
:102870002E011A9E93938900B3F323011E9E8E03AB
:10288000B3F323011E9E8E03B3F32301F2931E982C
:10289000135358013378280113D9F20093D2520010
:1028A000169993D979004E9993D939004E9993D9B5
:1028B00039004E991A999312490013131900CA92BC
:1028C0009A92969E13D3AE01B3FE1E011A9F135324
:1028D000AF01337F1F019A9F13D3AF01B3FF1F01D5
:1028E0001A951353A501337515019A9513D3A501B4
:1028F000B3F515011A961353A601337616019A966D
:1029000013D3A601B3F616011A971353A701337711
:1029100017019A9713D3A701B3F717011A98232029
:10292000D4012322E4012324F40148C40CC850C874
:1029300014CC58CC1CD0232204037244E2445249E4
:10294000C249324A056182805971A2D6A6D4CAD240
:10295000CED0D2CE86CC2A84AE843289370A000407
:102960007D1A0818B105310697000000E780005C69
:102970002808A6854A8697000000E780606A83A23F
:10298000040003A3440083A3840003AEC40083AE09
:10299000040137050004B382C24193D5F241337676
:1029A000B500B29285893303B3403303D3419355C5
:1029B000F3413376B50032938589B383B34093D91D
:1029C000F34133FE4901B3C2C2013343C301B3C370
:1029D0003301330E3041F29213DEA2017293B3F24F
:1029E0004201135EA301F2933373430196C09AC26E
:1029F0009EC4832209000323490083238900032EF8
:102A0000C900832E0901B382C24193D5F2413376C6
:102A1000B500B29285893303B3403303D341935554
:102A2000F3413376B50032938589B383B34013D530
:102A3000F341337E4501B3C2C2013343C301B3C383
:102A4000A300330EA040F29213DEA2017293B3F200
:102A50004201135EA301F2933373430196C69AC8F1
:102A60009ECA33CCA9000A858C00F00097000000B4
:102A7000E780005BE24E724F825F1255A2553256DC
:102A8000C2565257E2577258AA962E97B29733857C
:102A9000DE00B305EF003386FF00C2962320D40189
:102AA0002322E4012324F40182421243A243324E42
:102AB000C24E524FCE92B3C232014E9333433301D2
:102AC000CE93B3C333014E9E334E3E01CE9EB3CE62
:102AD0003E014E9F334F3F0133055540B38565405E
:102AE00033067640B386C6413307D741B387E74103
:102AF000B3220500B3855540130E1A00B3025040AF
:102B0000B3725E001695B3A2050033065640B302B9
:102B10005040B3725E009695B3220600B3865640CD
:102B2000B3025040B3725E001696B3A2060033079C
:102B30005740B3025040B3725E009696B32207002E
:102B4000B3875740B3025040B3725E00169793525A
:102B5000A50196953375450193D2A5011696B3F557
:102B600045019352A60196963376460193D2A6016B
:102B70001697B3F646019352A7019697337747010C
:102B800093D2A7011698B3F7470148C40CC850C8A0
:102B900014CC58CC1CD0232204033654A654165906
:102BA0008659764AE64065618280000083220600ED
:102BB00003A306007D17B3C36200B3737700032E2F
:102BC000460083AE4600334F7300B3CF720023201C
:102BD000E50123A0F501B343DE01B3F3E300832253
:102BE000860003A3860033CF7E00B34F7E002322EE
:102BF000E50123A2F501B3C36200B3F3E300032EA2
:102C0000C60083AEC600334F7300B3CF72002324D7
:102C1000E50123A4F501B343DE01B3F3E30083220E
:102C2000060103A3060133CF7E00B34F7E002326A7
:102C3000E50123A6F501B3C36200B3F3E300032E5D
:102C4000460183AE4601334F7300B3CF7200232891
:102C5000E50123A8F501B343DE01B3F3E3008322CA
:102C6000860103A3860133CF7E00B34F7E00232A63
:102C7000E50123AAF501B3C36200B3F3E300032E19
:102C8000C60183AEC601334F7300B3CF7200232C4D
:102C9000E50123ACF501B343DE01B3F3E300832286
:102CA000060203A3060233CF7E00B34F7E00232E1D
:102CB000E50123AEF501B3C36200B3F3E300032ED5
:102CC000460283AE4602334F7300B3CF7200232017
:102CD000E50323A0F503B343DE01B3F3E30083224E
:102CE000860203A3860233CF7E00B34F7E002322E9
:102CF000E50323A2F503B3C36200B3F3E300032E9D
:102D0000C60283AEC602334F7300B3CF72002324D2
:102D1000E50323A4F503B343DE01B3F3E300832209
:102D2000060303A3060333CF7E00B34F7E002326A2
:102D3000E50323A6F503B3C36200B3F3E300032E58
:102D4000460383AE4603334F7300B3CF720023288C
:102D5000E50323A8F503B343DE01B3F3E3008322C5
:102D6000860303A3860333CF7E00B34F7E00232A5E
:102D7000E50323AAF503B3C36200B3F3E300032E14
:102D8000C60383AEC603334F7300B3CF7200232C48
:102D9000E50323ACF503B343DE01B3F3E300832281
:102DA000060403A3060433CF7E00B34F7E00232E18
:102DB000E50323AEF503B3C36200B3F3E300032ED0
:102DC000460483AE4604334F7300B3CF7200232012
:102DD000E50523A0F505B343DE01B3F3E300832249
:102DE000860403A3860433CF7E00B34F7E002322E4
:102DF000E50523A2F505B3C36200B3F3E300032E98
:102E0000C60483AEC604334F7300B3CF72002324CD
:102E1000E50523A4F505B343DE01B3F3E30033CFA7
:102E20007E00B34F7E002326E50523A6F5058280AC
:102E3000832205000323450083238500032EC5005C
:102E4000832E0501032F4501832F85014C4D105121
:102E5000545113D7A201370800047D18B3F20201C0
:102E60001A973373070169831E97B3730701698348
:102E70007297337E070169837697B37E0701698372
:102E80007A97337F070169837E97B37F0701698350
:102E90002E97B375070169833297337607016983EB
:102EA0003697B7072000FD17B376F70055839317C1
:102EB000470093181700C6973E971697B3720701FD
:102EC00069831A973373070169831E97B3730701E8
:102ED00069837297337E070169837697B37E070112
:102EE00069837A97337F070169837E97B37F0701F0
:102EF00069832E97B375070169833297337607018B
:102F00006983BA9623205500232265002324750087
:102F10002326C5012328D501232AE501232CF50109
:102F20004CCD10D154D18280011122CE26CC4ACA78
:102F30004EC852C656C45AC206C02A84AE843289CC
:102F400088408325090097F0FFFFE780E01F08C055
:102F5000B309B500C8402E8A8325490097F0FFFFCA
:102F6000E780801EAA9983A2040003A34400832360
:102F70000900032E49002A9A2E9AAE8FB38262402E
:102F800093DAF241B383C34113DBF341D69233C5E5
:102F90005201DA93B3C56301B3CA6A017E8B97F01D
:102FA000FFFFE780601A569533455501B389A94064
:102FB000D695B3C55501330ABA40370300047D13D3
:102FC000B3A20900330A5A4093031300B3025040DE
:102FD000B3F253009699B3220A00330B5B40B3025D
:102FE0005040B3F25300169A93D2A901169AB3F93E
:102FF00069009352AA01169B337A6A002322340196
:1030000023244401232664017244E2445249C24904
:10301000324AA24A124B8240056182805D71A2C68B
:10302000A6C4CAC2CEC052DE06DC370A00047D1A2E
:103030002A84AE8432890A85A6854A8697000000D4
:10304000E780C0EE83A2040003A3440083A38400AE
:10305000B382724013DEF24193731E003303734058
:1030600013051A003375AE00AA929359F341B3F3D6
:10307000490133433301B3C27200330E3041F2923F
:1030800013DEA2017293B3F2420116D01AD2832248
:1030900009000323490083238900B382724013DEB1
:1030A000F24193731E003303734013051A00337506
:1030B000AE00AA92135EF34133754E013343C30150
:1030C000B3C2A200B30EC041F69293DEA201769382
:1030D000B3F2420116D41AD6B3C9C90108080C10BC
:1030E000301097000000E78060E488448325890061
:1030F00097F0FFFFE78040052247B247024692461D
:103100003A95BE953307C500B387D500C2425243F6
:10311000E243724ECE92B3C232014E933343330137
:10312000CE93B3C333014E9E334E3E013307574017
:10313000B387674033057540B385C541B3220700A7
:10314000B387574093031A00B3025040B3F25300C1
:103150001697B3A2070033055540B3025040B3F2AF
:1031600053009697B3220500B3855540B3025040F3
:10317000B3F2530016959352A70196973377470100
:1031800093D2A7011695B3F747019352A5019695DF
:103190003375450110C054C018C45CC408C84CC87D
:1031A0003644A64416498649725AE25061618280CB
:1031B0008397C500011122CC13970701418326CACA
:1031C00006CE4AC84EC693768700AA842E84E5EEC2
:1031D000056713070780D98FD8412396F500634D03
:1031E000E000D85D634AE0000145F2406244D24409
:1031F0004249B2490561828018547DD703A9040071
:103200009396370123A0040063D5060830488357FE
:10321000C400918B99C75C401D8E1C5899C35C5C9F
:103220001D8E1C544C4C814626858297FD57835633
:10323000C400631DF5009C4075476360F7083707BD
:10324000402005073357F700058B25CBFD77938783
:10325000F77F1848F58FC207C18718C02316F400FE
:10326000232204001397370163580700FD576314A6
:10327000F5009C4091E328C80C5823A02401ADD54B
:10328000930704046384F500268549262328040255
:10329000A1BF4C4C0146854626850297FD572A86DC
:1032A000E317F5F69C40A5D775476385E7005947B6
:1032B0006394E70423A0240105BF93E706042316C3
:1032C000F4007D551DB783A90501E38F09F003A91B
:1032D00005000D8B23A0350133093941814711E3E6
:1032E000DC491CC4E35220F15C504C4CCA864E862B
:1032F000268582976347A0008357C40093E707049D
:103300007DBFAA993309A940F1BF011122CC06CE95
:103310002A8411C51C5D81E72EC62122B245839700
:10332000C50091C722856244F240056151B5F24063
:103330006244014505618280AA8509E99387018578
:10334000884397050000938585FCD5A997E7FE5F24
:103350009387C7EE884355BF01458280411122C43F
:1033600006C62A842316B5002317C50023200500AE
:103370002322050023240500232205062328050017
:10338000232A0500232C0500214681451305C50588
:10339000EF00B02D971700009387A7CF1CD0971789
:1033A0000000938767D25CD0971700009387E7D619
:1033B0001CD4971700009387C7D940CC5CD4B24087
:1033C000224441018280972500009385456585A9A7
:1033D00001458280411126C2130680069384F5FFC1
:1033E000B384C4024AC02E8922C406C6938544070A
:1033F0006D292A8401CD23200500232225013105D2
:1034000008C4138684068145EF0030262285B24029
:103410002244924402494101828093870185884376
:103420005DB71C5DA9E7411106C622C497070000DD
:103430009387A7F95CDD8D472322F52E9307C52ED0
:103440002A842324F52E2320052E48410146914548
:10345000313708440546A545113748440946C94552
:10346000F53D85471CDCB2402244410182808280C8
:1034700041119387018526C284434AC006C69C5CDD
:1034800022C42A8999E32685693F9384042E8044C7
:10349000DC40FD1763D607009C40B9CF8440C5BF10
:1034A0000317C40039E7C1778507232204062320C8
:1034B000040023220400232404005CC42328040005
:1034C000232A0400232C0400214681451305C4054A
:1034D000EF00B01923280402232A04022322040443
:1034E000232404042285B24022449244024941012B
:1034F00082801304840671BF91454A85E13D88C0EE
:1035000051FDB1472320F9000144E9BF8280828048
:103510008280828097E7FE5F938747D28843970532
:1035200000009385A5E35DAC97E7FE5F938707D125
:103530008843970500009385E5E94DA4011122CC4D
:1035400026CA4AC84EC62E8406CE2A8997D9FE5F5F
:103550009389C9F1EF00F01B83A789000567C44375
:103560009307F7FE33848740F198269431807D14C9
:103570003204635DE4004A85EF00D0190145F24052
:103580006244D2444249B2490561828081454A85FC
:10359000EF00502D83A78900A697E31EF5FCB30525
:1035A00080404A85EF00102CFD57631BF5028145D2
:1035B0004A85EF00302B03A78900BD46B307E540DD
:1035C000E3DBF6FA97E6FE5F938686C7944293E7BD
:1035D00017005CC3158D97E6FE5F23A1A6CC61BFE3
:1035E00083A78900818C93E41400C4C397E7FE5F2E
:1035F0009387C7CA9C434A853384874097E7FE5F19
:1036000023AE87C8EF001011054595BF6387051CE1
:10361000411122C426C22A84AE8406C6EF00700F70
:1036200083A5C4FF938684FF17D5FE5F130505E4C9
:1036300093F7E5FF3386F600584203288500858915
:10364000719B6318C804BA9789E903A784FF998E10
:103650009046BA97D84658C610C713E71700D8C285
:1036600017D7FE5F2328D7E017E7FE5F130787BD54
:10367000184363E9E70097E7FE5F9387E7C18C4350
:1036800022856D3D22852244B240924441016F0063
:10369000700858C2014895E183A584FF97D8FE5F62
:1036A000938848DD8D8EAE978C466385150983A877
:1036B000C60023A6150123A4B800B305E600CC413B
:1036C000858995E5BA9718466318080697D5FE5F71
:1036D000938545DA6312B70617D6FE5F2322D6DA42
:1036E00017D6FE5F232CD6D8D8C698C6054813E750
:1036F0001700D8C23387F6001CC3E31508F8130778
:10370000F01F636FF7028D8313D6274005473317E9
:10371000C700504185078E07518FAA9717D6FE5FC5
:103720002328E6D49843138687FFD0C698C694C34F
:1037300054C789BF054851B7504650C718C645BF42
:1037400013D697001147636EC70213D7670013079C
:103750008703130617000E062A96930586FF10426C
:103760006397C506854709873397E7005C415D8FFE
:1037700097D7FE5F23AEE7CECCC690C694C554C69D
:1037800011B751476365C7001307B605D9B71307CB
:1037900040056367C70013D7C7001307E70655BF87
:1037A000130740156367C70013D7F70013077707A0
:1037B0004DB7930540551307E007E3ECC5F813D761
:1037C00027011307C70771B710466386C500584223
:1037D000719BE3EBE7FE4C4645B78280797122D4BA
:1037E0004AD052CC56CA06D626D24ECE1304052E47
:1037F0000149054AFD5A19E8B25022544A859254AB
:103800000259F249624AD24A4561828004448329BE
:103810004400FD1963D409000040F1BF83D7C40000
:10382000637CFA008397E4006388570126852EC6DF
:103830008295B2453369A90093848406D9BF797112
:1038400022D44AD052CC56CA5AC85EC606D626D210
:103850004ECE2A8AAE8A1304052E0149054BFD5B24
:1038600009ECB25022544A8592540259F249624AF4
:10387000D24A424BB24B45618280044483294400C2
:10388000FD1963D409000040E1BF83D7C400637B06
:10389000FB008397E40063877701A6855285829AAF
:1038A0003369A90093848406E1BF797106D622D4D6
:1038B00026D24AD04ECE52CC56CA5AC85EC662C430
:1038C00066C29387B50059476376F70293F487FF82
:1038D00063D30402B1471CC10145B2502254925433
:1038E0000259F249624AD24A424BB24B224C924CA4
:1038F00045618280C144E3EFB4FC2A89192D930706
:10390000701F97D9FE5F938969B663EC970213879E
:1039100084004E974043930687FF93D73400631685
:10392000D40040478907630C87045C405844144422
:10393000F19BA297D8C614C7D84313671700D8C302
:1039400051A013D794009307F00301CB914763E094
:10395000E70893D7640093878703138717000E0740
:103960004E974043930587FF3D456309B400584097
:10397000719B33069740635FC508FD17850703A455
:10398000090197D5FE5F9385E5AE630CB40E5840F0
:10399000BD46719B3306974063D9C60893E7140070
:1039A0005CC0B306940097D7FE5F23ABD7AC97D724
:1039B000FE5F23A5D7AC93671600CCC68CC6DCC2CD
:1039C000229710C34A85B9231305840039B7D1471C
:1039D00063E5E7009307B70549B79307400563E739
:1039E000E70093D7C4009387E70685BF9307401588
:1039F00063E7E70093D7F40093877707B9BF93068F
:103A000040559307E007E3EAE6F493D72401938750
:103A1000C707A1B75444634806001C44D4C79CC6DA
:103A2000B307E40011BF368489B797D6FE5F23A998
:103A3000B6A497D6FE5F23A3B6A4634806002297D8
:103A40005C4393E717005CC3B5BF9306F01F03A860
:103A5000490063E7E6140D831356274085460507A2
:103A6000B396C6000E074E97B3E6060117D6FE5F63
:103A70002320D6A01443130687FF50C414C400C3E8
:103A8000C0C613D7274005433313E30003A74900FB
:103A9000636E6704B376670099E6F19B0603B3761D
:103AA00067009107E5DE3D4E93963700CE96368847
:103AB0003E850324C80063120419050513773500F9
:103AC000210865FB13F737006316071C03A749009D
:103AD0009347F3FFF98F17D7FE5F232BF79803A7C0
:103AE00049000603636467006312031C83AB89000B
:103AF00003A44B00937AC4FF63E79A0033879A408C
:103B0000BD4763CDE72897D7FE5F9387E77817D740
:103B1000FE5F1307E77280431443FD57338C5B014C
:103B200026943A8A6396F6184104A2854A851D2B8D
:103B3000FD572A8B6308F5206374850163943B214C
:103B400097DCFE5F938C8C7503A70C00229797D7A8
:103B5000FE5F23A5E77463136C1793174C01639FF3
:103B6000071483A78900569413641400C0C317D7A1
:103B7000FE5F1307277283A70C0018436376F700D4
:103B800017D7FE5F2328F77017D7FE5F130747701C
:103B900018436379F71A17D7FE5F232BF76E5DA2E0
:103BA00013569700914663EEC602935667009386BC
:103BB0008603138616000E064E96130586FF1042E6
:103BC0006317C50605478986B316D700B3E6060115
:103BD00017D7FE5F232ED78848C410C400C540C63F
:103BE0004DB5D14663E5C6009306B605D9B7930631
:103BF000400563E7C6009356C7009386E60655BFA7
:103C00009306401563E7C6009356F7009386760740
:103C10004DB7130540559306E007E36CC5F893567E
:103C200027019386C60771B710466306C500544244
:103C3000F19AE36BD7FE484645B758405044719B14
:103C4000B3089740635B1E0393E714005CC01C44F9
:103C5000B30694002297D0C71CC697D7FE5F23A156
:103C6000D78297D7FE5F23ABD78093E71800CCC6E7
:103C70008CC6DCC223201701B1B363CB08002297A6
:103C80005C4393E717005CC31C44D0C71CC61DBB34
:103C9000328415B5E1169846FD17E305D7E281B5E4
:103CA00091070603B3766700E5DEFDBBAA87DDBF9B
:103CB00005673D073A94FD777D8C85BD83260A0014
:103CC000FD57639FF60897D7FE5F23AB6757137CBA
:103CD0007B00814763060C00A147B38787413E9B69
:103CE0000565338AA7005A947D15B377A400330A7B
:103CF000FA40337AAA00D2854A85AD26FD5763196A
:103D0000F500228563050C0013058CFF2295014AFE
:103D100083A70C0033056541D2972A9A17D7FE5F17
:103D2000232EF756136A1A0097C7FE5F23A4677500
:103D300023224B01E38D3BE33D47636B57038547EC
:103D40002322FB0083A78900DC43F19B3387974044
:103D500063E59700BD4763C3E7044A85652AADBEA6
:103D6000B3078B41BA9717D7FE5F2329F75285B760
:103D700083A74B0013844AFF6198858BC18F23A2D0
:103D8000FB009546B3878B00D4C394C7E37187DEED
:103D900093858B004A85EFF07F87D1BB03A4890010
:103DA00093E714005CC0B307940097C6FE5F23A39B
:103DB000F66C61B6B3C7A5008D8B3307C50081E7EC
:103DC0008D4763EEC700AA876370E50A83C60500C6
:103DD00085078505A38FD7FEE3EAE7FE8280937609
:103DE0003500AA8791CA83C6050085078505A38F7C
:103DF000D7FE93F63700FDB79376C7FF138606FE0E
:103E000063F0C70683A3050083A2450083AF850046
:103E100003AFC50083AE050103AE450103A38501D1
:103E200083A8C5019385450223A0770003A8C5FF99
:103E300023A2570023A4F70123A6E70123A8D70153
:103E400023AAC70123AC670023AE1701938747025B
:103E500023AE07FF75B790419107910523AEC7FECA
:103E6000E3EBD7FEE3E4E7F682803D432A87637302
:103E7000C3029377F700BDEFADE5937606FF3D8A69
:103E8000BA960CC34CC30CC74CC74107E36BD7FEB3
:103E900011E28280B306C3408A069702000096961C
:103EA0006780A6002307B700A306B7002306B70064
:103EB000A305B7002305B700A304B7002304B70088
:103EC000A303B7002303B700A302B7002302B70080
:103ED000A301B7002301B700A300B7002300B70078
:103EE000828093F5F50F93968500D58D9396050105
:103EF000D58D61B79396270097020000969686822B
:103F0000E78086FA9680C1171D8F3E96E374C3F84A
:103F1000A5B782808280397132D436D63AD83EDA5B
:103F200042DC46DE2E860C45341006CE36C62D2CDD
:103F3000F24021618280397132D436D63EDA2ED2F7
:103F40003AD842DC46DE97D7FE5F9387272F9C4303
:103F500054102A868C473E8506CE36C63124F24060
:103F600021618280104511A897D7FE5F9387072DA6
:103F70009C43AA8590473E8509A0011122CC06CE1C
:103F80002A8409C91C5D99E732C62EC4EFF06FC9B7
:103F90003246A2451C46FD171CC663D00702184EC8
:103FA00063C7E70093F7F50F29476398E700228579
:103FB0006244F24005616F1050061C4213F5F50F84
:103FC0001387170018C22380B700F24062440561CE
:103FD000828097D7FE5F938767262E86AA858843BF
:103FE00069BF397122DC2A842E852EC606DEA52201
:103FF00097D70000938747B43ED485473ED61C1020
:10400000B2453ECA89473ECC1C5C2AD205052ED05B
:104010002ACE0C4491E722852EC6EFF08FC0B24520
:104020008397C50013972701634B07008966F851F2
:10403000D58F2396F500F977FD17F98FFCD150083D
:104040002285EF105027FD5711E1A947F250625425
:104050003E852161828097D7FE5F9387271EAA85C0
:10406000884341B7411122C42A842E8523A40188A4
:1040700006C6EFA08049FD576317F5009387818836
:104080009C4391C31CC0B240224441018280411133
:1040900022C42E848395E50006C6EF30D0716349B3
:1040A00005003C48AA973CC8B240224441018280A6
:1040B0008357C4007D777D17F98F2316F400EDB781
:1040C0000145828083D7C500011122CC26CA4AC887
:1040D0004EC606CE93F70710AA842E843289B6897D
:1040E00099C78395E50089460146EF30203A83570A
:1040F000C4007D777D17F98F2316F4008315E40043
:104100006244F240CE864A86B24942492685D2446C
:1041100005616F10007D411122C42E848395E50056
:1041200006C6EF30A036FD570357C400631BF500E9
:10413000FD77FD17F98F2316F400B24022444101A8
:1041400082808567D98F2316F40028C8FDB7839530
:10415000E5006F10F009AA87850703C7F7FF6DFF19
:104160003385A7407D15828045712326111C2322AB
:10417000911C2320211D232E311B2328611B2E89F6
:10418000B284368B2324811C232C411B232A511BF0
:104190002326711B2324811B2322911B2320A11B77
:1041A000232EB119AA89EF3080201C413E853ED4D0
:1041B0005D372ACA82C982CB82CD82CF638809004B
:1041C00083A7890381E74E85EFF0AFA58317C90068
:1041D00013972701634D0700896603274906D58F8A
:1041E0002316F900F977FD17F98F2322F906835773
:1041F000C900A18B95C7832709019DC38357C900B7
:104200002947E98B6392E7068317E90063CE070429
:10421000DA862686CA854E85EF1060572ACC01A81B
:10422000CA854E85EF10C06E71D9FD573ECC8320F4
:10423000C11C0324811C62458324411C0329011CE9
:104240008329C11B032A811B832A411B032B011BCA
:10425000832BC11A032C811A832C411A032D011AB6
:10426000832DC11979618280FC11BEC382C782C5CA
:10427000014A3E8C02DA02D802C202D202D602CC35
:104280002684130750028347040099C36394E70808
:10429000B30A9440638C0A02BE4723209C00232269
:1042A0005C01D697BEC7AE471D47210C8507BEC52A
:1042B000635BF700D001CA854E85EF50D00F631EB7
:1042C0000550130CC10EE247D6973ECC834704003D
:1042D00099E36F10204793071400A303010AFD5DC3
:1042E00002CE0144A94B254D930CA00283CA0700BE
:1042F000138717003AC89306A00593870AFEE3E6E2
:10430000F64C17D70000130767838A07BA979C43B8
:10431000BA978287050485BF4E85EF3040095C411E
:104320003E853ED60D3D2AD24E85EF3040081C45D5
:104330003EC2925781CB924791C783C7070099C36A
:1043400013640440C2475DB78347710AE5FF9307D2
:104350000002A303F10AFDB713641400E5B7832735
:104360000B00110B3ECEE3DF07FCB307F0403ECE5F
:1043700013644400C1BF9307B002E1BF4247C24784
:10438000834A0700850763999A03832D0B0013075F
:104390004B0063D30D00FD5D3A8B3EC865B7338398
:1043A0007D03850783CAF7FFB30DE30013870AFD7A
:1043B000E377EDFE3EC891B7814DCDBF136404088D
:1043C00051B7C24702CE7247938A0AFD8507330769
:1043D0007703569783CAF7FF3ACE13870AFDE37433
:1043E000EDFEC9BF13648400B1BFC24703C7070015
:1043F000930780066318F700C247136404208507FB
:104400003EC889B71364040435BFC24703C7070019
:104410009307C0066318F700C24785073EC81364B8
:1044200004020DB71364040131BF93074B003EC66D
:1044300083270B00A303010A2306F112014B854DCC
:10444000014D02C4814B814C64126AD06353BD019B
:104450006ED00347710A01C7825785073ED0937714
:1044600024003EDC81C7825789073ED093774408F9
:104470003EDEA9EBF24702573387E7406354E0047E
:10448000C14E17DE0000130E2E821D4FAE462320B4
:10449000CC013E46850693058C00E3C1EE34232211
:1044A000EC003297BAC7B6C51D472E8C635CD700A7
:1044B000D001CA854E85EF50007019C16F10A0243D
:1044C000130CC10E0347710A05CF1307710A23208D
:1044D000EC0005472322EC003E479D46210C0507D2
:1044E000BAC72E470507BAC563DCE600D001CA8506
:1044F0004E85EF50406C19C16F10E020130CC10EB7
:10450000E2579DCB38112320EC0009472322EC0011
:104510003E479D46210C0907BAC72E470507BAC575
:1045200063DCE600D001CA854E85EF50C06819C132
:104530006F10601D130CC10EF2571307000863992A
:10454000E704F2470257998F6354F00441481D4E27
:104550002E4797C50000938525762320BC00BE46D4
:10456000050713068C00E346F82A2322FC00B697C1
:10457000BEC7BAC59D46328C63DCE600D001CA8551
:104580004E85EF50406319C16F10E017130CC10E38
:10459000330DBD416354A005C1471D482E47BE469B
:1045A00013068C000507E3CDA7292322AC0197C78A
:1045B000000093876770369D2320FC00EAC7BAC5C8
:1045C0009D46328C63DCE600D001CA854E85EF50F3
:1045D000805E19C16F102013130CC10E13770410E5
:1045E0003E4DE31A0728AE473383AD0123209C00DC
:1045F00085072322BC019AC7BEC51D47210CE35F76
:10460000F744D001CA854E85EF50E05A19C16F10AA
:10461000800F130CC10E6F00704413640401937774
:104620000402A9CF1D0B137B8BFF032D0B00832CE2
:104630004B0093078B003EC663C40C006F10E01163
:10464000330DA041B337A001B30C9041B38CFC40B3
:104650009307D002A303F10A85477D57E386ED0453
:104660002287B3669D011374F4F7E39F0602E38487
:104670000D140547E39DE7026F10200F93074B00D1
:104680003EC69377040191C7032D0B00935CFD4157
:1046900065B793770404032D0B0089C7420D135DA2
:1046A0000D41EDB793770420F5D3620D135D8D4175
:1046B000F1BF93778400B5CF93074B003EC68327A5
:1046C0000B009043D4439847DC47B2C9B6CBBACD70
:1046D0008809BECFEF2070492AD789476310F508B3
:1046E000CE470C0108093EC9DE4702C102C33ECBDA
:1046F000EE4702C502C73ECDFE473ECFEF70D05118
:10470000635605009307D002A303F10A93077004D0
:1047100097C400009384445B63D6570197C400009C
:104720009384C45A1374F4F7014B8D4D014D6F00FF
:10473000E07C1D0B137B8BFF83250B0003264B00B6
:1047400093078B0008093EC6EF907014CA47BEC994
:10475000DA47BECBEA47BECDFA479DBF8547631611
:10476000F502FE4763D607009307D002A303F10AC0
:104770009307700497C4000093848455E3D457FBD7
:1047800097C400009384045571BF93FBFAFD93070F
:104790001004639BFB04930700032304F10A13072F
:1047A0001006930780076384EA0093078005A3043B
:1047B000F10A930730061364240063D0B73393855E
:1047C0001D004E85EFF06F8EAA84631B0530835762
:1047D000C90093E707042316F9008357C90093F72C
:1047E0000704E38607A491B4FD57638DFD2E93075C
:1047F0007004014B6396FB0063940D006E8B854D36
:104800007E4A936704103ED002DC4E4EDE486E4D69
:1048100063590A00B707008033CA47019307D002E3
:104820003EDC930710046397FB2E080972C946CB40
:104830006ACD52CFEF90D01A7011EF30B0342E867F
:10484000AA850809EF90B004CA4790108C18BED80A
:10485000DA47080182D0BEDAEA4782D282D4BEDCCF
:10486000FA47BEDEB707FC3FBED6EF70904A0A4853
:104870001A46AA463A4D0C01080942C9C2C032CBB9
:1048800032DE36CD36C46ACF02C102C302C502C7CA
:10489000EF70901EA2467256064819E105473AD7B6
:1048A00097C7000093874743130710063EC46387EA
:1048B000EA0097C70000938767433EC4138EFDFF4D
:1048C000A68CB70703400C0132C308099018F2C444
:1048D00042C136C56AC7BEDE82D882DA82DCEF709A
:1048E00050434A46DA46EA470809B2C2B6C03EDE3D
:1048F000EF90A05BAA852A8A08097A4DEF90A069FB
:10490000F25716468646BEDCCA47B2D88C18BED0CF
:10491000DA4790100801BED2EA47EADEB6DABED422
:10492000FA47850CBED6EF808072A247264EBA4E5B
:10493000B385470183C505008A429A4F2A4F72DE2C
:10494000A38FBCFEFD57768D6300FE047D1E0C0117
:104950000809F6CEFACCFECA96C8F2C616C996C4A5
:104960007ECBFEC27ACDFAC076CF02C102C302C5A9
:1049700002C7EF707010864616462648364EC6426D
:10498000D64F664FF64E15FD370DFE3F0C01080958
:1049900016C996C67ECBFEC47ACDFAC276CFF6C0D3
:1049A00002C102C302C56AC7EF7070176348A00254
:1049B000B642A64F164F864E0C01080916C97ECB8B
:1049C0007ACD76CF02C102C302C56AC7EF70D00AA2
:1049D000631C0512137A1A0063080A12A24766DFE5
:1049E0009305000303C6F700FA569387F6FF3EDFF0
:1049F00083C7F6FF638BC70E13069003639AC70E37
:104A0000A24783C7A700A38FF6FE668A1307700428
:104A1000330A9A40BA5C639AEB1C755763C4EC0086
:104A200063D69D23F91A9386FCFF36D713F6FAFD59
:104A30001305100413F7FA0F81456316A6003D070E
:104A40001377F70F8545230AE10A9307B00263D76E
:104A500006008546B38696419307D002A30AF10A61
:104A6000A54763D0D71C1307310C3A85A945130815
:104A70003006B3E7B6021306F7FF93870703A30FC9
:104A8000F7FEB3C7B6026344D81893870703A30F92
:104A9000F6FE79171306610B636EA7165C19B30750
:104AA000F6403ED8B38D4701854763C547019377EC
:104AB000140099C3D247BE9D1374F4BF93670410CA
:104AC0003ED002C4814B814CE25789C71307D00204
:104AD000A303E10A0254014D8DBA014B64120DB3D8
:104AE0002A8B39BB014B994D21BBA38FB6FEEDBD7F
:104AF000850793F7F70F01BF050AA30FEAFEB387F7
:104B00004C41E3DB07FE19B7F257668A130700032F
:104B1000BE9CF5B793076004638BFB0093075004BA
:104B200013831D006383FB006E83094619A06E8307
:104B30000D461C199A861308C10B78110C094E8575
:104B400072C9F2C046CB46DE1AC46ACD52CFEF100E
:104B5000B07293077004AA842243F258064E6397FA
:104B6000FB009377140099E37A5A4DB593076004DC
:104B7000B38C64006391FB0403C704009307000334
:104B80006319F7020C01080972C972DE46CB46C4EC
:104B90009AC06ACD52CF02C102C302C502C7EF70EC
:104BA000A06DA248725E11C506438547B387674072
:104BB0003ED7BA57BE9C0C01080972C946CB6ACDD4
:104BC00052CF02C102C302C502C7EF70E06A11E111
:104BD00066DF1307000331A09386170036DF2380BA
:104BE000E700FA57E3EA97FF41B713076004E39C35
:104BF000EBE2137714003367B7016354900549CB98
:104C0000D2473387FC00BA9D930A6006BDA0328765
:104C1000BE8685B505078347F7FF0506A30FF6FE99
:104C2000A5BD1307610B99E593070003230BF10A58
:104C30001307710B93870603130617002300F70071
:104C4000B1BD29CBD2471387170075BF63CC4C0188
:104C500013771400E68D01C7D247B38DFC00930A89
:104C6000700621A8D247930A7006B30DFA00634676
:104C7000900133839D41930D1300937B044002C444
:104C8000E3840BE4814BE35190E59306F00F15A00C
:104C9000E68D9DBF930A6006854DC5B763509703A7
:104CA0009247B38CEC4003C717000DC38507850BF3
:104CB0003EC2924703C70700E312D7FEA2473387DD
:104CC000FB0092573307F702BA9DFDBBA247850749
:104CD0003EC4C5B713074B003AC6137704028327B7
:104CE0000B0009CB624798C37D87D8C3324BC244BF
:104CF0006FF00FD91377040101C7624798C3FDB75E
:104D00001377040409C762472390E700C5B71374FB
:104D1000042065D462472380E700C9BF13640401FF
:104D2000937704028DC31D0B137B8BFF032D0B00A8
:104D3000832C4B0093078B003EC61374F4BF81474E
:104D4000A303010A19BA93074B003EC693770401E7
:104D500081C7032D0B0031A09377040489C7035D3D
:104D60000B00814CD9BF93770420E5D7034D0B008E
:104D7000CDBF93074B003EC6E17793C7078323144B
:104D8000F10A97C70000938727F53EDA032D0B0041
:104D9000814C136424008947930A800755B7930711
:104DA0004B003EC6A303010AFD5783240B00638E0C
:104DB000FD006E8681452685EF20F0052A8BE307EE
:104DC0000596B30D9540014B95B22685EFF0AFB82F
:104DD000AA8DD5BF136404019377040289CF1D0BFC
:104DE000137B8BFF032D0B00832C4B0093078B0051
:104DF0003EC68547B1B793074B003EC69377040183
:104E000081C7032D0B0031A09377040489C7035D8C
:104E10000B00814CF9BF93770420E5D7034D0B00BD
:104E2000CDBF97C70000938767EC3EDA9377040203
:104E3000B1C31D0B137B8BFF032D0B00832C4B0089
:104E400093078B003EC69377140081CFB3679D0113
:104E500089CB930700032304F10AA304510B1364C5
:104E600024001374F4BF8947E1BD97C700009387FE
:104E7000A7E665BF93074B003EC69377040181C741
:104E8000032D0B0031A09377040489C7035D0B0049
:104E9000814C55BF93770420E5D7034D0B00CDBF60
:104EA000228785476FF0EFFB0547E38BE70A094749
:104EB000638DE70C1C0B9396DC0113777D00135D6B
:104EC0003D001307070333EDA60193DC3C00A38FDD
:104ED000E7FEB3669D019384F7FF95E69376140091
:104EE00089CA930600036306D700A38FD4FE938478
:104EF000E7FF1C0B6E8D014BB38D974002C4814BB5
:104F0000814C6FF08FD4A6877DB7014A1C0B937B31
:104F10000440254B294681466A85E6859384F7FF40
:104F20003EC4EF60A066A24713050503050AA38FE0
:104F3000A7FE638E0B02924783C707006319FA022C
:104F40009307F00F6305FA0263940C006371AB03DF
:104F50009257B255014A9D8C3E862685EF3080657A
:104F6000924783C7170081C7924785073EC22946EB
:104F700081466A85E685EF60802B63940C00E37AB6
:104F8000ABF72A8DAE8CA68771B7040B5257937777
:104F9000FD00FD14BA9783C70700135D4D00238001
:104FA000F4009397CC0133EDA70193DC4C00B36779
:104FB0009D01E9FF3DBF040B8DFF058B1DDB9307B2
:104FC0000003A307F1186F00C07A638D0A762306E9
:104FD0005113A303010A5AC66FF04FC6410623229C
:104FE000DC01B2C7B6C56352DF02D001CA854E8567
:104FF000BAC0EF40503C631805700647EC111D4FD6
:1050000017CE0000130E4ECAC14E41172E8C6FF002
:10501000EFC7C10623220C01B6C7BAC5635EEE0016
:10502000D001CA854E853EDCEF40F038631D056C2B
:10503000E257F0111D4E4148C117328C6FF04FD12D
:1050400097C50000938545C7C1062320BC002322D5
:10505000FC00B6C7BAC5635CE800D001CA854E85BE
:10506000EF4070356311056AF0111D48C147411DBD
:10507000328C6FF0AFD213075006635A574F4E472A
:105080000C0108093AC95E4702C102C33ACB6E4718
:1050900002C502C73ACD7E473ACFEF70E01D69EDF9
:1050A00097C700009387C7C52320FC0085472322AC
:1050B000FC00AE47050DEAC78507BEC51D47210C9C
:1050C000635BF700D001CA854E85EF40D02E631C8C
:1050D0000562130CC10EBA5763C6470193771400DB
:1050E000638E0716A2575247210C232CFCFED24791
:1050F000232EFCFEBE47BA97BEC7AE471D478507A5
:10510000BEC5635BF700D001CA854E85EF40B02A6B
:10511000631B055E130CC10E9304FAFF63509014D9
:10512000C14A9D4BAE4717C600001306E6B82320C0
:10513000CC003E47850793068C0063CD9A0023225E
:105140009C00BA94A6C7BEC51D47368C6358F7109D
:105150006FF02FCB410723225C01BAC7BEC563DACB
:10516000FB00D001CA854E85EF40F024631D055831
:10517000F411C114368C7DB73A57634EE01297C7CD
:1051800000009387E7B72320FC0085472322FC001B
:10519000AE47050DEAC78507BEC51D47210C635BF9
:1051A000F700D001CA854E85EF40F020631D0554FD
:1051B000130CC10EBA57937614003E47B367FA003A
:1051C000D58FC9CFA25793088C002320FC00D2476B
:1051D0002322FC00BA97BEC7AE471D478507BEC550
:1051E000635BF700D001CA854E85EF40D01C631C7D
:1051F00005509308C10EBA5A63D30A04B30A50414A
:105200004687C14B1D4CAE4717C600001306C6AA01
:1052100010C3BE468507A10863CC5B072322570154
:10522000B69AD6C7BEC51D47635BF700D001CA85D5
:105230004E85EF4050186318054C9308C10EBE47C9
:1052400023A0980023A24801D297BEC7AE471D47AE
:10525000138C88008507BEC56345F7BA11886312B1
:105260000446F24A825763D3FA00BE8AE247D697D1
:105270003ECCBE4781CBD001CA854E85EF40B013EE
:105280006313054882C5631A0B4A130CC10EB9BCDF
:10529000C10623227701B6C7BEC5635BFC00D001FF
:1052A000CA854E85EF403011631F05449308C10E37
:1052B000C11A468789BFE68A63539A01D28A635826
:1052C00050032E47569D23209C00050723225C0196
:1052D000EAC7BAC59D46210C63DBE600D001CA854A
:1052E0004E85EF40500D63100542130CC10E63D381
:1052F0000A00814AB38A5C4163535005414D9D4D7C
:105300002E4797C700009387279B2320FC00BE46AB
:10531000050713068C0063435D1323225C01B69AD4
:10532000D6C7BAC59D46328C63DBE600D001CA857C
:105330004E85EF4050086318053C130CC10E93775F
:105340000440B38A940191CF1D4DB38D4401A2470F
:1053500063980B1063970710B387440163F35701F9
:10536000BE8ABA5763C54701937714009DCBA257F5
:105370005247210C232CFCFED247232EFCFEBE47B5
:10538000BA97BEC7AE471D478507BEC5635BF7002A
:10539000D001CA854E85EF40100263160536130C06
:1053A000C10ED294B3875441BA54B3049A4063D324
:1053B0009700BE8463599002BE4723205C012322DC
:1053C0009C00A697BEC7AE471D47210C8507BEC5EA
:1053D000635BF700D001CA854E85EF40C07D631442
:1053E0000532130CC10EA68763D304008147BA545B
:1053F000B3049A409D8CE35390E6C14A9D4BAE475F
:1054000017C600001306468B2320CC003E478507B5
:1054100093068C00E3D59AD2410723225C01BAC7D8
:10542000BEC563DAFB00D001CA854E85EF40A07887
:10543000631B052CF411C114368CD1B7C10623228D
:10544000AC01B6C7BAC563DAED00D001CA854E8596
:10545000EF4060766319052AF011C11A328C4DB500
:10546000D9CFA247FD173EC4B2571257210C232CA7
:10547000FCFE9257232EFCFEBE47BA97BEC7AE472E
:105480008507BEC5635BFD00D001CA854E85EF4030
:105490008072631A0526130CC10E924733875D4153
:1054A00083C707006353F700BA87635AF0023E4789
:1054B00023205C012322FC003E97BAC72E47210C13
:1054C0000507BAC5635DED00D001CA854E853EDC97
:1054D000EF40606E63190522E257130CC10E3E8740
:1054E00063D3070001479247414883C70700998F5C
:1054F0006340F004924783C70700BE9A89BD924774
:10550000FD1BFD173EC28DB7C10623220C01B6C795
:10551000BAC5635DED00D001CA854E853EDCEF4023
:1055200080696312051EE257F0114148C117328CA1
:105530002E4797B50000938525782320BC00BE46F2
:10554000050713068C00E341F8FC2322FC00B69704
:10555000BEC7BAC5328CE35FEDF8D001CA854E856F
:10556000EF4060656311051A130CC10E61B7AE47B9
:10557000054723209C00050D8507930B8C0063468F
:105580004701937614006386061205472322EC0038
:10559000EAC7BEC51D47635BF700D001CA854E85CB
:1055A000EF40606163110516930BC10EA25752477D
:1055B000A10B23ACFBFED24723AEFBFEBE47BA973E
:1055C000BEC7AE471D478507BEC5635BF700D00168
:1055D000CA854E85EF40205E63170512930BC10EFE
:1055E000CE470C0108093EC9DE47930AFAFF02C103
:1055F0003ECBEE4702C302C53ECDFE4702C73ECFBB
:10560000EF60904729CDBE472E478504FD17D297FE
:10561000050723A09B0023A25B01BEC7BAC59D4717
:10562000A10B63DAE700D001CA854E85EF40A05890
:1056300079E9930BC10E5C1923A0FB00C2574257B6
:10564000138C8B0023A2FB00BE47BA97BEC7AE47A0
:105650001D478507BEC5E353F7C06FE09FFAE35CC3
:1056600050FDC1441D4C2E4717B600001306C664FA
:1056700023A0CB00BE47050793868B0063CA540165
:10568000D69723A25B01BEC7BAC59D47B68B51BF53
:10569000C10723A29B00BEC7BAC56359EC00D00165
:1056A000CA854E85EF40205139EDF411C11AB68BF1
:1056B0005DBF2322EC00EAC7BEC51D47E35DF7F6D8
:1056C0009DB7F24702573384E740E35C80B8C14A94
:1056D00097B400009384445D9D4BAE4723209C000B
:1056E0003E47850763C98A0223228C003A94A2C7E9
:1056F000BEC51D47E357F7B6D001CA854E85EF40BA
:10570000804BE30005B6630A0B8CDA854E85EFD03B
:10571000FFEF6FF08F8C410723225C01BAC7BEC533
:10572000210C63DAFB00D001CA854E85EF40A0480A
:1057300079F9130CC10E41144DB7DA854E85EFD0BF
:10574000FFECA1B6BE4799E36FF02F89D001CA855F
:105750004E85EF4040466FF04F88FD576392FDF451
:1057600063950CFAA54763E2A7FB130D0D03A3078E
:10577000A1199304F1186FF0CFF797C7FE5F9387D5
:10578000E7ABB2862E86AA8588436FE0FF9D83D75C
:10579000C500130101B8232C8146F59B231AF100A3
:1057A000FC512E84232A9146BED683D7E5002328B8
:1057B0002147232E1146231BF100DC4D2A8902D0FC
:1057C0003ED2DC512C003ED69C183EC43ECC930702
:1057D00000403EC83ECEEFE03F99AA8463480500F2
:1057E0002C004A85EFD07FB211C1FD54835741018F
:1057F00093F7070499C78357C40093E70704231658
:10580000F4008320C14703248147268503290147EB
:1058100083244147130101488280011122CC26CA0A
:105820004AC806CE4EC62A89AE84328409C51C5D9C
:1058300099E3EFD01FBF1C4C1CC48357C400A18B3D
:10584000ADCB1C48BDC78317C40093F9F40F93F484
:10585000F40F13972701635407061C4808401D8D59
:105860005C486347F500A2854A85EFD01FAA31E561
:105870001C440505FD171CC41C401387170018C0E5
:10588000238037015C486389A7008357C400858B58
:1058900089CBA9476397F400A2854A85EFD0FFA67C
:1058A00009EDF240624426854249D244B24905617D
:1058B0008280A2854A85A92859D5FD54DDB709679C
:1058C000D98F2316F4007C5079777D17F98F7CD01F
:1058D00069B797C7FE5F938767962E86AA85884328
:1058E0002DBF411122C42A842E85B285368623A479
:1058F000018806C6EF80F047FD576317F5009387D0
:1059000081889C4391C31CC0B240224441018280E3
:10591000411197C7FE5F9387679226C2AA84884386
:1059200022C406C62E8409C51C5D99E3EFD07FAF63
:105930000317C40093170701C18393F68700A9EEEC
:1059400093F6070189EEA5479CC013670704231649
:10595000E4007D55B2402244924441018280918B03
:1059600095C70C5891C9930704046385F5002685F3
:10597000EFD0DFC9232804028357C4002322040088
:1059800093F7B7FD2316F4001C481CC08357C400CE
:1059900093E787002316F4001C4889EF8357C4005F
:1059A0001307002093F707286386E700A285268562
:1059B000EF1010378357C40013F7170005C75C4872
:1059C00023240400B307F0401CCC1C480145D9F344
:1059D0008317C40013F7070835DF93E7070423167E
:1059E000F40085BF898B014791E3584818C4F1BF83
:1059F000411122C42A842E8523A4018806C6EF8083
:105A00001025FD576317F500938781889C4391C348
:105A10001CC0B240224441018280411106C622C40A
:105A200026C24AC089E90149B24022444A859244CB
:105A3000024941018280AA842E8409C51C5D99E334
:105A4000EFD03F9E8317C400F9DFA2852685EFD0F3
:105A50002FF65C542A8999C74C4C2685829763534C
:105A600005007D598357C40093F7070889C70C4880
:105A70002685EFD0BFB90C5891C9930704046385FC
:105A8000F5002685EFD09FB8232804026C4091C50D
:105A90002685EFD0BFB723220404EFD03FA72316FB
:105AA0000400EFD0DFA649B797B7FE5F9387077969
:105AB000AA8588439DB71C4681E781473E85828041
:105AC00083D7C5005D71A2C4CAC056DA86C6A6C215
:105AD0004EDE52DC5AD85ED662D466D26AD06ECE22
:105AE000A18BB28A2E842A89D9CF9C49C9CF8357EA
:105AF000C40003AA0A0013F727006317070E858B5B
:105B000063800716814B0145014B81496388092455
:105B100001ED4E86A9455A85EF10F02F938B1900A1
